{
	"contracts/abCodeERC404.sol": {
		"ERC404Token": {
			"abi": [
				{
					"anonymous": false,
					"inputs": [
						{
							"indexed": true,
							"internalType": "address",
							"name": "to",
							"type": "address"
						},
						{
							"indexed": true,
							"internalType": "uint256",
							"name": "tokenId",
							"type": "uint256"
						},
						{
							"indexed": false,
							"internalType": "string",
							"name": "metadataURI",
							"type": "string"
						}
					],
					"name": "TokenMinted",
					"type": "event"
				},
				{
					"inputs": [
						{
							"internalType": "uint256",
							"name": "tokenId",
							"type": "uint256"
						}
					],
					"name": "getMetadata",
					"outputs": [
						{
							"internalType": "string",
							"name": "",
							"type": "string"
						}
					],
					"stateMutability": "view",
					"type": "function"
				},
				{
					"inputs": [
						{
							"internalType": "uint256",
							"name": "tokenId",
							"type": "uint256"
						}
					],
					"name": "getTokenOwner",
					"outputs": [
						{
							"internalType": "address",
							"name": "",
							"type": "address"
						}
					],
					"stateMutability": "view",
					"type": "function"
				},
				{
					"inputs": [
						{
							"internalType": "address",
							"name": "to",
							"type": "address"
						},
						{
							"internalType": "string",
							"name": "metadataURI",
							"type": "string"
						}
					],
					"name": "mint",
					"outputs": [],
					"stateMutability": "nonpayable",
					"type": "function"
				},
				{
					"inputs": [],
					"name": "name",
					"outputs": [
						{
							"internalType": "string",
							"name": "",
							"type": "string"
						}
					],
					"stateMutability": "view",
					"type": "function"
				},
				{
					"inputs": [],
					"name": "symbol",
					"outputs": [
						{
							"internalType": "string",
							"name": "",
							"type": "string"
						}
					],
					"stateMutability": "view",
					"type": "function"
				},
				{
					"inputs": [],
					"name": "totalSupply",
					"outputs": [
						{
							"internalType": "uint256",
							"name": "",
							"type": "uint256"
						}
					],
					"stateMutability": "view",
					"type": "function"
				}
			],
			"devdoc": {
				"details": "Implements the abstract ERC404 contract",
				"kind": "dev",
				"methods": {},
				"title": "Implementation of ERC404",
				"version": 1
			},
			"evm": {
				"assembly": "    /* \"contracts/abCodeERC404.sol\":176:1778  contract ERC404Token is ERC404 {... */\n  mstore(0x40, 0x80)\n    /* \"contracts/abCodeERC404.sol\":534:564  string public name = \"TERC404\" */\n  mload(0x40)\n  dup1\n  0x40\n  add\n  0x40\n  mstore\n  dup1\n  0x07\n  dup2\n  mstore\n  0x20\n  add\n  0x5445524334303400000000000000000000000000000000000000000000000000\n  dup2\n  mstore\n  pop\n  0x02\n  swap1\n  dup2\n  tag_1\n  swap2\n  swap1\n  tag_2\n  jump\t// in\ntag_1:\n  pop\n    /* \"contracts/abCodeERC404.sol\":571:598  string public symbol = \"T4\" */\n  mload(0x40)\n  dup1\n  0x40\n  add\n  0x40\n  mstore\n  dup1\n  0x02\n  dup2\n  mstore\n  0x20\n  add\n  0x5434000000000000000000000000000000000000000000000000000000000000\n  dup2\n  mstore\n  pop\n  0x03\n  swap1\n  dup2\n  tag_3\n  swap2\n  swap1\n  tag_2\n  jump\t// in\ntag_3:\n  pop\n    /* \"contracts/abCodeERC404.sol\":176:1778  contract ERC404Token is ERC404 {... */\n  callvalue\n  dup1\n  iszero\n  tag_4\n  jumpi\n  0x00\n  dup1\n  revert\ntag_4:\n  pop\n  jump(tag_5)\n    /* \"#utility.yul\":7:106   */\ntag_6:\n    /* \"#utility.yul\":59:65   */\n  0x00\n    /* \"#utility.yul\":93:98   */\n  dup2\n    /* \"#utility.yul\":87:99   */\n  mload\n    /* \"#utility.yul\":77:99   */\n  swap1\n  pop\n    /* \"#utility.yul\":7:106   */\n  swap2\n  swap1\n  pop\n  jump\t// out\n    /* \"#utility.yul\":112:292   */\ntag_7:\n    /* \"#utility.yul\":160:237   */\n  0x4e487b7100000000000000000000000000000000000000000000000000000000\n    /* \"#utility.yul\":157:158   */\n  0x00\n    /* \"#utility.yul\":150:238   */\n  mstore\n    /* \"#utility.yul\":257:261   */\n  0x41\n    /* \"#utility.yul\":254:255   */\n  0x04\n    /* \"#utility.yul\":247:262   */\n  mstore\n    /* \"#utility.yul\":281:285   */\n  0x24\n    /* \"#utility.yul\":278:279   */\n  0x00\n    /* \"#utility.yul\":271:286   */\n  revert\n    /* \"#utility.yul\":298:478   */\ntag_8:\n    /* \"#utility.yul\":346:423   */\n  0x4e487b7100000000000000000000000000000000000000000000000000000000\n    /* \"#utility.yul\":343:344   */\n  0x00\n    /* \"#utility.yul\":336:424   */\n  mstore\n    /* \"#utility.yul\":443:447   */\n  0x22\n    /* \"#utility.yul\":440:441   */\n  0x04\n    /* \"#utility.yul\":433:448   */\n  mstore\n    /* \"#utility.yul\":467:471   */\n  0x24\n    /* \"#utility.yul\":464:465   */\n  0x00\n    /* \"#utility.yul\":457:472   */\n  revert\n    /* \"#utility.yul\":484:804   */\ntag_9:\n    /* \"#utility.yul\":528:534   */\n  0x00\n    /* \"#utility.yul\":565:566   */\n  0x02\n    /* \"#utility.yul\":559:563   */\n  dup3\n    /* \"#utility.yul\":555:567   */\n  div\n    /* \"#utility.yul\":545:567   */\n  swap1\n  pop\n    /* \"#utility.yul\":612:613   */\n  0x01\n    /* \"#utility.yul\":606:610   */\n  dup3\n    /* \"#utility.yul\":602:614   */\n  and\n    /* \"#utility.yul\":633:651   */\n  dup1\n    /* \"#utility.yul\":623:704   */\n  tag_31\n  jumpi\n    /* \"#utility.yul\":689:693   */\n  0x7f\n    /* \"#utility.yul\":681:687   */\n  dup3\n    /* \"#utility.yul\":677:694   */\n  and\n    /* \"#utility.yul\":667:694   */\n  swap2\n  pop\n    /* \"#utility.yul\":623:704   */\ntag_31:\n    /* \"#utility.yul\":751:753   */\n  0x20\n    /* \"#utility.yul\":743:749   */\n  dup3\n    /* \"#utility.yul\":740:754   */\n  lt\n    /* \"#utility.yul\":720:738   */\n  dup2\n    /* \"#utility.yul\":717:755   */\n  sub\n    /* \"#utility.yul\":714:798   */\n  tag_32\n  jumpi\n    /* \"#utility.yul\":770:788   */\n  tag_33\n  tag_8\n  jump\t// in\ntag_33:\n    /* \"#utility.yul\":714:798   */\ntag_32:\n    /* \"#utility.yul\":535:804   */\n  pop\n    /* \"#utility.yul\":484:804   */\n  swap2\n  swap1\n  pop\n  jump\t// out\n    /* \"#utility.yul\":810:951   */\ntag_10:\n    /* \"#utility.yul\":859:863   */\n  0x00\n    /* \"#utility.yul\":882:885   */\n  dup2\n    /* \"#utility.yul\":874:885   */\n  swap1\n  pop\n    /* \"#utility.yul\":905:908   */\n  dup2\n    /* \"#utility.yul\":902:903   */\n  0x00\n    /* \"#utility.yul\":895:909   */\n  mstore\n    /* \"#utility.yul\":939:943   */\n  0x20\n    /* \"#utility.yul\":936:937   */\n  0x00\n    /* \"#utility.yul\":926:944   */\n  keccak256\n    /* \"#utility.yul\":918:944   */\n  swap1\n  pop\n    /* \"#utility.yul\":810:951   */\n  swap2\n  swap1\n  pop\n  jump\t// out\n    /* \"#utility.yul\":957:1050   */\ntag_11:\n    /* \"#utility.yul\":994:1000   */\n  0x00\n    /* \"#utility.yul\":1041:1043   */\n  0x20\n    /* \"#utility.yul\":1036:1038   */\n  0x1f\n    /* \"#utility.yul\":1029:1034   */\n  dup4\n    /* \"#utility.yul\":1025:1039   */\n  add\n    /* \"#utility.yul\":1021:1044   */\n  div\n    /* \"#utility.yul\":1011:1044   */\n  swap1\n  pop\n    /* \"#utility.yul\":957:1050   */\n  swap2\n  swap1\n  pop\n  jump\t// out\n    /* \"#utility.yul\":1056:1163   */\ntag_12:\n    /* \"#utility.yul\":1100:1108   */\n  0x00\n    /* \"#utility.yul\":1150:1155   */\n  dup3\n    /* \"#utility.yul\":1144:1148   */\n  dup3\n    /* \"#utility.yul\":1140:1156   */\n  shl\n    /* \"#utility.yul\":1119:1156   */\n  swap1\n  pop\n    /* \"#utility.yul\":1056:1163   */\n  swap3\n  swap2\n  pop\n  pop\n  jump\t// out\n    /* \"#utility.yul\":1169:1562   */\ntag_13:\n    /* \"#utility.yul\":1238:1244   */\n  0x00\n    /* \"#utility.yul\":1288:1289   */\n  0x08\n    /* \"#utility.yul\":1276:1286   */\n  dup4\n    /* \"#utility.yul\":1272:1290   */\n  mul\n    /* \"#utility.yul\":1311:1408   */\n  tag_38\n    /* \"#utility.yul\":1341:1407   */\n  0xffffffffffffffffffffffffffffffffffffffffffffffffffffffffffffffff\n    /* \"#utility.yul\":1330:1339   */\n  dup3\n    /* \"#utility.yul\":1311:1408   */\n  tag_12\n  jump\t// in\ntag_38:\n    /* \"#utility.yul\":1429:1468   */\n  tag_39\n    /* \"#utility.yul\":1459:1467   */\n  dup7\n    /* \"#utility.yul\":1448:1457   */\n  dup4\n    /* \"#utility.yul\":1429:1468   */\n  tag_12\n  jump\t// in\ntag_39:\n    /* \"#utility.yul\":1417:1468   */\n  swap6\n  pop\n    /* \"#utility.yul\":1501:1505   */\n  dup1\n    /* \"#utility.yul\":1497:1506   */\n  not\n    /* \"#utility.yul\":1490:1495   */\n  dup5\n    /* \"#utility.yul\":1486:1507   */\n  and\n    /* \"#utility.yul\":1477:1507   */\n  swap4\n  pop\n    /* \"#utility.yul\":1550:1554   */\n  dup1\n    /* \"#utility.yul\":1540:1548   */\n  dup7\n    /* \"#utility.yul\":1536:1555   */\n  and\n    /* \"#utility.yul\":1529:1534   */\n  dup5\n    /* \"#utility.yul\":1526:1556   */\n  or\n    /* \"#utility.yul\":1516:1556   */\n  swap3\n  pop\n    /* \"#utility.yul\":1245:1562   */\n  pop\n  pop\n    /* \"#utility.yul\":1169:1562   */\n  swap4\n  swap3\n  pop\n  pop\n  pop\n  jump\t// out\n    /* \"#utility.yul\":1568:1645   */\ntag_14:\n    /* \"#utility.yul\":1605:1612   */\n  0x00\n    /* \"#utility.yul\":1634:1639   */\n  dup2\n    /* \"#utility.yul\":1623:1639   */\n  swap1\n  pop\n    /* \"#utility.yul\":1568:1645   */\n  swap2\n  swap1\n  pop\n  jump\t// out\n    /* \"#utility.yul\":1651:1711   */\ntag_15:\n    /* \"#utility.yul\":1679:1682   */\n  0x00\n    /* \"#utility.yul\":1700:1705   */\n  dup2\n    /* \"#utility.yul\":1693:1705   */\n  swap1\n  pop\n    /* \"#utility.yul\":1651:1711   */\n  swap2\n  swap1\n  pop\n  jump\t// out\n    /* \"#utility.yul\":1717:1859   */\ntag_16:\n    /* \"#utility.yul\":1767:1776   */\n  0x00\n    /* \"#utility.yul\":1800:1853   */\n  tag_43\n    /* \"#utility.yul\":1818:1852   */\n  tag_44\n    /* \"#utility.yul\":1827:1851   */\n  tag_45\n    /* \"#utility.yul\":1845:1850   */\n  dup5\n    /* \"#utility.yul\":1827:1851   */\n  tag_14\n  jump\t// in\ntag_45:\n    /* \"#utility.yul\":1818:1852   */\n  tag_15\n  jump\t// in\ntag_44:\n    /* \"#utility.yul\":1800:1853   */\n  tag_14\n  jump\t// in\ntag_43:\n    /* \"#utility.yul\":1787:1853   */\n  swap1\n  pop\n    /* \"#utility.yul\":1717:1859   */\n  swap2\n  swap1\n  pop\n  jump\t// out\n    /* \"#utility.yul\":1865:1940   */\ntag_17:\n    /* \"#utility.yul\":1908:1911   */\n  0x00\n    /* \"#utility.yul\":1929:1934   */\n  dup2\n    /* \"#utility.yul\":1922:1934   */\n  swap1\n  pop\n    /* \"#utility.yul\":1865:1940   */\n  swap2\n  swap1\n  pop\n  jump\t// out\n    /* \"#utility.yul\":1946:2215   */\ntag_18:\n    /* \"#utility.yul\":2056:2095   */\n  tag_48\n    /* \"#utility.yul\":2087:2094   */\n  dup4\n    /* \"#utility.yul\":2056:2095   */\n  tag_16\n  jump\t// in\ntag_48:\n    /* \"#utility.yul\":2117:2208   */\n  tag_49\n    /* \"#utility.yul\":2166:2207   */\n  tag_50\n    /* \"#utility.yul\":2190:2206   */\n  dup3\n    /* \"#utility.yul\":2166:2207   */\n  tag_17\n  jump\t// in\ntag_50:\n    /* \"#utility.yul\":2158:2164   */\n  dup5\n    /* \"#utility.yul\":2151:2155   */\n  dup5\n    /* \"#utility.yul\":2145:2156   */\n  sload\n    /* \"#utility.yul\":2117:2208   */\n  tag_13\n  jump\t// in\ntag_49:\n    /* \"#utility.yul\":2111:2115   */\n  dup3\n    /* \"#utility.yul\":2104:2209   */\n  sstore\n    /* \"#utility.yul\":2022:2215   */\n  pop\n    /* \"#utility.yul\":1946:2215   */\n  pop\n  pop\n  pop\n  jump\t// out\n    /* \"#utility.yul\":2221:2294   */\ntag_19:\n    /* \"#utility.yul\":2266:2269   */\n  0x00\n    /* \"#utility.yul\":2221:2294   */\n  swap1\n  jump\t// out\n    /* \"#utility.yul\":2300:2489   */\ntag_20:\n    /* \"#utility.yul\":2377:2409   */\n  tag_53\n  tag_19\n  jump\t// in\ntag_53:\n    /* \"#utility.yul\":2418:2483   */\n  tag_54\n    /* \"#utility.yul\":2476:2482   */\n  dup2\n    /* \"#utility.yul\":2468:2474   */\n  dup5\n    /* \"#utility.yul\":2462:2466   */\n  dup5\n    /* \"#utility.yul\":2418:2483   */\n  tag_18\n  jump\t// in\ntag_54:\n    /* \"#utility.yul\":2353:2489   */\n  pop\n    /* \"#utility.yul\":2300:2489   */\n  pop\n  pop\n  jump\t// out\n    /* \"#utility.yul\":2495:2681   */\ntag_21:\n    /* \"#utility.yul\":2555:2675   */\ntag_56:\n    /* \"#utility.yul\":2572:2575   */\n  dup2\n    /* \"#utility.yul\":2565:2570   */\n  dup2\n    /* \"#utility.yul\":2562:2576   */\n  lt\n    /* \"#utility.yul\":2555:2675   */\n  iszero\n  tag_58\n  jumpi\n    /* \"#utility.yul\":2626:2665   */\n  tag_59\n    /* \"#utility.yul\":2663:2664   */\n  0x00\n    /* \"#utility.yul\":2656:2661   */\n  dup3\n    /* \"#utility.yul\":2626:2665   */\n  tag_20\n  jump\t// in\ntag_59:\n    /* \"#utility.yul\":2599:2600   */\n  0x01\n    /* \"#utility.yul\":2592:2597   */\n  dup2\n    /* \"#utility.yul\":2588:2601   */\n  add\n    /* \"#utility.yul\":2579:2601   */\n  swap1\n  pop\n    /* \"#utility.yul\":2555:2675   */\n  jump(tag_56)\ntag_58:\n    /* \"#utility.yul\":2495:2681   */\n  pop\n  pop\n  jump\t// out\n    /* \"#utility.yul\":2687:3230   */\ntag_22:\n    /* \"#utility.yul\":2788:2790   */\n  0x1f\n    /* \"#utility.yul\":2783:2786   */\n  dup3\n    /* \"#utility.yul\":2780:2791   */\n  gt\n    /* \"#utility.yul\":2777:3223   */\n  iszero\n  tag_61\n  jumpi\n    /* \"#utility.yul\":2822:2860   */\n  tag_62\n    /* \"#utility.yul\":2854:2859   */\n  dup2\n    /* \"#utility.yul\":2822:2860   */\n  tag_10\n  jump\t// in\ntag_62:\n    /* \"#utility.yul\":2906:2935   */\n  tag_63\n    /* \"#utility.yul\":2924:2934   */\n  dup5\n    /* \"#utility.yul\":2906:2935   */\n  tag_11\n  jump\t// in\ntag_63:\n    /* \"#utility.yul\":2896:2904   */\n  dup2\n    /* \"#utility.yul\":2892:2936   */\n  add\n    /* \"#utility.yul\":3089:3091   */\n  0x20\n    /* \"#utility.yul\":3077:3087   */\n  dup6\n    /* \"#utility.yul\":3074:3092   */\n  lt\n    /* \"#utility.yul\":3071:3120   */\n  iszero\n  tag_64\n  jumpi\n    /* \"#utility.yul\":3110:3118   */\n  dup2\n    /* \"#utility.yul\":3095:3118   */\n  swap1\n  pop\n    /* \"#utility.yul\":3071:3120   */\ntag_64:\n    /* \"#utility.yul\":3133:3213   */\n  tag_65\n    /* \"#utility.yul\":3189:3211   */\n  tag_66\n    /* \"#utility.yul\":3207:3210   */\n  dup6\n    /* \"#utility.yul\":3189:3211   */\n  tag_11\n  jump\t// in\ntag_66:\n    /* \"#utility.yul\":3179:3187   */\n  dup4\n    /* \"#utility.yul\":3175:3212   */\n  add\n    /* \"#utility.yul\":3162:3173   */\n  dup3\n    /* \"#utility.yul\":3133:3213   */\n  tag_21\n  jump\t// in\ntag_65:\n    /* \"#utility.yul\":2792:3223   */\n  pop\n  pop\n    /* \"#utility.yul\":2777:3223   */\ntag_61:\n    /* \"#utility.yul\":2687:3230   */\n  pop\n  pop\n  pop\n  jump\t// out\n    /* \"#utility.yul\":3236:3353   */\ntag_23:\n    /* \"#utility.yul\":3290:3298   */\n  0x00\n    /* \"#utility.yul\":3340:3345   */\n  dup3\n    /* \"#utility.yul\":3334:3338   */\n  dup3\n    /* \"#utility.yul\":3330:3346   */\n  shr\n    /* \"#utility.yul\":3309:3346   */\n  swap1\n  pop\n    /* \"#utility.yul\":3236:3353   */\n  swap3\n  swap2\n  pop\n  pop\n  jump\t// out\n    /* \"#utility.yul\":3359:3528   */\ntag_24:\n    /* \"#utility.yul\":3403:3409   */\n  0x00\n    /* \"#utility.yul\":3436:3487   */\n  tag_69\n    /* \"#utility.yul\":3484:3485   */\n  0x00\n    /* \"#utility.yul\":3480:3486   */\n  not\n    /* \"#utility.yul\":3472:3477   */\n  dup5\n    /* \"#utility.yul\":3469:3470   */\n  0x08\n    /* \"#utility.yul\":3465:3478   */\n  mul\n    /* \"#utility.yul\":3436:3487   */\n  tag_23\n  jump\t// in\ntag_69:\n    /* \"#utility.yul\":3432:3488   */\n  not\n    /* \"#utility.yul\":3517:3521   */\n  dup1\n    /* \"#utility.yul\":3511:3515   */\n  dup4\n    /* \"#utility.yul\":3507:3522   */\n  and\n    /* \"#utility.yul\":3497:3522   */\n  swap2\n  pop\n    /* \"#utility.yul\":3410:3528   */\n  pop\n    /* \"#utility.yul\":3359:3528   */\n  swap3\n  swap2\n  pop\n  pop\n  jump\t// out\n    /* \"#utility.yul\":3533:3828   */\ntag_25:\n    /* \"#utility.yul\":3609:3613   */\n  0x00\n    /* \"#utility.yul\":3755:3784   */\n  tag_71\n    /* \"#utility.yul\":3780:3783   */\n  dup4\n    /* \"#utility.yul\":3774:3778   */\n  dup4\n    /* \"#utility.yul\":3755:3784   */\n  tag_24\n  jump\t// in\ntag_71:\n    /* \"#utility.yul\":3747:3784   */\n  swap2\n  pop\n    /* \"#utility.yul\":3817:3820   */\n  dup3\n    /* \"#utility.yul\":3814:3815   */\n  0x02\n    /* \"#utility.yul\":3810:3821   */\n  mul\n    /* \"#utility.yul\":3804:3808   */\n  dup3\n    /* \"#utility.yul\":3801:3822   */\n  or\n    /* \"#utility.yul\":3793:3822   */\n  swap1\n  pop\n    /* \"#utility.yul\":3533:3828   */\n  swap3\n  swap2\n  pop\n  pop\n  jump\t// out\n    /* \"#utility.yul\":3833:5228   */\ntag_2:\n    /* \"#utility.yul\":3950:3987   */\n  tag_73\n    /* \"#utility.yul\":3983:3986   */\n  dup3\n    /* \"#utility.yul\":3950:3987   */\n  tag_6\n  jump\t// in\ntag_73:\n    /* \"#utility.yul\":4052:4070   */\n  0xffffffffffffffff\n    /* \"#utility.yul\":4044:4050   */\n  dup2\n    /* \"#utility.yul\":4041:4071   */\n  gt\n    /* \"#utility.yul\":4038:4094   */\n  iszero\n  tag_74\n  jumpi\n    /* \"#utility.yul\":4074:4092   */\n  tag_75\n  tag_7\n  jump\t// in\ntag_75:\n    /* \"#utility.yul\":4038:4094   */\ntag_74:\n    /* \"#utility.yul\":4118:4156   */\n  tag_76\n    /* \"#utility.yul\":4150:4154   */\n  dup3\n    /* \"#utility.yul\":4144:4155   */\n  sload\n    /* \"#utility.yul\":4118:4156   */\n  tag_9\n  jump\t// in\ntag_76:\n    /* \"#utility.yul\":4203:4270   */\n  tag_77\n    /* \"#utility.yul\":4263:4269   */\n  dup3\n    /* \"#utility.yul\":4255:4261   */\n  dup3\n    /* \"#utility.yul\":4249:4253   */\n  dup6\n    /* \"#utility.yul\":4203:4270   */\n  tag_22\n  jump\t// in\ntag_77:\n    /* \"#utility.yul\":4297:4298   */\n  0x00\n    /* \"#utility.yul\":4321:4325   */\n  0x20\n    /* \"#utility.yul\":4308:4325   */\n  swap1\n  pop\n    /* \"#utility.yul\":4353:4355   */\n  0x1f\n    /* \"#utility.yul\":4345:4351   */\n  dup4\n    /* \"#utility.yul\":4342:4356   */\n  gt\n    /* \"#utility.yul\":4370:4371   */\n  0x01\n    /* \"#utility.yul\":4365:4983   */\n  dup2\n  eq\n  tag_79\n  jumpi\n    /* \"#utility.yul\":5027:5028   */\n  0x00\n    /* \"#utility.yul\":5044:5050   */\n  dup5\n    /* \"#utility.yul\":5041:5118   */\n  iszero\n  tag_80\n  jumpi\n    /* \"#utility.yul\":5093:5102   */\n  dup3\n    /* \"#utility.yul\":5088:5091   */\n  dup8\n    /* \"#utility.yul\":5084:5103   */\n  add\n    /* \"#utility.yul\":5078:5104   */\n  mload\n    /* \"#utility.yul\":5069:5104   */\n  swap1\n  pop\n    /* \"#utility.yul\":5041:5118   */\ntag_80:\n    /* \"#utility.yul\":5144:5211   */\n  tag_81\n    /* \"#utility.yul\":5204:5210   */\n  dup6\n    /* \"#utility.yul\":5197:5202   */\n  dup3\n    /* \"#utility.yul\":5144:5211   */\n  tag_25\n  jump\t// in\ntag_81:\n    /* \"#utility.yul\":5138:5142   */\n  dup7\n    /* \"#utility.yul\":5131:5212   */\n  sstore\n    /* \"#utility.yul\":5000:5222   */\n  pop\n    /* \"#utility.yul\":4335:5222   */\n  jump(tag_78)\n    /* \"#utility.yul\":4365:4983   */\ntag_79:\n    /* \"#utility.yul\":4417:4421   */\n  0x1f\n    /* \"#utility.yul\":4413:4422   */\n  not\n    /* \"#utility.yul\":4405:4411   */\n  dup5\n    /* \"#utility.yul\":4401:4423   */\n  and\n    /* \"#utility.yul\":4451:4488   */\n  tag_82\n    /* \"#utility.yul\":4483:4487   */\n  dup7\n    /* \"#utility.yul\":4451:4488   */\n  tag_10\n  jump\t// in\ntag_82:\n    /* \"#utility.yul\":4510:4511   */\n  0x00\n    /* \"#utility.yul\":4524:4732   */\ntag_83:\n    /* \"#utility.yul\":4538:4545   */\n  dup3\n    /* \"#utility.yul\":4535:4536   */\n  dup2\n    /* \"#utility.yul\":4532:4546   */\n  lt\n    /* \"#utility.yul\":4524:4732   */\n  iszero\n  tag_85\n  jumpi\n    /* \"#utility.yul\":4617:4626   */\n  dup5\n    /* \"#utility.yul\":4612:4615   */\n  dup10\n    /* \"#utility.yul\":4608:4627   */\n  add\n    /* \"#utility.yul\":4602:4628   */\n  mload\n    /* \"#utility.yul\":4594:4600   */\n  dup3\n    /* \"#utility.yul\":4587:4629   */\n  sstore\n    /* \"#utility.yul\":4668:4669   */\n  0x01\n    /* \"#utility.yul\":4660:4666   */\n  dup3\n    /* \"#utility.yul\":4656:4670   */\n  add\n    /* \"#utility.yul\":4646:4670   */\n  swap2\n  pop\n    /* \"#utility.yul\":4715:4717   */\n  0x20\n    /* \"#utility.yul\":4704:4713   */\n  dup6\n    /* \"#utility.yul\":4700:4718   */\n  add\n    /* \"#utility.yul\":4687:4718   */\n  swap5\n  pop\n    /* \"#utility.yul\":4561:4565   */\n  0x20\n    /* \"#utility.yul\":4558:4559   */\n  dup2\n    /* \"#utility.yul\":4554:4566   */\n  add\n    /* \"#utility.yul\":4549:4566   */\n  swap1\n  pop\n    /* \"#utility.yul\":4524:4732   */\n  jump(tag_83)\ntag_85:\n    /* \"#utility.yul\":4760:4766   */\n  dup7\n    /* \"#utility.yul\":4751:4758   */\n  dup4\n    /* \"#utility.yul\":4748:4767   */\n  lt\n    /* \"#utility.yul\":4745:4924   */\n  iszero\n  tag_86\n  jumpi\n    /* \"#utility.yul\":4818:4827   */\n  dup5\n    /* \"#utility.yul\":4813:4816   */\n  dup10\n    /* \"#utility.yul\":4809:4828   */\n  add\n    /* \"#utility.yul\":4803:4829   */\n  mload\n    /* \"#utility.yul\":4861:4909   */\n  tag_87\n    /* \"#utility.yul\":4903:4907   */\n  0x1f\n    /* \"#utility.yul\":4895:4901   */\n  dup10\n    /* \"#utility.yul\":4891:4908   */\n  and\n    /* \"#utility.yul\":4880:4889   */\n  dup3\n    /* \"#utility.yul\":4861:4909   */\n  tag_24\n  jump\t// in\ntag_87:\n    /* \"#utility.yul\":4853:4859   */\n  dup4\n    /* \"#utility.yul\":4846:4910   */\n  sstore\n    /* \"#utility.yul\":4768:4924   */\n  pop\n    /* \"#utility.yul\":4745:4924   */\ntag_86:\n    /* \"#utility.yul\":4970:4971   */\n  0x01\n    /* \"#utility.yul\":4966:4967   */\n  0x02\n    /* \"#utility.yul\":4958:4964   */\n  dup9\n    /* \"#utility.yul\":4954:4968   */\n  mul\n    /* \"#utility.yul\":4950:4972   */\n  add\n    /* \"#utility.yul\":4944:4948   */\n  dup9\n    /* \"#utility.yul\":4937:4973   */\n  sstore\n    /* \"#utility.yul\":4372:4983   */\n  pop\n  pop\n  pop\n    /* \"#utility.yul\":4335:5222   */\ntag_78:\n  pop\n    /* \"#utility.yul\":3925:5228   */\n  pop\n  pop\n  pop\n    /* \"#utility.yul\":3833:5228   */\n  pop\n  pop\n  jump\t// out\n    /* \"contracts/abCodeERC404.sol\":176:1778  contract ERC404Token is ERC404 {... */\ntag_5:\n  dataSize(sub_0)\n  dup1\n  dataOffset(sub_0)\n  0x00\n  codecopy\n  0x00\n  return\nstop\n\nsub_0: assembly {\n        /* \"contracts/abCodeERC404.sol\":176:1778  contract ERC404Token is ERC404 {... */\n      mstore(0x40, 0x80)\n      callvalue\n      dup1\n      iszero\n      tag_1\n      jumpi\n      0x00\n      dup1\n      revert\n    tag_1:\n      pop\n      jumpi(tag_2, lt(calldatasize, 0x04))\n      shr(0xe0, calldataload(0x00))\n      dup1\n      0x06fdde03\n      eq\n      tag_3\n      jumpi\n      dup1\n      0x18160ddd\n      eq\n      tag_4\n      jumpi\n      dup1\n      0x95d89b41\n      eq\n      tag_5\n      jumpi\n      dup1\n      0xa574cea4\n      eq\n      tag_6\n      jumpi\n      dup1\n      0xa5cd761f\n      eq\n      tag_7\n      jumpi\n      dup1\n      0xd0def521\n      eq\n      tag_8\n      jumpi\n    tag_2:\n      0x00\n      dup1\n      revert\n        /* \"contracts/abCodeERC404.sol\":534:564  string public name = \"TERC404\" */\n    tag_3:\n      tag_9\n      tag_10\n      jump\t// in\n    tag_9:\n      mload(0x40)\n      tag_11\n      swap2\n      swap1\n      tag_12\n      jump\t// in\n    tag_11:\n      mload(0x40)\n      dup1\n      swap2\n      sub\n      swap1\n      return\n        /* \"contracts/abCodeERC404.sol\":1675:1775  function totalSupply() public view override returns (uint256) {... */\n    tag_4:\n      tag_13\n      tag_14\n      jump\t// in\n    tag_13:\n      mload(0x40)\n      tag_15\n      swap2\n      swap1\n      tag_16\n      jump\t// in\n    tag_15:\n      mload(0x40)\n      dup1\n      swap2\n      sub\n      swap1\n      return\n        /* \"contracts/abCodeERC404.sol\":571:598  string public symbol = \"T4\" */\n    tag_5:\n      tag_17\n      tag_18\n      jump\t// in\n    tag_17:\n      mload(0x40)\n      tag_19\n      swap2\n      swap1\n      tag_12\n      jump\t// in\n    tag_19:\n      mload(0x40)\n      dup1\n      swap2\n      sub\n      swap1\n      return\n        /* \"contracts/abCodeERC404.sol\":1121:1346  function getMetadata(uint256 tokenId) public view override returns (string memory) {... */\n    tag_6:\n      tag_20\n      0x04\n      dup1\n      calldatasize\n      sub\n      dup2\n      add\n      swap1\n      tag_21\n      swap2\n      swap1\n      tag_22\n      jump\t// in\n    tag_21:\n      tag_23\n      jump\t// in\n    tag_20:\n      mload(0x40)\n      tag_24\n      swap2\n      swap1\n      tag_12\n      jump\t// in\n    tag_24:\n      mload(0x40)\n      dup1\n      swap2\n      sub\n      swap1\n      return\n        /* \"contracts/abCodeERC404.sol\":1400:1615  function getTokenOwner(uint256 tokenId) public view override returns (address) {... */\n    tag_7:\n      tag_25\n      0x04\n      dup1\n      calldatasize\n      sub\n      dup2\n      add\n      swap1\n      tag_26\n      swap2\n      swap1\n      tag_22\n      jump\t// in\n    tag_26:\n      tag_27\n      jump\t// in\n    tag_25:\n      mload(0x40)\n      tag_28\n      swap2\n      swap1\n      tag_29\n      jump\t// in\n    tag_28:\n      mload(0x40)\n      dup1\n      swap2\n      sub\n      swap1\n      return\n        /* \"contracts/abCodeERC404.sol\":685:1060  function mint(address to, string memory metadataURI) public override {... */\n    tag_8:\n      tag_30\n      0x04\n      dup1\n      calldatasize\n      sub\n      dup2\n      add\n      swap1\n      tag_31\n      swap2\n      swap1\n      tag_32\n      jump\t// in\n    tag_31:\n      tag_33\n      jump\t// in\n    tag_30:\n      stop\n        /* \"contracts/abCodeERC404.sol\":534:564  string public name = \"TERC404\" */\n    tag_10:\n      0x02\n      dup1\n      sload\n      tag_34\n      swap1\n      tag_35\n      jump\t// in\n    tag_34:\n      dup1\n      0x1f\n      add\n      0x20\n      dup1\n      swap2\n      div\n      mul\n      0x20\n      add\n      mload(0x40)\n      swap1\n      dup2\n      add\n      0x40\n      mstore\n      dup1\n      swap3\n      swap2\n      swap1\n      dup2\n      dup2\n      mstore\n      0x20\n      add\n      dup3\n      dup1\n      sload\n      tag_36\n      swap1\n      tag_35\n      jump\t// in\n    tag_36:\n      dup1\n      iszero\n      tag_37\n      jumpi\n      dup1\n      0x1f\n      lt\n      tag_38\n      jumpi\n      0x0100\n      dup1\n      dup4\n      sload\n      div\n      mul\n      dup4\n      mstore\n      swap2\n      0x20\n      add\n      swap2\n      jump(tag_37)\n    tag_38:\n      dup3\n      add\n      swap2\n      swap1\n      0x00\n      mstore\n      keccak256(0x00, 0x20)\n      swap1\n    tag_39:\n      dup2\n      sload\n      dup2\n      mstore\n      swap1\n      0x01\n      add\n      swap1\n      0x20\n      add\n      dup1\n      dup4\n      gt\n      tag_39\n      jumpi\n      dup3\n      swap1\n      sub\n      0x1f\n      and\n      dup3\n      add\n      swap2\n    tag_37:\n      pop\n      pop\n      pop\n      pop\n      pop\n      dup2\n      jump\t// out\n        /* \"contracts/abCodeERC404.sol\":1675:1775  function totalSupply() public view override returns (uint256) {... */\n    tag_14:\n        /* \"contracts/abCodeERC404.sol\":1728:1735  uint256 */\n      0x00\n        /* \"contracts/abCodeERC404.sol\":1755:1767  _totalSupply */\n      sload(0x01)\n        /* \"contracts/abCodeERC404.sol\":1748:1767  return _totalSupply */\n      swap1\n      pop\n        /* \"contracts/abCodeERC404.sol\":1675:1775  function totalSupply() public view override returns (uint256) {... */\n      swap1\n      jump\t// out\n        /* \"contracts/abCodeERC404.sol\":571:598  string public symbol = \"T4\" */\n    tag_18:\n      0x03\n      dup1\n      sload\n      tag_41\n      swap1\n      tag_35\n      jump\t// in\n    tag_41:\n      dup1\n      0x1f\n      add\n      0x20\n      dup1\n      swap2\n      div\n      mul\n      0x20\n      add\n      mload(0x40)\n      swap1\n      dup2\n      add\n      0x40\n      mstore\n      dup1\n      swap3\n      swap2\n      swap1\n      dup2\n      dup2\n      mstore\n      0x20\n      add\n      dup3\n      dup1\n      sload\n      tag_42\n      swap1\n      tag_35\n      jump\t// in\n    tag_42:\n      dup1\n      iszero\n      tag_43\n      jumpi\n      dup1\n      0x1f\n      lt\n      tag_44\n      jumpi\n      0x0100\n      dup1\n      dup4\n      sload\n      div\n      mul\n      dup4\n      mstore\n      swap2\n      0x20\n      add\n      swap2\n      jump(tag_43)\n    tag_44:\n      dup3\n      add\n      swap2\n      swap1\n      0x00\n      mstore\n      keccak256(0x00, 0x20)\n      swap1\n    tag_45:\n      dup2\n      sload\n      dup2\n      mstore\n      swap1\n      0x01\n      add\n      swap1\n      0x20\n      add\n      dup1\n      dup4\n      gt\n      tag_45\n      jumpi\n      dup3\n      swap1\n      sub\n      0x1f\n      and\n      dup3\n      add\n      swap2\n    tag_43:\n      pop\n      pop\n      pop\n      pop\n      pop\n      dup2\n      jump\t// out\n        /* \"contracts/abCodeERC404.sol\":1121:1346  function getMetadata(uint256 tokenId) public view override returns (string memory) {... */\n    tag_23:\n        /* \"contracts/abCodeERC404.sol\":1189:1202  string memory */\n      0x60\n        /* \"contracts/abCodeERC404.sol\":1257:1258  0 */\n      0x00\n        /* \"contracts/abCodeERC404.sol\":1223:1259  _tokens[tokenId].owner != address(0) */\n      0xffffffffffffffffffffffffffffffffffffffff\n      and\n        /* \"contracts/abCodeERC404.sol\":1223:1230  _tokens */\n      0x00\n        /* \"contracts/abCodeERC404.sol\":1223:1239  _tokens[tokenId] */\n      dup1\n        /* \"contracts/abCodeERC404.sol\":1231:1238  tokenId */\n      dup5\n        /* \"contracts/abCodeERC404.sol\":1223:1239  _tokens[tokenId] */\n      dup2\n      mstore\n      0x20\n      add\n      swap1\n      dup2\n      mstore\n      0x20\n      add\n      0x00\n      keccak256\n        /* \"contracts/abCodeERC404.sol\":1223:1245  _tokens[tokenId].owner */\n      0x00\n      add\n      0x00\n      swap1\n      sload\n      swap1\n      0x0100\n      exp\n      swap1\n      div\n      0xffffffffffffffffffffffffffffffffffffffff\n      and\n        /* \"contracts/abCodeERC404.sol\":1223:1259  _tokens[tokenId].owner != address(0) */\n      0xffffffffffffffffffffffffffffffffffffffff\n      and\n      sub\n        /* \"contracts/abCodeERC404.sol\":1215:1292  require(_tokens[tokenId].owner != address(0), \"ERC404: Token does not exist\") */\n      tag_47\n      jumpi\n      mload(0x40)\n      0x08c379a000000000000000000000000000000000000000000000000000000000\n      dup2\n      mstore\n      0x04\n      add\n      tag_48\n      swap1\n      tag_49\n      jump\t// in\n    tag_48:\n      mload(0x40)\n      dup1\n      swap2\n      sub\n      swap1\n      revert\n    tag_47:\n        /* \"contracts/abCodeERC404.sol\":1310:1317  _tokens */\n      0x00\n        /* \"contracts/abCodeERC404.sol\":1310:1326  _tokens[tokenId] */\n      dup1\n        /* \"contracts/abCodeERC404.sol\":1318:1325  tokenId */\n      dup4\n        /* \"contracts/abCodeERC404.sol\":1310:1326  _tokens[tokenId] */\n      dup2\n      mstore\n      0x20\n      add\n      swap1\n      dup2\n      mstore\n      0x20\n      add\n      0x00\n      keccak256\n        /* \"contracts/abCodeERC404.sol\":1310:1338  _tokens[tokenId].metadataURI */\n      0x01\n      add\n        /* \"contracts/abCodeERC404.sol\":1303:1338  return _tokens[tokenId].metadataURI */\n      dup1\n      sload\n      tag_50\n      swap1\n      tag_35\n      jump\t// in\n    tag_50:\n      dup1\n      0x1f\n      add\n      0x20\n      dup1\n      swap2\n      div\n      mul\n      0x20\n      add\n      mload(0x40)\n      swap1\n      dup2\n      add\n      0x40\n      mstore\n      dup1\n      swap3\n      swap2\n      swap1\n      dup2\n      dup2\n      mstore\n      0x20\n      add\n      dup3\n      dup1\n      sload\n      tag_51\n      swap1\n      tag_35\n      jump\t// in\n    tag_51:\n      dup1\n      iszero\n      tag_52\n      jumpi\n      dup1\n      0x1f\n      lt\n      tag_53\n      jumpi\n      0x0100\n      dup1\n      dup4\n      sload\n      div\n      mul\n      dup4\n      mstore\n      swap2\n      0x20\n      add\n      swap2\n      jump(tag_52)\n    tag_53:\n      dup3\n      add\n      swap2\n      swap1\n      0x00\n      mstore\n      keccak256(0x00, 0x20)\n      swap1\n    tag_54:\n      dup2\n      sload\n      dup2\n      mstore\n      swap1\n      0x01\n      add\n      swap1\n      0x20\n      add\n      dup1\n      dup4\n      gt\n      tag_54\n      jumpi\n      dup3\n      swap1\n      sub\n      0x1f\n      and\n      dup3\n      add\n      swap2\n    tag_52:\n      pop\n      pop\n      pop\n      pop\n      pop\n      swap1\n      pop\n        /* \"contracts/abCodeERC404.sol\":1121:1346  function getMetadata(uint256 tokenId) public view override returns (string memory) {... */\n      swap2\n      swap1\n      pop\n      jump\t// out\n        /* \"contracts/abCodeERC404.sol\":1400:1615  function getTokenOwner(uint256 tokenId) public view override returns (address) {... */\n    tag_27:\n        /* \"contracts/abCodeERC404.sol\":1470:1477  address */\n      0x00\n        /* \"contracts/abCodeERC404.sol\":1532:1533  0 */\n      dup1\n        /* \"contracts/abCodeERC404.sol\":1498:1534  _tokens[tokenId].owner != address(0) */\n      0xffffffffffffffffffffffffffffffffffffffff\n      and\n        /* \"contracts/abCodeERC404.sol\":1498:1505  _tokens */\n      0x00\n        /* \"contracts/abCodeERC404.sol\":1498:1514  _tokens[tokenId] */\n      dup1\n        /* \"contracts/abCodeERC404.sol\":1506:1513  tokenId */\n      dup5\n        /* \"contracts/abCodeERC404.sol\":1498:1514  _tokens[tokenId] */\n      dup2\n      mstore\n      0x20\n      add\n      swap1\n      dup2\n      mstore\n      0x20\n      add\n      0x00\n      keccak256\n        /* \"contracts/abCodeERC404.sol\":1498:1520  _tokens[tokenId].owner */\n      0x00\n      add\n      0x00\n      swap1\n      sload\n      swap1\n      0x0100\n      exp\n      swap1\n      div\n      0xffffffffffffffffffffffffffffffffffffffff\n      and\n        /* \"contracts/abCodeERC404.sol\":1498:1534  _tokens[tokenId].owner != address(0) */\n      0xffffffffffffffffffffffffffffffffffffffff\n      and\n      sub\n        /* \"contracts/abCodeERC404.sol\":1490:1567  require(_tokens[tokenId].owner != address(0), \"ERC404: Token does not exist\") */\n      tag_56\n      jumpi\n      mload(0x40)\n      0x08c379a000000000000000000000000000000000000000000000000000000000\n      dup2\n      mstore\n      0x04\n      add\n      tag_57\n      swap1\n      tag_49\n      jump\t// in\n    tag_57:\n      mload(0x40)\n      dup1\n      swap2\n      sub\n      swap1\n      revert\n    tag_56:\n        /* \"contracts/abCodeERC404.sol\":1585:1592  _tokens */\n      0x00\n        /* \"contracts/abCodeERC404.sol\":1585:1601  _tokens[tokenId] */\n      dup1\n        /* \"contracts/abCodeERC404.sol\":1593:1600  tokenId */\n      dup4\n        /* \"contracts/abCodeERC404.sol\":1585:1601  _tokens[tokenId] */\n      dup2\n      mstore\n      0x20\n      add\n      swap1\n      dup2\n      mstore\n      0x20\n      add\n      0x00\n      keccak256\n        /* \"contracts/abCodeERC404.sol\":1585:1607  _tokens[tokenId].owner */\n      0x00\n      add\n      0x00\n      swap1\n      sload\n      swap1\n      0x0100\n      exp\n      swap1\n      div\n      0xffffffffffffffffffffffffffffffffffffffff\n      and\n        /* \"contracts/abCodeERC404.sol\":1578:1607  return _tokens[tokenId].owner */\n      swap1\n      pop\n        /* \"contracts/abCodeERC404.sol\":1400:1615  function getTokenOwner(uint256 tokenId) public view override returns (address) {... */\n      swap2\n      swap1\n      pop\n      jump\t// out\n        /* \"contracts/abCodeERC404.sol\":685:1060  function mint(address to, string memory metadataURI) public override {... */\n    tag_33:\n        /* \"contracts/abCodeERC404.sol\":787:788  0 */\n      0x00\n        /* \"contracts/abCodeERC404.sol\":773:789  to != address(0) */\n      0xffffffffffffffffffffffffffffffffffffffff\n      and\n        /* \"contracts/abCodeERC404.sol\":773:775  to */\n      dup3\n        /* \"contracts/abCodeERC404.sol\":773:789  to != address(0) */\n      0xffffffffffffffffffffffffffffffffffffffff\n      and\n      sub\n        /* \"contracts/abCodeERC404.sol\":765:822  require(to != address(0), \"ERC404: Mint to zero address\") */\n      tag_59\n      jumpi\n      mload(0x40)\n      0x08c379a000000000000000000000000000000000000000000000000000000000\n      dup2\n      mstore\n      0x04\n      add\n      tag_60\n      swap1\n      tag_61\n      jump\t// in\n    tag_60:\n      mload(0x40)\n      dup1\n      swap2\n      sub\n      swap1\n      revert\n    tag_59:\n        /* \"contracts/abCodeERC404.sol\":835:850  uint256 tokenId */\n      0x00\n        /* \"contracts/abCodeERC404.sol\":868:869  1 */\n      0x01\n        /* \"contracts/abCodeERC404.sol\":853:865  _totalSupply */\n      dup1\n      sload\n        /* \"contracts/abCodeERC404.sol\":853:869  _totalSupply + 1 */\n      tag_62\n      swap2\n      swap1\n      tag_63\n      jump\t// in\n    tag_62:\n        /* \"contracts/abCodeERC404.sol\":835:869  uint256 tokenId = _totalSupply + 1 */\n      swap1\n      pop\n        /* \"contracts/abCodeERC404.sol\":924:972  TokenData({owner: to, metadataURI: metadataURI}) */\n      mload(0x40)\n      dup1\n      0x40\n      add\n      0x40\n      mstore\n      dup1\n        /* \"contracts/abCodeERC404.sol\":942:944  to */\n      dup5\n        /* \"contracts/abCodeERC404.sol\":924:972  TokenData({owner: to, metadataURI: metadataURI}) */\n      0xffffffffffffffffffffffffffffffffffffffff\n      and\n      dup2\n      mstore\n      0x20\n      add\n        /* \"contracts/abCodeERC404.sol\":959:970  metadataURI */\n      dup4\n        /* \"contracts/abCodeERC404.sol\":924:972  TokenData({owner: to, metadataURI: metadataURI}) */\n      dup2\n      mstore\n      pop\n        /* \"contracts/abCodeERC404.sol\":905:912  _tokens */\n      0x00\n        /* \"contracts/abCodeERC404.sol\":905:921  _tokens[tokenId] */\n      dup1\n        /* \"contracts/abCodeERC404.sol\":913:920  tokenId */\n      dup4\n        /* \"contracts/abCodeERC404.sol\":905:921  _tokens[tokenId] */\n      dup2\n      mstore\n      0x20\n      add\n      swap1\n      dup2\n      mstore\n      0x20\n      add\n      0x00\n      keccak256\n        /* \"contracts/abCodeERC404.sol\":905:972  _tokens[tokenId] = TokenData({owner: to, metadataURI: metadataURI}) */\n      0x00\n      dup3\n      add\n      mload\n      dup2\n      0x00\n      add\n      exp(0x0100, 0x00)\n      dup2\n      sload\n      dup2\n      0xffffffffffffffffffffffffffffffffffffffff\n      mul\n      not\n      and\n      swap1\n      dup4\n      0xffffffffffffffffffffffffffffffffffffffff\n      and\n      mul\n      or\n      swap1\n      sstore\n      pop\n      0x20\n      dup3\n      add\n      mload\n      dup2\n      0x01\n      add\n      swap1\n      dup2\n      tag_64\n      swap2\n      swap1\n      tag_65\n      jump\t// in\n    tag_64:\n      pop\n      swap1\n      pop\n      pop\n        /* \"contracts/abCodeERC404.sol\":983:995  _totalSupply */\n      0x01\n      0x00\n        /* \"contracts/abCodeERC404.sol\":983:997  _totalSupply++ */\n      dup2\n      sload\n      dup1\n      swap3\n      swap2\n      swap1\n      tag_66\n      swap1\n      tag_67\n      jump\t// in\n    tag_66:\n      swap2\n      swap1\n      pop\n      sstore\n      pop\n        /* \"contracts/abCodeERC404.sol\":1031:1038  tokenId */\n      dup1\n        /* \"contracts/abCodeERC404.sol\":1027:1029  to */\n      dup4\n        /* \"contracts/abCodeERC404.sol\":1015:1052  TokenMinted(to, tokenId, metadataURI) */\n      0xffffffffffffffffffffffffffffffffffffffff\n      and\n      0xdf92894dc4675a7333caa5903b69cf5d8e8ec0d3f361c88207b6688e525703bb\n        /* \"contracts/abCodeERC404.sol\":1040:1051  metadataURI */\n      dup5\n        /* \"contracts/abCodeERC404.sol\":1015:1052  TokenMinted(to, tokenId, metadataURI) */\n      mload(0x40)\n      tag_68\n      swap2\n      swap1\n      tag_12\n      jump\t// in\n    tag_68:\n      mload(0x40)\n      dup1\n      swap2\n      sub\n      swap1\n      log3\n        /* \"contracts/abCodeERC404.sol\":754:1060  {... */\n      pop\n        /* \"contracts/abCodeERC404.sol\":685:1060  function mint(address to, string memory metadataURI) public override {... */\n      pop\n      pop\n      jump\t// out\n        /* \"#utility.yul\":7:106   */\n    tag_69:\n        /* \"#utility.yul\":59:65   */\n      0x00\n        /* \"#utility.yul\":93:98   */\n      dup2\n        /* \"#utility.yul\":87:99   */\n      mload\n        /* \"#utility.yul\":77:99   */\n      swap1\n      pop\n        /* \"#utility.yul\":7:106   */\n      swap2\n      swap1\n      pop\n      jump\t// out\n        /* \"#utility.yul\":112:281   */\n    tag_70:\n        /* \"#utility.yul\":196:207   */\n      0x00\n        /* \"#utility.yul\":230:236   */\n      dup3\n        /* \"#utility.yul\":225:228   */\n      dup3\n        /* \"#utility.yul\":218:237   */\n      mstore\n        /* \"#utility.yul\":270:274   */\n      0x20\n        /* \"#utility.yul\":265:268   */\n      dup3\n        /* \"#utility.yul\":261:275   */\n      add\n        /* \"#utility.yul\":246:275   */\n      swap1\n      pop\n        /* \"#utility.yul\":112:281   */\n      swap3\n      swap2\n      pop\n      pop\n      jump\t// out\n        /* \"#utility.yul\":287:533   */\n    tag_71:\n        /* \"#utility.yul\":368:369   */\n      0x00\n        /* \"#utility.yul\":378:491   */\n    tag_120:\n        /* \"#utility.yul\":392:398   */\n      dup4\n        /* \"#utility.yul\":389:390   */\n      dup2\n        /* \"#utility.yul\":386:399   */\n      lt\n        /* \"#utility.yul\":378:491   */\n      iszero\n      tag_122\n      jumpi\n        /* \"#utility.yul\":477:478   */\n      dup1\n        /* \"#utility.yul\":472:475   */\n      dup3\n        /* \"#utility.yul\":468:479   */\n      add\n        /* \"#utility.yul\":462:480   */\n      mload\n        /* \"#utility.yul\":458:459   */\n      dup2\n        /* \"#utility.yul\":453:456   */\n      dup5\n        /* \"#utility.yul\":449:460   */\n      add\n        /* \"#utility.yul\":442:481   */\n      mstore\n        /* \"#utility.yul\":414:416   */\n      0x20\n        /* \"#utility.yul\":411:412   */\n      dup2\n        /* \"#utility.yul\":407:417   */\n      add\n        /* \"#utility.yul\":402:417   */\n      swap1\n      pop\n        /* \"#utility.yul\":378:491   */\n      jump(tag_120)\n    tag_122:\n        /* \"#utility.yul\":525:526   */\n      0x00\n        /* \"#utility.yul\":516:522   */\n      dup5\n        /* \"#utility.yul\":511:514   */\n      dup5\n        /* \"#utility.yul\":507:523   */\n      add\n        /* \"#utility.yul\":500:527   */\n      mstore\n        /* \"#utility.yul\":349:533   */\n      pop\n        /* \"#utility.yul\":287:533   */\n      pop\n      pop\n      pop\n      jump\t// out\n        /* \"#utility.yul\":539:641   */\n    tag_72:\n        /* \"#utility.yul\":580:586   */\n      0x00\n        /* \"#utility.yul\":631:633   */\n      0x1f\n        /* \"#utility.yul\":627:634   */\n      not\n        /* \"#utility.yul\":622:624   */\n      0x1f\n        /* \"#utility.yul\":615:620   */\n      dup4\n        /* \"#utility.yul\":611:625   */\n      add\n        /* \"#utility.yul\":607:635   */\n      and\n        /* \"#utility.yul\":597:635   */\n      swap1\n      pop\n        /* \"#utility.yul\":539:641   */\n      swap2\n      swap1\n      pop\n      jump\t// out\n        /* \"#utility.yul\":647:1024   */\n    tag_73:\n        /* \"#utility.yul\":735:738   */\n      0x00\n        /* \"#utility.yul\":763:802   */\n      tag_125\n        /* \"#utility.yul\":796:801   */\n      dup3\n        /* \"#utility.yul\":763:802   */\n      tag_69\n      jump\t// in\n    tag_125:\n        /* \"#utility.yul\":818:889   */\n      tag_126\n        /* \"#utility.yul\":882:888   */\n      dup2\n        /* \"#utility.yul\":877:880   */\n      dup6\n        /* \"#utility.yul\":818:889   */\n      tag_70\n      jump\t// in\n    tag_126:\n        /* \"#utility.yul\":811:889   */\n      swap4\n      pop\n        /* \"#utility.yul\":898:963   */\n      tag_127\n        /* \"#utility.yul\":956:962   */\n      dup2\n        /* \"#utility.yul\":951:954   */\n      dup6\n        /* \"#utility.yul\":944:948   */\n      0x20\n        /* \"#utility.yul\":937:942   */\n      dup7\n        /* \"#utility.yul\":933:949   */\n      add\n        /* \"#utility.yul\":898:963   */\n      tag_71\n      jump\t// in\n    tag_127:\n        /* \"#utility.yul\":988:1017   */\n      tag_128\n        /* \"#utility.yul\":1010:1016   */\n      dup2\n        /* \"#utility.yul\":988:1017   */\n      tag_72\n      jump\t// in\n    tag_128:\n        /* \"#utility.yul\":983:986   */\n      dup5\n        /* \"#utility.yul\":979:1018   */\n      add\n        /* \"#utility.yul\":972:1018   */\n      swap2\n      pop\n        /* \"#utility.yul\":739:1024   */\n      pop\n        /* \"#utility.yul\":647:1024   */\n      swap3\n      swap2\n      pop\n      pop\n      jump\t// out\n        /* \"#utility.yul\":1030:1343   */\n    tag_12:\n        /* \"#utility.yul\":1143:1147   */\n      0x00\n        /* \"#utility.yul\":1181:1183   */\n      0x20\n        /* \"#utility.yul\":1170:1179   */\n      dup3\n        /* \"#utility.yul\":1166:1184   */\n      add\n        /* \"#utility.yul\":1158:1184   */\n      swap1\n      pop\n        /* \"#utility.yul\":1230:1239   */\n      dup2\n        /* \"#utility.yul\":1224:1228   */\n      dup2\n        /* \"#utility.yul\":1220:1240   */\n      sub\n        /* \"#utility.yul\":1216:1217   */\n      0x00\n        /* \"#utility.yul\":1205:1214   */\n      dup4\n        /* \"#utility.yul\":1201:1218   */\n      add\n        /* \"#utility.yul\":1194:1241   */\n      mstore\n        /* \"#utility.yul\":1258:1336   */\n      tag_130\n        /* \"#utility.yul\":1331:1335   */\n      dup2\n        /* \"#utility.yul\":1322:1328   */\n      dup5\n        /* \"#utility.yul\":1258:1336   */\n      tag_73\n      jump\t// in\n    tag_130:\n        /* \"#utility.yul\":1250:1336   */\n      swap1\n      pop\n        /* \"#utility.yul\":1030:1343   */\n      swap3\n      swap2\n      pop\n      pop\n      jump\t// out\n        /* \"#utility.yul\":1349:1426   */\n    tag_74:\n        /* \"#utility.yul\":1386:1393   */\n      0x00\n        /* \"#utility.yul\":1415:1420   */\n      dup2\n        /* \"#utility.yul\":1404:1420   */\n      swap1\n      pop\n        /* \"#utility.yul\":1349:1426   */\n      swap2\n      swap1\n      pop\n      jump\t// out\n        /* \"#utility.yul\":1432:1550   */\n    tag_75:\n        /* \"#utility.yul\":1519:1543   */\n      tag_133\n        /* \"#utility.yul\":1537:1542   */\n      dup2\n        /* \"#utility.yul\":1519:1543   */\n      tag_74\n      jump\t// in\n    tag_133:\n        /* \"#utility.yul\":1514:1517   */\n      dup3\n        /* \"#utility.yul\":1507:1544   */\n      mstore\n        /* \"#utility.yul\":1432:1550   */\n      pop\n      pop\n      jump\t// out\n        /* \"#utility.yul\":1556:1778   */\n    tag_16:\n        /* \"#utility.yul\":1649:1653   */\n      0x00\n        /* \"#utility.yul\":1687:1689   */\n      0x20\n        /* \"#utility.yul\":1676:1685   */\n      dup3\n        /* \"#utility.yul\":1672:1690   */\n      add\n        /* \"#utility.yul\":1664:1690   */\n      swap1\n      pop\n        /* \"#utility.yul\":1700:1771   */\n      tag_135\n        /* \"#utility.yul\":1768:1769   */\n      0x00\n        /* \"#utility.yul\":1757:1766   */\n      dup4\n        /* \"#utility.yul\":1753:1770   */\n      add\n        /* \"#utility.yul\":1744:1750   */\n      dup5\n        /* \"#utility.yul\":1700:1771   */\n      tag_75\n      jump\t// in\n    tag_135:\n        /* \"#utility.yul\":1556:1778   */\n      swap3\n      swap2\n      pop\n      pop\n      jump\t// out\n        /* \"#utility.yul\":1784:1859   */\n    tag_76:\n        /* \"#utility.yul\":1817:1823   */\n      0x00\n        /* \"#utility.yul\":1850:1852   */\n      0x40\n        /* \"#utility.yul\":1844:1853   */\n      mload\n        /* \"#utility.yul\":1834:1853   */\n      swap1\n      pop\n        /* \"#utility.yul\":1784:1859   */\n      swap1\n      jump\t// out\n        /* \"#utility.yul\":1865:1982   */\n    tag_77:\n        /* \"#utility.yul\":1974:1975   */\n      0x00\n        /* \"#utility.yul\":1971:1972   */\n      dup1\n        /* \"#utility.yul\":1964:1976   */\n      revert\n        /* \"#utility.yul\":1988:2105   */\n    tag_78:\n        /* \"#utility.yul\":2097:2098   */\n      0x00\n        /* \"#utility.yul\":2094:2095   */\n      dup1\n        /* \"#utility.yul\":2087:2099   */\n      revert\n        /* \"#utility.yul\":2111:2233   */\n    tag_79:\n        /* \"#utility.yul\":2184:2208   */\n      tag_140\n        /* \"#utility.yul\":2202:2207   */\n      dup2\n        /* \"#utility.yul\":2184:2208   */\n      tag_74\n      jump\t// in\n    tag_140:\n        /* \"#utility.yul\":2177:2182   */\n      dup2\n        /* \"#utility.yul\":2174:2209   */\n      eq\n        /* \"#utility.yul\":2164:2227   */\n      tag_141\n      jumpi\n        /* \"#utility.yul\":2223:2224   */\n      0x00\n        /* \"#utility.yul\":2220:2221   */\n      dup1\n        /* \"#utility.yul\":2213:2225   */\n      revert\n        /* \"#utility.yul\":2164:2227   */\n    tag_141:\n        /* \"#utility.yul\":2111:2233   */\n      pop\n      jump\t// out\n        /* \"#utility.yul\":2239:2378   */\n    tag_80:\n        /* \"#utility.yul\":2285:2290   */\n      0x00\n        /* \"#utility.yul\":2323:2329   */\n      dup2\n        /* \"#utility.yul\":2310:2330   */\n      calldataload\n        /* \"#utility.yul\":2301:2330   */\n      swap1\n      pop\n        /* \"#utility.yul\":2339:2372   */\n      tag_143\n        /* \"#utility.yul\":2366:2371   */\n      dup2\n        /* \"#utility.yul\":2339:2372   */\n      tag_79\n      jump\t// in\n    tag_143:\n        /* \"#utility.yul\":2239:2378   */\n      swap3\n      swap2\n      pop\n      pop\n      jump\t// out\n        /* \"#utility.yul\":2384:2713   */\n    tag_22:\n        /* \"#utility.yul\":2443:2449   */\n      0x00\n        /* \"#utility.yul\":2492:2494   */\n      0x20\n        /* \"#utility.yul\":2480:2489   */\n      dup3\n        /* \"#utility.yul\":2471:2478   */\n      dup5\n        /* \"#utility.yul\":2467:2490   */\n      sub\n        /* \"#utility.yul\":2463:2495   */\n      slt\n        /* \"#utility.yul\":2460:2579   */\n      iszero\n      tag_145\n      jumpi\n        /* \"#utility.yul\":2498:2577   */\n      tag_146\n      tag_77\n      jump\t// in\n    tag_146:\n        /* \"#utility.yul\":2460:2579   */\n    tag_145:\n        /* \"#utility.yul\":2618:2619   */\n      0x00\n        /* \"#utility.yul\":2643:2696   */\n      tag_147\n        /* \"#utility.yul\":2688:2695   */\n      dup5\n        /* \"#utility.yul\":2679:2685   */\n      dup3\n        /* \"#utility.yul\":2668:2677   */\n      dup6\n        /* \"#utility.yul\":2664:2686   */\n      add\n        /* \"#utility.yul\":2643:2696   */\n      tag_80\n      jump\t// in\n    tag_147:\n        /* \"#utility.yul\":2633:2696   */\n      swap2\n      pop\n        /* \"#utility.yul\":2589:2706   */\n      pop\n        /* \"#utility.yul\":2384:2713   */\n      swap3\n      swap2\n      pop\n      pop\n      jump\t// out\n        /* \"#utility.yul\":2719:2845   */\n    tag_81:\n        /* \"#utility.yul\":2756:2763   */\n      0x00\n        /* \"#utility.yul\":2796:2838   */\n      0xffffffffffffffffffffffffffffffffffffffff\n        /* \"#utility.yul\":2789:2794   */\n      dup3\n        /* \"#utility.yul\":2785:2839   */\n      and\n        /* \"#utility.yul\":2774:2839   */\n      swap1\n      pop\n        /* \"#utility.yul\":2719:2845   */\n      swap2\n      swap1\n      pop\n      jump\t// out\n        /* \"#utility.yul\":2851:2947   */\n    tag_82:\n        /* \"#utility.yul\":2888:2895   */\n      0x00\n        /* \"#utility.yul\":2917:2941   */\n      tag_150\n        /* \"#utility.yul\":2935:2940   */\n      dup3\n        /* \"#utility.yul\":2917:2941   */\n      tag_81\n      jump\t// in\n    tag_150:\n        /* \"#utility.yul\":2906:2941   */\n      swap1\n      pop\n        /* \"#utility.yul\":2851:2947   */\n      swap2\n      swap1\n      pop\n      jump\t// out\n        /* \"#utility.yul\":2953:3071   */\n    tag_83:\n        /* \"#utility.yul\":3040:3064   */\n      tag_152\n        /* \"#utility.yul\":3058:3063   */\n      dup2\n        /* \"#utility.yul\":3040:3064   */\n      tag_82\n      jump\t// in\n    tag_152:\n        /* \"#utility.yul\":3035:3038   */\n      dup3\n        /* \"#utility.yul\":3028:3065   */\n      mstore\n        /* \"#utility.yul\":2953:3071   */\n      pop\n      pop\n      jump\t// out\n        /* \"#utility.yul\":3077:3299   */\n    tag_29:\n        /* \"#utility.yul\":3170:3174   */\n      0x00\n        /* \"#utility.yul\":3208:3210   */\n      0x20\n        /* \"#utility.yul\":3197:3206   */\n      dup3\n        /* \"#utility.yul\":3193:3211   */\n      add\n        /* \"#utility.yul\":3185:3211   */\n      swap1\n      pop\n        /* \"#utility.yul\":3221:3292   */\n      tag_154\n        /* \"#utility.yul\":3289:3290   */\n      0x00\n        /* \"#utility.yul\":3278:3287   */\n      dup4\n        /* \"#utility.yul\":3274:3291   */\n      add\n        /* \"#utility.yul\":3265:3271   */\n      dup5\n        /* \"#utility.yul\":3221:3292   */\n      tag_83\n      jump\t// in\n    tag_154:\n        /* \"#utility.yul\":3077:3299   */\n      swap3\n      swap2\n      pop\n      pop\n      jump\t// out\n        /* \"#utility.yul\":3305:3427   */\n    tag_84:\n        /* \"#utility.yul\":3378:3402   */\n      tag_156\n        /* \"#utility.yul\":3396:3401   */\n      dup2\n        /* \"#utility.yul\":3378:3402   */\n      tag_82\n      jump\t// in\n    tag_156:\n        /* \"#utility.yul\":3371:3376   */\n      dup2\n        /* \"#utility.yul\":3368:3403   */\n      eq\n        /* \"#utility.yul\":3358:3421   */\n      tag_157\n      jumpi\n        /* \"#utility.yul\":3417:3418   */\n      0x00\n        /* \"#utility.yul\":3414:3415   */\n      dup1\n        /* \"#utility.yul\":3407:3419   */\n      revert\n        /* \"#utility.yul\":3358:3421   */\n    tag_157:\n        /* \"#utility.yul\":3305:3427   */\n      pop\n      jump\t// out\n        /* \"#utility.yul\":3433:3572   */\n    tag_85:\n        /* \"#utility.yul\":3479:3484   */\n      0x00\n        /* \"#utility.yul\":3517:3523   */\n      dup2\n        /* \"#utility.yul\":3504:3524   */\n      calldataload\n        /* \"#utility.yul\":3495:3524   */\n      swap1\n      pop\n        /* \"#utility.yul\":3533:3566   */\n      tag_159\n        /* \"#utility.yul\":3560:3565   */\n      dup2\n        /* \"#utility.yul\":3533:3566   */\n      tag_84\n      jump\t// in\n    tag_159:\n        /* \"#utility.yul\":3433:3572   */\n      swap3\n      swap2\n      pop\n      pop\n      jump\t// out\n        /* \"#utility.yul\":3578:3695   */\n    tag_86:\n        /* \"#utility.yul\":3687:3688   */\n      0x00\n        /* \"#utility.yul\":3684:3685   */\n      dup1\n        /* \"#utility.yul\":3677:3689   */\n      revert\n        /* \"#utility.yul\":3701:3818   */\n    tag_87:\n        /* \"#utility.yul\":3810:3811   */\n      0x00\n        /* \"#utility.yul\":3807:3808   */\n      dup1\n        /* \"#utility.yul\":3800:3812   */\n      revert\n        /* \"#utility.yul\":3824:4004   */\n    tag_88:\n        /* \"#utility.yul\":3872:3949   */\n      0x4e487b7100000000000000000000000000000000000000000000000000000000\n        /* \"#utility.yul\":3869:3870   */\n      0x00\n        /* \"#utility.yul\":3862:3950   */\n      mstore\n        /* \"#utility.yul\":3969:3973   */\n      0x41\n        /* \"#utility.yul\":3966:3967   */\n      0x04\n        /* \"#utility.yul\":3959:3974   */\n      mstore\n        /* \"#utility.yul\":3993:3997   */\n      0x24\n        /* \"#utility.yul\":3990:3991   */\n      0x00\n        /* \"#utility.yul\":3983:3998   */\n      revert\n        /* \"#utility.yul\":4010:4291   */\n    tag_89:\n        /* \"#utility.yul\":4093:4120   */\n      tag_164\n        /* \"#utility.yul\":4115:4119   */\n      dup3\n        /* \"#utility.yul\":4093:4120   */\n      tag_72\n      jump\t// in\n    tag_164:\n        /* \"#utility.yul\":4085:4091   */\n      dup2\n        /* \"#utility.yul\":4081:4121   */\n      add\n        /* \"#utility.yul\":4223:4229   */\n      dup2\n        /* \"#utility.yul\":4211:4221   */\n      dup2\n        /* \"#utility.yul\":4208:4230   */\n      lt\n        /* \"#utility.yul\":4187:4205   */\n      0xffffffffffffffff\n        /* \"#utility.yul\":4175:4185   */\n      dup3\n        /* \"#utility.yul\":4172:4206   */\n      gt\n        /* \"#utility.yul\":4169:4231   */\n      or\n        /* \"#utility.yul\":4166:4254   */\n      iszero\n      tag_165\n      jumpi\n        /* \"#utility.yul\":4234:4252   */\n      tag_166\n      tag_88\n      jump\t// in\n    tag_166:\n        /* \"#utility.yul\":4166:4254   */\n    tag_165:\n        /* \"#utility.yul\":4274:4284   */\n      dup1\n        /* \"#utility.yul\":4270:4272   */\n      0x40\n        /* \"#utility.yul\":4263:4285   */\n      mstore\n        /* \"#utility.yul\":4053:4291   */\n      pop\n        /* \"#utility.yul\":4010:4291   */\n      pop\n      pop\n      jump\t// out\n        /* \"#utility.yul\":4297:4426   */\n    tag_90:\n        /* \"#utility.yul\":4331:4337   */\n      0x00\n        /* \"#utility.yul\":4358:4378   */\n      tag_168\n      tag_76\n      jump\t// in\n    tag_168:\n        /* \"#utility.yul\":4348:4378   */\n      swap1\n      pop\n        /* \"#utility.yul\":4387:4420   */\n      tag_169\n        /* \"#utility.yul\":4415:4419   */\n      dup3\n        /* \"#utility.yul\":4407:4413   */\n      dup3\n        /* \"#utility.yul\":4387:4420   */\n      tag_89\n      jump\t// in\n    tag_169:\n        /* \"#utility.yul\":4297:4426   */\n      swap2\n      swap1\n      pop\n      jump\t// out\n        /* \"#utility.yul\":4432:4740   */\n    tag_91:\n        /* \"#utility.yul\":4494:4498   */\n      0x00\n        /* \"#utility.yul\":4584:4602   */\n      0xffffffffffffffff\n        /* \"#utility.yul\":4576:4582   */\n      dup3\n        /* \"#utility.yul\":4573:4603   */\n      gt\n        /* \"#utility.yul\":4570:4626   */\n      iszero\n      tag_171\n      jumpi\n        /* \"#utility.yul\":4606:4624   */\n      tag_172\n      tag_88\n      jump\t// in\n    tag_172:\n        /* \"#utility.yul\":4570:4626   */\n    tag_171:\n        /* \"#utility.yul\":4644:4673   */\n      tag_173\n        /* \"#utility.yul\":4666:4672   */\n      dup3\n        /* \"#utility.yul\":4644:4673   */\n      tag_72\n      jump\t// in\n    tag_173:\n        /* \"#utility.yul\":4636:4673   */\n      swap1\n      pop\n        /* \"#utility.yul\":4728:4732   */\n      0x20\n        /* \"#utility.yul\":4722:4726   */\n      dup2\n        /* \"#utility.yul\":4718:4733   */\n      add\n        /* \"#utility.yul\":4710:4733   */\n      swap1\n      pop\n        /* \"#utility.yul\":4432:4740   */\n      swap2\n      swap1\n      pop\n      jump\t// out\n        /* \"#utility.yul\":4746:4892   */\n    tag_92:\n        /* \"#utility.yul\":4843:4849   */\n      dup3\n        /* \"#utility.yul\":4838:4841   */\n      dup2\n        /* \"#utility.yul\":4833:4836   */\n      dup4\n        /* \"#utility.yul\":4820:4850   */\n      calldatacopy\n        /* \"#utility.yul\":4884:4885   */\n      0x00\n        /* \"#utility.yul\":4875:4881   */\n      dup4\n        /* \"#utility.yul\":4870:4873   */\n      dup4\n        /* \"#utility.yul\":4866:4882   */\n      add\n        /* \"#utility.yul\":4859:4886   */\n      mstore\n        /* \"#utility.yul\":4746:4892   */\n      pop\n      pop\n      pop\n      jump\t// out\n        /* \"#utility.yul\":4898:5323   */\n    tag_93:\n        /* \"#utility.yul\":4976:4981   */\n      0x00\n        /* \"#utility.yul\":5001:5067   */\n      tag_176\n        /* \"#utility.yul\":5017:5066   */\n      tag_177\n        /* \"#utility.yul\":5059:5065   */\n      dup5\n        /* \"#utility.yul\":5017:5066   */\n      tag_91\n      jump\t// in\n    tag_177:\n        /* \"#utility.yul\":5001:5067   */\n      tag_90\n      jump\t// in\n    tag_176:\n        /* \"#utility.yul\":4992:5067   */\n      swap1\n      pop\n        /* \"#utility.yul\":5090:5096   */\n      dup3\n        /* \"#utility.yul\":5083:5088   */\n      dup2\n        /* \"#utility.yul\":5076:5097   */\n      mstore\n        /* \"#utility.yul\":5128:5132   */\n      0x20\n        /* \"#utility.yul\":5121:5126   */\n      dup2\n        /* \"#utility.yul\":5117:5133   */\n      add\n        /* \"#utility.yul\":5166:5169   */\n      dup5\n        /* \"#utility.yul\":5157:5163   */\n      dup5\n        /* \"#utility.yul\":5152:5155   */\n      dup5\n        /* \"#utility.yul\":5148:5164   */\n      add\n        /* \"#utility.yul\":5145:5170   */\n      gt\n        /* \"#utility.yul\":5142:5254   */\n      iszero\n      tag_178\n      jumpi\n        /* \"#utility.yul\":5173:5252   */\n      tag_179\n      tag_87\n      jump\t// in\n    tag_179:\n        /* \"#utility.yul\":5142:5254   */\n    tag_178:\n        /* \"#utility.yul\":5263:5317   */\n      tag_180\n        /* \"#utility.yul\":5310:5316   */\n      dup5\n        /* \"#utility.yul\":5305:5308   */\n      dup3\n        /* \"#utility.yul\":5300:5303   */\n      dup6\n        /* \"#utility.yul\":5263:5317   */\n      tag_92\n      jump\t// in\n    tag_180:\n        /* \"#utility.yul\":4982:5323   */\n      pop\n        /* \"#utility.yul\":4898:5323   */\n      swap4\n      swap3\n      pop\n      pop\n      pop\n      jump\t// out\n        /* \"#utility.yul\":5343:5683   */\n    tag_94:\n        /* \"#utility.yul\":5399:5404   */\n      0x00\n        /* \"#utility.yul\":5448:5451   */\n      dup3\n        /* \"#utility.yul\":5441:5445   */\n      0x1f\n        /* \"#utility.yul\":5433:5439   */\n      dup4\n        /* \"#utility.yul\":5429:5446   */\n      add\n        /* \"#utility.yul\":5425:5452   */\n      slt\n        /* \"#utility.yul\":5415:5537   */\n      tag_182\n      jumpi\n        /* \"#utility.yul\":5456:5535   */\n      tag_183\n      tag_86\n      jump\t// in\n    tag_183:\n        /* \"#utility.yul\":5415:5537   */\n    tag_182:\n        /* \"#utility.yul\":5573:5579   */\n      dup2\n        /* \"#utility.yul\":5560:5580   */\n      calldataload\n        /* \"#utility.yul\":5598:5677   */\n      tag_184\n        /* \"#utility.yul\":5673:5676   */\n      dup5\n        /* \"#utility.yul\":5665:5671   */\n      dup3\n        /* \"#utility.yul\":5658:5662   */\n      0x20\n        /* \"#utility.yul\":5650:5656   */\n      dup7\n        /* \"#utility.yul\":5646:5663   */\n      add\n        /* \"#utility.yul\":5598:5677   */\n      tag_93\n      jump\t// in\n    tag_184:\n        /* \"#utility.yul\":5589:5677   */\n      swap2\n      pop\n        /* \"#utility.yul\":5405:5683   */\n      pop\n        /* \"#utility.yul\":5343:5683   */\n      swap3\n      swap2\n      pop\n      pop\n      jump\t// out\n        /* \"#utility.yul\":5689:6343   */\n    tag_32:\n        /* \"#utility.yul\":5767:5773   */\n      0x00\n        /* \"#utility.yul\":5775:5781   */\n      dup1\n        /* \"#utility.yul\":5824:5826   */\n      0x40\n        /* \"#utility.yul\":5812:5821   */\n      dup4\n        /* \"#utility.yul\":5803:5810   */\n      dup6\n        /* \"#utility.yul\":5799:5822   */\n      sub\n        /* \"#utility.yul\":5795:5827   */\n      slt\n        /* \"#utility.yul\":5792:5911   */\n      iszero\n      tag_186\n      jumpi\n        /* \"#utility.yul\":5830:5909   */\n      tag_187\n      tag_77\n      jump\t// in\n    tag_187:\n        /* \"#utility.yul\":5792:5911   */\n    tag_186:\n        /* \"#utility.yul\":5950:5951   */\n      0x00\n        /* \"#utility.yul\":5975:6028   */\n      tag_188\n        /* \"#utility.yul\":6020:6027   */\n      dup6\n        /* \"#utility.yul\":6011:6017   */\n      dup3\n        /* \"#utility.yul\":6000:6009   */\n      dup7\n        /* \"#utility.yul\":5996:6018   */\n      add\n        /* \"#utility.yul\":5975:6028   */\n      tag_85\n      jump\t// in\n    tag_188:\n        /* \"#utility.yul\":5965:6028   */\n      swap3\n      pop\n        /* \"#utility.yul\":5921:6038   */\n      pop\n        /* \"#utility.yul\":6105:6107   */\n      0x20\n        /* \"#utility.yul\":6094:6103   */\n      dup4\n        /* \"#utility.yul\":6090:6108   */\n      add\n        /* \"#utility.yul\":6077:6109   */\n      calldataload\n        /* \"#utility.yul\":6136:6154   */\n      0xffffffffffffffff\n        /* \"#utility.yul\":6128:6134   */\n      dup2\n        /* \"#utility.yul\":6125:6155   */\n      gt\n        /* \"#utility.yul\":6122:6239   */\n      iszero\n      tag_189\n      jumpi\n        /* \"#utility.yul\":6158:6237   */\n      tag_190\n      tag_78\n      jump\t// in\n    tag_190:\n        /* \"#utility.yul\":6122:6239   */\n    tag_189:\n        /* \"#utility.yul\":6263:6326   */\n      tag_191\n        /* \"#utility.yul\":6318:6325   */\n      dup6\n        /* \"#utility.yul\":6309:6315   */\n      dup3\n        /* \"#utility.yul\":6298:6307   */\n      dup7\n        /* \"#utility.yul\":6294:6316   */\n      add\n        /* \"#utility.yul\":6263:6326   */\n      tag_94\n      jump\t// in\n    tag_191:\n        /* \"#utility.yul\":6253:6326   */\n      swap2\n      pop\n        /* \"#utility.yul\":6048:6336   */\n      pop\n        /* \"#utility.yul\":5689:6343   */\n      swap3\n      pop\n      swap3\n      swap1\n      pop\n      jump\t// out\n        /* \"#utility.yul\":6349:6529   */\n    tag_95:\n        /* \"#utility.yul\":6397:6474   */\n      0x4e487b7100000000000000000000000000000000000000000000000000000000\n        /* \"#utility.yul\":6394:6395   */\n      0x00\n        /* \"#utility.yul\":6387:6475   */\n      mstore\n        /* \"#utility.yul\":6494:6498   */\n      0x22\n        /* \"#utility.yul\":6491:6492   */\n      0x04\n        /* \"#utility.yul\":6484:6499   */\n      mstore\n        /* \"#utility.yul\":6518:6522   */\n      0x24\n        /* \"#utility.yul\":6515:6516   */\n      0x00\n        /* \"#utility.yul\":6508:6523   */\n      revert\n        /* \"#utility.yul\":6535:6855   */\n    tag_35:\n        /* \"#utility.yul\":6579:6585   */\n      0x00\n        /* \"#utility.yul\":6616:6617   */\n      0x02\n        /* \"#utility.yul\":6610:6614   */\n      dup3\n        /* \"#utility.yul\":6606:6618   */\n      div\n        /* \"#utility.yul\":6596:6618   */\n      swap1\n      pop\n        /* \"#utility.yul\":6663:6664   */\n      0x01\n        /* \"#utility.yul\":6657:6661   */\n      dup3\n        /* \"#utility.yul\":6653:6665   */\n      and\n        /* \"#utility.yul\":6684:6702   */\n      dup1\n        /* \"#utility.yul\":6674:6755   */\n      tag_194\n      jumpi\n        /* \"#utility.yul\":6740:6744   */\n      0x7f\n        /* \"#utility.yul\":6732:6738   */\n      dup3\n        /* \"#utility.yul\":6728:6745   */\n      and\n        /* \"#utility.yul\":6718:6745   */\n      swap2\n      pop\n        /* \"#utility.yul\":6674:6755   */\n    tag_194:\n        /* \"#utility.yul\":6802:6804   */\n      0x20\n        /* \"#utility.yul\":6794:6800   */\n      dup3\n        /* \"#utility.yul\":6791:6805   */\n      lt\n        /* \"#utility.yul\":6771:6789   */\n      dup2\n        /* \"#utility.yul\":6768:6806   */\n      sub\n        /* \"#utility.yul\":6765:6849   */\n      tag_195\n      jumpi\n        /* \"#utility.yul\":6821:6839   */\n      tag_196\n      tag_95\n      jump\t// in\n    tag_196:\n        /* \"#utility.yul\":6765:6849   */\n    tag_195:\n        /* \"#utility.yul\":6586:6855   */\n      pop\n        /* \"#utility.yul\":6535:6855   */\n      swap2\n      swap1\n      pop\n      jump\t// out\n        /* \"#utility.yul\":6861:7039   */\n    tag_96:\n        /* \"#utility.yul\":7001:7031   */\n      0x4552433430343a20546f6b656e20646f6573206e6f7420657869737400000000\n        /* \"#utility.yul\":6997:6998   */\n      0x00\n        /* \"#utility.yul\":6989:6995   */\n      dup3\n        /* \"#utility.yul\":6985:6999   */\n      add\n        /* \"#utility.yul\":6978:7032   */\n      mstore\n        /* \"#utility.yul\":6861:7039   */\n      pop\n      jump\t// out\n        /* \"#utility.yul\":7045:7411   */\n    tag_97:\n        /* \"#utility.yul\":7187:7190   */\n      0x00\n        /* \"#utility.yul\":7208:7275   */\n      tag_199\n        /* \"#utility.yul\":7272:7274   */\n      0x1c\n        /* \"#utility.yul\":7267:7270   */\n      dup4\n        /* \"#utility.yul\":7208:7275   */\n      tag_70\n      jump\t// in\n    tag_199:\n        /* \"#utility.yul\":7201:7275   */\n      swap2\n      pop\n        /* \"#utility.yul\":7284:7377   */\n      tag_200\n        /* \"#utility.yul\":7373:7376   */\n      dup3\n        /* \"#utility.yul\":7284:7377   */\n      tag_96\n      jump\t// in\n    tag_200:\n        /* \"#utility.yul\":7402:7404   */\n      0x20\n        /* \"#utility.yul\":7397:7400   */\n      dup3\n        /* \"#utility.yul\":7393:7405   */\n      add\n        /* \"#utility.yul\":7386:7405   */\n      swap1\n      pop\n        /* \"#utility.yul\":7045:7411   */\n      swap2\n      swap1\n      pop\n      jump\t// out\n        /* \"#utility.yul\":7417:7836   */\n    tag_49:\n        /* \"#utility.yul\":7583:7587   */\n      0x00\n        /* \"#utility.yul\":7621:7623   */\n      0x20\n        /* \"#utility.yul\":7610:7619   */\n      dup3\n        /* \"#utility.yul\":7606:7624   */\n      add\n        /* \"#utility.yul\":7598:7624   */\n      swap1\n      pop\n        /* \"#utility.yul\":7670:7679   */\n      dup2\n        /* \"#utility.yul\":7664:7668   */\n      dup2\n        /* \"#utility.yul\":7660:7680   */\n      sub\n        /* \"#utility.yul\":7656:7657   */\n      0x00\n        /* \"#utility.yul\":7645:7654   */\n      dup4\n        /* \"#utility.yul\":7641:7658   */\n      add\n        /* \"#utility.yul\":7634:7681   */\n      mstore\n        /* \"#utility.yul\":7698:7829   */\n      tag_202\n        /* \"#utility.yul\":7824:7828   */\n      dup2\n        /* \"#utility.yul\":7698:7829   */\n      tag_97\n      jump\t// in\n    tag_202:\n        /* \"#utility.yul\":7690:7829   */\n      swap1\n      pop\n        /* \"#utility.yul\":7417:7836   */\n      swap2\n      swap1\n      pop\n      jump\t// out\n        /* \"#utility.yul\":7842:8020   */\n    tag_98:\n        /* \"#utility.yul\":7982:8012   */\n      0x4552433430343a204d696e7420746f207a65726f206164647265737300000000\n        /* \"#utility.yul\":7978:7979   */\n      0x00\n        /* \"#utility.yul\":7970:7976   */\n      dup3\n        /* \"#utility.yul\":7966:7980   */\n      add\n        /* \"#utility.yul\":7959:8013   */\n      mstore\n        /* \"#utility.yul\":7842:8020   */\n      pop\n      jump\t// out\n        /* \"#utility.yul\":8026:8392   */\n    tag_99:\n        /* \"#utility.yul\":8168:8171   */\n      0x00\n        /* \"#utility.yul\":8189:8256   */\n      tag_205\n        /* \"#utility.yul\":8253:8255   */\n      0x1c\n        /* \"#utility.yul\":8248:8251   */\n      dup4\n        /* \"#utility.yul\":8189:8256   */\n      tag_70\n      jump\t// in\n    tag_205:\n        /* \"#utility.yul\":8182:8256   */\n      swap2\n      pop\n        /* \"#utility.yul\":8265:8358   */\n      tag_206\n        /* \"#utility.yul\":8354:8357   */\n      dup3\n        /* \"#utility.yul\":8265:8358   */\n      tag_98\n      jump\t// in\n    tag_206:\n        /* \"#utility.yul\":8383:8385   */\n      0x20\n        /* \"#utility.yul\":8378:8381   */\n      dup3\n        /* \"#utility.yul\":8374:8386   */\n      add\n        /* \"#utility.yul\":8367:8386   */\n      swap1\n      pop\n        /* \"#utility.yul\":8026:8392   */\n      swap2\n      swap1\n      pop\n      jump\t// out\n        /* \"#utility.yul\":8398:8817   */\n    tag_61:\n        /* \"#utility.yul\":8564:8568   */\n      0x00\n        /* \"#utility.yul\":8602:8604   */\n      0x20\n        /* \"#utility.yul\":8591:8600   */\n      dup3\n        /* \"#utility.yul\":8587:8605   */\n      add\n        /* \"#utility.yul\":8579:8605   */\n      swap1\n      pop\n        /* \"#utility.yul\":8651:8660   */\n      dup2\n        /* \"#utility.yul\":8645:8649   */\n      dup2\n        /* \"#utility.yul\":8641:8661   */\n      sub\n        /* \"#utility.yul\":8637:8638   */\n      0x00\n        /* \"#utility.yul\":8626:8635   */\n      dup4\n        /* \"#utility.yul\":8622:8639   */\n      add\n        /* \"#utility.yul\":8615:8662   */\n      mstore\n        /* \"#utility.yul\":8679:8810   */\n      tag_208\n        /* \"#utility.yul\":8805:8809   */\n      dup2\n        /* \"#utility.yul\":8679:8810   */\n      tag_99\n      jump\t// in\n    tag_208:\n        /* \"#utility.yul\":8671:8810   */\n      swap1\n      pop\n        /* \"#utility.yul\":8398:8817   */\n      swap2\n      swap1\n      pop\n      jump\t// out\n        /* \"#utility.yul\":8823:9003   */\n    tag_100:\n        /* \"#utility.yul\":8871:8948   */\n      0x4e487b7100000000000000000000000000000000000000000000000000000000\n        /* \"#utility.yul\":8868:8869   */\n      0x00\n        /* \"#utility.yul\":8861:8949   */\n      mstore\n        /* \"#utility.yul\":8968:8972   */\n      0x11\n        /* \"#utility.yul\":8965:8966   */\n      0x04\n        /* \"#utility.yul\":8958:8973   */\n      mstore\n        /* \"#utility.yul\":8992:8996   */\n      0x24\n        /* \"#utility.yul\":8989:8990   */\n      0x00\n        /* \"#utility.yul\":8982:8997   */\n      revert\n        /* \"#utility.yul\":9009:9200   */\n    tag_63:\n        /* \"#utility.yul\":9049:9052   */\n      0x00\n        /* \"#utility.yul\":9068:9088   */\n      tag_211\n        /* \"#utility.yul\":9086:9087   */\n      dup3\n        /* \"#utility.yul\":9068:9088   */\n      tag_74\n      jump\t// in\n    tag_211:\n        /* \"#utility.yul\":9063:9088   */\n      swap2\n      pop\n        /* \"#utility.yul\":9102:9122   */\n      tag_212\n        /* \"#utility.yul\":9120:9121   */\n      dup4\n        /* \"#utility.yul\":9102:9122   */\n      tag_74\n      jump\t// in\n    tag_212:\n        /* \"#utility.yul\":9097:9122   */\n      swap3\n      pop\n        /* \"#utility.yul\":9145:9146   */\n      dup3\n        /* \"#utility.yul\":9142:9143   */\n      dup3\n        /* \"#utility.yul\":9138:9147   */\n      add\n        /* \"#utility.yul\":9131:9147   */\n      swap1\n      pop\n        /* \"#utility.yul\":9166:9169   */\n      dup1\n        /* \"#utility.yul\":9163:9164   */\n      dup3\n        /* \"#utility.yul\":9160:9170   */\n      gt\n        /* \"#utility.yul\":9157:9193   */\n      iszero\n      tag_213\n      jumpi\n        /* \"#utility.yul\":9173:9191   */\n      tag_214\n      tag_100\n      jump\t// in\n    tag_214:\n        /* \"#utility.yul\":9157:9193   */\n    tag_213:\n        /* \"#utility.yul\":9009:9200   */\n      swap3\n      swap2\n      pop\n      pop\n      jump\t// out\n        /* \"#utility.yul\":9206:9347   */\n    tag_101:\n        /* \"#utility.yul\":9255:9259   */\n      0x00\n        /* \"#utility.yul\":9278:9281   */\n      dup2\n        /* \"#utility.yul\":9270:9281   */\n      swap1\n      pop\n        /* \"#utility.yul\":9301:9304   */\n      dup2\n        /* \"#utility.yul\":9298:9299   */\n      0x00\n        /* \"#utility.yul\":9291:9305   */\n      mstore\n        /* \"#utility.yul\":9335:9339   */\n      0x20\n        /* \"#utility.yul\":9332:9333   */\n      0x00\n        /* \"#utility.yul\":9322:9340   */\n      keccak256\n        /* \"#utility.yul\":9314:9340   */\n      swap1\n      pop\n        /* \"#utility.yul\":9206:9347   */\n      swap2\n      swap1\n      pop\n      jump\t// out\n        /* \"#utility.yul\":9353:9446   */\n    tag_102:\n        /* \"#utility.yul\":9390:9396   */\n      0x00\n        /* \"#utility.yul\":9437:9439   */\n      0x20\n        /* \"#utility.yul\":9432:9434   */\n      0x1f\n        /* \"#utility.yul\":9425:9430   */\n      dup4\n        /* \"#utility.yul\":9421:9435   */\n      add\n        /* \"#utility.yul\":9417:9440   */\n      div\n        /* \"#utility.yul\":9407:9440   */\n      swap1\n      pop\n        /* \"#utility.yul\":9353:9446   */\n      swap2\n      swap1\n      pop\n      jump\t// out\n        /* \"#utility.yul\":9452:9559   */\n    tag_103:\n        /* \"#utility.yul\":9496:9504   */\n      0x00\n        /* \"#utility.yul\":9546:9551   */\n      dup3\n        /* \"#utility.yul\":9540:9544   */\n      dup3\n        /* \"#utility.yul\":9536:9552   */\n      shl\n        /* \"#utility.yul\":9515:9552   */\n      swap1\n      pop\n        /* \"#utility.yul\":9452:9559   */\n      swap3\n      swap2\n      pop\n      pop\n      jump\t// out\n        /* \"#utility.yul\":9565:9958   */\n    tag_104:\n        /* \"#utility.yul\":9634:9640   */\n      0x00\n        /* \"#utility.yul\":9684:9685   */\n      0x08\n        /* \"#utility.yul\":9672:9682   */\n      dup4\n        /* \"#utility.yul\":9668:9686   */\n      mul\n        /* \"#utility.yul\":9707:9804   */\n      tag_219\n        /* \"#utility.yul\":9737:9803   */\n      0xffffffffffffffffffffffffffffffffffffffffffffffffffffffffffffffff\n        /* \"#utility.yul\":9726:9735   */\n      dup3\n        /* \"#utility.yul\":9707:9804   */\n      tag_103\n      jump\t// in\n    tag_219:\n        /* \"#utility.yul\":9825:9864   */\n      tag_220\n        /* \"#utility.yul\":9855:9863   */\n      dup7\n        /* \"#utility.yul\":9844:9853   */\n      dup4\n        /* \"#utility.yul\":9825:9864   */\n      tag_103\n      jump\t// in\n    tag_220:\n        /* \"#utility.yul\":9813:9864   */\n      swap6\n      pop\n        /* \"#utility.yul\":9897:9901   */\n      dup1\n        /* \"#utility.yul\":9893:9902   */\n      not\n        /* \"#utility.yul\":9886:9891   */\n      dup5\n        /* \"#utility.yul\":9882:9903   */\n      and\n        /* \"#utility.yul\":9873:9903   */\n      swap4\n      pop\n        /* \"#utility.yul\":9946:9950   */\n      dup1\n        /* \"#utility.yul\":9936:9944   */\n      dup7\n        /* \"#utility.yul\":9932:9951   */\n      and\n        /* \"#utility.yul\":9925:9930   */\n      dup5\n        /* \"#utility.yul\":9922:9952   */\n      or\n        /* \"#utility.yul\":9912:9952   */\n      swap3\n      pop\n        /* \"#utility.yul\":9641:9958   */\n      pop\n      pop\n        /* \"#utility.yul\":9565:9958   */\n      swap4\n      swap3\n      pop\n      pop\n      pop\n      jump\t// out\n        /* \"#utility.yul\":9964:10024   */\n    tag_105:\n        /* \"#utility.yul\":9992:9995   */\n      0x00\n        /* \"#utility.yul\":10013:10018   */\n      dup2\n        /* \"#utility.yul\":10006:10018   */\n      swap1\n      pop\n        /* \"#utility.yul\":9964:10024   */\n      swap2\n      swap1\n      pop\n      jump\t// out\n        /* \"#utility.yul\":10030:10172   */\n    tag_106:\n        /* \"#utility.yul\":10080:10089   */\n      0x00\n        /* \"#utility.yul\":10113:10166   */\n      tag_223\n        /* \"#utility.yul\":10131:10165   */\n      tag_224\n        /* \"#utility.yul\":10140:10164   */\n      tag_225\n        /* \"#utility.yul\":10158:10163   */\n      dup5\n        /* \"#utility.yul\":10140:10164   */\n      tag_74\n      jump\t// in\n    tag_225:\n        /* \"#utility.yul\":10131:10165   */\n      tag_105\n      jump\t// in\n    tag_224:\n        /* \"#utility.yul\":10113:10166   */\n      tag_74\n      jump\t// in\n    tag_223:\n        /* \"#utility.yul\":10100:10166   */\n      swap1\n      pop\n        /* \"#utility.yul\":10030:10172   */\n      swap2\n      swap1\n      pop\n      jump\t// out\n        /* \"#utility.yul\":10178:10253   */\n    tag_107:\n        /* \"#utility.yul\":10221:10224   */\n      0x00\n        /* \"#utility.yul\":10242:10247   */\n      dup2\n        /* \"#utility.yul\":10235:10247   */\n      swap1\n      pop\n        /* \"#utility.yul\":10178:10253   */\n      swap2\n      swap1\n      pop\n      jump\t// out\n        /* \"#utility.yul\":10259:10528   */\n    tag_108:\n        /* \"#utility.yul\":10369:10408   */\n      tag_228\n        /* \"#utility.yul\":10400:10407   */\n      dup4\n        /* \"#utility.yul\":10369:10408   */\n      tag_106\n      jump\t// in\n    tag_228:\n        /* \"#utility.yul\":10430:10521   */\n      tag_229\n        /* \"#utility.yul\":10479:10520   */\n      tag_230\n        /* \"#utility.yul\":10503:10519   */\n      dup3\n        /* \"#utility.yul\":10479:10520   */\n      tag_107\n      jump\t// in\n    tag_230:\n        /* \"#utility.yul\":10471:10477   */\n      dup5\n        /* \"#utility.yul\":10464:10468   */\n      dup5\n        /* \"#utility.yul\":10458:10469   */\n      sload\n        /* \"#utility.yul\":10430:10521   */\n      tag_104\n      jump\t// in\n    tag_229:\n        /* \"#utility.yul\":10424:10428   */\n      dup3\n        /* \"#utility.yul\":10417:10522   */\n      sstore\n        /* \"#utility.yul\":10335:10528   */\n      pop\n        /* \"#utility.yul\":10259:10528   */\n      pop\n      pop\n      pop\n      jump\t// out\n        /* \"#utility.yul\":10534:10607   */\n    tag_109:\n        /* \"#utility.yul\":10579:10582   */\n      0x00\n        /* \"#utility.yul\":10534:10607   */\n      swap1\n      jump\t// out\n        /* \"#utility.yul\":10613:10802   */\n    tag_110:\n        /* \"#utility.yul\":10690:10722   */\n      tag_233\n      tag_109\n      jump\t// in\n    tag_233:\n        /* \"#utility.yul\":10731:10796   */\n      tag_234\n        /* \"#utility.yul\":10789:10795   */\n      dup2\n        /* \"#utility.yul\":10781:10787   */\n      dup5\n        /* \"#utility.yul\":10775:10779   */\n      dup5\n        /* \"#utility.yul\":10731:10796   */\n      tag_108\n      jump\t// in\n    tag_234:\n        /* \"#utility.yul\":10666:10802   */\n      pop\n        /* \"#utility.yul\":10613:10802   */\n      pop\n      pop\n      jump\t// out\n        /* \"#utility.yul\":10808:10994   */\n    tag_111:\n        /* \"#utility.yul\":10868:10988   */\n    tag_236:\n        /* \"#utility.yul\":10885:10888   */\n      dup2\n        /* \"#utility.yul\":10878:10883   */\n      dup2\n        /* \"#utility.yul\":10875:10889   */\n      lt\n        /* \"#utility.yul\":10868:10988   */\n      iszero\n      tag_238\n      jumpi\n        /* \"#utility.yul\":10939:10978   */\n      tag_239\n        /* \"#utility.yul\":10976:10977   */\n      0x00\n        /* \"#utility.yul\":10969:10974   */\n      dup3\n        /* \"#utility.yul\":10939:10978   */\n      tag_110\n      jump\t// in\n    tag_239:\n        /* \"#utility.yul\":10912:10913   */\n      0x01\n        /* \"#utility.yul\":10905:10910   */\n      dup2\n        /* \"#utility.yul\":10901:10914   */\n      add\n        /* \"#utility.yul\":10892:10914   */\n      swap1\n      pop\n        /* \"#utility.yul\":10868:10988   */\n      jump(tag_236)\n    tag_238:\n        /* \"#utility.yul\":10808:10994   */\n      pop\n      pop\n      jump\t// out\n        /* \"#utility.yul\":11000:11543   */\n    tag_112:\n        /* \"#utility.yul\":11101:11103   */\n      0x1f\n        /* \"#utility.yul\":11096:11099   */\n      dup3\n        /* \"#utility.yul\":11093:11104   */\n      gt\n        /* \"#utility.yul\":11090:11536   */\n      iszero\n      tag_241\n      jumpi\n        /* \"#utility.yul\":11135:11173   */\n      tag_242\n        /* \"#utility.yul\":11167:11172   */\n      dup2\n        /* \"#utility.yul\":11135:11173   */\n      tag_101\n      jump\t// in\n    tag_242:\n        /* \"#utility.yul\":11219:11248   */\n      tag_243\n        /* \"#utility.yul\":11237:11247   */\n      dup5\n        /* \"#utility.yul\":11219:11248   */\n      tag_102\n      jump\t// in\n    tag_243:\n        /* \"#utility.yul\":11209:11217   */\n      dup2\n        /* \"#utility.yul\":11205:11249   */\n      add\n        /* \"#utility.yul\":11402:11404   */\n      0x20\n        /* \"#utility.yul\":11390:11400   */\n      dup6\n        /* \"#utility.yul\":11387:11405   */\n      lt\n        /* \"#utility.yul\":11384:11433   */\n      iszero\n      tag_244\n      jumpi\n        /* \"#utility.yul\":11423:11431   */\n      dup2\n        /* \"#utility.yul\":11408:11431   */\n      swap1\n      pop\n        /* \"#utility.yul\":11384:11433   */\n    tag_244:\n        /* \"#utility.yul\":11446:11526   */\n      tag_245\n        /* \"#utility.yul\":11502:11524   */\n      tag_246\n        /* \"#utility.yul\":11520:11523   */\n      dup6\n        /* \"#utility.yul\":11502:11524   */\n      tag_102\n      jump\t// in\n    tag_246:\n        /* \"#utility.yul\":11492:11500   */\n      dup4\n        /* \"#utility.yul\":11488:11525   */\n      add\n        /* \"#utility.yul\":11475:11486   */\n      dup3\n        /* \"#utility.yul\":11446:11526   */\n      tag_111\n      jump\t// in\n    tag_245:\n        /* \"#utility.yul\":11105:11536   */\n      pop\n      pop\n        /* \"#utility.yul\":11090:11536   */\n    tag_241:\n        /* \"#utility.yul\":11000:11543   */\n      pop\n      pop\n      pop\n      jump\t// out\n        /* \"#utility.yul\":11549:11666   */\n    tag_113:\n        /* \"#utility.yul\":11603:11611   */\n      0x00\n        /* \"#utility.yul\":11653:11658   */\n      dup3\n        /* \"#utility.yul\":11647:11651   */\n      dup3\n        /* \"#utility.yul\":11643:11659   */\n      shr\n        /* \"#utility.yul\":11622:11659   */\n      swap1\n      pop\n        /* \"#utility.yul\":11549:11666   */\n      swap3\n      swap2\n      pop\n      pop\n      jump\t// out\n        /* \"#utility.yul\":11672:11841   */\n    tag_114:\n        /* \"#utility.yul\":11716:11722   */\n      0x00\n        /* \"#utility.yul\":11749:11800   */\n      tag_249\n        /* \"#utility.yul\":11797:11798   */\n      0x00\n        /* \"#utility.yul\":11793:11799   */\n      not\n        /* \"#utility.yul\":11785:11790   */\n      dup5\n        /* \"#utility.yul\":11782:11783   */\n      0x08\n        /* \"#utility.yul\":11778:11791   */\n      mul\n        /* \"#utility.yul\":11749:11800   */\n      tag_113\n      jump\t// in\n    tag_249:\n        /* \"#utility.yul\":11745:11801   */\n      not\n        /* \"#utility.yul\":11830:11834   */\n      dup1\n        /* \"#utility.yul\":11824:11828   */\n      dup4\n        /* \"#utility.yul\":11820:11835   */\n      and\n        /* \"#utility.yul\":11810:11835   */\n      swap2\n      pop\n        /* \"#utility.yul\":11723:11841   */\n      pop\n        /* \"#utility.yul\":11672:11841   */\n      swap3\n      swap2\n      pop\n      pop\n      jump\t// out\n        /* \"#utility.yul\":11846:12141   */\n    tag_115:\n        /* \"#utility.yul\":11922:11926   */\n      0x00\n        /* \"#utility.yul\":12068:12097   */\n      tag_251\n        /* \"#utility.yul\":12093:12096   */\n      dup4\n        /* \"#utility.yul\":12087:12091   */\n      dup4\n        /* \"#utility.yul\":12068:12097   */\n      tag_114\n      jump\t// in\n    tag_251:\n        /* \"#utility.yul\":12060:12097   */\n      swap2\n      pop\n        /* \"#utility.yul\":12130:12133   */\n      dup3\n        /* \"#utility.yul\":12127:12128   */\n      0x02\n        /* \"#utility.yul\":12123:12134   */\n      mul\n        /* \"#utility.yul\":12117:12121   */\n      dup3\n        /* \"#utility.yul\":12114:12135   */\n      or\n        /* \"#utility.yul\":12106:12135   */\n      swap1\n      pop\n        /* \"#utility.yul\":11846:12141   */\n      swap3\n      swap2\n      pop\n      pop\n      jump\t// out\n        /* \"#utility.yul\":12146:13541   */\n    tag_65:\n        /* \"#utility.yul\":12263:12300   */\n      tag_253\n        /* \"#utility.yul\":12296:12299   */\n      dup3\n        /* \"#utility.yul\":12263:12300   */\n      tag_69\n      jump\t// in\n    tag_253:\n        /* \"#utility.yul\":12365:12383   */\n      0xffffffffffffffff\n        /* \"#utility.yul\":12357:12363   */\n      dup2\n        /* \"#utility.yul\":12354:12384   */\n      gt\n        /* \"#utility.yul\":12351:12407   */\n      iszero\n      tag_254\n      jumpi\n        /* \"#utility.yul\":12387:12405   */\n      tag_255\n      tag_88\n      jump\t// in\n    tag_255:\n        /* \"#utility.yul\":12351:12407   */\n    tag_254:\n        /* \"#utility.yul\":12431:12469   */\n      tag_256\n        /* \"#utility.yul\":12463:12467   */\n      dup3\n        /* \"#utility.yul\":12457:12468   */\n      sload\n        /* \"#utility.yul\":12431:12469   */\n      tag_35\n      jump\t// in\n    tag_256:\n        /* \"#utility.yul\":12516:12583   */\n      tag_257\n        /* \"#utility.yul\":12576:12582   */\n      dup3\n        /* \"#utility.yul\":12568:12574   */\n      dup3\n        /* \"#utility.yul\":12562:12566   */\n      dup6\n        /* \"#utility.yul\":12516:12583   */\n      tag_112\n      jump\t// in\n    tag_257:\n        /* \"#utility.yul\":12610:12611   */\n      0x00\n        /* \"#utility.yul\":12634:12638   */\n      0x20\n        /* \"#utility.yul\":12621:12638   */\n      swap1\n      pop\n        /* \"#utility.yul\":12666:12668   */\n      0x1f\n        /* \"#utility.yul\":12658:12664   */\n      dup4\n        /* \"#utility.yul\":12655:12669   */\n      gt\n        /* \"#utility.yul\":12683:12684   */\n      0x01\n        /* \"#utility.yul\":12678:13296   */\n      dup2\n      eq\n      tag_259\n      jumpi\n        /* \"#utility.yul\":13340:13341   */\n      0x00\n        /* \"#utility.yul\":13357:13363   */\n      dup5\n        /* \"#utility.yul\":13354:13431   */\n      iszero\n      tag_260\n      jumpi\n        /* \"#utility.yul\":13406:13415   */\n      dup3\n        /* \"#utility.yul\":13401:13404   */\n      dup8\n        /* \"#utility.yul\":13397:13416   */\n      add\n        /* \"#utility.yul\":13391:13417   */\n      mload\n        /* \"#utility.yul\":13382:13417   */\n      swap1\n      pop\n        /* \"#utility.yul\":13354:13431   */\n    tag_260:\n        /* \"#utility.yul\":13457:13524   */\n      tag_261\n        /* \"#utility.yul\":13517:13523   */\n      dup6\n        /* \"#utility.yul\":13510:13515   */\n      dup3\n        /* \"#utility.yul\":13457:13524   */\n      tag_115\n      jump\t// in\n    tag_261:\n        /* \"#utility.yul\":13451:13455   */\n      dup7\n        /* \"#utility.yul\":13444:13525   */\n      sstore\n        /* \"#utility.yul\":13313:13535   */\n      pop\n        /* \"#utility.yul\":12648:13535   */\n      jump(tag_258)\n        /* \"#utility.yul\":12678:13296   */\n    tag_259:\n        /* \"#utility.yul\":12730:12734   */\n      0x1f\n        /* \"#utility.yul\":12726:12735   */\n      not\n        /* \"#utility.yul\":12718:12724   */\n      dup5\n        /* \"#utility.yul\":12714:12736   */\n      and\n        /* \"#utility.yul\":12764:12801   */\n      tag_262\n        /* \"#utility.yul\":12796:12800   */\n      dup7\n        /* \"#utility.yul\":12764:12801   */\n      tag_101\n      jump\t// in\n    tag_262:\n        /* \"#utility.yul\":12823:12824   */\n      0x00\n        /* \"#utility.yul\":12837:13045   */\n    tag_263:\n        /* \"#utility.yul\":12851:12858   */\n      dup3\n        /* \"#utility.yul\":12848:12849   */\n      dup2\n        /* \"#utility.yul\":12845:12859   */\n      lt\n        /* \"#utility.yul\":12837:13045   */\n      iszero\n      tag_265\n      jumpi\n        /* \"#utility.yul\":12930:12939   */\n      dup5\n        /* \"#utility.yul\":12925:12928   */\n      dup10\n        /* \"#utility.yul\":12921:12940   */\n      add\n        /* \"#utility.yul\":12915:12941   */\n      mload\n        /* \"#utility.yul\":12907:12913   */\n      dup3\n        /* \"#utility.yul\":12900:12942   */\n      sstore\n        /* \"#utility.yul\":12981:12982   */\n      0x01\n        /* \"#utility.yul\":12973:12979   */\n      dup3\n        /* \"#utility.yul\":12969:12983   */\n      add\n        /* \"#utility.yul\":12959:12983   */\n      swap2\n      pop\n        /* \"#utility.yul\":13028:13030   */\n      0x20\n        /* \"#utility.yul\":13017:13026   */\n      dup6\n        /* \"#utility.yul\":13013:13031   */\n      add\n        /* \"#utility.yul\":13000:13031   */\n      swap5\n      pop\n        /* \"#utility.yul\":12874:12878   */\n      0x20\n        /* \"#utility.yul\":12871:12872   */\n      dup2\n        /* \"#utility.yul\":12867:12879   */\n      add\n        /* \"#utility.yul\":12862:12879   */\n      swap1\n      pop\n        /* \"#utility.yul\":12837:13045   */\n      jump(tag_263)\n    tag_265:\n        /* \"#utility.yul\":13073:13079   */\n      dup7\n        /* \"#utility.yul\":13064:13071   */\n      dup4\n        /* \"#utility.yul\":13061:13080   */\n      lt\n        /* \"#utility.yul\":13058:13237   */\n      iszero\n      tag_266\n      jumpi\n        /* \"#utility.yul\":13131:13140   */\n      dup5\n        /* \"#utility.yul\":13126:13129   */\n      dup10\n        /* \"#utility.yul\":13122:13141   */\n      add\n        /* \"#utility.yul\":13116:13142   */\n      mload\n        /* \"#utility.yul\":13174:13222   */\n      tag_267\n        /* \"#utility.yul\":13216:13220   */\n      0x1f\n        /* \"#utility.yul\":13208:13214   */\n      dup10\n        /* \"#utility.yul\":13204:13221   */\n      and\n        /* \"#utility.yul\":13193:13202   */\n      dup3\n        /* \"#utility.yul\":13174:13222   */\n      tag_114\n      jump\t// in\n    tag_267:\n        /* \"#utility.yul\":13166:13172   */\n      dup4\n        /* \"#utility.yul\":13159:13223   */\n      sstore\n        /* \"#utility.yul\":13081:13237   */\n      pop\n        /* \"#utility.yul\":13058:13237   */\n    tag_266:\n        /* \"#utility.yul\":13283:13284   */\n      0x01\n        /* \"#utility.yul\":13279:13280   */\n      0x02\n        /* \"#utility.yul\":13271:13277   */\n      dup9\n        /* \"#utility.yul\":13267:13281   */\n      mul\n        /* \"#utility.yul\":13263:13285   */\n      add\n        /* \"#utility.yul\":13257:13261   */\n      dup9\n        /* \"#utility.yul\":13250:13286   */\n      sstore\n        /* \"#utility.yul\":12685:13296   */\n      pop\n      pop\n      pop\n        /* \"#utility.yul\":12648:13535   */\n    tag_258:\n      pop\n        /* \"#utility.yul\":12238:13541   */\n      pop\n      pop\n      pop\n        /* \"#utility.yul\":12146:13541   */\n      pop\n      pop\n      jump\t// out\n        /* \"#utility.yul\":13547:13780   */\n    tag_67:\n        /* \"#utility.yul\":13586:13589   */\n      0x00\n        /* \"#utility.yul\":13609:13633   */\n      tag_269\n        /* \"#utility.yul\":13627:13632   */\n      dup3\n        /* \"#utility.yul\":13609:13633   */\n      tag_74\n      jump\t// in\n    tag_269:\n        /* \"#utility.yul\":13600:13633   */\n      swap2\n      pop\n        /* \"#utility.yul\":13655:13721   */\n      0xffffffffffffffffffffffffffffffffffffffffffffffffffffffffffffffff\n        /* \"#utility.yul\":13648:13653   */\n      dup3\n        /* \"#utility.yul\":13645:13722   */\n      sub\n        /* \"#utility.yul\":13642:13745   */\n      tag_270\n      jumpi\n        /* \"#utility.yul\":13725:13743   */\n      tag_271\n      tag_100\n      jump\t// in\n    tag_271:\n        /* \"#utility.yul\":13642:13745   */\n    tag_270:\n        /* \"#utility.yul\":13772:13773   */\n      0x01\n        /* \"#utility.yul\":13765:13770   */\n      dup3\n        /* \"#utility.yul\":13761:13774   */\n      add\n        /* \"#utility.yul\":13754:13774   */\n      swap1\n      pop\n        /* \"#utility.yul\":13547:13780   */\n      swap2\n      swap1\n      pop\n      jump\t// out\n\n    auxdata: 0xa264697066735822122050e355cfba6c62392f5ce51cecebd2490afa6b73719d3db7e26cf6bdd995b0cf64736f6c63430008160033\n}\n",
				"bytecode": {
					"linkReferences": {},
					"object": "60806040526040518060400160405280600781526020017f5445524334303400000000000000000000000000000000000000000000000000815250600290816200004a919062000309565b506040518060400160405280600281526020017f54340000000000000000000000000000000000000000000000000000000000008152506003908162000091919062000309565b503480156200009e575f80fd5b50620003ed565b5f81519050919050565b7f4e487b71000000000000000000000000000000000000000000000000000000005f52604160045260245ffd5b7f4e487b71000000000000000000000000000000000000000000000000000000005f52602260045260245ffd5b5f60028204905060018216806200012157607f821691505b602082108103620001375762000136620000dc565b5b50919050565b5f819050815f5260205f209050919050565b5f6020601f8301049050919050565b5f82821b905092915050565b5f600883026200019b7fffffffffffffffffffffffffffffffffffffffffffffffffffffffffffffffff826200015e565b620001a786836200015e565b95508019841693508086168417925050509392505050565b5f819050919050565b5f819050919050565b5f620001f1620001eb620001e584620001bf565b620001c8565b620001bf565b9050919050565b5f819050919050565b6200020c83620001d1565b620002246200021b82620001f8565b8484546200016a565b825550505050565b5f90565b6200023a6200022c565b6200024781848462000201565b505050565b5b818110156200026e57620002625f8262000230565b6001810190506200024d565b5050565b601f821115620002bd5762000287816200013d565b62000292846200014f565b81016020851015620002a2578190505b620002ba620002b1856200014f565b8301826200024c565b50505b505050565b5f82821c905092915050565b5f620002df5f1984600802620002c2565b1980831691505092915050565b5f620002f98383620002ce565b9150826002028217905092915050565b6200031482620000a5565b67ffffffffffffffff81111562000330576200032f620000af565b5b6200033c825462000109565b6200034982828562000272565b5f60209050601f8311600181146200037f575f84156200036a578287015190505b620003768582620002ec565b865550620003e5565b601f1984166200038f866200013d565b5f5b82811015620003b85784890151825560018201915060208501945060208101905062000391565b86831015620003d85784890151620003d4601f891682620002ce565b8355505b6001600288020188555050505b505050505050565b610db780620003fb5f395ff3fe608060405234801561000f575f80fd5b5060043610610060575f3560e01c806306fdde031461006457806318160ddd1461008257806395d89b41146100a0578063a574cea4146100be578063a5cd761f146100ee578063d0def5211461011e575b5f80fd5b61006c61013a565b6040516100799190610682565b60405180910390f35b61008a6101c6565b60405161009791906106ba565b60405180910390f35b6100a86101cf565b6040516100b59190610682565b60405180910390f35b6100d860048036038101906100d3919061070e565b61025b565b6040516100e59190610682565b60405180910390f35b6101086004803603810190610103919061070e565b61039d565b6040516101159190610778565b60405180910390f35b610138600480360381019061013391906108e7565b610476565b005b600280546101479061096e565b80601f01602080910402602001604051908101604052809291908181526020018280546101739061096e565b80156101be5780601f10610195576101008083540402835291602001916101be565b820191905f5260205f20905b8154815290600101906020018083116101a157829003601f168201915b505050505081565b5f600154905090565b600380546101dc9061096e565b80601f01602080910402602001604051908101604052809291908181526020018280546102089061096e565b80156102535780601f1061022a57610100808354040283529160200191610253565b820191905f5260205f20905b81548152906001019060200180831161023657829003601f168201915b505050505081565b60605f73ffffffffffffffffffffffffffffffffffffffff165f808481526020019081526020015f205f015f9054906101000a900473ffffffffffffffffffffffffffffffffffffffff1673ffffffffffffffffffffffffffffffffffffffff16036102fc576040517f08c379a00000000000000000000000000000000000000000000000000000000081526004016102f3906109e8565b60405180910390fd5b5f808381526020019081526020015f20600101805461031a9061096e565b80601f01602080910402602001604051908101604052809291908181526020018280546103469061096e565b80156103915780601f1061036857610100808354040283529160200191610391565b820191905f5260205f20905b81548152906001019060200180831161037457829003601f168201915b50505050509050919050565b5f8073ffffffffffffffffffffffffffffffffffffffff165f808481526020019081526020015f205f015f9054906101000a900473ffffffffffffffffffffffffffffffffffffffff1673ffffffffffffffffffffffffffffffffffffffff160361043d576040517f08c379a0000000000000000000000000000000000000000000000000000000008152600401610434906109e8565b60405180910390fd5b5f808381526020019081526020015f205f015f9054906101000a900473ffffffffffffffffffffffffffffffffffffffff169050919050565b5f73ffffffffffffffffffffffffffffffffffffffff168273ffffffffffffffffffffffffffffffffffffffff16036104e4576040517f08c379a00000000000000000000000000000000000000000000000000000000081526004016104db90610a50565b60405180910390fd5b5f600180546104f39190610a9b565b905060405180604001604052808473ffffffffffffffffffffffffffffffffffffffff168152602001838152505f808381526020019081526020015f205f820151815f015f6101000a81548173ffffffffffffffffffffffffffffffffffffffff021916908373ffffffffffffffffffffffffffffffffffffffff16021790555060208201518160010190816105899190610c6b565b5090505060015f81548092919061059f90610d3a565b9190505550808373ffffffffffffffffffffffffffffffffffffffff167fdf92894dc4675a7333caa5903b69cf5d8e8ec0d3f361c88207b6688e525703bb846040516105eb9190610682565b60405180910390a3505050565b5f81519050919050565b5f82825260208201905092915050565b5f5b8381101561062f578082015181840152602081019050610614565b5f8484015250505050565b5f601f19601f8301169050919050565b5f610654826105f8565b61065e8185610602565b935061066e818560208601610612565b6106778161063a565b840191505092915050565b5f6020820190508181035f83015261069a818461064a565b905092915050565b5f819050919050565b6106b4816106a2565b82525050565b5f6020820190506106cd5f8301846106ab565b92915050565b5f604051905090565b5f80fd5b5f80fd5b6106ed816106a2565b81146106f7575f80fd5b50565b5f81359050610708816106e4565b92915050565b5f60208284031215610723576107226106dc565b5b5f610730848285016106fa565b91505092915050565b5f73ffffffffffffffffffffffffffffffffffffffff82169050919050565b5f61076282610739565b9050919050565b61077281610758565b82525050565b5f60208201905061078b5f830184610769565b92915050565b61079a81610758565b81146107a4575f80fd5b50565b5f813590506107b581610791565b92915050565b5f80fd5b5f80fd5b7f4e487b71000000000000000000000000000000000000000000000000000000005f52604160045260245ffd5b6107f98261063a565b810181811067ffffffffffffffff82111715610818576108176107c3565b5b80604052505050565b5f61082a6106d3565b905061083682826107f0565b919050565b5f67ffffffffffffffff821115610855576108546107c3565b5b61085e8261063a565b9050602081019050919050565b828183375f83830152505050565b5f61088b6108868461083b565b610821565b9050828152602081018484840111156108a7576108a66107bf565b5b6108b284828561086b565b509392505050565b5f82601f8301126108ce576108cd6107bb565b5b81356108de848260208601610879565b91505092915050565b5f80604083850312156108fd576108fc6106dc565b5b5f61090a858286016107a7565b925050602083013567ffffffffffffffff81111561092b5761092a6106e0565b5b610937858286016108ba565b9150509250929050565b7f4e487b71000000000000000000000000000000000000000000000000000000005f52602260045260245ffd5b5f600282049050600182168061098557607f821691505b60208210810361099857610997610941565b5b50919050565b7f4552433430343a20546f6b656e20646f6573206e6f74206578697374000000005f82015250565b5f6109d2601c83610602565b91506109dd8261099e565b602082019050919050565b5f6020820190508181035f8301526109ff816109c6565b9050919050565b7f4552433430343a204d696e7420746f207a65726f2061646472657373000000005f82015250565b5f610a3a601c83610602565b9150610a4582610a06565b602082019050919050565b5f6020820190508181035f830152610a6781610a2e565b9050919050565b7f4e487b71000000000000000000000000000000000000000000000000000000005f52601160045260245ffd5b5f610aa5826106a2565b9150610ab0836106a2565b9250828201905080821115610ac857610ac7610a6e565b5b92915050565b5f819050815f5260205f209050919050565b5f6020601f8301049050919050565b5f82821b905092915050565b5f60088302610b2a7fffffffffffffffffffffffffffffffffffffffffffffffffffffffffffffffff82610aef565b610b348683610aef565b95508019841693508086168417925050509392505050565b5f819050919050565b5f610b6f610b6a610b65846106a2565b610b4c565b6106a2565b9050919050565b5f819050919050565b610b8883610b55565b610b9c610b9482610b76565b848454610afb565b825550505050565b5f90565b610bb0610ba4565b610bbb818484610b7f565b505050565b5b81811015610bde57610bd35f82610ba8565b600181019050610bc1565b5050565b601f821115610c2357610bf481610ace565b610bfd84610ae0565b81016020851015610c0c578190505b610c20610c1885610ae0565b830182610bc0565b50505b505050565b5f82821c905092915050565b5f610c435f1984600802610c28565b1980831691505092915050565b5f610c5b8383610c34565b9150826002028217905092915050565b610c74826105f8565b67ffffffffffffffff811115610c8d57610c8c6107c3565b5b610c97825461096e565b610ca2828285610be2565b5f60209050601f831160018114610cd3575f8415610cc1578287015190505b610ccb8582610c50565b865550610d32565b601f198416610ce186610ace565b5f5b82811015610d0857848901518255600182019150602085019450602081019050610ce3565b86831015610d255784890151610d21601f891682610c34565b8355505b6001600288020188555050505b505050505050565b5f610d44826106a2565b91507fffffffffffffffffffffffffffffffffffffffffffffffffffffffffffffffff8203610d7657610d75610a6e565b5b60018201905091905056fea264697066735822122050e355cfba6c62392f5ce51cecebd2490afa6b73719d3db7e26cf6bdd995b0cf64736f6c63430008160033",
					"opcodes": "PUSH1 0x80 PUSH1 0x40 MSTORE PUSH1 0x40 MLOAD DUP1 PUSH1 0x40 ADD PUSH1 0x40 MSTORE DUP1 PUSH1 0x7 DUP2 MSTORE PUSH1 0x20 ADD PUSH32 0x5445524334303400000000000000000000000000000000000000000000000000 DUP2 MSTORE POP PUSH1 0x2 SWAP1 DUP2 PUSH3 0x4A SWAP2 SWAP1 PUSH3 0x309 JUMP JUMPDEST POP PUSH1 0x40 MLOAD DUP1 PUSH1 0x40 ADD PUSH1 0x40 MSTORE DUP1 PUSH1 0x2 DUP2 MSTORE PUSH1 0x20 ADD PUSH32 0x5434000000000000000000000000000000000000000000000000000000000000 DUP2 MSTORE POP PUSH1 0x3 SWAP1 DUP2 PUSH3 0x91 SWAP2 SWAP1 PUSH3 0x309 JUMP JUMPDEST POP CALLVALUE DUP1 ISZERO PUSH3 0x9E JUMPI PUSH0 DUP1 REVERT JUMPDEST POP PUSH3 0x3ED JUMP JUMPDEST PUSH0 DUP2 MLOAD SWAP1 POP SWAP2 SWAP1 POP JUMP JUMPDEST PUSH32 0x4E487B7100000000000000000000000000000000000000000000000000000000 PUSH0 MSTORE PUSH1 0x41 PUSH1 0x4 MSTORE PUSH1 0x24 PUSH0 REVERT JUMPDEST PUSH32 0x4E487B7100000000000000000000000000000000000000000000000000000000 PUSH0 MSTORE PUSH1 0x22 PUSH1 0x4 MSTORE PUSH1 0x24 PUSH0 REVERT JUMPDEST PUSH0 PUSH1 0x2 DUP3 DIV SWAP1 POP PUSH1 0x1 DUP3 AND DUP1 PUSH3 0x121 JUMPI PUSH1 0x7F DUP3 AND SWAP2 POP JUMPDEST PUSH1 0x20 DUP3 LT DUP2 SUB PUSH3 0x137 JUMPI PUSH3 0x136 PUSH3 0xDC JUMP JUMPDEST JUMPDEST POP SWAP2 SWAP1 POP JUMP JUMPDEST PUSH0 DUP2 SWAP1 POP DUP2 PUSH0 MSTORE PUSH1 0x20 PUSH0 KECCAK256 SWAP1 POP SWAP2 SWAP1 POP JUMP JUMPDEST PUSH0 PUSH1 0x20 PUSH1 0x1F DUP4 ADD DIV SWAP1 POP SWAP2 SWAP1 POP JUMP JUMPDEST PUSH0 DUP3 DUP3 SHL SWAP1 POP SWAP3 SWAP2 POP POP JUMP JUMPDEST PUSH0 PUSH1 0x8 DUP4 MUL PUSH3 0x19B PUSH32 0xFFFFFFFFFFFFFFFFFFFFFFFFFFFFFFFFFFFFFFFFFFFFFFFFFFFFFFFFFFFFFFFF DUP3 PUSH3 0x15E JUMP JUMPDEST PUSH3 0x1A7 DUP7 DUP4 PUSH3 0x15E JUMP JUMPDEST SWAP6 POP DUP1 NOT DUP5 AND SWAP4 POP DUP1 DUP7 AND DUP5 OR SWAP3 POP POP POP SWAP4 SWAP3 POP POP POP JUMP JUMPDEST PUSH0 DUP2 SWAP1 POP SWAP2 SWAP1 POP JUMP JUMPDEST PUSH0 DUP2 SWAP1 POP SWAP2 SWAP1 POP JUMP JUMPDEST PUSH0 PUSH3 0x1F1 PUSH3 0x1EB PUSH3 0x1E5 DUP5 PUSH3 0x1BF JUMP JUMPDEST PUSH3 0x1C8 JUMP JUMPDEST PUSH3 0x1BF JUMP JUMPDEST SWAP1 POP SWAP2 SWAP1 POP JUMP JUMPDEST PUSH0 DUP2 SWAP1 POP SWAP2 SWAP1 POP JUMP JUMPDEST PUSH3 0x20C DUP4 PUSH3 0x1D1 JUMP JUMPDEST PUSH3 0x224 PUSH3 0x21B DUP3 PUSH3 0x1F8 JUMP JUMPDEST DUP5 DUP5 SLOAD PUSH3 0x16A JUMP JUMPDEST DUP3 SSTORE POP POP POP POP JUMP JUMPDEST PUSH0 SWAP1 JUMP JUMPDEST PUSH3 0x23A PUSH3 0x22C JUMP JUMPDEST PUSH3 0x247 DUP2 DUP5 DUP5 PUSH3 0x201 JUMP JUMPDEST POP POP POP JUMP JUMPDEST JUMPDEST DUP2 DUP2 LT ISZERO PUSH3 0x26E JUMPI PUSH3 0x262 PUSH0 DUP3 PUSH3 0x230 JUMP JUMPDEST PUSH1 0x1 DUP2 ADD SWAP1 POP PUSH3 0x24D JUMP JUMPDEST POP POP JUMP JUMPDEST PUSH1 0x1F DUP3 GT ISZERO PUSH3 0x2BD JUMPI PUSH3 0x287 DUP2 PUSH3 0x13D JUMP JUMPDEST PUSH3 0x292 DUP5 PUSH3 0x14F JUMP JUMPDEST DUP2 ADD PUSH1 0x20 DUP6 LT ISZERO PUSH3 0x2A2 JUMPI DUP2 SWAP1 POP JUMPDEST PUSH3 0x2BA PUSH3 0x2B1 DUP6 PUSH3 0x14F JUMP JUMPDEST DUP4 ADD DUP3 PUSH3 0x24C JUMP JUMPDEST POP POP JUMPDEST POP POP POP JUMP JUMPDEST PUSH0 DUP3 DUP3 SHR SWAP1 POP SWAP3 SWAP2 POP POP JUMP JUMPDEST PUSH0 PUSH3 0x2DF PUSH0 NOT DUP5 PUSH1 0x8 MUL PUSH3 0x2C2 JUMP JUMPDEST NOT DUP1 DUP4 AND SWAP2 POP POP SWAP3 SWAP2 POP POP JUMP JUMPDEST PUSH0 PUSH3 0x2F9 DUP4 DUP4 PUSH3 0x2CE JUMP JUMPDEST SWAP2 POP DUP3 PUSH1 0x2 MUL DUP3 OR SWAP1 POP SWAP3 SWAP2 POP POP JUMP JUMPDEST PUSH3 0x314 DUP3 PUSH3 0xA5 JUMP JUMPDEST PUSH8 0xFFFFFFFFFFFFFFFF DUP2 GT ISZERO PUSH3 0x330 JUMPI PUSH3 0x32F PUSH3 0xAF JUMP JUMPDEST JUMPDEST PUSH3 0x33C DUP3 SLOAD PUSH3 0x109 JUMP JUMPDEST PUSH3 0x349 DUP3 DUP3 DUP6 PUSH3 0x272 JUMP JUMPDEST PUSH0 PUSH1 0x20 SWAP1 POP PUSH1 0x1F DUP4 GT PUSH1 0x1 DUP2 EQ PUSH3 0x37F JUMPI PUSH0 DUP5 ISZERO PUSH3 0x36A JUMPI DUP3 DUP8 ADD MLOAD SWAP1 POP JUMPDEST PUSH3 0x376 DUP6 DUP3 PUSH3 0x2EC JUMP JUMPDEST DUP7 SSTORE POP PUSH3 0x3E5 JUMP JUMPDEST PUSH1 0x1F NOT DUP5 AND PUSH3 0x38F DUP7 PUSH3 0x13D JUMP JUMPDEST PUSH0 JUMPDEST DUP3 DUP2 LT ISZERO PUSH3 0x3B8 JUMPI DUP5 DUP10 ADD MLOAD DUP3 SSTORE PUSH1 0x1 DUP3 ADD SWAP2 POP PUSH1 0x20 DUP6 ADD SWAP5 POP PUSH1 0x20 DUP2 ADD SWAP1 POP PUSH3 0x391 JUMP JUMPDEST DUP7 DUP4 LT ISZERO PUSH3 0x3D8 JUMPI DUP5 DUP10 ADD MLOAD PUSH3 0x3D4 PUSH1 0x1F DUP10 AND DUP3 PUSH3 0x2CE JUMP JUMPDEST DUP4 SSTORE POP JUMPDEST PUSH1 0x1 PUSH1 0x2 DUP9 MUL ADD DUP9 SSTORE POP POP POP JUMPDEST POP POP POP POP POP POP JUMP JUMPDEST PUSH2 0xDB7 DUP1 PUSH3 0x3FB PUSH0 CODECOPY PUSH0 RETURN INVALID PUSH1 0x80 PUSH1 0x40 MSTORE CALLVALUE DUP1 ISZERO PUSH2 0xF JUMPI PUSH0 DUP1 REVERT JUMPDEST POP PUSH1 0x4 CALLDATASIZE LT PUSH2 0x60 JUMPI PUSH0 CALLDATALOAD PUSH1 0xE0 SHR DUP1 PUSH4 0x6FDDE03 EQ PUSH2 0x64 JUMPI DUP1 PUSH4 0x18160DDD EQ PUSH2 0x82 JUMPI DUP1 PUSH4 0x95D89B41 EQ PUSH2 0xA0 JUMPI DUP1 PUSH4 0xA574CEA4 EQ PUSH2 0xBE JUMPI DUP1 PUSH4 0xA5CD761F EQ PUSH2 0xEE JUMPI DUP1 PUSH4 0xD0DEF521 EQ PUSH2 0x11E JUMPI JUMPDEST PUSH0 DUP1 REVERT JUMPDEST PUSH2 0x6C PUSH2 0x13A JUMP JUMPDEST PUSH1 0x40 MLOAD PUSH2 0x79 SWAP2 SWAP1 PUSH2 0x682 JUMP JUMPDEST PUSH1 0x40 MLOAD DUP1 SWAP2 SUB SWAP1 RETURN JUMPDEST PUSH2 0x8A PUSH2 0x1C6 JUMP JUMPDEST PUSH1 0x40 MLOAD PUSH2 0x97 SWAP2 SWAP1 PUSH2 0x6BA JUMP JUMPDEST PUSH1 0x40 MLOAD DUP1 SWAP2 SUB SWAP1 RETURN JUMPDEST PUSH2 0xA8 PUSH2 0x1CF JUMP JUMPDEST PUSH1 0x40 MLOAD PUSH2 0xB5 SWAP2 SWAP1 PUSH2 0x682 JUMP JUMPDEST PUSH1 0x40 MLOAD DUP1 SWAP2 SUB SWAP1 RETURN JUMPDEST PUSH2 0xD8 PUSH1 0x4 DUP1 CALLDATASIZE SUB DUP2 ADD SWAP1 PUSH2 0xD3 SWAP2 SWAP1 PUSH2 0x70E JUMP JUMPDEST PUSH2 0x25B JUMP JUMPDEST PUSH1 0x40 MLOAD PUSH2 0xE5 SWAP2 SWAP1 PUSH2 0x682 JUMP JUMPDEST PUSH1 0x40 MLOAD DUP1 SWAP2 SUB SWAP1 RETURN JUMPDEST PUSH2 0x108 PUSH1 0x4 DUP1 CALLDATASIZE SUB DUP2 ADD SWAP1 PUSH2 0x103 SWAP2 SWAP1 PUSH2 0x70E JUMP JUMPDEST PUSH2 0x39D JUMP JUMPDEST PUSH1 0x40 MLOAD PUSH2 0x115 SWAP2 SWAP1 PUSH2 0x778 JUMP JUMPDEST PUSH1 0x40 MLOAD DUP1 SWAP2 SUB SWAP1 RETURN JUMPDEST PUSH2 0x138 PUSH1 0x4 DUP1 CALLDATASIZE SUB DUP2 ADD SWAP1 PUSH2 0x133 SWAP2 SWAP1 PUSH2 0x8E7 JUMP JUMPDEST PUSH2 0x476 JUMP JUMPDEST STOP JUMPDEST PUSH1 0x2 DUP1 SLOAD PUSH2 0x147 SWAP1 PUSH2 0x96E JUMP JUMPDEST DUP1 PUSH1 0x1F ADD PUSH1 0x20 DUP1 SWAP2 DIV MUL PUSH1 0x20 ADD PUSH1 0x40 MLOAD SWAP1 DUP2 ADD PUSH1 0x40 MSTORE DUP1 SWAP3 SWAP2 SWAP1 DUP2 DUP2 MSTORE PUSH1 0x20 ADD DUP3 DUP1 SLOAD PUSH2 0x173 SWAP1 PUSH2 0x96E JUMP JUMPDEST DUP1 ISZERO PUSH2 0x1BE JUMPI DUP1 PUSH1 0x1F LT PUSH2 0x195 JUMPI PUSH2 0x100 DUP1 DUP4 SLOAD DIV MUL DUP4 MSTORE SWAP2 PUSH1 0x20 ADD SWAP2 PUSH2 0x1BE JUMP JUMPDEST DUP3 ADD SWAP2 SWAP1 PUSH0 MSTORE PUSH1 0x20 PUSH0 KECCAK256 SWAP1 JUMPDEST DUP2 SLOAD DUP2 MSTORE SWAP1 PUSH1 0x1 ADD SWAP1 PUSH1 0x20 ADD DUP1 DUP4 GT PUSH2 0x1A1 JUMPI DUP3 SWAP1 SUB PUSH1 0x1F AND DUP3 ADD SWAP2 JUMPDEST POP POP POP POP POP DUP2 JUMP JUMPDEST PUSH0 PUSH1 0x1 SLOAD SWAP1 POP SWAP1 JUMP JUMPDEST PUSH1 0x3 DUP1 SLOAD PUSH2 0x1DC SWAP1 PUSH2 0x96E JUMP JUMPDEST DUP1 PUSH1 0x1F ADD PUSH1 0x20 DUP1 SWAP2 DIV MUL PUSH1 0x20 ADD PUSH1 0x40 MLOAD SWAP1 DUP2 ADD PUSH1 0x40 MSTORE DUP1 SWAP3 SWAP2 SWAP1 DUP2 DUP2 MSTORE PUSH1 0x20 ADD DUP3 DUP1 SLOAD PUSH2 0x208 SWAP1 PUSH2 0x96E JUMP JUMPDEST DUP1 ISZERO PUSH2 0x253 JUMPI DUP1 PUSH1 0x1F LT PUSH2 0x22A JUMPI PUSH2 0x100 DUP1 DUP4 SLOAD DIV MUL DUP4 MSTORE SWAP2 PUSH1 0x20 ADD SWAP2 PUSH2 0x253 JUMP JUMPDEST DUP3 ADD SWAP2 SWAP1 PUSH0 MSTORE PUSH1 0x20 PUSH0 KECCAK256 SWAP1 JUMPDEST DUP2 SLOAD DUP2 MSTORE SWAP1 PUSH1 0x1 ADD SWAP1 PUSH1 0x20 ADD DUP1 DUP4 GT PUSH2 0x236 JUMPI DUP3 SWAP1 SUB PUSH1 0x1F AND DUP3 ADD SWAP2 JUMPDEST POP POP POP POP POP DUP2 JUMP JUMPDEST PUSH1 0x60 PUSH0 PUSH20 0xFFFFFFFFFFFFFFFFFFFFFFFFFFFFFFFFFFFFFFFF AND PUSH0 DUP1 DUP5 DUP2 MSTORE PUSH1 0x20 ADD SWAP1 DUP2 MSTORE PUSH1 0x20 ADD PUSH0 KECCAK256 PUSH0 ADD PUSH0 SWAP1 SLOAD SWAP1 PUSH2 0x100 EXP SWAP1 DIV PUSH20 0xFFFFFFFFFFFFFFFFFFFFFFFFFFFFFFFFFFFFFFFF AND PUSH20 0xFFFFFFFFFFFFFFFFFFFFFFFFFFFFFFFFFFFFFFFF AND SUB PUSH2 0x2FC JUMPI PUSH1 0x40 MLOAD PUSH32 0x8C379A000000000000000000000000000000000000000000000000000000000 DUP2 MSTORE PUSH1 0x4 ADD PUSH2 0x2F3 SWAP1 PUSH2 0x9E8 JUMP JUMPDEST PUSH1 0x40 MLOAD DUP1 SWAP2 SUB SWAP1 REVERT JUMPDEST PUSH0 DUP1 DUP4 DUP2 MSTORE PUSH1 0x20 ADD SWAP1 DUP2 MSTORE PUSH1 0x20 ADD PUSH0 KECCAK256 PUSH1 0x1 ADD DUP1 SLOAD PUSH2 0x31A SWAP1 PUSH2 0x96E JUMP JUMPDEST DUP1 PUSH1 0x1F ADD PUSH1 0x20 DUP1 SWAP2 DIV MUL PUSH1 0x20 ADD PUSH1 0x40 MLOAD SWAP1 DUP2 ADD PUSH1 0x40 MSTORE DUP1 SWAP3 SWAP2 SWAP1 DUP2 DUP2 MSTORE PUSH1 0x20 ADD DUP3 DUP1 SLOAD PUSH2 0x346 SWAP1 PUSH2 0x96E JUMP JUMPDEST DUP1 ISZERO PUSH2 0x391 JUMPI DUP1 PUSH1 0x1F LT PUSH2 0x368 JUMPI PUSH2 0x100 DUP1 DUP4 SLOAD DIV MUL DUP4 MSTORE SWAP2 PUSH1 0x20 ADD SWAP2 PUSH2 0x391 JUMP JUMPDEST DUP3 ADD SWAP2 SWAP1 PUSH0 MSTORE PUSH1 0x20 PUSH0 KECCAK256 SWAP1 JUMPDEST DUP2 SLOAD DUP2 MSTORE SWAP1 PUSH1 0x1 ADD SWAP1 PUSH1 0x20 ADD DUP1 DUP4 GT PUSH2 0x374 JUMPI DUP3 SWAP1 SUB PUSH1 0x1F AND DUP3 ADD SWAP2 JUMPDEST POP POP POP POP POP SWAP1 POP SWAP2 SWAP1 POP JUMP JUMPDEST PUSH0 DUP1 PUSH20 0xFFFFFFFFFFFFFFFFFFFFFFFFFFFFFFFFFFFFFFFF AND PUSH0 DUP1 DUP5 DUP2 MSTORE PUSH1 0x20 ADD SWAP1 DUP2 MSTORE PUSH1 0x20 ADD PUSH0 KECCAK256 PUSH0 ADD PUSH0 SWAP1 SLOAD SWAP1 PUSH2 0x100 EXP SWAP1 DIV PUSH20 0xFFFFFFFFFFFFFFFFFFFFFFFFFFFFFFFFFFFFFFFF AND PUSH20 0xFFFFFFFFFFFFFFFFFFFFFFFFFFFFFFFFFFFFFFFF AND SUB PUSH2 0x43D JUMPI PUSH1 0x40 MLOAD PUSH32 0x8C379A000000000000000000000000000000000000000000000000000000000 DUP2 MSTORE PUSH1 0x4 ADD PUSH2 0x434 SWAP1 PUSH2 0x9E8 JUMP JUMPDEST PUSH1 0x40 MLOAD DUP1 SWAP2 SUB SWAP1 REVERT JUMPDEST PUSH0 DUP1 DUP4 DUP2 MSTORE PUSH1 0x20 ADD SWAP1 DUP2 MSTORE PUSH1 0x20 ADD PUSH0 KECCAK256 PUSH0 ADD PUSH0 SWAP1 SLOAD SWAP1 PUSH2 0x100 EXP SWAP1 DIV PUSH20 0xFFFFFFFFFFFFFFFFFFFFFFFFFFFFFFFFFFFFFFFF AND SWAP1 POP SWAP2 SWAP1 POP JUMP JUMPDEST PUSH0 PUSH20 0xFFFFFFFFFFFFFFFFFFFFFFFFFFFFFFFFFFFFFFFF AND DUP3 PUSH20 0xFFFFFFFFFFFFFFFFFFFFFFFFFFFFFFFFFFFFFFFF AND SUB PUSH2 0x4E4 JUMPI PUSH1 0x40 MLOAD PUSH32 0x8C379A000000000000000000000000000000000000000000000000000000000 DUP2 MSTORE PUSH1 0x4 ADD PUSH2 0x4DB SWAP1 PUSH2 0xA50 JUMP JUMPDEST PUSH1 0x40 MLOAD DUP1 SWAP2 SUB SWAP1 REVERT JUMPDEST PUSH0 PUSH1 0x1 DUP1 SLOAD PUSH2 0x4F3 SWAP2 SWAP1 PUSH2 0xA9B JUMP JUMPDEST SWAP1 POP PUSH1 0x40 MLOAD DUP1 PUSH1 0x40 ADD PUSH1 0x40 MSTORE DUP1 DUP5 PUSH20 0xFFFFFFFFFFFFFFFFFFFFFFFFFFFFFFFFFFFFFFFF AND DUP2 MSTORE PUSH1 0x20 ADD DUP4 DUP2 MSTORE POP PUSH0 DUP1 DUP4 DUP2 MSTORE PUSH1 0x20 ADD SWAP1 DUP2 MSTORE PUSH1 0x20 ADD PUSH0 KECCAK256 PUSH0 DUP3 ADD MLOAD DUP2 PUSH0 ADD PUSH0 PUSH2 0x100 EXP DUP2 SLOAD DUP2 PUSH20 0xFFFFFFFFFFFFFFFFFFFFFFFFFFFFFFFFFFFFFFFF MUL NOT AND SWAP1 DUP4 PUSH20 0xFFFFFFFFFFFFFFFFFFFFFFFFFFFFFFFFFFFFFFFF AND MUL OR SWAP1 SSTORE POP PUSH1 0x20 DUP3 ADD MLOAD DUP2 PUSH1 0x1 ADD SWAP1 DUP2 PUSH2 0x589 SWAP2 SWAP1 PUSH2 0xC6B JUMP JUMPDEST POP SWAP1 POP POP PUSH1 0x1 PUSH0 DUP2 SLOAD DUP1 SWAP3 SWAP2 SWAP1 PUSH2 0x59F SWAP1 PUSH2 0xD3A JUMP JUMPDEST SWAP2 SWAP1 POP SSTORE POP DUP1 DUP4 PUSH20 0xFFFFFFFFFFFFFFFFFFFFFFFFFFFFFFFFFFFFFFFF AND PUSH32 0xDF92894DC4675A7333CAA5903B69CF5D8E8EC0D3F361C88207B6688E525703BB DUP5 PUSH1 0x40 MLOAD PUSH2 0x5EB SWAP2 SWAP1 PUSH2 0x682 JUMP JUMPDEST PUSH1 0x40 MLOAD DUP1 SWAP2 SUB SWAP1 LOG3 POP POP POP JUMP JUMPDEST PUSH0 DUP2 MLOAD SWAP1 POP SWAP2 SWAP1 POP JUMP JUMPDEST PUSH0 DUP3 DUP3 MSTORE PUSH1 0x20 DUP3 ADD SWAP1 POP SWAP3 SWAP2 POP POP JUMP JUMPDEST PUSH0 JUMPDEST DUP4 DUP2 LT ISZERO PUSH2 0x62F JUMPI DUP1 DUP3 ADD MLOAD DUP2 DUP5 ADD MSTORE PUSH1 0x20 DUP2 ADD SWAP1 POP PUSH2 0x614 JUMP JUMPDEST PUSH0 DUP5 DUP5 ADD MSTORE POP POP POP POP JUMP JUMPDEST PUSH0 PUSH1 0x1F NOT PUSH1 0x1F DUP4 ADD AND SWAP1 POP SWAP2 SWAP1 POP JUMP JUMPDEST PUSH0 PUSH2 0x654 DUP3 PUSH2 0x5F8 JUMP JUMPDEST PUSH2 0x65E DUP2 DUP6 PUSH2 0x602 JUMP JUMPDEST SWAP4 POP PUSH2 0x66E DUP2 DUP6 PUSH1 0x20 DUP7 ADD PUSH2 0x612 JUMP JUMPDEST PUSH2 0x677 DUP2 PUSH2 0x63A JUMP JUMPDEST DUP5 ADD SWAP2 POP POP SWAP3 SWAP2 POP POP JUMP JUMPDEST PUSH0 PUSH1 0x20 DUP3 ADD SWAP1 POP DUP2 DUP2 SUB PUSH0 DUP4 ADD MSTORE PUSH2 0x69A DUP2 DUP5 PUSH2 0x64A JUMP JUMPDEST SWAP1 POP SWAP3 SWAP2 POP POP JUMP JUMPDEST PUSH0 DUP2 SWAP1 POP SWAP2 SWAP1 POP JUMP JUMPDEST PUSH2 0x6B4 DUP2 PUSH2 0x6A2 JUMP JUMPDEST DUP3 MSTORE POP POP JUMP JUMPDEST PUSH0 PUSH1 0x20 DUP3 ADD SWAP1 POP PUSH2 0x6CD PUSH0 DUP4 ADD DUP5 PUSH2 0x6AB JUMP JUMPDEST SWAP3 SWAP2 POP POP JUMP JUMPDEST PUSH0 PUSH1 0x40 MLOAD SWAP1 POP SWAP1 JUMP JUMPDEST PUSH0 DUP1 REVERT JUMPDEST PUSH0 DUP1 REVERT JUMPDEST PUSH2 0x6ED DUP2 PUSH2 0x6A2 JUMP JUMPDEST DUP2 EQ PUSH2 0x6F7 JUMPI PUSH0 DUP1 REVERT JUMPDEST POP JUMP JUMPDEST PUSH0 DUP2 CALLDATALOAD SWAP1 POP PUSH2 0x708 DUP2 PUSH2 0x6E4 JUMP JUMPDEST SWAP3 SWAP2 POP POP JUMP JUMPDEST PUSH0 PUSH1 0x20 DUP3 DUP5 SUB SLT ISZERO PUSH2 0x723 JUMPI PUSH2 0x722 PUSH2 0x6DC JUMP JUMPDEST JUMPDEST PUSH0 PUSH2 0x730 DUP5 DUP3 DUP6 ADD PUSH2 0x6FA JUMP JUMPDEST SWAP2 POP POP SWAP3 SWAP2 POP POP JUMP JUMPDEST PUSH0 PUSH20 0xFFFFFFFFFFFFFFFFFFFFFFFFFFFFFFFFFFFFFFFF DUP3 AND SWAP1 POP SWAP2 SWAP1 POP JUMP JUMPDEST PUSH0 PUSH2 0x762 DUP3 PUSH2 0x739 JUMP JUMPDEST SWAP1 POP SWAP2 SWAP1 POP JUMP JUMPDEST PUSH2 0x772 DUP2 PUSH2 0x758 JUMP JUMPDEST DUP3 MSTORE POP POP JUMP JUMPDEST PUSH0 PUSH1 0x20 DUP3 ADD SWAP1 POP PUSH2 0x78B PUSH0 DUP4 ADD DUP5 PUSH2 0x769 JUMP JUMPDEST SWAP3 SWAP2 POP POP JUMP JUMPDEST PUSH2 0x79A DUP2 PUSH2 0x758 JUMP JUMPDEST DUP2 EQ PUSH2 0x7A4 JUMPI PUSH0 DUP1 REVERT JUMPDEST POP JUMP JUMPDEST PUSH0 DUP2 CALLDATALOAD SWAP1 POP PUSH2 0x7B5 DUP2 PUSH2 0x791 JUMP JUMPDEST SWAP3 SWAP2 POP POP JUMP JUMPDEST PUSH0 DUP1 REVERT JUMPDEST PUSH0 DUP1 REVERT JUMPDEST PUSH32 0x4E487B7100000000000000000000000000000000000000000000000000000000 PUSH0 MSTORE PUSH1 0x41 PUSH1 0x4 MSTORE PUSH1 0x24 PUSH0 REVERT JUMPDEST PUSH2 0x7F9 DUP3 PUSH2 0x63A JUMP JUMPDEST DUP2 ADD DUP2 DUP2 LT PUSH8 0xFFFFFFFFFFFFFFFF DUP3 GT OR ISZERO PUSH2 0x818 JUMPI PUSH2 0x817 PUSH2 0x7C3 JUMP JUMPDEST JUMPDEST DUP1 PUSH1 0x40 MSTORE POP POP POP JUMP JUMPDEST PUSH0 PUSH2 0x82A PUSH2 0x6D3 JUMP JUMPDEST SWAP1 POP PUSH2 0x836 DUP3 DUP3 PUSH2 0x7F0 JUMP JUMPDEST SWAP2 SWAP1 POP JUMP JUMPDEST PUSH0 PUSH8 0xFFFFFFFFFFFFFFFF DUP3 GT ISZERO PUSH2 0x855 JUMPI PUSH2 0x854 PUSH2 0x7C3 JUMP JUMPDEST JUMPDEST PUSH2 0x85E DUP3 PUSH2 0x63A JUMP JUMPDEST SWAP1 POP PUSH1 0x20 DUP2 ADD SWAP1 POP SWAP2 SWAP1 POP JUMP JUMPDEST DUP3 DUP2 DUP4 CALLDATACOPY PUSH0 DUP4 DUP4 ADD MSTORE POP POP POP JUMP JUMPDEST PUSH0 PUSH2 0x88B PUSH2 0x886 DUP5 PUSH2 0x83B JUMP JUMPDEST PUSH2 0x821 JUMP JUMPDEST SWAP1 POP DUP3 DUP2 MSTORE PUSH1 0x20 DUP2 ADD DUP5 DUP5 DUP5 ADD GT ISZERO PUSH2 0x8A7 JUMPI PUSH2 0x8A6 PUSH2 0x7BF JUMP JUMPDEST JUMPDEST PUSH2 0x8B2 DUP5 DUP3 DUP6 PUSH2 0x86B JUMP JUMPDEST POP SWAP4 SWAP3 POP POP POP JUMP JUMPDEST PUSH0 DUP3 PUSH1 0x1F DUP4 ADD SLT PUSH2 0x8CE JUMPI PUSH2 0x8CD PUSH2 0x7BB JUMP JUMPDEST JUMPDEST DUP2 CALLDATALOAD PUSH2 0x8DE DUP5 DUP3 PUSH1 0x20 DUP7 ADD PUSH2 0x879 JUMP JUMPDEST SWAP2 POP POP SWAP3 SWAP2 POP POP JUMP JUMPDEST PUSH0 DUP1 PUSH1 0x40 DUP4 DUP6 SUB SLT ISZERO PUSH2 0x8FD JUMPI PUSH2 0x8FC PUSH2 0x6DC JUMP JUMPDEST JUMPDEST PUSH0 PUSH2 0x90A DUP6 DUP3 DUP7 ADD PUSH2 0x7A7 JUMP JUMPDEST SWAP3 POP POP PUSH1 0x20 DUP4 ADD CALLDATALOAD PUSH8 0xFFFFFFFFFFFFFFFF DUP2 GT ISZERO PUSH2 0x92B JUMPI PUSH2 0x92A PUSH2 0x6E0 JUMP JUMPDEST JUMPDEST PUSH2 0x937 DUP6 DUP3 DUP7 ADD PUSH2 0x8BA JUMP JUMPDEST SWAP2 POP POP SWAP3 POP SWAP3 SWAP1 POP JUMP JUMPDEST PUSH32 0x4E487B7100000000000000000000000000000000000000000000000000000000 PUSH0 MSTORE PUSH1 0x22 PUSH1 0x4 MSTORE PUSH1 0x24 PUSH0 REVERT JUMPDEST PUSH0 PUSH1 0x2 DUP3 DIV SWAP1 POP PUSH1 0x1 DUP3 AND DUP1 PUSH2 0x985 JUMPI PUSH1 0x7F DUP3 AND SWAP2 POP JUMPDEST PUSH1 0x20 DUP3 LT DUP2 SUB PUSH2 0x998 JUMPI PUSH2 0x997 PUSH2 0x941 JUMP JUMPDEST JUMPDEST POP SWAP2 SWAP1 POP JUMP JUMPDEST PUSH32 0x4552433430343A20546F6B656E20646F6573206E6F7420657869737400000000 PUSH0 DUP3 ADD MSTORE POP JUMP JUMPDEST PUSH0 PUSH2 0x9D2 PUSH1 0x1C DUP4 PUSH2 0x602 JUMP JUMPDEST SWAP2 POP PUSH2 0x9DD DUP3 PUSH2 0x99E JUMP JUMPDEST PUSH1 0x20 DUP3 ADD SWAP1 POP SWAP2 SWAP1 POP JUMP JUMPDEST PUSH0 PUSH1 0x20 DUP3 ADD SWAP1 POP DUP2 DUP2 SUB PUSH0 DUP4 ADD MSTORE PUSH2 0x9FF DUP2 PUSH2 0x9C6 JUMP JUMPDEST SWAP1 POP SWAP2 SWAP1 POP JUMP JUMPDEST PUSH32 0x4552433430343A204D696E7420746F207A65726F206164647265737300000000 PUSH0 DUP3 ADD MSTORE POP JUMP JUMPDEST PUSH0 PUSH2 0xA3A PUSH1 0x1C DUP4 PUSH2 0x602 JUMP JUMPDEST SWAP2 POP PUSH2 0xA45 DUP3 PUSH2 0xA06 JUMP JUMPDEST PUSH1 0x20 DUP3 ADD SWAP1 POP SWAP2 SWAP1 POP JUMP JUMPDEST PUSH0 PUSH1 0x20 DUP3 ADD SWAP1 POP DUP2 DUP2 SUB PUSH0 DUP4 ADD MSTORE PUSH2 0xA67 DUP2 PUSH2 0xA2E JUMP JUMPDEST SWAP1 POP SWAP2 SWAP1 POP JUMP JUMPDEST PUSH32 0x4E487B7100000000000000000000000000000000000000000000000000000000 PUSH0 MSTORE PUSH1 0x11 PUSH1 0x4 MSTORE PUSH1 0x24 PUSH0 REVERT JUMPDEST PUSH0 PUSH2 0xAA5 DUP3 PUSH2 0x6A2 JUMP JUMPDEST SWAP2 POP PUSH2 0xAB0 DUP4 PUSH2 0x6A2 JUMP JUMPDEST SWAP3 POP DUP3 DUP3 ADD SWAP1 POP DUP1 DUP3 GT ISZERO PUSH2 0xAC8 JUMPI PUSH2 0xAC7 PUSH2 0xA6E JUMP JUMPDEST JUMPDEST SWAP3 SWAP2 POP POP JUMP JUMPDEST PUSH0 DUP2 SWAP1 POP DUP2 PUSH0 MSTORE PUSH1 0x20 PUSH0 KECCAK256 SWAP1 POP SWAP2 SWAP1 POP JUMP JUMPDEST PUSH0 PUSH1 0x20 PUSH1 0x1F DUP4 ADD DIV SWAP1 POP SWAP2 SWAP1 POP JUMP JUMPDEST PUSH0 DUP3 DUP3 SHL SWAP1 POP SWAP3 SWAP2 POP POP JUMP JUMPDEST PUSH0 PUSH1 0x8 DUP4 MUL PUSH2 0xB2A PUSH32 0xFFFFFFFFFFFFFFFFFFFFFFFFFFFFFFFFFFFFFFFFFFFFFFFFFFFFFFFFFFFFFFFF DUP3 PUSH2 0xAEF JUMP JUMPDEST PUSH2 0xB34 DUP7 DUP4 PUSH2 0xAEF JUMP JUMPDEST SWAP6 POP DUP1 NOT DUP5 AND SWAP4 POP DUP1 DUP7 AND DUP5 OR SWAP3 POP POP POP SWAP4 SWAP3 POP POP POP JUMP JUMPDEST PUSH0 DUP2 SWAP1 POP SWAP2 SWAP1 POP JUMP JUMPDEST PUSH0 PUSH2 0xB6F PUSH2 0xB6A PUSH2 0xB65 DUP5 PUSH2 0x6A2 JUMP JUMPDEST PUSH2 0xB4C JUMP JUMPDEST PUSH2 0x6A2 JUMP JUMPDEST SWAP1 POP SWAP2 SWAP1 POP JUMP JUMPDEST PUSH0 DUP2 SWAP1 POP SWAP2 SWAP1 POP JUMP JUMPDEST PUSH2 0xB88 DUP4 PUSH2 0xB55 JUMP JUMPDEST PUSH2 0xB9C PUSH2 0xB94 DUP3 PUSH2 0xB76 JUMP JUMPDEST DUP5 DUP5 SLOAD PUSH2 0xAFB JUMP JUMPDEST DUP3 SSTORE POP POP POP POP JUMP JUMPDEST PUSH0 SWAP1 JUMP JUMPDEST PUSH2 0xBB0 PUSH2 0xBA4 JUMP JUMPDEST PUSH2 0xBBB DUP2 DUP5 DUP5 PUSH2 0xB7F JUMP JUMPDEST POP POP POP JUMP JUMPDEST JUMPDEST DUP2 DUP2 LT ISZERO PUSH2 0xBDE JUMPI PUSH2 0xBD3 PUSH0 DUP3 PUSH2 0xBA8 JUMP JUMPDEST PUSH1 0x1 DUP2 ADD SWAP1 POP PUSH2 0xBC1 JUMP JUMPDEST POP POP JUMP JUMPDEST PUSH1 0x1F DUP3 GT ISZERO PUSH2 0xC23 JUMPI PUSH2 0xBF4 DUP2 PUSH2 0xACE JUMP JUMPDEST PUSH2 0xBFD DUP5 PUSH2 0xAE0 JUMP JUMPDEST DUP2 ADD PUSH1 0x20 DUP6 LT ISZERO PUSH2 0xC0C JUMPI DUP2 SWAP1 POP JUMPDEST PUSH2 0xC20 PUSH2 0xC18 DUP6 PUSH2 0xAE0 JUMP JUMPDEST DUP4 ADD DUP3 PUSH2 0xBC0 JUMP JUMPDEST POP POP JUMPDEST POP POP POP JUMP JUMPDEST PUSH0 DUP3 DUP3 SHR SWAP1 POP SWAP3 SWAP2 POP POP JUMP JUMPDEST PUSH0 PUSH2 0xC43 PUSH0 NOT DUP5 PUSH1 0x8 MUL PUSH2 0xC28 JUMP JUMPDEST NOT DUP1 DUP4 AND SWAP2 POP POP SWAP3 SWAP2 POP POP JUMP JUMPDEST PUSH0 PUSH2 0xC5B DUP4 DUP4 PUSH2 0xC34 JUMP JUMPDEST SWAP2 POP DUP3 PUSH1 0x2 MUL DUP3 OR SWAP1 POP SWAP3 SWAP2 POP POP JUMP JUMPDEST PUSH2 0xC74 DUP3 PUSH2 0x5F8 JUMP JUMPDEST PUSH8 0xFFFFFFFFFFFFFFFF DUP2 GT ISZERO PUSH2 0xC8D JUMPI PUSH2 0xC8C PUSH2 0x7C3 JUMP JUMPDEST JUMPDEST PUSH2 0xC97 DUP3 SLOAD PUSH2 0x96E JUMP JUMPDEST PUSH2 0xCA2 DUP3 DUP3 DUP6 PUSH2 0xBE2 JUMP JUMPDEST PUSH0 PUSH1 0x20 SWAP1 POP PUSH1 0x1F DUP4 GT PUSH1 0x1 DUP2 EQ PUSH2 0xCD3 JUMPI PUSH0 DUP5 ISZERO PUSH2 0xCC1 JUMPI DUP3 DUP8 ADD MLOAD SWAP1 POP JUMPDEST PUSH2 0xCCB DUP6 DUP3 PUSH2 0xC50 JUMP JUMPDEST DUP7 SSTORE POP PUSH2 0xD32 JUMP JUMPDEST PUSH1 0x1F NOT DUP5 AND PUSH2 0xCE1 DUP7 PUSH2 0xACE JUMP JUMPDEST PUSH0 JUMPDEST DUP3 DUP2 LT ISZERO PUSH2 0xD08 JUMPI DUP5 DUP10 ADD MLOAD DUP3 SSTORE PUSH1 0x1 DUP3 ADD SWAP2 POP PUSH1 0x20 DUP6 ADD SWAP5 POP PUSH1 0x20 DUP2 ADD SWAP1 POP PUSH2 0xCE3 JUMP JUMPDEST DUP7 DUP4 LT ISZERO PUSH2 0xD25 JUMPI DUP5 DUP10 ADD MLOAD PUSH2 0xD21 PUSH1 0x1F DUP10 AND DUP3 PUSH2 0xC34 JUMP JUMPDEST DUP4 SSTORE POP JUMPDEST PUSH1 0x1 PUSH1 0x2 DUP9 MUL ADD DUP9 SSTORE POP POP POP JUMPDEST POP POP POP POP POP POP JUMP JUMPDEST PUSH0 PUSH2 0xD44 DUP3 PUSH2 0x6A2 JUMP JUMPDEST SWAP2 POP PUSH32 0xFFFFFFFFFFFFFFFFFFFFFFFFFFFFFFFFFFFFFFFFFFFFFFFFFFFFFFFFFFFFFFFF DUP3 SUB PUSH2 0xD76 JUMPI PUSH2 0xD75 PUSH2 0xA6E JUMP JUMPDEST JUMPDEST PUSH1 0x1 DUP3 ADD SWAP1 POP SWAP2 SWAP1 POP JUMP INVALID LOG2 PUSH5 0x6970667358 0x22 SLT KECCAK256 POP 0xE3 SSTORE 0xCF 0xBA PUSH13 0x62392F5CE51CECEBD2490AFA6B PUSH20 0x719D3DB7E26CF6BDD995B0CF64736F6C63430008 AND STOP CALLER "
				},
				"gasEstimates": {
					"creation": {
						"codeDepositCost": "702200",
						"executionCost": "infinite",
						"totalCost": "infinite"
					},
					"external": {
						"getMetadata(uint256)": "infinite",
						"getTokenOwner(uint256)": "5174",
						"mint(address,string)": "infinite",
						"name()": "infinite",
						"symbol()": "infinite",
						"totalSupply()": "2432"
					}
				},
				"methodIdentifiers": {
					"getMetadata(uint256)": "a574cea4",
					"getTokenOwner(uint256)": "a5cd761f",
					"mint(address,string)": "d0def521",
					"name()": "06fdde03",
					"symbol()": "95d89b41",
					"totalSupply()": "18160ddd"
				}
			},
			"storageLayout": {
				"storage": [
					{
						"astId": 15,
						"contract": "contracts/abCodeERC404.sol:ERC404Token",
						"label": "_tokens",
						"offset": 0,
						"slot": "0",
						"type": "t_mapping(t_uint256,t_struct(TokenData)10_storage)"
					},
					{
						"astId": 17,
						"contract": "contracts/abCodeERC404.sol:ERC404Token",
						"label": "_totalSupply",
						"offset": 0,
						"slot": "1",
						"type": "t_uint256"
					},
					{
						"astId": 20,
						"contract": "contracts/abCodeERC404.sol:ERC404Token",
						"label": "name",
						"offset": 0,
						"slot": "2",
						"type": "t_string_storage"
					},
					{
						"astId": 23,
						"contract": "contracts/abCodeERC404.sol:ERC404Token",
						"label": "symbol",
						"offset": 0,
						"slot": "3",
						"type": "t_string_storage"
					}
				],
				"types": {
					"t_address": {
						"encoding": "inplace",
						"label": "address",
						"numberOfBytes": "20"
					},
					"t_mapping(t_uint256,t_struct(TokenData)10_storage)": {
						"encoding": "mapping",
						"key": "t_uint256",
						"label": "mapping(uint256 => struct ERC404Token.TokenData)",
						"numberOfBytes": "32",
						"value": "t_struct(TokenData)10_storage"
					},
					"t_string_storage": {
						"encoding": "bytes",
						"label": "string",
						"numberOfBytes": "32"
					},
					"t_struct(TokenData)10_storage": {
						"encoding": "inplace",
						"label": "struct ERC404Token.TokenData",
						"members": [
							{
								"astId": 7,
								"contract": "contracts/abCodeERC404.sol:ERC404Token",
								"label": "owner",
								"offset": 0,
								"slot": "0",
								"type": "t_address"
							},
							{
								"astId": 9,
								"contract": "contracts/abCodeERC404.sol:ERC404Token",
								"label": "metadataURI",
								"offset": 0,
								"slot": "1",
								"type": "t_string_storage"
							}
						],
						"numberOfBytes": "64"
					},
					"t_uint256": {
						"encoding": "inplace",
						"label": "uint256",
						"numberOfBytes": "32"
					}
				}
			},
			"userdoc": {
				"kind": "user",
				"methods": {
					"getMetadata(uint256)": {
						"notice": "Returns the metadata URI of a token"
					},
					"getTokenOwner(uint256)": {
						"notice": "Returns the owner of a token"
					},
					"mint(address,string)": {
						"notice": "Mints a new token to the specified address with metadata URI"
					},
					"totalSupply()": {
						"notice": "Returns the total supply of tokens"
					}
				},
				"version": 1
			}
		}
	}
}