{
	"contracts/selfErc721.sol": {
		"Erc7212": {
			"abi": [
				{
					"inputs": [
						{
							"internalType": "address",
							"name": "initialOwner",
							"type": "address"
						}
					],
					"stateMutability": "nonpayable",
					"type": "constructor"
				},
				{
					"anonymous": false,
					"inputs": [
						{
							"indexed": true,
							"internalType": "address",
							"name": "owner",
							"type": "address"
						},
						{
							"indexed": true,
							"internalType": "address",
							"name": "approved",
							"type": "address"
						},
						{
							"indexed": true,
							"internalType": "uint256",
							"name": "tokenId",
							"type": "uint256"
						}
					],
					"name": "Approval",
					"type": "event"
				},
				{
					"anonymous": false,
					"inputs": [
						{
							"indexed": true,
							"internalType": "address",
							"name": "to",
							"type": "address"
						},
						{
							"indexed": true,
							"internalType": "uint256",
							"name": "tokenId",
							"type": "uint256"
						}
					],
					"name": "Mint",
					"type": "event"
				},
				{
					"anonymous": false,
					"inputs": [
						{
							"indexed": true,
							"internalType": "address",
							"name": "previousOwner",
							"type": "address"
						},
						{
							"indexed": true,
							"internalType": "address",
							"name": "newOwner",
							"type": "address"
						}
					],
					"name": "OwnershipTransferred",
					"type": "event"
				},
				{
					"anonymous": false,
					"inputs": [
						{
							"indexed": false,
							"internalType": "address",
							"name": "account",
							"type": "address"
						}
					],
					"name": "Paused",
					"type": "event"
				},
				{
					"anonymous": false,
					"inputs": [
						{
							"indexed": true,
							"internalType": "address",
							"name": "from",
							"type": "address"
						},
						{
							"indexed": true,
							"internalType": "address",
							"name": "to",
							"type": "address"
						},
						{
							"indexed": true,
							"internalType": "uint256",
							"name": "tokenId",
							"type": "uint256"
						}
					],
					"name": "Transfer",
					"type": "event"
				},
				{
					"anonymous": false,
					"inputs": [
						{
							"indexed": false,
							"internalType": "address",
							"name": "account",
							"type": "address"
						}
					],
					"name": "Unpaused",
					"type": "event"
				},
				{
					"inputs": [
						{
							"internalType": "address",
							"name": "to",
							"type": "address"
						},
						{
							"internalType": "uint256",
							"name": "tokenId",
							"type": "uint256"
						}
					],
					"name": "approve",
					"outputs": [],
					"stateMutability": "nonpayable",
					"type": "function"
				},
				{
					"inputs": [
						{
							"internalType": "address",
							"name": "owner",
							"type": "address"
						}
					],
					"name": "balanceOf",
					"outputs": [
						{
							"internalType": "uint256",
							"name": "",
							"type": "uint256"
						}
					],
					"stateMutability": "view",
					"type": "function"
				},
				{
					"inputs": [],
					"name": "contractURI",
					"outputs": [
						{
							"internalType": "string",
							"name": "",
							"type": "string"
						}
					],
					"stateMutability": "view",
					"type": "function"
				},
				{
					"inputs": [
						{
							"internalType": "uint256",
							"name": "tokenId",
							"type": "uint256"
						}
					],
					"name": "getApproved",
					"outputs": [
						{
							"internalType": "address",
							"name": "",
							"type": "address"
						}
					],
					"stateMutability": "view",
					"type": "function"
				},
				{
					"inputs": [
						{
							"internalType": "address",
							"name": "to",
							"type": "address"
						},
						{
							"internalType": "uint256",
							"name": "count",
							"type": "uint256"
						}
					],
					"name": "multiMint",
					"outputs": [],
					"stateMutability": "nonpayable",
					"type": "function"
				},
				{
					"inputs": [],
					"name": "name",
					"outputs": [
						{
							"internalType": "string",
							"name": "",
							"type": "string"
						}
					],
					"stateMutability": "view",
					"type": "function"
				},
				{
					"inputs": [],
					"name": "owner",
					"outputs": [
						{
							"internalType": "address",
							"name": "",
							"type": "address"
						}
					],
					"stateMutability": "view",
					"type": "function"
				},
				{
					"inputs": [
						{
							"internalType": "uint256",
							"name": "tokenId",
							"type": "uint256"
						}
					],
					"name": "ownerOf",
					"outputs": [
						{
							"internalType": "address",
							"name": "",
							"type": "address"
						}
					],
					"stateMutability": "view",
					"type": "function"
				},
				{
					"inputs": [],
					"name": "pause",
					"outputs": [],
					"stateMutability": "nonpayable",
					"type": "function"
				},
				{
					"inputs": [
						{
							"internalType": "address",
							"name": "to",
							"type": "address"
						}
					],
					"name": "safeMint",
					"outputs": [],
					"stateMutability": "nonpayable",
					"type": "function"
				},
				{
					"inputs": [
						{
							"internalType": "string",
							"name": "newContractURI",
							"type": "string"
						}
					],
					"name": "setContractURI",
					"outputs": [],
					"stateMutability": "nonpayable",
					"type": "function"
				},
				{
					"inputs": [],
					"name": "symbol",
					"outputs": [
						{
							"internalType": "string",
							"name": "",
							"type": "string"
						}
					],
					"stateMutability": "view",
					"type": "function"
				},
				{
					"inputs": [
						{
							"internalType": "address",
							"name": "newOwner",
							"type": "address"
						}
					],
					"name": "transferOwnership",
					"outputs": [],
					"stateMutability": "nonpayable",
					"type": "function"
				},
				{
					"inputs": [],
					"name": "unpause",
					"outputs": [],
					"stateMutability": "nonpayable",
					"type": "function"
				}
			],
			"devdoc": {
				"kind": "dev",
				"methods": {},
				"version": 1
			},
			"evm": {
				"assembly": "    /* \"contracts/selfErc721.sol\":4078:5294  contract Erc7212 is ERC721, Pausable {... */\n  mstore(0x40, 0x80)\n    /* \"contracts/selfErc721.sol\":4193:4510  constructor(address initialOwner)... */\n  callvalue\n  dup1\n  iszero\n  tag_1\n  jumpi\n  0x00\n  dup1\n  revert\ntag_1:\n  pop\n  mload(0x40)\n  sub(codesize, bytecodeSize)\n  dup1\n  bytecodeSize\n  dup4\n  codecopy\n  dup2\n  dup2\n  add\n  0x40\n  mstore\n  dup2\n  add\n  swap1\n  tag_2\n  swap2\n  swap1\n  tag_3\n  jump\t// in\ntag_2:\n    /* \"contracts/selfErc721.sol\":1961:2077  constructor(string memory name_, string memory symbol_) {... */\n  mload(0x40)\n  dup1\n  0x40\n  add\n  0x40\n  mstore\n  dup1\n  0x08\n  dup2\n  mstore\n  0x20\n  add\n  0x7665726337323132000000000000000000000000000000000000000000000000\n  dup2\n  mstore\n  pop\n  mload(0x40)\n  dup1\n  0x40\n  add\n  0x40\n  mstore\n  dup1\n  0x06\n  dup2\n  mstore\n  0x20\n  add\n  0x7645373231320000000000000000000000000000000000000000000000000000\n  dup2\n  mstore\n  pop\n    /* \"contracts/selfErc721.sol\":242:252  msg.sender */\n  caller\n    /* \"contracts/selfErc721.sol\":233:239  _owner */\n  0x00\n  dup1\n    /* \"contracts/selfErc721.sol\":233:252  _owner = msg.sender */\n  0x0100\n  exp\n  dup2\n  sload\n  dup2\n  0xffffffffffffffffffffffffffffffffffffffff\n  mul\n  not\n  and\n  swap1\n  dup4\n  0xffffffffffffffffffffffffffffffffffffffff\n  and\n  mul\n  or\n  swap1\n  sstore\n  pop\n    /* \"contracts/selfErc721.sol\":301:307  _owner */\n  0x00\n  dup1\n  sload\n  swap1\n  0x0100\n  exp\n  swap1\n  div\n  0xffffffffffffffffffffffffffffffffffffffff\n  and\n    /* \"contracts/selfErc721.sol\":268:308  OwnershipTransferred(address(0), _owner) */\n  0xffffffffffffffffffffffffffffffffffffffff\n  and\n    /* \"contracts/selfErc721.sol\":297:298  0 */\n  0x00\n    /* \"contracts/selfErc721.sol\":268:308  OwnershipTransferred(address(0), _owner) */\n  0xffffffffffffffffffffffffffffffffffffffff\n  and\n  0x8be0079c531659141344cd1fd0a4f28419497f9722a3daafe3b4186f6b6457e0\n  mload(0x40)\n  mload(0x40)\n  dup1\n  swap2\n  sub\n  swap1\n  log3\n    /* \"contracts/selfErc721.sol\":2036:2041  name_ */\n  dup2\n    /* \"contracts/selfErc721.sol\":2028:2033  _name */\n  0x01\n    /* \"contracts/selfErc721.sol\":2028:2041  _name = name_ */\n  swap1\n  dup2\n  tag_10\n  swap2\n  swap1\n  tag_11\n  jump\t// in\ntag_10:\n  pop\n    /* \"contracts/selfErc721.sol\":2062:2069  symbol_ */\n  dup1\n    /* \"contracts/selfErc721.sol\":2052:2059  _symbol */\n  0x02\n    /* \"contracts/selfErc721.sol\":2052:2069  _symbol = symbol_ */\n  swap1\n  dup2\n  tag_12\n  swap2\n  swap1\n  tag_11\n  jump\t// in\ntag_12:\n  pop\n    /* \"contracts/selfErc721.sol\":1961:2077  constructor(string memory name_, string memory symbol_) {... */\n  pop\n  pop\n    /* \"contracts/selfErc721.sol\":955:960  false */\n  0x00\n    /* \"contracts/selfErc721.sol\":945:952  _paused */\n  0x07\n  0x00\n    /* \"contracts/selfErc721.sol\":945:960  _paused = false */\n  0x0100\n  exp\n  dup2\n  sload\n  dup2\n  0xff\n  mul\n  not\n  and\n  swap1\n  dup4\n  iszero\n  iszero\n  mul\n  or\n  swap1\n  sstore\n  pop\n    /* \"contracts/selfErc721.sol\":4281:4312  transferOwnership(initialOwner) */\n  tag_15\n    /* \"contracts/selfErc721.sol\":4299:4311  initialOwner */\n  dup2\n    /* \"contracts/selfErc721.sol\":4281:4298  transferOwnership */\n  shl(0x20, tag_16)\n    /* \"contracts/selfErc721.sol\":4281:4312  transferOwnership(initialOwner) */\n  0x20\n  shr\n  jump\t// in\ntag_15:\n    /* \"contracts/selfErc721.sol\":4386:4449  _contractURI = \"https://metadata.boomland.io/contract-metadata\" */\n  mload(0x40)\n  dup1\n  0x60\n  add\n  0x40\n  mstore\n  dup1\n  0x2e\n  dup2\n  mstore\n  0x20\n  add\n  data_56202771b636b5898a739656a4dd05fc9f50c3b98de772a10cc701e4de102849\n  0x2e\n  swap2\n  codecopy\n    /* \"contracts/selfErc721.sol\":4386:4398  _contractURI */\n  0x09\n    /* \"contracts/selfErc721.sol\":4386:4449  _contractURI = \"https://metadata.boomland.io/contract-metadata\" */\n  swap1\n  dup2\n  tag_17\n  swap2\n  swap1\n  tag_11\n  jump\t// in\ntag_17:\n  pop\n    /* \"contracts/selfErc721.sol\":4193:4510  constructor(address initialOwner)... */\n  pop\n    /* \"contracts/selfErc721.sol\":4078:5294  contract Erc7212 is ERC721, Pausable {... */\n  jump(tag_18)\n    /* \"contracts/selfErc721.sol\":536:772  function transferOwnership(address newOwner) public onlyOwner {... */\ntag_16:\n    /* \"contracts/selfErc721.sol\":378:384  _owner */\n  0x00\n  dup1\n  sload\n  swap1\n  0x0100\n  exp\n  swap1\n  div\n  0xffffffffffffffffffffffffffffffffffffffff\n  and\n    /* \"contracts/selfErc721.sol\":364:384  msg.sender == _owner */\n  0xffffffffffffffffffffffffffffffffffffffff\n  and\n    /* \"contracts/selfErc721.sol\":364:374  msg.sender */\n  caller\n    /* \"contracts/selfErc721.sol\":364:384  msg.sender == _owner */\n  0xffffffffffffffffffffffffffffffffffffffff\n  and\n  eq\n    /* \"contracts/selfErc721.sol\":356:421  require(msg.sender == _owner, \"Ownable: caller is not the owner\") */\n  tag_20\n  jumpi\n  mload(0x40)\n  0x08c379a000000000000000000000000000000000000000000000000000000000\n  dup2\n  mstore\n  0x04\n  add\n  tag_21\n  swap1\n  tag_22\n  jump\t// in\ntag_21:\n  mload(0x40)\n  dup1\n  swap2\n  sub\n  swap1\n  revert\ntag_20:\n    /* \"contracts/selfErc721.sol\":637:638  0 */\n  0x00\n    /* \"contracts/selfErc721.sol\":617:639  newOwner != address(0) */\n  0xffffffffffffffffffffffffffffffffffffffff\n  and\n    /* \"contracts/selfErc721.sol\":617:625  newOwner */\n  dup2\n    /* \"contracts/selfErc721.sol\":617:639  newOwner != address(0) */\n  0xffffffffffffffffffffffffffffffffffffffff\n  and\n  sub\n    /* \"contracts/selfErc721.sol\":609:682  require(newOwner != address(0), \"Ownable: new owner is the zero address\") */\n  tag_24\n  jumpi\n  mload(0x40)\n  0x08c379a000000000000000000000000000000000000000000000000000000000\n  dup2\n  mstore\n  0x04\n  add\n  tag_25\n  swap1\n  tag_26\n  jump\t// in\ntag_25:\n  mload(0x40)\n  dup1\n  swap2\n  sub\n  swap1\n  revert\ntag_24:\n    /* \"contracts/selfErc721.sol\":727:735  newOwner */\n  dup1\n    /* \"contracts/selfErc721.sol\":698:736  OwnershipTransferred(_owner, newOwner) */\n  0xffffffffffffffffffffffffffffffffffffffff\n  and\n    /* \"contracts/selfErc721.sol\":719:725  _owner */\n  0x00\n  dup1\n  sload\n  swap1\n  0x0100\n  exp\n  swap1\n  div\n  0xffffffffffffffffffffffffffffffffffffffff\n  and\n    /* \"contracts/selfErc721.sol\":698:736  OwnershipTransferred(_owner, newOwner) */\n  0xffffffffffffffffffffffffffffffffffffffff\n  and\n  0x8be0079c531659141344cd1fd0a4f28419497f9722a3daafe3b4186f6b6457e0\n  mload(0x40)\n  mload(0x40)\n  dup1\n  swap2\n  sub\n  swap1\n  log3\n    /* \"contracts/selfErc721.sol\":756:764  newOwner */\n  dup1\n    /* \"contracts/selfErc721.sol\":747:753  _owner */\n  0x00\n  dup1\n    /* \"contracts/selfErc721.sol\":747:764  _owner = newOwner */\n  0x0100\n  exp\n  dup2\n  sload\n  dup2\n  0xffffffffffffffffffffffffffffffffffffffff\n  mul\n  not\n  and\n  swap1\n  dup4\n  0xffffffffffffffffffffffffffffffffffffffff\n  and\n  mul\n  or\n  swap1\n  sstore\n  pop\n    /* \"contracts/selfErc721.sol\":536:772  function transferOwnership(address newOwner) public onlyOwner {... */\n  pop\n  jump\t// out\n    /* \"#utility.yul\":88:205   */\ntag_28:\n    /* \"#utility.yul\":197:198   */\n  0x00\n    /* \"#utility.yul\":194:195   */\n  dup1\n    /* \"#utility.yul\":187:199   */\n  revert\n    /* \"#utility.yul\":334:460   */\ntag_30:\n    /* \"#utility.yul\":371:378   */\n  0x00\n    /* \"#utility.yul\":411:453   */\n  0xffffffffffffffffffffffffffffffffffffffff\n    /* \"#utility.yul\":404:409   */\n  dup3\n    /* \"#utility.yul\":400:454   */\n  and\n    /* \"#utility.yul\":389:454   */\n  swap1\n  pop\n    /* \"#utility.yul\":334:460   */\n  swap2\n  swap1\n  pop\n  jump\t// out\n    /* \"#utility.yul\":466:562   */\ntag_31:\n    /* \"#utility.yul\":503:510   */\n  0x00\n    /* \"#utility.yul\":532:556   */\n  tag_65\n    /* \"#utility.yul\":550:555   */\n  dup3\n    /* \"#utility.yul\":532:556   */\n  tag_30\n  jump\t// in\ntag_65:\n    /* \"#utility.yul\":521:556   */\n  swap1\n  pop\n    /* \"#utility.yul\":466:562   */\n  swap2\n  swap1\n  pop\n  jump\t// out\n    /* \"#utility.yul\":568:690   */\ntag_32:\n    /* \"#utility.yul\":641:665   */\n  tag_67\n    /* \"#utility.yul\":659:664   */\n  dup2\n    /* \"#utility.yul\":641:665   */\n  tag_31\n  jump\t// in\ntag_67:\n    /* \"#utility.yul\":634:639   */\n  dup2\n    /* \"#utility.yul\":631:666   */\n  eq\n    /* \"#utility.yul\":621:684   */\n  tag_68\n  jumpi\n    /* \"#utility.yul\":680:681   */\n  0x00\n    /* \"#utility.yul\":677:678   */\n  dup1\n    /* \"#utility.yul\":670:682   */\n  revert\n    /* \"#utility.yul\":621:684   */\ntag_68:\n    /* \"#utility.yul\":568:690   */\n  pop\n  jump\t// out\n    /* \"#utility.yul\":696:839   */\ntag_33:\n    /* \"#utility.yul\":753:758   */\n  0x00\n    /* \"#utility.yul\":784:790   */\n  dup2\n    /* \"#utility.yul\":778:791   */\n  mload\n    /* \"#utility.yul\":769:791   */\n  swap1\n  pop\n    /* \"#utility.yul\":800:833   */\n  tag_70\n    /* \"#utility.yul\":827:832   */\n  dup2\n    /* \"#utility.yul\":800:833   */\n  tag_32\n  jump\t// in\ntag_70:\n    /* \"#utility.yul\":696:839   */\n  swap3\n  swap2\n  pop\n  pop\n  jump\t// out\n    /* \"#utility.yul\":845:1196   */\ntag_3:\n    /* \"#utility.yul\":915:921   */\n  0x00\n    /* \"#utility.yul\":964:966   */\n  0x20\n    /* \"#utility.yul\":952:961   */\n  dup3\n    /* \"#utility.yul\":943:950   */\n  dup5\n    /* \"#utility.yul\":939:962   */\n  sub\n    /* \"#utility.yul\":935:967   */\n  slt\n    /* \"#utility.yul\":932:1051   */\n  iszero\n  tag_72\n  jumpi\n    /* \"#utility.yul\":970:1049   */\n  tag_73\n  tag_28\n  jump\t// in\ntag_73:\n    /* \"#utility.yul\":932:1051   */\ntag_72:\n    /* \"#utility.yul\":1090:1091   */\n  0x00\n    /* \"#utility.yul\":1115:1179   */\n  tag_74\n    /* \"#utility.yul\":1171:1178   */\n  dup5\n    /* \"#utility.yul\":1162:1168   */\n  dup3\n    /* \"#utility.yul\":1151:1160   */\n  dup6\n    /* \"#utility.yul\":1147:1169   */\n  add\n    /* \"#utility.yul\":1115:1179   */\n  tag_33\n  jump\t// in\ntag_74:\n    /* \"#utility.yul\":1105:1179   */\n  swap2\n  pop\n    /* \"#utility.yul\":1061:1189   */\n  pop\n    /* \"#utility.yul\":845:1196   */\n  swap3\n  swap2\n  pop\n  pop\n  jump\t// out\n    /* \"#utility.yul\":1202:1301   */\ntag_34:\n    /* \"#utility.yul\":1254:1260   */\n  0x00\n    /* \"#utility.yul\":1288:1293   */\n  dup2\n    /* \"#utility.yul\":1282:1294   */\n  mload\n    /* \"#utility.yul\":1272:1294   */\n  swap1\n  pop\n    /* \"#utility.yul\":1202:1301   */\n  swap2\n  swap1\n  pop\n  jump\t// out\n    /* \"#utility.yul\":1307:1487   */\ntag_35:\n    /* \"#utility.yul\":1355:1432   */\n  0x4e487b7100000000000000000000000000000000000000000000000000000000\n    /* \"#utility.yul\":1352:1353   */\n  0x00\n    /* \"#utility.yul\":1345:1433   */\n  mstore\n    /* \"#utility.yul\":1452:1456   */\n  0x41\n    /* \"#utility.yul\":1449:1450   */\n  0x04\n    /* \"#utility.yul\":1442:1457   */\n  mstore\n    /* \"#utility.yul\":1476:1480   */\n  0x24\n    /* \"#utility.yul\":1473:1474   */\n  0x00\n    /* \"#utility.yul\":1466:1481   */\n  revert\n    /* \"#utility.yul\":1493:1673   */\ntag_36:\n    /* \"#utility.yul\":1541:1618   */\n  0x4e487b7100000000000000000000000000000000000000000000000000000000\n    /* \"#utility.yul\":1538:1539   */\n  0x00\n    /* \"#utility.yul\":1531:1619   */\n  mstore\n    /* \"#utility.yul\":1638:1642   */\n  0x22\n    /* \"#utility.yul\":1635:1636   */\n  0x04\n    /* \"#utility.yul\":1628:1643   */\n  mstore\n    /* \"#utility.yul\":1662:1666   */\n  0x24\n    /* \"#utility.yul\":1659:1660   */\n  0x00\n    /* \"#utility.yul\":1652:1667   */\n  revert\n    /* \"#utility.yul\":1679:1999   */\ntag_37:\n    /* \"#utility.yul\":1723:1729   */\n  0x00\n    /* \"#utility.yul\":1760:1761   */\n  0x02\n    /* \"#utility.yul\":1754:1758   */\n  dup3\n    /* \"#utility.yul\":1750:1762   */\n  div\n    /* \"#utility.yul\":1740:1762   */\n  swap1\n  pop\n    /* \"#utility.yul\":1807:1808   */\n  0x01\n    /* \"#utility.yul\":1801:1805   */\n  dup3\n    /* \"#utility.yul\":1797:1809   */\n  and\n    /* \"#utility.yul\":1828:1846   */\n  dup1\n    /* \"#utility.yul\":1818:1899   */\n  tag_79\n  jumpi\n    /* \"#utility.yul\":1884:1888   */\n  0x7f\n    /* \"#utility.yul\":1876:1882   */\n  dup3\n    /* \"#utility.yul\":1872:1889   */\n  and\n    /* \"#utility.yul\":1862:1889   */\n  swap2\n  pop\n    /* \"#utility.yul\":1818:1899   */\ntag_79:\n    /* \"#utility.yul\":1946:1948   */\n  0x20\n    /* \"#utility.yul\":1938:1944   */\n  dup3\n    /* \"#utility.yul\":1935:1949   */\n  lt\n    /* \"#utility.yul\":1915:1933   */\n  dup2\n    /* \"#utility.yul\":1912:1950   */\n  sub\n    /* \"#utility.yul\":1909:1993   */\n  tag_80\n  jumpi\n    /* \"#utility.yul\":1965:1983   */\n  tag_81\n  tag_36\n  jump\t// in\ntag_81:\n    /* \"#utility.yul\":1909:1993   */\ntag_80:\n    /* \"#utility.yul\":1730:1999   */\n  pop\n    /* \"#utility.yul\":1679:1999   */\n  swap2\n  swap1\n  pop\n  jump\t// out\n    /* \"#utility.yul\":2005:2146   */\ntag_38:\n    /* \"#utility.yul\":2054:2058   */\n  0x00\n    /* \"#utility.yul\":2077:2080   */\n  dup2\n    /* \"#utility.yul\":2069:2080   */\n  swap1\n  pop\n    /* \"#utility.yul\":2100:2103   */\n  dup2\n    /* \"#utility.yul\":2097:2098   */\n  0x00\n    /* \"#utility.yul\":2090:2104   */\n  mstore\n    /* \"#utility.yul\":2134:2138   */\n  0x20\n    /* \"#utility.yul\":2131:2132   */\n  0x00\n    /* \"#utility.yul\":2121:2139   */\n  keccak256\n    /* \"#utility.yul\":2113:2139   */\n  swap1\n  pop\n    /* \"#utility.yul\":2005:2146   */\n  swap2\n  swap1\n  pop\n  jump\t// out\n    /* \"#utility.yul\":2152:2245   */\ntag_39:\n    /* \"#utility.yul\":2189:2195   */\n  0x00\n    /* \"#utility.yul\":2236:2238   */\n  0x20\n    /* \"#utility.yul\":2231:2233   */\n  0x1f\n    /* \"#utility.yul\":2224:2229   */\n  dup4\n    /* \"#utility.yul\":2220:2234   */\n  add\n    /* \"#utility.yul\":2216:2239   */\n  div\n    /* \"#utility.yul\":2206:2239   */\n  swap1\n  pop\n    /* \"#utility.yul\":2152:2245   */\n  swap2\n  swap1\n  pop\n  jump\t// out\n    /* \"#utility.yul\":2251:2358   */\ntag_40:\n    /* \"#utility.yul\":2295:2303   */\n  0x00\n    /* \"#utility.yul\":2345:2350   */\n  dup3\n    /* \"#utility.yul\":2339:2343   */\n  dup3\n    /* \"#utility.yul\":2335:2351   */\n  shl\n    /* \"#utility.yul\":2314:2351   */\n  swap1\n  pop\n    /* \"#utility.yul\":2251:2358   */\n  swap3\n  swap2\n  pop\n  pop\n  jump\t// out\n    /* \"#utility.yul\":2364:2757   */\ntag_41:\n    /* \"#utility.yul\":2433:2439   */\n  0x00\n    /* \"#utility.yul\":2483:2484   */\n  0x08\n    /* \"#utility.yul\":2471:2481   */\n  dup4\n    /* \"#utility.yul\":2467:2485   */\n  mul\n    /* \"#utility.yul\":2506:2603   */\n  tag_86\n    /* \"#utility.yul\":2536:2602   */\n  0xffffffffffffffffffffffffffffffffffffffffffffffffffffffffffffffff\n    /* \"#utility.yul\":2525:2534   */\n  dup3\n    /* \"#utility.yul\":2506:2603   */\n  tag_40\n  jump\t// in\ntag_86:\n    /* \"#utility.yul\":2624:2663   */\n  tag_87\n    /* \"#utility.yul\":2654:2662   */\n  dup7\n    /* \"#utility.yul\":2643:2652   */\n  dup4\n    /* \"#utility.yul\":2624:2663   */\n  tag_40\n  jump\t// in\ntag_87:\n    /* \"#utility.yul\":2612:2663   */\n  swap6\n  pop\n    /* \"#utility.yul\":2696:2700   */\n  dup1\n    /* \"#utility.yul\":2692:2701   */\n  not\n    /* \"#utility.yul\":2685:2690   */\n  dup5\n    /* \"#utility.yul\":2681:2702   */\n  and\n    /* \"#utility.yul\":2672:2702   */\n  swap4\n  pop\n    /* \"#utility.yul\":2745:2749   */\n  dup1\n    /* \"#utility.yul\":2735:2743   */\n  dup7\n    /* \"#utility.yul\":2731:2750   */\n  and\n    /* \"#utility.yul\":2724:2729   */\n  dup5\n    /* \"#utility.yul\":2721:2751   */\n  or\n    /* \"#utility.yul\":2711:2751   */\n  swap3\n  pop\n    /* \"#utility.yul\":2440:2757   */\n  pop\n  pop\n    /* \"#utility.yul\":2364:2757   */\n  swap4\n  swap3\n  pop\n  pop\n  pop\n  jump\t// out\n    /* \"#utility.yul\":2763:2840   */\ntag_42:\n    /* \"#utility.yul\":2800:2807   */\n  0x00\n    /* \"#utility.yul\":2829:2834   */\n  dup2\n    /* \"#utility.yul\":2818:2834   */\n  swap1\n  pop\n    /* \"#utility.yul\":2763:2840   */\n  swap2\n  swap1\n  pop\n  jump\t// out\n    /* \"#utility.yul\":2846:2906   */\ntag_43:\n    /* \"#utility.yul\":2874:2877   */\n  0x00\n    /* \"#utility.yul\":2895:2900   */\n  dup2\n    /* \"#utility.yul\":2888:2900   */\n  swap1\n  pop\n    /* \"#utility.yul\":2846:2906   */\n  swap2\n  swap1\n  pop\n  jump\t// out\n    /* \"#utility.yul\":2912:3054   */\ntag_44:\n    /* \"#utility.yul\":2962:2971   */\n  0x00\n    /* \"#utility.yul\":2995:3048   */\n  tag_91\n    /* \"#utility.yul\":3013:3047   */\n  tag_92\n    /* \"#utility.yul\":3022:3046   */\n  tag_93\n    /* \"#utility.yul\":3040:3045   */\n  dup5\n    /* \"#utility.yul\":3022:3046   */\n  tag_42\n  jump\t// in\ntag_93:\n    /* \"#utility.yul\":3013:3047   */\n  tag_43\n  jump\t// in\ntag_92:\n    /* \"#utility.yul\":2995:3048   */\n  tag_42\n  jump\t// in\ntag_91:\n    /* \"#utility.yul\":2982:3048   */\n  swap1\n  pop\n    /* \"#utility.yul\":2912:3054   */\n  swap2\n  swap1\n  pop\n  jump\t// out\n    /* \"#utility.yul\":3060:3135   */\ntag_45:\n    /* \"#utility.yul\":3103:3106   */\n  0x00\n    /* \"#utility.yul\":3124:3129   */\n  dup2\n    /* \"#utility.yul\":3117:3129   */\n  swap1\n  pop\n    /* \"#utility.yul\":3060:3135   */\n  swap2\n  swap1\n  pop\n  jump\t// out\n    /* \"#utility.yul\":3141:3410   */\ntag_46:\n    /* \"#utility.yul\":3251:3290   */\n  tag_96\n    /* \"#utility.yul\":3282:3289   */\n  dup4\n    /* \"#utility.yul\":3251:3290   */\n  tag_44\n  jump\t// in\ntag_96:\n    /* \"#utility.yul\":3312:3403   */\n  tag_97\n    /* \"#utility.yul\":3361:3402   */\n  tag_98\n    /* \"#utility.yul\":3385:3401   */\n  dup3\n    /* \"#utility.yul\":3361:3402   */\n  tag_45\n  jump\t// in\ntag_98:\n    /* \"#utility.yul\":3353:3359   */\n  dup5\n    /* \"#utility.yul\":3346:3350   */\n  dup5\n    /* \"#utility.yul\":3340:3351   */\n  sload\n    /* \"#utility.yul\":3312:3403   */\n  tag_41\n  jump\t// in\ntag_97:\n    /* \"#utility.yul\":3306:3310   */\n  dup3\n    /* \"#utility.yul\":3299:3404   */\n  sstore\n    /* \"#utility.yul\":3217:3410   */\n  pop\n    /* \"#utility.yul\":3141:3410   */\n  pop\n  pop\n  pop\n  jump\t// out\n    /* \"#utility.yul\":3416:3489   */\ntag_47:\n    /* \"#utility.yul\":3461:3464   */\n  0x00\n    /* \"#utility.yul\":3416:3489   */\n  swap1\n  jump\t// out\n    /* \"#utility.yul\":3495:3684   */\ntag_48:\n    /* \"#utility.yul\":3572:3604   */\n  tag_101\n  tag_47\n  jump\t// in\ntag_101:\n    /* \"#utility.yul\":3613:3678   */\n  tag_102\n    /* \"#utility.yul\":3671:3677   */\n  dup2\n    /* \"#utility.yul\":3663:3669   */\n  dup5\n    /* \"#utility.yul\":3657:3661   */\n  dup5\n    /* \"#utility.yul\":3613:3678   */\n  tag_46\n  jump\t// in\ntag_102:\n    /* \"#utility.yul\":3548:3684   */\n  pop\n    /* \"#utility.yul\":3495:3684   */\n  pop\n  pop\n  jump\t// out\n    /* \"#utility.yul\":3690:3876   */\ntag_49:\n    /* \"#utility.yul\":3750:3870   */\ntag_104:\n    /* \"#utility.yul\":3767:3770   */\n  dup2\n    /* \"#utility.yul\":3760:3765   */\n  dup2\n    /* \"#utility.yul\":3757:3771   */\n  lt\n    /* \"#utility.yul\":3750:3870   */\n  iszero\n  tag_106\n  jumpi\n    /* \"#utility.yul\":3821:3860   */\n  tag_107\n    /* \"#utility.yul\":3858:3859   */\n  0x00\n    /* \"#utility.yul\":3851:3856   */\n  dup3\n    /* \"#utility.yul\":3821:3860   */\n  tag_48\n  jump\t// in\ntag_107:\n    /* \"#utility.yul\":3794:3795   */\n  0x01\n    /* \"#utility.yul\":3787:3792   */\n  dup2\n    /* \"#utility.yul\":3783:3796   */\n  add\n    /* \"#utility.yul\":3774:3796   */\n  swap1\n  pop\n    /* \"#utility.yul\":3750:3870   */\n  jump(tag_104)\ntag_106:\n    /* \"#utility.yul\":3690:3876   */\n  pop\n  pop\n  jump\t// out\n    /* \"#utility.yul\":3882:4425   */\ntag_50:\n    /* \"#utility.yul\":3983:3985   */\n  0x1f\n    /* \"#utility.yul\":3978:3981   */\n  dup3\n    /* \"#utility.yul\":3975:3986   */\n  gt\n    /* \"#utility.yul\":3972:4418   */\n  iszero\n  tag_109\n  jumpi\n    /* \"#utility.yul\":4017:4055   */\n  tag_110\n    /* \"#utility.yul\":4049:4054   */\n  dup2\n    /* \"#utility.yul\":4017:4055   */\n  tag_38\n  jump\t// in\ntag_110:\n    /* \"#utility.yul\":4101:4130   */\n  tag_111\n    /* \"#utility.yul\":4119:4129   */\n  dup5\n    /* \"#utility.yul\":4101:4130   */\n  tag_39\n  jump\t// in\ntag_111:\n    /* \"#utility.yul\":4091:4099   */\n  dup2\n    /* \"#utility.yul\":4087:4131   */\n  add\n    /* \"#utility.yul\":4284:4286   */\n  0x20\n    /* \"#utility.yul\":4272:4282   */\n  dup6\n    /* \"#utility.yul\":4269:4287   */\n  lt\n    /* \"#utility.yul\":4266:4315   */\n  iszero\n  tag_112\n  jumpi\n    /* \"#utility.yul\":4305:4313   */\n  dup2\n    /* \"#utility.yul\":4290:4313   */\n  swap1\n  pop\n    /* \"#utility.yul\":4266:4315   */\ntag_112:\n    /* \"#utility.yul\":4328:4408   */\n  tag_113\n    /* \"#utility.yul\":4384:4406   */\n  tag_114\n    /* \"#utility.yul\":4402:4405   */\n  dup6\n    /* \"#utility.yul\":4384:4406   */\n  tag_39\n  jump\t// in\ntag_114:\n    /* \"#utility.yul\":4374:4382   */\n  dup4\n    /* \"#utility.yul\":4370:4407   */\n  add\n    /* \"#utility.yul\":4357:4368   */\n  dup3\n    /* \"#utility.yul\":4328:4408   */\n  tag_49\n  jump\t// in\ntag_113:\n    /* \"#utility.yul\":3987:4418   */\n  pop\n  pop\n    /* \"#utility.yul\":3972:4418   */\ntag_109:\n    /* \"#utility.yul\":3882:4425   */\n  pop\n  pop\n  pop\n  jump\t// out\n    /* \"#utility.yul\":4431:4548   */\ntag_51:\n    /* \"#utility.yul\":4485:4493   */\n  0x00\n    /* \"#utility.yul\":4535:4540   */\n  dup3\n    /* \"#utility.yul\":4529:4533   */\n  dup3\n    /* \"#utility.yul\":4525:4541   */\n  shr\n    /* \"#utility.yul\":4504:4541   */\n  swap1\n  pop\n    /* \"#utility.yul\":4431:4548   */\n  swap3\n  swap2\n  pop\n  pop\n  jump\t// out\n    /* \"#utility.yul\":4554:4723   */\ntag_52:\n    /* \"#utility.yul\":4598:4604   */\n  0x00\n    /* \"#utility.yul\":4631:4682   */\n  tag_117\n    /* \"#utility.yul\":4679:4680   */\n  0x00\n    /* \"#utility.yul\":4675:4681   */\n  not\n    /* \"#utility.yul\":4667:4672   */\n  dup5\n    /* \"#utility.yul\":4664:4665   */\n  0x08\n    /* \"#utility.yul\":4660:4673   */\n  mul\n    /* \"#utility.yul\":4631:4682   */\n  tag_51\n  jump\t// in\ntag_117:\n    /* \"#utility.yul\":4627:4683   */\n  not\n    /* \"#utility.yul\":4712:4716   */\n  dup1\n    /* \"#utility.yul\":4706:4710   */\n  dup4\n    /* \"#utility.yul\":4702:4717   */\n  and\n    /* \"#utility.yul\":4692:4717   */\n  swap2\n  pop\n    /* \"#utility.yul\":4605:4723   */\n  pop\n    /* \"#utility.yul\":4554:4723   */\n  swap3\n  swap2\n  pop\n  pop\n  jump\t// out\n    /* \"#utility.yul\":4728:5023   */\ntag_53:\n    /* \"#utility.yul\":4804:4808   */\n  0x00\n    /* \"#utility.yul\":4950:4979   */\n  tag_119\n    /* \"#utility.yul\":4975:4978   */\n  dup4\n    /* \"#utility.yul\":4969:4973   */\n  dup4\n    /* \"#utility.yul\":4950:4979   */\n  tag_52\n  jump\t// in\ntag_119:\n    /* \"#utility.yul\":4942:4979   */\n  swap2\n  pop\n    /* \"#utility.yul\":5012:5015   */\n  dup3\n    /* \"#utility.yul\":5009:5010   */\n  0x02\n    /* \"#utility.yul\":5005:5016   */\n  mul\n    /* \"#utility.yul\":4999:5003   */\n  dup3\n    /* \"#utility.yul\":4996:5017   */\n  or\n    /* \"#utility.yul\":4988:5017   */\n  swap1\n  pop\n    /* \"#utility.yul\":4728:5023   */\n  swap3\n  swap2\n  pop\n  pop\n  jump\t// out\n    /* \"#utility.yul\":5028:6423   */\ntag_11:\n    /* \"#utility.yul\":5145:5182   */\n  tag_121\n    /* \"#utility.yul\":5178:5181   */\n  dup3\n    /* \"#utility.yul\":5145:5182   */\n  tag_34\n  jump\t// in\ntag_121:\n    /* \"#utility.yul\":5247:5265   */\n  0xffffffffffffffff\n    /* \"#utility.yul\":5239:5245   */\n  dup2\n    /* \"#utility.yul\":5236:5266   */\n  gt\n    /* \"#utility.yul\":5233:5289   */\n  iszero\n  tag_122\n  jumpi\n    /* \"#utility.yul\":5269:5287   */\n  tag_123\n  tag_35\n  jump\t// in\ntag_123:\n    /* \"#utility.yul\":5233:5289   */\ntag_122:\n    /* \"#utility.yul\":5313:5351   */\n  tag_124\n    /* \"#utility.yul\":5345:5349   */\n  dup3\n    /* \"#utility.yul\":5339:5350   */\n  sload\n    /* \"#utility.yul\":5313:5351   */\n  tag_37\n  jump\t// in\ntag_124:\n    /* \"#utility.yul\":5398:5465   */\n  tag_125\n    /* \"#utility.yul\":5458:5464   */\n  dup3\n    /* \"#utility.yul\":5450:5456   */\n  dup3\n    /* \"#utility.yul\":5444:5448   */\n  dup6\n    /* \"#utility.yul\":5398:5465   */\n  tag_50\n  jump\t// in\ntag_125:\n    /* \"#utility.yul\":5492:5493   */\n  0x00\n    /* \"#utility.yul\":5516:5520   */\n  0x20\n    /* \"#utility.yul\":5503:5520   */\n  swap1\n  pop\n    /* \"#utility.yul\":5548:5550   */\n  0x1f\n    /* \"#utility.yul\":5540:5546   */\n  dup4\n    /* \"#utility.yul\":5537:5551   */\n  gt\n    /* \"#utility.yul\":5565:5566   */\n  0x01\n    /* \"#utility.yul\":5560:6178   */\n  dup2\n  eq\n  tag_127\n  jumpi\n    /* \"#utility.yul\":6222:6223   */\n  0x00\n    /* \"#utility.yul\":6239:6245   */\n  dup5\n    /* \"#utility.yul\":6236:6313   */\n  iszero\n  tag_128\n  jumpi\n    /* \"#utility.yul\":6288:6297   */\n  dup3\n    /* \"#utility.yul\":6283:6286   */\n  dup8\n    /* \"#utility.yul\":6279:6298   */\n  add\n    /* \"#utility.yul\":6273:6299   */\n  mload\n    /* \"#utility.yul\":6264:6299   */\n  swap1\n  pop\n    /* \"#utility.yul\":6236:6313   */\ntag_128:\n    /* \"#utility.yul\":6339:6406   */\n  tag_129\n    /* \"#utility.yul\":6399:6405   */\n  dup6\n    /* \"#utility.yul\":6392:6397   */\n  dup3\n    /* \"#utility.yul\":6339:6406   */\n  tag_53\n  jump\t// in\ntag_129:\n    /* \"#utility.yul\":6333:6337   */\n  dup7\n    /* \"#utility.yul\":6326:6407   */\n  sstore\n    /* \"#utility.yul\":6195:6417   */\n  pop\n    /* \"#utility.yul\":5530:6417   */\n  jump(tag_126)\n    /* \"#utility.yul\":5560:6178   */\ntag_127:\n    /* \"#utility.yul\":5612:5616   */\n  0x1f\n    /* \"#utility.yul\":5608:5617   */\n  not\n    /* \"#utility.yul\":5600:5606   */\n  dup5\n    /* \"#utility.yul\":5596:5618   */\n  and\n    /* \"#utility.yul\":5646:5683   */\n  tag_130\n    /* \"#utility.yul\":5678:5682   */\n  dup7\n    /* \"#utility.yul\":5646:5683   */\n  tag_38\n  jump\t// in\ntag_130:\n    /* \"#utility.yul\":5705:5706   */\n  0x00\n    /* \"#utility.yul\":5719:5927   */\ntag_131:\n    /* \"#utility.yul\":5733:5740   */\n  dup3\n    /* \"#utility.yul\":5730:5731   */\n  dup2\n    /* \"#utility.yul\":5727:5741   */\n  lt\n    /* \"#utility.yul\":5719:5927   */\n  iszero\n  tag_133\n  jumpi\n    /* \"#utility.yul\":5812:5821   */\n  dup5\n    /* \"#utility.yul\":5807:5810   */\n  dup10\n    /* \"#utility.yul\":5803:5822   */\n  add\n    /* \"#utility.yul\":5797:5823   */\n  mload\n    /* \"#utility.yul\":5789:5795   */\n  dup3\n    /* \"#utility.yul\":5782:5824   */\n  sstore\n    /* \"#utility.yul\":5863:5864   */\n  0x01\n    /* \"#utility.yul\":5855:5861   */\n  dup3\n    /* \"#utility.yul\":5851:5865   */\n  add\n    /* \"#utility.yul\":5841:5865   */\n  swap2\n  pop\n    /* \"#utility.yul\":5910:5912   */\n  0x20\n    /* \"#utility.yul\":5899:5908   */\n  dup6\n    /* \"#utility.yul\":5895:5913   */\n  add\n    /* \"#utility.yul\":5882:5913   */\n  swap5\n  pop\n    /* \"#utility.yul\":5756:5760   */\n  0x20\n    /* \"#utility.yul\":5753:5754   */\n  dup2\n    /* \"#utility.yul\":5749:5761   */\n  add\n    /* \"#utility.yul\":5744:5761   */\n  swap1\n  pop\n    /* \"#utility.yul\":5719:5927   */\n  jump(tag_131)\ntag_133:\n    /* \"#utility.yul\":5955:5961   */\n  dup7\n    /* \"#utility.yul\":5946:5953   */\n  dup4\n    /* \"#utility.yul\":5943:5962   */\n  lt\n    /* \"#utility.yul\":5940:6119   */\n  iszero\n  tag_134\n  jumpi\n    /* \"#utility.yul\":6013:6022   */\n  dup5\n    /* \"#utility.yul\":6008:6011   */\n  dup10\n    /* \"#utility.yul\":6004:6023   */\n  add\n    /* \"#utility.yul\":5998:6024   */\n  mload\n    /* \"#utility.yul\":6056:6104   */\n  tag_135\n    /* \"#utility.yul\":6098:6102   */\n  0x1f\n    /* \"#utility.yul\":6090:6096   */\n  dup10\n    /* \"#utility.yul\":6086:6103   */\n  and\n    /* \"#utility.yul\":6075:6084   */\n  dup3\n    /* \"#utility.yul\":6056:6104   */\n  tag_52\n  jump\t// in\ntag_135:\n    /* \"#utility.yul\":6048:6054   */\n  dup4\n    /* \"#utility.yul\":6041:6105   */\n  sstore\n    /* \"#utility.yul\":5963:6119   */\n  pop\n    /* \"#utility.yul\":5940:6119   */\ntag_134:\n    /* \"#utility.yul\":6165:6166   */\n  0x01\n    /* \"#utility.yul\":6161:6162   */\n  0x02\n    /* \"#utility.yul\":6153:6159   */\n  dup9\n    /* \"#utility.yul\":6149:6163   */\n  mul\n    /* \"#utility.yul\":6145:6167   */\n  add\n    /* \"#utility.yul\":6139:6143   */\n  dup9\n    /* \"#utility.yul\":6132:6168   */\n  sstore\n    /* \"#utility.yul\":5567:6178   */\n  pop\n  pop\n  pop\n    /* \"#utility.yul\":5530:6417   */\ntag_126:\n  pop\n    /* \"#utility.yul\":5120:6423   */\n  pop\n  pop\n  pop\n    /* \"#utility.yul\":5028:6423   */\n  pop\n  pop\n  jump\t// out\n    /* \"#utility.yul\":6429:6598   */\ntag_54:\n    /* \"#utility.yul\":6513:6524   */\n  0x00\n    /* \"#utility.yul\":6547:6553   */\n  dup3\n    /* \"#utility.yul\":6542:6545   */\n  dup3\n    /* \"#utility.yul\":6535:6554   */\n  mstore\n    /* \"#utility.yul\":6587:6591   */\n  0x20\n    /* \"#utility.yul\":6582:6585   */\n  dup3\n    /* \"#utility.yul\":6578:6592   */\n  add\n    /* \"#utility.yul\":6563:6592   */\n  swap1\n  pop\n    /* \"#utility.yul\":6429:6598   */\n  swap3\n  swap2\n  pop\n  pop\n  jump\t// out\n    /* \"#utility.yul\":6604:6786   */\ntag_55:\n    /* \"#utility.yul\":6744:6778   */\n  0x4f776e61626c653a2063616c6c6572206973206e6f7420746865206f776e6572\n    /* \"#utility.yul\":6740:6741   */\n  0x00\n    /* \"#utility.yul\":6732:6738   */\n  dup3\n    /* \"#utility.yul\":6728:6742   */\n  add\n    /* \"#utility.yul\":6721:6779   */\n  mstore\n    /* \"#utility.yul\":6604:6786   */\n  pop\n  jump\t// out\n    /* \"#utility.yul\":6792:7158   */\ntag_56:\n    /* \"#utility.yul\":6934:6937   */\n  0x00\n    /* \"#utility.yul\":6955:7022   */\n  tag_139\n    /* \"#utility.yul\":7019:7021   */\n  0x20\n    /* \"#utility.yul\":7014:7017   */\n  dup4\n    /* \"#utility.yul\":6955:7022   */\n  tag_54\n  jump\t// in\ntag_139:\n    /* \"#utility.yul\":6948:7022   */\n  swap2\n  pop\n    /* \"#utility.yul\":7031:7124   */\n  tag_140\n    /* \"#utility.yul\":7120:7123   */\n  dup3\n    /* \"#utility.yul\":7031:7124   */\n  tag_55\n  jump\t// in\ntag_140:\n    /* \"#utility.yul\":7149:7151   */\n  0x20\n    /* \"#utility.yul\":7144:7147   */\n  dup3\n    /* \"#utility.yul\":7140:7152   */\n  add\n    /* \"#utility.yul\":7133:7152   */\n  swap1\n  pop\n    /* \"#utility.yul\":6792:7158   */\n  swap2\n  swap1\n  pop\n  jump\t// out\n    /* \"#utility.yul\":7164:7583   */\ntag_22:\n    /* \"#utility.yul\":7330:7334   */\n  0x00\n    /* \"#utility.yul\":7368:7370   */\n  0x20\n    /* \"#utility.yul\":7357:7366   */\n  dup3\n    /* \"#utility.yul\":7353:7371   */\n  add\n    /* \"#utility.yul\":7345:7371   */\n  swap1\n  pop\n    /* \"#utility.yul\":7417:7426   */\n  dup2\n    /* \"#utility.yul\":7411:7415   */\n  dup2\n    /* \"#utility.yul\":7407:7427   */\n  sub\n    /* \"#utility.yul\":7403:7404   */\n  0x00\n    /* \"#utility.yul\":7392:7401   */\n  dup4\n    /* \"#utility.yul\":7388:7405   */\n  add\n    /* \"#utility.yul\":7381:7428   */\n  mstore\n    /* \"#utility.yul\":7445:7576   */\n  tag_142\n    /* \"#utility.yul\":7571:7575   */\n  dup2\n    /* \"#utility.yul\":7445:7576   */\n  tag_56\n  jump\t// in\ntag_142:\n    /* \"#utility.yul\":7437:7576   */\n  swap1\n  pop\n    /* \"#utility.yul\":7164:7583   */\n  swap2\n  swap1\n  pop\n  jump\t// out\n    /* \"#utility.yul\":7589:7814   */\ntag_57:\n    /* \"#utility.yul\":7729:7763   */\n  0x4f776e61626c653a206e6577206f776e657220697320746865207a65726f2061\n    /* \"#utility.yul\":7725:7726   */\n  0x00\n    /* \"#utility.yul\":7717:7723   */\n  dup3\n    /* \"#utility.yul\":7713:7727   */\n  add\n    /* \"#utility.yul\":7706:7764   */\n  mstore\n    /* \"#utility.yul\":7798:7806   */\n  0x6464726573730000000000000000000000000000000000000000000000000000\n    /* \"#utility.yul\":7793:7795   */\n  0x20\n    /* \"#utility.yul\":7785:7791   */\n  dup3\n    /* \"#utility.yul\":7781:7796   */\n  add\n    /* \"#utility.yul\":7774:7807   */\n  mstore\n    /* \"#utility.yul\":7589:7814   */\n  pop\n  jump\t// out\n    /* \"#utility.yul\":7820:8186   */\ntag_58:\n    /* \"#utility.yul\":7962:7965   */\n  0x00\n    /* \"#utility.yul\":7983:8050   */\n  tag_145\n    /* \"#utility.yul\":8047:8049   */\n  0x26\n    /* \"#utility.yul\":8042:8045   */\n  dup4\n    /* \"#utility.yul\":7983:8050   */\n  tag_54\n  jump\t// in\ntag_145:\n    /* \"#utility.yul\":7976:8050   */\n  swap2\n  pop\n    /* \"#utility.yul\":8059:8152   */\n  tag_146\n    /* \"#utility.yul\":8148:8151   */\n  dup3\n    /* \"#utility.yul\":8059:8152   */\n  tag_57\n  jump\t// in\ntag_146:\n    /* \"#utility.yul\":8177:8179   */\n  0x40\n    /* \"#utility.yul\":8172:8175   */\n  dup3\n    /* \"#utility.yul\":8168:8180   */\n  add\n    /* \"#utility.yul\":8161:8180   */\n  swap1\n  pop\n    /* \"#utility.yul\":7820:8186   */\n  swap2\n  swap1\n  pop\n  jump\t// out\n    /* \"#utility.yul\":8192:8611   */\ntag_26:\n    /* \"#utility.yul\":8358:8362   */\n  0x00\n    /* \"#utility.yul\":8396:8398   */\n  0x20\n    /* \"#utility.yul\":8385:8394   */\n  dup3\n    /* \"#utility.yul\":8381:8399   */\n  add\n    /* \"#utility.yul\":8373:8399   */\n  swap1\n  pop\n    /* \"#utility.yul\":8445:8454   */\n  dup2\n    /* \"#utility.yul\":8439:8443   */\n  dup2\n    /* \"#utility.yul\":8435:8455   */\n  sub\n    /* \"#utility.yul\":8431:8432   */\n  0x00\n    /* \"#utility.yul\":8420:8429   */\n  dup4\n    /* \"#utility.yul\":8416:8433   */\n  add\n    /* \"#utility.yul\":8409:8456   */\n  mstore\n    /* \"#utility.yul\":8473:8604   */\n  tag_148\n    /* \"#utility.yul\":8599:8603   */\n  dup2\n    /* \"#utility.yul\":8473:8604   */\n  tag_58\n  jump\t// in\ntag_148:\n    /* \"#utility.yul\":8465:8604   */\n  swap1\n  pop\n    /* \"#utility.yul\":8192:8611   */\n  swap2\n  swap1\n  pop\n  jump\t// out\n    /* \"contracts/selfErc721.sol\":4078:5294  contract Erc7212 is ERC721, Pausable {... */\ntag_18:\n  dataSize(sub_0)\n  dup1\n  dataOffset(sub_0)\n  0x00\n  codecopy\n  0x00\n  return\nstop\ndata_56202771b636b5898a739656a4dd05fc9f50c3b98de772a10cc701e4de102849 68747470733a2f2f6d657461646174612e626f6f6d6c616e642e696f2f636f6e74726163742d6d65746164617461\n\nsub_0: assembly {\n        /* \"contracts/selfErc721.sol\":4078:5294  contract Erc7212 is ERC721, Pausable {... */\n      mstore(0x40, 0x80)\n      callvalue\n      dup1\n      iszero\n      tag_1\n      jumpi\n      0x00\n      dup1\n      revert\n    tag_1:\n      pop\n      jumpi(tag_2, lt(calldatasize, 0x04))\n      shr(0xe0, calldataload(0x00))\n      dup1\n      0x70a08231\n      gt\n      tag_17\n      jumpi\n      dup1\n      0x938e3d7b\n      gt\n      tag_18\n      jumpi\n      dup1\n      0x938e3d7b\n      eq\n      tag_13\n      jumpi\n      dup1\n      0x95d89b41\n      eq\n      tag_14\n      jumpi\n      dup1\n      0xe8a3d485\n      eq\n      tag_15\n      jumpi\n      dup1\n      0xf2fde38b\n      eq\n      tag_16\n      jumpi\n      jump(tag_2)\n    tag_18:\n      dup1\n      0x70a08231\n      eq\n      tag_10\n      jumpi\n      dup1\n      0x8456cb59\n      eq\n      tag_11\n      jumpi\n      dup1\n      0x8da5cb5b\n      eq\n      tag_12\n      jumpi\n      jump(tag_2)\n    tag_17:\n      dup1\n      0x2649d62e\n      gt\n      tag_19\n      jumpi\n      dup1\n      0x2649d62e\n      eq\n      tag_6\n      jumpi\n      dup1\n      0x3f4ba83a\n      eq\n      tag_7\n      jumpi\n      dup1\n      0x40d097c3\n      eq\n      tag_8\n      jumpi\n      dup1\n      0x6352211e\n      eq\n      tag_9\n      jumpi\n      jump(tag_2)\n    tag_19:\n      dup1\n      0x06fdde03\n      eq\n      tag_3\n      jumpi\n      dup1\n      0x081812fc\n      eq\n      tag_4\n      jumpi\n      dup1\n      0x095ea7b3\n      eq\n      tag_5\n      jumpi\n    tag_2:\n      0x00\n      dup1\n      revert\n        /* \"contracts/selfErc721.sol\":2085:2168  function name() public view returns (string memory) {... */\n    tag_3:\n      tag_20\n      tag_21\n      jump\t// in\n    tag_20:\n      mload(0x40)\n      tag_22\n      swap2\n      swap1\n      tag_23\n      jump\t// in\n    tag_22:\n      mload(0x40)\n      dup1\n      swap2\n      sub\n      swap1\n      return\n        /* \"contracts/selfErc721.sol\":3316:3434  function getApproved(uint256 tokenId) public view returns (address) {... */\n    tag_4:\n      tag_24\n      0x04\n      dup1\n      calldatasize\n      sub\n      dup2\n      add\n      swap1\n      tag_25\n      swap2\n      swap1\n      tag_26\n      jump\t// in\n    tag_25:\n      tag_27\n      jump\t// in\n    tag_24:\n      mload(0x40)\n      tag_28\n      swap2\n      swap1\n      tag_29\n      jump\t// in\n    tag_28:\n      mload(0x40)\n      dup1\n      swap2\n      sub\n      swap1\n      return\n        /* \"contracts/selfErc721.sol\":2970:3308  function approve(address to, uint256 tokenId) public {... */\n    tag_5:\n      tag_30\n      0x04\n      dup1\n      calldatasize\n      sub\n      dup2\n      add\n      swap1\n      tag_31\n      swap2\n      swap1\n      tag_32\n      jump\t// in\n    tag_31:\n      tag_33\n      jump\t// in\n    tag_30:\n      stop\n        /* \"contracts/selfErc721.sol\":5017:5291  function multiMint(address to, uint256 count) public onlyOwner {... */\n    tag_6:\n      tag_34\n      0x04\n      dup1\n      calldatasize\n      sub\n      dup2\n      add\n      swap1\n      tag_35\n      swap2\n      swap1\n      tag_32\n      jump\t// in\n    tag_35:\n      tag_36\n      jump\t// in\n    tag_34:\n      stop\n        /* \"contracts/selfErc721.sol\":1301:1418  function unpause() public onlyOwner whenPaused {... */\n    tag_7:\n      tag_37\n      tag_38\n      jump\t// in\n    tag_37:\n      stop\n        /* \"contracts/selfErc721.sol\":4878:5009  function safeMint(address to) public onlyOwner {... */\n    tag_8:\n      tag_39\n      0x04\n      dup1\n      calldatasize\n      sub\n      dup2\n      add\n      swap1\n      tag_40\n      swap2\n      swap1\n      tag_41\n      jump\t// in\n    tag_40:\n      tag_42\n      jump\t// in\n    tag_39:\n      stop\n        /* \"contracts/selfErc721.sol\":2385:2590  function ownerOf(uint256 tokenId) public view returns (address) {... */\n    tag_9:\n      tag_43\n      0x04\n      dup1\n      calldatasize\n      sub\n      dup2\n      add\n      swap1\n      tag_44\n      swap2\n      swap1\n      tag_26\n      jump\t// in\n    tag_44:\n      tag_45\n      jump\t// in\n    tag_43:\n      mload(0x40)\n      tag_46\n      swap2\n      swap1\n      tag_29\n      jump\t// in\n    tag_46:\n      mload(0x40)\n      dup1\n      swap2\n      sub\n      swap1\n      return\n        /* \"contracts/selfErc721.sol\":2271:2377  function balanceOf(address owner) public view returns (uint256) {... */\n    tag_10:\n      tag_47\n      0x04\n      dup1\n      calldatasize\n      sub\n      dup2\n      add\n      swap1\n      tag_48\n      swap2\n      swap1\n      tag_41\n      jump\t// in\n    tag_48:\n      tag_49\n      jump\t// in\n    tag_47:\n      mload(0x40)\n      tag_50\n      swap2\n      swap1\n      tag_51\n      jump\t// in\n    tag_50:\n      mload(0x40)\n      dup1\n      swap2\n      sub\n      swap1\n      return\n        /* \"contracts/selfErc721.sol\":1178:1293  function pause() public onlyOwner whenNotPaused {... */\n    tag_11:\n      tag_52\n      tag_53\n      jump\t// in\n    tag_52:\n      stop\n        /* \"contracts/selfErc721.sol\":449:528  function owner() public view returns (address) {... */\n    tag_12:\n      tag_54\n      tag_55\n      jump\t// in\n    tag_54:\n      mload(0x40)\n      tag_56\n      swap2\n      swap1\n      tag_29\n      jump\t// in\n    tag_56:\n      mload(0x40)\n      dup1\n      swap2\n      sub\n      swap1\n      return\n        /* \"contracts/selfErc721.sol\":4749:4870  function setContractURI(string memory newContractURI) external onlyOwner {... */\n    tag_13:\n      tag_57\n      0x04\n      dup1\n      calldatasize\n      sub\n      dup2\n      add\n      swap1\n      tag_58\n      swap2\n      swap1\n      tag_59\n      jump\t// in\n    tag_58:\n      tag_60\n      jump\t// in\n    tag_57:\n      stop\n        /* \"contracts/selfErc721.sol\":2176:2263  function symbol() public view returns (string memory) {... */\n    tag_14:\n      tag_61\n      tag_62\n      jump\t// in\n    tag_61:\n      mload(0x40)\n      tag_63\n      swap2\n      swap1\n      tag_23\n      jump\t// in\n    tag_63:\n      mload(0x40)\n      dup1\n      swap2\n      sub\n      swap1\n      return\n        /* \"contracts/selfErc721.sol\":4644:4741  function contractURI() public view returns (string memory) {... */\n    tag_15:\n      tag_64\n      tag_65\n      jump\t// in\n    tag_64:\n      mload(0x40)\n      tag_66\n      swap2\n      swap1\n      tag_23\n      jump\t// in\n    tag_66:\n      mload(0x40)\n      dup1\n      swap2\n      sub\n      swap1\n      return\n        /* \"contracts/selfErc721.sol\":536:772  function transferOwnership(address newOwner) public onlyOwner {... */\n    tag_16:\n      tag_67\n      0x04\n      dup1\n      calldatasize\n      sub\n      dup2\n      add\n      swap1\n      tag_68\n      swap2\n      swap1\n      tag_41\n      jump\t// in\n    tag_68:\n      tag_69\n      jump\t// in\n    tag_67:\n      stop\n        /* \"contracts/selfErc721.sol\":2085:2168  function name() public view returns (string memory) {... */\n    tag_21:\n        /* \"contracts/selfErc721.sol\":2122:2135  string memory */\n      0x60\n        /* \"contracts/selfErc721.sol\":2155:2160  _name */\n      0x01\n        /* \"contracts/selfErc721.sol\":2148:2160  return _name */\n      dup1\n      sload\n      tag_71\n      swap1\n      tag_72\n      jump\t// in\n    tag_71:\n      dup1\n      0x1f\n      add\n      0x20\n      dup1\n      swap2\n      div\n      mul\n      0x20\n      add\n      mload(0x40)\n      swap1\n      dup2\n      add\n      0x40\n      mstore\n      dup1\n      swap3\n      swap2\n      swap1\n      dup2\n      dup2\n      mstore\n      0x20\n      add\n      dup3\n      dup1\n      sload\n      tag_73\n      swap1\n      tag_72\n      jump\t// in\n    tag_73:\n      dup1\n      iszero\n      tag_74\n      jumpi\n      dup1\n      0x1f\n      lt\n      tag_75\n      jumpi\n      0x0100\n      dup1\n      dup4\n      sload\n      div\n      mul\n      dup4\n      mstore\n      swap2\n      0x20\n      add\n      swap2\n      jump(tag_74)\n    tag_75:\n      dup3\n      add\n      swap2\n      swap1\n      0x00\n      mstore\n      keccak256(0x00, 0x20)\n      swap1\n    tag_76:\n      dup2\n      sload\n      dup2\n      mstore\n      swap1\n      0x01\n      add\n      swap1\n      0x20\n      add\n      dup1\n      dup4\n      gt\n      tag_76\n      jumpi\n      dup3\n      swap1\n      sub\n      0x1f\n      and\n      dup3\n      add\n      swap2\n    tag_74:\n      pop\n      pop\n      pop\n      pop\n      pop\n      swap1\n      pop\n        /* \"contracts/selfErc721.sol\":2085:2168  function name() public view returns (string memory) {... */\n      swap1\n      jump\t// out\n        /* \"contracts/selfErc721.sol\":3316:3434  function getApproved(uint256 tokenId) public view returns (address) {... */\n    tag_27:\n        /* \"contracts/selfErc721.sol\":3375:3382  address */\n      0x00\n        /* \"contracts/selfErc721.sol\":3402:3417  _tokenApprovals */\n      0x06\n        /* \"contracts/selfErc721.sol\":3402:3426  _tokenApprovals[tokenId] */\n      0x00\n        /* \"contracts/selfErc721.sol\":3418:3425  tokenId */\n      dup4\n        /* \"contracts/selfErc721.sol\":3402:3426  _tokenApprovals[tokenId] */\n      dup2\n      mstore\n      0x20\n      add\n      swap1\n      dup2\n      mstore\n      0x20\n      add\n      0x00\n      keccak256\n      0x00\n      swap1\n      sload\n      swap1\n      0x0100\n      exp\n      swap1\n      div\n      0xffffffffffffffffffffffffffffffffffffffff\n      and\n        /* \"contracts/selfErc721.sol\":3395:3426  return _tokenApprovals[tokenId] */\n      swap1\n      pop\n        /* \"contracts/selfErc721.sol\":3316:3434  function getApproved(uint256 tokenId) public view returns (address) {... */\n      swap2\n      swap1\n      pop\n      jump\t// out\n        /* \"contracts/selfErc721.sol\":2970:3308  function approve(address to, uint256 tokenId) public {... */\n    tag_33:\n        /* \"contracts/selfErc721.sol\":3034:3047  address owner */\n      0x00\n        /* \"contracts/selfErc721.sol\":3050:3066  ownerOf(tokenId) */\n      tag_79\n        /* \"contracts/selfErc721.sol\":3058:3065  tokenId */\n      dup3\n        /* \"contracts/selfErc721.sol\":3050:3057  ownerOf */\n      tag_45\n        /* \"contracts/selfErc721.sol\":3050:3066  ownerOf(tokenId) */\n      jump\t// in\n    tag_79:\n        /* \"contracts/selfErc721.sol\":3034:3066  address owner = ownerOf(tokenId) */\n      swap1\n      pop\n        /* \"contracts/selfErc721.sol\":3091:3096  owner */\n      dup1\n        /* \"contracts/selfErc721.sol\":3085:3096  to != owner */\n      0xffffffffffffffffffffffffffffffffffffffff\n      and\n        /* \"contracts/selfErc721.sol\":3085:3087  to */\n      dup4\n        /* \"contracts/selfErc721.sol\":3085:3096  to != owner */\n      0xffffffffffffffffffffffffffffffffffffffff\n      and\n      sub\n        /* \"contracts/selfErc721.sol\":3077:3134  require(to != owner, \"ERC721: approval to current owner\") */\n      tag_80\n      jumpi\n      mload(0x40)\n      0x08c379a000000000000000000000000000000000000000000000000000000000\n      dup2\n      mstore\n      0x04\n      add\n      tag_81\n      swap1\n      tag_82\n      jump\t// in\n    tag_81:\n      mload(0x40)\n      dup1\n      swap2\n      sub\n      swap1\n      revert\n    tag_80:\n        /* \"contracts/selfErc721.sol\":3169:3174  owner */\n      dup1\n        /* \"contracts/selfErc721.sol\":3155:3174  msg.sender == owner */\n      0xffffffffffffffffffffffffffffffffffffffff\n      and\n        /* \"contracts/selfErc721.sol\":3155:3165  msg.sender */\n      caller\n        /* \"contracts/selfErc721.sol\":3155:3174  msg.sender == owner */\n      0xffffffffffffffffffffffffffffffffffffffff\n      and\n      eq\n        /* \"contracts/selfErc721.sol\":3147:3214  require(msg.sender == owner, \"ERC721: approve caller is not owner\") */\n      tag_83\n      jumpi\n      mload(0x40)\n      0x08c379a000000000000000000000000000000000000000000000000000000000\n      dup2\n      mstore\n      0x04\n      add\n      tag_84\n      swap1\n      tag_85\n      jump\t// in\n    tag_84:\n      mload(0x40)\n      dup1\n      swap2\n      sub\n      swap1\n      revert\n    tag_83:\n        /* \"contracts/selfErc721.sol\":3254:3256  to */\n      dup3\n        /* \"contracts/selfErc721.sol\":3227:3242  _tokenApprovals */\n      0x06\n        /* \"contracts/selfErc721.sol\":3227:3251  _tokenApprovals[tokenId] */\n      0x00\n        /* \"contracts/selfErc721.sol\":3243:3250  tokenId */\n      dup5\n        /* \"contracts/selfErc721.sol\":3227:3251  _tokenApprovals[tokenId] */\n      dup2\n      mstore\n      0x20\n      add\n      swap1\n      dup2\n      mstore\n      0x20\n      add\n      0x00\n      keccak256\n      0x00\n        /* \"contracts/selfErc721.sol\":3227:3256  _tokenApprovals[tokenId] = to */\n      0x0100\n      exp\n      dup2\n      sload\n      dup2\n      0xffffffffffffffffffffffffffffffffffffffff\n      mul\n      not\n      and\n      swap1\n      dup4\n      0xffffffffffffffffffffffffffffffffffffffff\n      and\n      mul\n      or\n      swap1\n      sstore\n      pop\n        /* \"contracts/selfErc721.sol\":3292:3299  tokenId */\n      dup2\n        /* \"contracts/selfErc721.sol\":3288:3290  to */\n      dup4\n        /* \"contracts/selfErc721.sol\":3272:3300  Approval(owner, to, tokenId) */\n      0xffffffffffffffffffffffffffffffffffffffff\n      and\n        /* \"contracts/selfErc721.sol\":3281:3286  owner */\n      dup3\n        /* \"contracts/selfErc721.sol\":3272:3300  Approval(owner, to, tokenId) */\n      0xffffffffffffffffffffffffffffffffffffffff\n      and\n      0x8c5be1e5ebec7d5bd14f71427d1e84f3dd0314c0f7b2291e5b200ac8c7c3b925\n      mload(0x40)\n      mload(0x40)\n      dup1\n      swap2\n      sub\n      swap1\n      log4\n        /* \"contracts/selfErc721.sol\":3023:3308  {... */\n      pop\n        /* \"contracts/selfErc721.sol\":2970:3308  function approve(address to, uint256 tokenId) public {... */\n      pop\n      pop\n      jump\t// out\n        /* \"contracts/selfErc721.sol\":5017:5291  function multiMint(address to, uint256 count) public onlyOwner {... */\n    tag_36:\n        /* \"contracts/selfErc721.sol\":378:384  _owner */\n      0x00\n      dup1\n      sload\n      swap1\n      0x0100\n      exp\n      swap1\n      div\n      0xffffffffffffffffffffffffffffffffffffffff\n      and\n        /* \"contracts/selfErc721.sol\":364:384  msg.sender == _owner */\n      0xffffffffffffffffffffffffffffffffffffffff\n      and\n        /* \"contracts/selfErc721.sol\":364:374  msg.sender */\n      caller\n        /* \"contracts/selfErc721.sol\":364:384  msg.sender == _owner */\n      0xffffffffffffffffffffffffffffffffffffffff\n      and\n      eq\n        /* \"contracts/selfErc721.sol\":356:421  require(msg.sender == _owner, \"Ownable: caller is not the owner\") */\n      tag_87\n      jumpi\n      mload(0x40)\n      0x08c379a000000000000000000000000000000000000000000000000000000000\n      dup2\n      mstore\n      0x04\n      add\n      tag_88\n      swap1\n      tag_89\n      jump\t// in\n    tag_88:\n      mload(0x40)\n      dup1\n      swap2\n      sub\n      swap1\n      revert\n    tag_87:\n        /* \"contracts/selfErc721.sol\":5107:5108  0 */\n      0x00\n        /* \"contracts/selfErc721.sol\":5099:5104  count */\n      dup2\n        /* \"contracts/selfErc721.sol\":5099:5108  count > 0 */\n      gt\n        /* \"contracts/selfErc721.sol\":5091:5141  require(count > 0, \"Count must be greater than 0\") */\n      tag_91\n      jumpi\n      mload(0x40)\n      0x08c379a000000000000000000000000000000000000000000000000000000000\n      dup2\n      mstore\n      0x04\n      add\n      tag_92\n      swap1\n      tag_93\n      jump\t// in\n    tag_92:\n      mload(0x40)\n      dup1\n      swap2\n      sub\n      swap1\n      revert\n    tag_91:\n        /* \"contracts/selfErc721.sol\":5157:5166  uint256 i */\n      0x00\n        /* \"contracts/selfErc721.sol\":5152:5284  for (uint256 i = 0; i < count; i++) {... */\n    tag_94:\n        /* \"contracts/selfErc721.sol\":5176:5181  count */\n      dup2\n        /* \"contracts/selfErc721.sol\":5172:5173  i */\n      dup2\n        /* \"contracts/selfErc721.sol\":5172:5181  i < count */\n      lt\n        /* \"contracts/selfErc721.sol\":5152:5284  for (uint256 i = 0; i < count; i++) {... */\n      iszero\n      tag_95\n      jumpi\n        /* \"contracts/selfErc721.sol\":5203:5218  uint256 tokenId */\n      0x00\n        /* \"contracts/selfErc721.sol\":5221:5233  _nextTokenId */\n      0x08\n      0x00\n        /* \"contracts/selfErc721.sol\":5221:5235  _nextTokenId++ */\n      dup2\n      sload\n      dup1\n      swap3\n      swap2\n      swap1\n      tag_97\n      swap1\n      tag_98\n      jump\t// in\n    tag_97:\n      swap2\n      swap1\n      pop\n      sstore\n        /* \"contracts/selfErc721.sol\":5203:5235  uint256 tokenId = _nextTokenId++ */\n      swap1\n      pop\n        /* \"contracts/selfErc721.sol\":5250:5272  _safeMint(to, tokenId) */\n      tag_99\n        /* \"contracts/selfErc721.sol\":5260:5262  to */\n      dup5\n        /* \"contracts/selfErc721.sol\":5264:5271  tokenId */\n      dup3\n        /* \"contracts/selfErc721.sol\":5250:5259  _safeMint */\n      tag_100\n        /* \"contracts/selfErc721.sol\":5250:5272  _safeMint(to, tokenId) */\n      jump\t// in\n    tag_99:\n        /* \"contracts/selfErc721.sol\":5188:5284  {... */\n      pop\n        /* \"contracts/selfErc721.sol\":5183:5186  i++ */\n      dup1\n      dup1\n      0x01\n      add\n      swap2\n      pop\n      pop\n        /* \"contracts/selfErc721.sol\":5152:5284  for (uint256 i = 0; i < count; i++) {... */\n      jump(tag_94)\n    tag_95:\n      pop\n        /* \"contracts/selfErc721.sol\":5017:5291  function multiMint(address to, uint256 count) public onlyOwner {... */\n      pop\n      pop\n      jump\t// out\n        /* \"contracts/selfErc721.sol\":1301:1418  function unpause() public onlyOwner whenPaused {... */\n    tag_38:\n        /* \"contracts/selfErc721.sol\":378:384  _owner */\n      0x00\n      dup1\n      sload\n      swap1\n      0x0100\n      exp\n      swap1\n      div\n      0xffffffffffffffffffffffffffffffffffffffff\n      and\n        /* \"contracts/selfErc721.sol\":364:384  msg.sender == _owner */\n      0xffffffffffffffffffffffffffffffffffffffff\n      and\n        /* \"contracts/selfErc721.sol\":364:374  msg.sender */\n      caller\n        /* \"contracts/selfErc721.sol\":364:384  msg.sender == _owner */\n      0xffffffffffffffffffffffffffffffffffffffff\n      and\n      eq\n        /* \"contracts/selfErc721.sol\":356:421  require(msg.sender == _owner, \"Ownable: caller is not the owner\") */\n      tag_102\n      jumpi\n      mload(0x40)\n      0x08c379a000000000000000000000000000000000000000000000000000000000\n      dup2\n      mstore\n      0x04\n      add\n      tag_103\n      swap1\n      tag_89\n      jump\t// in\n    tag_103:\n      mload(0x40)\n      dup1\n      swap2\n      sub\n      swap1\n      revert\n    tag_102:\n        /* \"contracts/selfErc721.sol\":1118:1125  _paused */\n      0x07\n      0x00\n      swap1\n      sload\n      swap1\n      0x0100\n      exp\n      swap1\n      div\n      0xff\n      and\n        /* \"contracts/selfErc721.sol\":1110:1150  require(_paused, \"Pausable: not paused\") */\n      tag_105\n      jumpi\n      mload(0x40)\n      0x08c379a000000000000000000000000000000000000000000000000000000000\n      dup2\n      mstore\n      0x04\n      add\n      tag_106\n      swap1\n      tag_107\n      jump\t// in\n    tag_106:\n      mload(0x40)\n      dup1\n      swap2\n      sub\n      swap1\n      revert\n    tag_105:\n        /* \"contracts/selfErc721.sol\":1369:1374  false */\n      0x00\n        /* \"contracts/selfErc721.sol\":1359:1366  _paused */\n      0x07\n      0x00\n        /* \"contracts/selfErc721.sol\":1359:1374  _paused = false */\n      0x0100\n      exp\n      dup2\n      sload\n      dup2\n      0xff\n      mul\n      not\n      and\n      swap1\n      dup4\n      iszero\n      iszero\n      mul\n      or\n      swap1\n      sstore\n      pop\n        /* \"contracts/selfErc721.sol\":1390:1410  Unpaused(msg.sender) */\n      0x5db9ee0a495bf2e6ff9c91a7834c1ba4fdd244a5e8aa4e537bd38aeae4b073aa\n        /* \"contracts/selfErc721.sol\":1399:1409  msg.sender */\n      caller\n        /* \"contracts/selfErc721.sol\":1390:1410  Unpaused(msg.sender) */\n      mload(0x40)\n      tag_109\n      swap2\n      swap1\n      tag_29\n      jump\t// in\n    tag_109:\n      mload(0x40)\n      dup1\n      swap2\n      sub\n      swap1\n      log1\n        /* \"contracts/selfErc721.sol\":1301:1418  function unpause() public onlyOwner whenPaused {... */\n      jump\t// out\n        /* \"contracts/selfErc721.sol\":4878:5009  function safeMint(address to) public onlyOwner {... */\n    tag_42:\n        /* \"contracts/selfErc721.sol\":378:384  _owner */\n      0x00\n      dup1\n      sload\n      swap1\n      0x0100\n      exp\n      swap1\n      div\n      0xffffffffffffffffffffffffffffffffffffffff\n      and\n        /* \"contracts/selfErc721.sol\":364:384  msg.sender == _owner */\n      0xffffffffffffffffffffffffffffffffffffffff\n      and\n        /* \"contracts/selfErc721.sol\":364:374  msg.sender */\n      caller\n        /* \"contracts/selfErc721.sol\":364:384  msg.sender == _owner */\n      0xffffffffffffffffffffffffffffffffffffffff\n      and\n      eq\n        /* \"contracts/selfErc721.sol\":356:421  require(msg.sender == _owner, \"Ownable: caller is not the owner\") */\n      tag_111\n      jumpi\n      mload(0x40)\n      0x08c379a000000000000000000000000000000000000000000000000000000000\n      dup2\n      mstore\n      0x04\n      add\n      tag_112\n      swap1\n      tag_89\n      jump\t// in\n    tag_112:\n      mload(0x40)\n      dup1\n      swap2\n      sub\n      swap1\n      revert\n    tag_111:\n        /* \"contracts/selfErc721.sol\":4936:4951  uint256 tokenId */\n      0x00\n        /* \"contracts/selfErc721.sol\":4954:4966  _nextTokenId */\n      0x08\n      0x00\n        /* \"contracts/selfErc721.sol\":4954:4968  _nextTokenId++ */\n      dup2\n      sload\n      dup1\n      swap3\n      swap2\n      swap1\n      tag_114\n      swap1\n      tag_98\n      jump\t// in\n    tag_114:\n      swap2\n      swap1\n      pop\n      sstore\n        /* \"contracts/selfErc721.sol\":4936:4968  uint256 tokenId = _nextTokenId++ */\n      swap1\n      pop\n        /* \"contracts/selfErc721.sol\":4979:5001  _safeMint(to, tokenId) */\n      tag_115\n        /* \"contracts/selfErc721.sol\":4989:4991  to */\n      dup3\n        /* \"contracts/selfErc721.sol\":4993:5000  tokenId */\n      dup3\n        /* \"contracts/selfErc721.sol\":4979:4988  _safeMint */\n      tag_100\n        /* \"contracts/selfErc721.sol\":4979:5001  _safeMint(to, tokenId) */\n      jump\t// in\n    tag_115:\n        /* \"contracts/selfErc721.sol\":4925:5009  {... */\n      pop\n        /* \"contracts/selfErc721.sol\":4878:5009  function safeMint(address to) public onlyOwner {... */\n      pop\n      jump\t// out\n        /* \"contracts/selfErc721.sol\":2385:2590  function ownerOf(uint256 tokenId) public view returns (address) {... */\n    tag_45:\n        /* \"contracts/selfErc721.sol\":2440:2447  address */\n      0x00\n        /* \"contracts/selfErc721.sol\":2460:2473  address owner */\n      dup1\n        /* \"contracts/selfErc721.sol\":2476:2483  _owners */\n      0x04\n        /* \"contracts/selfErc721.sol\":2476:2492  _owners[tokenId] */\n      0x00\n        /* \"contracts/selfErc721.sol\":2484:2491  tokenId */\n      dup5\n        /* \"contracts/selfErc721.sol\":2476:2492  _owners[tokenId] */\n      dup2\n      mstore\n      0x20\n      add\n      swap1\n      dup2\n      mstore\n      0x20\n      add\n      0x00\n      keccak256\n      0x00\n      swap1\n      sload\n      swap1\n      0x0100\n      exp\n      swap1\n      div\n      0xffffffffffffffffffffffffffffffffffffffff\n      and\n        /* \"contracts/selfErc721.sol\":2460:2492  address owner = _owners[tokenId] */\n      swap1\n      pop\n        /* \"contracts/selfErc721.sol\":2528:2529  0 */\n      0x00\n        /* \"contracts/selfErc721.sol\":2511:2530  owner != address(0) */\n      0xffffffffffffffffffffffffffffffffffffffff\n      and\n        /* \"contracts/selfErc721.sol\":2511:2516  owner */\n      dup2\n        /* \"contracts/selfErc721.sol\":2511:2530  owner != address(0) */\n      0xffffffffffffffffffffffffffffffffffffffff\n      and\n      sub\n        /* \"contracts/selfErc721.sol\":2503:2559  require(owner != address(0), \"ERC721: invalid token ID\") */\n      tag_117\n      jumpi\n      mload(0x40)\n      0x08c379a000000000000000000000000000000000000000000000000000000000\n      dup2\n      mstore\n      0x04\n      add\n      tag_118\n      swap1\n      tag_119\n      jump\t// in\n    tag_118:\n      mload(0x40)\n      dup1\n      swap2\n      sub\n      swap1\n      revert\n    tag_117:\n        /* \"contracts/selfErc721.sol\":2577:2582  owner */\n      dup1\n        /* \"contracts/selfErc721.sol\":2570:2582  return owner */\n      swap2\n      pop\n      pop\n        /* \"contracts/selfErc721.sol\":2385:2590  function ownerOf(uint256 tokenId) public view returns (address) {... */\n      swap2\n      swap1\n      pop\n      jump\t// out\n        /* \"contracts/selfErc721.sol\":2271:2377  function balanceOf(address owner) public view returns (uint256) {... */\n    tag_49:\n        /* \"contracts/selfErc721.sol\":2326:2333  uint256 */\n      0x00\n        /* \"contracts/selfErc721.sol\":2353:2362  _balances */\n      0x05\n        /* \"contracts/selfErc721.sol\":2353:2369  _balances[owner] */\n      0x00\n        /* \"contracts/selfErc721.sol\":2363:2368  owner */\n      dup4\n        /* \"contracts/selfErc721.sol\":2353:2369  _balances[owner] */\n      0xffffffffffffffffffffffffffffffffffffffff\n      and\n      0xffffffffffffffffffffffffffffffffffffffff\n      and\n      dup2\n      mstore\n      0x20\n      add\n      swap1\n      dup2\n      mstore\n      0x20\n      add\n      0x00\n      keccak256\n      sload\n        /* \"contracts/selfErc721.sol\":2346:2369  return _balances[owner] */\n      swap1\n      pop\n        /* \"contracts/selfErc721.sol\":2271:2377  function balanceOf(address owner) public view returns (uint256) {... */\n      swap2\n      swap1\n      pop\n      jump\t// out\n        /* \"contracts/selfErc721.sol\":1178:1293  function pause() public onlyOwner whenNotPaused {... */\n    tag_53:\n        /* \"contracts/selfErc721.sol\":378:384  _owner */\n      0x00\n      dup1\n      sload\n      swap1\n      0x0100\n      exp\n      swap1\n      div\n      0xffffffffffffffffffffffffffffffffffffffff\n      and\n        /* \"contracts/selfErc721.sol\":364:384  msg.sender == _owner */\n      0xffffffffffffffffffffffffffffffffffffffff\n      and\n        /* \"contracts/selfErc721.sol\":364:374  msg.sender */\n      caller\n        /* \"contracts/selfErc721.sol\":364:384  msg.sender == _owner */\n      0xffffffffffffffffffffffffffffffffffffffff\n      and\n      eq\n        /* \"contracts/selfErc721.sol\":356:421  require(msg.sender == _owner, \"Ownable: caller is not the owner\") */\n      tag_122\n      jumpi\n      mload(0x40)\n      0x08c379a000000000000000000000000000000000000000000000000000000000\n      dup2\n      mstore\n      0x04\n      add\n      tag_123\n      swap1\n      tag_89\n      jump\t// in\n    tag_123:\n      mload(0x40)\n      dup1\n      swap2\n      sub\n      swap1\n      revert\n    tag_122:\n        /* \"contracts/selfErc721.sol\":1021:1028  _paused */\n      0x07\n      0x00\n      swap1\n      sload\n      swap1\n      0x0100\n      exp\n      swap1\n      div\n      0xff\n      and\n        /* \"contracts/selfErc721.sol\":1020:1028  !_paused */\n      iszero\n        /* \"contracts/selfErc721.sol\":1012:1049  require(!_paused, \"Pausable: paused\") */\n      tag_125\n      jumpi\n      mload(0x40)\n      0x08c379a000000000000000000000000000000000000000000000000000000000\n      dup2\n      mstore\n      0x04\n      add\n      tag_126\n      swap1\n      tag_127\n      jump\t// in\n    tag_126:\n      mload(0x40)\n      dup1\n      swap2\n      sub\n      swap1\n      revert\n    tag_125:\n        /* \"contracts/selfErc721.sol\":1247:1251  true */\n      0x01\n        /* \"contracts/selfErc721.sol\":1237:1244  _paused */\n      0x07\n      0x00\n        /* \"contracts/selfErc721.sol\":1237:1251  _paused = true */\n      0x0100\n      exp\n      dup2\n      sload\n      dup2\n      0xff\n      mul\n      not\n      and\n      swap1\n      dup4\n      iszero\n      iszero\n      mul\n      or\n      swap1\n      sstore\n      pop\n        /* \"contracts/selfErc721.sol\":1267:1285  Paused(msg.sender) */\n      0x62e78cea01bee320cd4e420270b5ea74000d11b0c9f74754ebdbfc544b05a258\n        /* \"contracts/selfErc721.sol\":1274:1284  msg.sender */\n      caller\n        /* \"contracts/selfErc721.sol\":1267:1285  Paused(msg.sender) */\n      mload(0x40)\n      tag_129\n      swap2\n      swap1\n      tag_29\n      jump\t// in\n    tag_129:\n      mload(0x40)\n      dup1\n      swap2\n      sub\n      swap1\n      log1\n        /* \"contracts/selfErc721.sol\":1178:1293  function pause() public onlyOwner whenNotPaused {... */\n      jump\t// out\n        /* \"contracts/selfErc721.sol\":449:528  function owner() public view returns (address) {... */\n    tag_55:\n        /* \"contracts/selfErc721.sol\":487:494  address */\n      0x00\n        /* \"contracts/selfErc721.sol\":514:520  _owner */\n      dup1\n      0x00\n      swap1\n      sload\n      swap1\n      0x0100\n      exp\n      swap1\n      div\n      0xffffffffffffffffffffffffffffffffffffffff\n      and\n        /* \"contracts/selfErc721.sol\":507:520  return _owner */\n      swap1\n      pop\n        /* \"contracts/selfErc721.sol\":449:528  function owner() public view returns (address) {... */\n      swap1\n      jump\t// out\n        /* \"contracts/selfErc721.sol\":4749:4870  function setContractURI(string memory newContractURI) external onlyOwner {... */\n    tag_60:\n        /* \"contracts/selfErc721.sol\":378:384  _owner */\n      0x00\n      dup1\n      sload\n      swap1\n      0x0100\n      exp\n      swap1\n      div\n      0xffffffffffffffffffffffffffffffffffffffff\n      and\n        /* \"contracts/selfErc721.sol\":364:384  msg.sender == _owner */\n      0xffffffffffffffffffffffffffffffffffffffff\n      and\n        /* \"contracts/selfErc721.sol\":364:374  msg.sender */\n      caller\n        /* \"contracts/selfErc721.sol\":364:384  msg.sender == _owner */\n      0xffffffffffffffffffffffffffffffffffffffff\n      and\n      eq\n        /* \"contracts/selfErc721.sol\":356:421  require(msg.sender == _owner, \"Ownable: caller is not the owner\") */\n      tag_132\n      jumpi\n      mload(0x40)\n      0x08c379a000000000000000000000000000000000000000000000000000000000\n      dup2\n      mstore\n      0x04\n      add\n      tag_133\n      swap1\n      tag_89\n      jump\t// in\n    tag_133:\n      mload(0x40)\n      dup1\n      swap2\n      sub\n      swap1\n      revert\n    tag_132:\n        /* \"contracts/selfErc721.sol\":4848:4862  newContractURI */\n      dup1\n        /* \"contracts/selfErc721.sol\":4833:4845  _contractURI */\n      0x09\n        /* \"contracts/selfErc721.sol\":4833:4862  _contractURI = newContractURI */\n      swap1\n      dup2\n      tag_135\n      swap2\n      swap1\n      tag_136\n      jump\t// in\n    tag_135:\n      pop\n        /* \"contracts/selfErc721.sol\":4749:4870  function setContractURI(string memory newContractURI) external onlyOwner {... */\n      pop\n      jump\t// out\n        /* \"contracts/selfErc721.sol\":2176:2263  function symbol() public view returns (string memory) {... */\n    tag_62:\n        /* \"contracts/selfErc721.sol\":2215:2228  string memory */\n      0x60\n        /* \"contracts/selfErc721.sol\":2248:2255  _symbol */\n      0x02\n        /* \"contracts/selfErc721.sol\":2241:2255  return _symbol */\n      dup1\n      sload\n      tag_138\n      swap1\n      tag_72\n      jump\t// in\n    tag_138:\n      dup1\n      0x1f\n      add\n      0x20\n      dup1\n      swap2\n      div\n      mul\n      0x20\n      add\n      mload(0x40)\n      swap1\n      dup2\n      add\n      0x40\n      mstore\n      dup1\n      swap3\n      swap2\n      swap1\n      dup2\n      dup2\n      mstore\n      0x20\n      add\n      dup3\n      dup1\n      sload\n      tag_139\n      swap1\n      tag_72\n      jump\t// in\n    tag_139:\n      dup1\n      iszero\n      tag_140\n      jumpi\n      dup1\n      0x1f\n      lt\n      tag_141\n      jumpi\n      0x0100\n      dup1\n      dup4\n      sload\n      div\n      mul\n      dup4\n      mstore\n      swap2\n      0x20\n      add\n      swap2\n      jump(tag_140)\n    tag_141:\n      dup3\n      add\n      swap2\n      swap1\n      0x00\n      mstore\n      keccak256(0x00, 0x20)\n      swap1\n    tag_142:\n      dup2\n      sload\n      dup2\n      mstore\n      swap1\n      0x01\n      add\n      swap1\n      0x20\n      add\n      dup1\n      dup4\n      gt\n      tag_142\n      jumpi\n      dup3\n      swap1\n      sub\n      0x1f\n      and\n      dup3\n      add\n      swap2\n    tag_140:\n      pop\n      pop\n      pop\n      pop\n      pop\n      swap1\n      pop\n        /* \"contracts/selfErc721.sol\":2176:2263  function symbol() public view returns (string memory) {... */\n      swap1\n      jump\t// out\n        /* \"contracts/selfErc721.sol\":4644:4741  function contractURI() public view returns (string memory) {... */\n    tag_65:\n        /* \"contracts/selfErc721.sol\":4688:4701  string memory */\n      0x60\n        /* \"contracts/selfErc721.sol\":4721:4733  _contractURI */\n      0x09\n        /* \"contracts/selfErc721.sol\":4714:4733  return _contractURI */\n      dup1\n      sload\n      tag_144\n      swap1\n      tag_72\n      jump\t// in\n    tag_144:\n      dup1\n      0x1f\n      add\n      0x20\n      dup1\n      swap2\n      div\n      mul\n      0x20\n      add\n      mload(0x40)\n      swap1\n      dup2\n      add\n      0x40\n      mstore\n      dup1\n      swap3\n      swap2\n      swap1\n      dup2\n      dup2\n      mstore\n      0x20\n      add\n      dup3\n      dup1\n      sload\n      tag_145\n      swap1\n      tag_72\n      jump\t// in\n    tag_145:\n      dup1\n      iszero\n      tag_146\n      jumpi\n      dup1\n      0x1f\n      lt\n      tag_147\n      jumpi\n      0x0100\n      dup1\n      dup4\n      sload\n      div\n      mul\n      dup4\n      mstore\n      swap2\n      0x20\n      add\n      swap2\n      jump(tag_146)\n    tag_147:\n      dup3\n      add\n      swap2\n      swap1\n      0x00\n      mstore\n      keccak256(0x00, 0x20)\n      swap1\n    tag_148:\n      dup2\n      sload\n      dup2\n      mstore\n      swap1\n      0x01\n      add\n      swap1\n      0x20\n      add\n      dup1\n      dup4\n      gt\n      tag_148\n      jumpi\n      dup3\n      swap1\n      sub\n      0x1f\n      and\n      dup3\n      add\n      swap2\n    tag_146:\n      pop\n      pop\n      pop\n      pop\n      pop\n      swap1\n      pop\n        /* \"contracts/selfErc721.sol\":4644:4741  function contractURI() public view returns (string memory) {... */\n      swap1\n      jump\t// out\n        /* \"contracts/selfErc721.sol\":536:772  function transferOwnership(address newOwner) public onlyOwner {... */\n    tag_69:\n        /* \"contracts/selfErc721.sol\":378:384  _owner */\n      0x00\n      dup1\n      sload\n      swap1\n      0x0100\n      exp\n      swap1\n      div\n      0xffffffffffffffffffffffffffffffffffffffff\n      and\n        /* \"contracts/selfErc721.sol\":364:384  msg.sender == _owner */\n      0xffffffffffffffffffffffffffffffffffffffff\n      and\n        /* \"contracts/selfErc721.sol\":364:374  msg.sender */\n      caller\n        /* \"contracts/selfErc721.sol\":364:384  msg.sender == _owner */\n      0xffffffffffffffffffffffffffffffffffffffff\n      and\n      eq\n        /* \"contracts/selfErc721.sol\":356:421  require(msg.sender == _owner, \"Ownable: caller is not the owner\") */\n      tag_150\n      jumpi\n      mload(0x40)\n      0x08c379a000000000000000000000000000000000000000000000000000000000\n      dup2\n      mstore\n      0x04\n      add\n      tag_151\n      swap1\n      tag_89\n      jump\t// in\n    tag_151:\n      mload(0x40)\n      dup1\n      swap2\n      sub\n      swap1\n      revert\n    tag_150:\n        /* \"contracts/selfErc721.sol\":637:638  0 */\n      0x00\n        /* \"contracts/selfErc721.sol\":617:639  newOwner != address(0) */\n      0xffffffffffffffffffffffffffffffffffffffff\n      and\n        /* \"contracts/selfErc721.sol\":617:625  newOwner */\n      dup2\n        /* \"contracts/selfErc721.sol\":617:639  newOwner != address(0) */\n      0xffffffffffffffffffffffffffffffffffffffff\n      and\n      sub\n        /* \"contracts/selfErc721.sol\":609:682  require(newOwner != address(0), \"Ownable: new owner is the zero address\") */\n      tag_153\n      jumpi\n      mload(0x40)\n      0x08c379a000000000000000000000000000000000000000000000000000000000\n      dup2\n      mstore\n      0x04\n      add\n      tag_154\n      swap1\n      tag_155\n      jump\t// in\n    tag_154:\n      mload(0x40)\n      dup1\n      swap2\n      sub\n      swap1\n      revert\n    tag_153:\n        /* \"contracts/selfErc721.sol\":727:735  newOwner */\n      dup1\n        /* \"contracts/selfErc721.sol\":698:736  OwnershipTransferred(_owner, newOwner) */\n      0xffffffffffffffffffffffffffffffffffffffff\n      and\n        /* \"contracts/selfErc721.sol\":719:725  _owner */\n      0x00\n      dup1\n      sload\n      swap1\n      0x0100\n      exp\n      swap1\n      div\n      0xffffffffffffffffffffffffffffffffffffffff\n      and\n        /* \"contracts/selfErc721.sol\":698:736  OwnershipTransferred(_owner, newOwner) */\n      0xffffffffffffffffffffffffffffffffffffffff\n      and\n      0x8be0079c531659141344cd1fd0a4f28419497f9722a3daafe3b4186f6b6457e0\n      mload(0x40)\n      mload(0x40)\n      dup1\n      swap2\n      sub\n      swap1\n      log3\n        /* \"contracts/selfErc721.sol\":756:764  newOwner */\n      dup1\n        /* \"contracts/selfErc721.sol\":747:753  _owner */\n      0x00\n      dup1\n        /* \"contracts/selfErc721.sol\":747:764  _owner = newOwner */\n      0x0100\n      exp\n      dup2\n      sload\n      dup2\n      0xffffffffffffffffffffffffffffffffffffffff\n      mul\n      not\n      and\n      swap1\n      dup4\n      0xffffffffffffffffffffffffffffffffffffffff\n      and\n      mul\n      or\n      swap1\n      sstore\n      pop\n        /* \"contracts/selfErc721.sol\":536:772  function transferOwnership(address newOwner) public onlyOwner {... */\n      pop\n      jump\t// out\n        /* \"contracts/selfErc721.sol\":2598:2962  function _safeMint(address to, uint256 tokenId) internal {... */\n    tag_100:\n        /* \"contracts/selfErc721.sol\":2688:2689  0 */\n      0x00\n        /* \"contracts/selfErc721.sol\":2674:2690  to != address(0) */\n      0xffffffffffffffffffffffffffffffffffffffff\n      and\n        /* \"contracts/selfErc721.sol\":2674:2676  to */\n      dup3\n        /* \"contracts/selfErc721.sol\":2674:2690  to != address(0) */\n      0xffffffffffffffffffffffffffffffffffffffff\n      and\n      sub\n        /* \"contracts/selfErc721.sol\":2666:2727  require(to != address(0), \"ERC721: mint to the zero address\") */\n      tag_157\n      jumpi\n      mload(0x40)\n      0x08c379a000000000000000000000000000000000000000000000000000000000\n      dup2\n      mstore\n      0x04\n      add\n      tag_158\n      swap1\n      tag_159\n      jump\t// in\n    tag_158:\n      mload(0x40)\n      dup1\n      swap2\n      sub\n      swap1\n      revert\n    tag_157:\n        /* \"contracts/selfErc721.sol\":2774:2775  0 */\n      0x00\n        /* \"contracts/selfErc721.sol\":2746:2776  _owners[tokenId] == address(0) */\n      0xffffffffffffffffffffffffffffffffffffffff\n      and\n        /* \"contracts/selfErc721.sol\":2746:2753  _owners */\n      0x04\n        /* \"contracts/selfErc721.sol\":2746:2762  _owners[tokenId] */\n      0x00\n        /* \"contracts/selfErc721.sol\":2754:2761  tokenId */\n      dup4\n        /* \"contracts/selfErc721.sol\":2746:2762  _owners[tokenId] */\n      dup2\n      mstore\n      0x20\n      add\n      swap1\n      dup2\n      mstore\n      0x20\n      add\n      0x00\n      keccak256\n      0x00\n      swap1\n      sload\n      swap1\n      0x0100\n      exp\n      swap1\n      div\n      0xffffffffffffffffffffffffffffffffffffffff\n      and\n        /* \"contracts/selfErc721.sol\":2746:2776  _owners[tokenId] == address(0) */\n      0xffffffffffffffffffffffffffffffffffffffff\n      and\n      eq\n        /* \"contracts/selfErc721.sol\":2738:2809  require(_owners[tokenId] == address(0), \"ERC721: token already minted\") */\n      tag_160\n      jumpi\n      mload(0x40)\n      0x08c379a000000000000000000000000000000000000000000000000000000000\n      dup2\n      mstore\n      0x04\n      add\n      tag_161\n      swap1\n      tag_162\n      jump\t// in\n    tag_161:\n      mload(0x40)\n      dup1\n      swap2\n      sub\n      swap1\n      revert\n    tag_160:\n        /* \"contracts/selfErc721.sol\":2841:2843  to */\n      dup2\n        /* \"contracts/selfErc721.sol\":2822:2829  _owners */\n      0x04\n        /* \"contracts/selfErc721.sol\":2822:2838  _owners[tokenId] */\n      0x00\n        /* \"contracts/selfErc721.sol\":2830:2837  tokenId */\n      dup4\n        /* \"contracts/selfErc721.sol\":2822:2838  _owners[tokenId] */\n      dup2\n      mstore\n      0x20\n      add\n      swap1\n      dup2\n      mstore\n      0x20\n      add\n      0x00\n      keccak256\n      0x00\n        /* \"contracts/selfErc721.sol\":2822:2843  _owners[tokenId] = to */\n      0x0100\n      exp\n      dup2\n      sload\n      dup2\n      0xffffffffffffffffffffffffffffffffffffffff\n      mul\n      not\n      and\n      swap1\n      dup4\n      0xffffffffffffffffffffffffffffffffffffffff\n      and\n      mul\n      or\n      swap1\n      sstore\n      pop\n        /* \"contracts/selfErc721.sol\":2871:2872  1 */\n      0x01\n        /* \"contracts/selfErc721.sol\":2854:2863  _balances */\n      0x05\n        /* \"contracts/selfErc721.sol\":2854:2867  _balances[to] */\n      0x00\n        /* \"contracts/selfErc721.sol\":2864:2866  to */\n      dup5\n        /* \"contracts/selfErc721.sol\":2854:2867  _balances[to] */\n      0xffffffffffffffffffffffffffffffffffffffff\n      and\n      0xffffffffffffffffffffffffffffffffffffffff\n      and\n      dup2\n      mstore\n      0x20\n      add\n      swap1\n      dup2\n      mstore\n      0x20\n      add\n      0x00\n      keccak256\n      0x00\n        /* \"contracts/selfErc721.sol\":2854:2872  _balances[to] += 1 */\n      dup3\n      dup3\n      sload\n      tag_163\n      swap2\n      swap1\n      tag_164\n      jump\t// in\n    tag_163:\n      swap3\n      pop\n      pop\n      dup2\n      swap1\n      sstore\n      pop\n        /* \"contracts/selfErc721.sol\":2913:2920  tokenId */\n      dup1\n        /* \"contracts/selfErc721.sol\":2909:2911  to */\n      dup3\n        /* \"contracts/selfErc721.sol\":2888:2921  Transfer(address(0), to, tokenId) */\n      0xffffffffffffffffffffffffffffffffffffffff\n      and\n        /* \"contracts/selfErc721.sol\":2905:2906  0 */\n      0x00\n        /* \"contracts/selfErc721.sol\":2888:2921  Transfer(address(0), to, tokenId) */\n      0xffffffffffffffffffffffffffffffffffffffff\n      and\n      0xddf252ad1be2c89b69c2b068fc378daa952ba7f163c4a11628f55a4df523b3ef\n      mload(0x40)\n      mload(0x40)\n      dup1\n      swap2\n      sub\n      swap1\n      log4\n        /* \"contracts/selfErc721.sol\":2946:2953  tokenId */\n      dup1\n        /* \"contracts/selfErc721.sol\":2942:2944  to */\n      dup3\n        /* \"contracts/selfErc721.sol\":2937:2954  Mint(to, tokenId) */\n      0xffffffffffffffffffffffffffffffffffffffff\n      and\n      0x0f6798a560793a54c3bcfe86a93cde1e73087d944c0ea20544137d4121396885\n      mload(0x40)\n      mload(0x40)\n      dup1\n      swap2\n      sub\n      swap1\n      log3\n        /* \"contracts/selfErc721.sol\":2598:2962  function _safeMint(address to, uint256 tokenId) internal {... */\n      pop\n      pop\n      jump\t// out\n        /* \"#utility.yul\":7:106   */\n    tag_165:\n        /* \"#utility.yul\":59:65   */\n      0x00\n        /* \"#utility.yul\":93:98   */\n      dup2\n        /* \"#utility.yul\":87:99   */\n      mload\n        /* \"#utility.yul\":77:99   */\n      swap1\n      pop\n        /* \"#utility.yul\":7:106   */\n      swap2\n      swap1\n      pop\n      jump\t// out\n        /* \"#utility.yul\":112:281   */\n    tag_166:\n        /* \"#utility.yul\":196:207   */\n      0x00\n        /* \"#utility.yul\":230:236   */\n      dup3\n        /* \"#utility.yul\":225:228   */\n      dup3\n        /* \"#utility.yul\":218:237   */\n      mstore\n        /* \"#utility.yul\":270:274   */\n      0x20\n        /* \"#utility.yul\":265:268   */\n      dup3\n        /* \"#utility.yul\":261:275   */\n      add\n        /* \"#utility.yul\":246:275   */\n      swap1\n      pop\n        /* \"#utility.yul\":112:281   */\n      swap3\n      swap2\n      pop\n      pop\n      jump\t// out\n        /* \"#utility.yul\":287:426   */\n    tag_167:\n        /* \"#utility.yul\":376:382   */\n      dup3\n        /* \"#utility.yul\":371:374   */\n      dup2\n        /* \"#utility.yul\":366:369   */\n      dup4\n        /* \"#utility.yul\":360:383   */\n      mcopy\n        /* \"#utility.yul\":417:418   */\n      0x00\n        /* \"#utility.yul\":408:414   */\n      dup4\n        /* \"#utility.yul\":403:406   */\n      dup4\n        /* \"#utility.yul\":399:415   */\n      add\n        /* \"#utility.yul\":392:419   */\n      mstore\n        /* \"#utility.yul\":287:426   */\n      pop\n      pop\n      pop\n      jump\t// out\n        /* \"#utility.yul\":432:534   */\n    tag_168:\n        /* \"#utility.yul\":473:479   */\n      0x00\n        /* \"#utility.yul\":524:526   */\n      0x1f\n        /* \"#utility.yul\":520:527   */\n      not\n        /* \"#utility.yul\":515:517   */\n      0x1f\n        /* \"#utility.yul\":508:513   */\n      dup4\n        /* \"#utility.yul\":504:518   */\n      add\n        /* \"#utility.yul\":500:528   */\n      and\n        /* \"#utility.yul\":490:528   */\n      swap1\n      pop\n        /* \"#utility.yul\":432:534   */\n      swap2\n      swap1\n      pop\n      jump\t// out\n        /* \"#utility.yul\":540:917   */\n    tag_169:\n        /* \"#utility.yul\":628:631   */\n      0x00\n        /* \"#utility.yul\":656:695   */\n      tag_234\n        /* \"#utility.yul\":689:694   */\n      dup3\n        /* \"#utility.yul\":656:695   */\n      tag_165\n      jump\t// in\n    tag_234:\n        /* \"#utility.yul\":711:782   */\n      tag_235\n        /* \"#utility.yul\":775:781   */\n      dup2\n        /* \"#utility.yul\":770:773   */\n      dup6\n        /* \"#utility.yul\":711:782   */\n      tag_166\n      jump\t// in\n    tag_235:\n        /* \"#utility.yul\":704:782   */\n      swap4\n      pop\n        /* \"#utility.yul\":791:856   */\n      tag_236\n        /* \"#utility.yul\":849:855   */\n      dup2\n        /* \"#utility.yul\":844:847   */\n      dup6\n        /* \"#utility.yul\":837:841   */\n      0x20\n        /* \"#utility.yul\":830:835   */\n      dup7\n        /* \"#utility.yul\":826:842   */\n      add\n        /* \"#utility.yul\":791:856   */\n      tag_167\n      jump\t// in\n    tag_236:\n        /* \"#utility.yul\":881:910   */\n      tag_237\n        /* \"#utility.yul\":903:909   */\n      dup2\n        /* \"#utility.yul\":881:910   */\n      tag_168\n      jump\t// in\n    tag_237:\n        /* \"#utility.yul\":876:879   */\n      dup5\n        /* \"#utility.yul\":872:911   */\n      add\n        /* \"#utility.yul\":865:911   */\n      swap2\n      pop\n        /* \"#utility.yul\":632:917   */\n      pop\n        /* \"#utility.yul\":540:917   */\n      swap3\n      swap2\n      pop\n      pop\n      jump\t// out\n        /* \"#utility.yul\":923:1236   */\n    tag_23:\n        /* \"#utility.yul\":1036:1040   */\n      0x00\n        /* \"#utility.yul\":1074:1076   */\n      0x20\n        /* \"#utility.yul\":1063:1072   */\n      dup3\n        /* \"#utility.yul\":1059:1077   */\n      add\n        /* \"#utility.yul\":1051:1077   */\n      swap1\n      pop\n        /* \"#utility.yul\":1123:1132   */\n      dup2\n        /* \"#utility.yul\":1117:1121   */\n      dup2\n        /* \"#utility.yul\":1113:1133   */\n      sub\n        /* \"#utility.yul\":1109:1110   */\n      0x00\n        /* \"#utility.yul\":1098:1107   */\n      dup4\n        /* \"#utility.yul\":1094:1111   */\n      add\n        /* \"#utility.yul\":1087:1134   */\n      mstore\n        /* \"#utility.yul\":1151:1229   */\n      tag_239\n        /* \"#utility.yul\":1224:1228   */\n      dup2\n        /* \"#utility.yul\":1215:1221   */\n      dup5\n        /* \"#utility.yul\":1151:1229   */\n      tag_169\n      jump\t// in\n    tag_239:\n        /* \"#utility.yul\":1143:1229   */\n      swap1\n      pop\n        /* \"#utility.yul\":923:1236   */\n      swap3\n      swap2\n      pop\n      pop\n      jump\t// out\n        /* \"#utility.yul\":1242:1317   */\n    tag_170:\n        /* \"#utility.yul\":1275:1281   */\n      0x00\n        /* \"#utility.yul\":1308:1310   */\n      0x40\n        /* \"#utility.yul\":1302:1311   */\n      mload\n        /* \"#utility.yul\":1292:1311   */\n      swap1\n      pop\n        /* \"#utility.yul\":1242:1317   */\n      swap1\n      jump\t// out\n        /* \"#utility.yul\":1323:1440   */\n    tag_171:\n        /* \"#utility.yul\":1432:1433   */\n      0x00\n        /* \"#utility.yul\":1429:1430   */\n      dup1\n        /* \"#utility.yul\":1422:1434   */\n      revert\n        /* \"#utility.yul\":1446:1563   */\n    tag_172:\n        /* \"#utility.yul\":1555:1556   */\n      0x00\n        /* \"#utility.yul\":1552:1553   */\n      dup1\n        /* \"#utility.yul\":1545:1557   */\n      revert\n        /* \"#utility.yul\":1569:1646   */\n    tag_173:\n        /* \"#utility.yul\":1606:1613   */\n      0x00\n        /* \"#utility.yul\":1635:1640   */\n      dup2\n        /* \"#utility.yul\":1624:1640   */\n      swap1\n      pop\n        /* \"#utility.yul\":1569:1646   */\n      swap2\n      swap1\n      pop\n      jump\t// out\n        /* \"#utility.yul\":1652:1774   */\n    tag_174:\n        /* \"#utility.yul\":1725:1749   */\n      tag_245\n        /* \"#utility.yul\":1743:1748   */\n      dup2\n        /* \"#utility.yul\":1725:1749   */\n      tag_173\n      jump\t// in\n    tag_245:\n        /* \"#utility.yul\":1718:1723   */\n      dup2\n        /* \"#utility.yul\":1715:1750   */\n      eq\n        /* \"#utility.yul\":1705:1768   */\n      tag_246\n      jumpi\n        /* \"#utility.yul\":1764:1765   */\n      0x00\n        /* \"#utility.yul\":1761:1762   */\n      dup1\n        /* \"#utility.yul\":1754:1766   */\n      revert\n        /* \"#utility.yul\":1705:1768   */\n    tag_246:\n        /* \"#utility.yul\":1652:1774   */\n      pop\n      jump\t// out\n        /* \"#utility.yul\":1780:1919   */\n    tag_175:\n        /* \"#utility.yul\":1826:1831   */\n      0x00\n        /* \"#utility.yul\":1864:1870   */\n      dup2\n        /* \"#utility.yul\":1851:1871   */\n      calldataload\n        /* \"#utility.yul\":1842:1871   */\n      swap1\n      pop\n        /* \"#utility.yul\":1880:1913   */\n      tag_248\n        /* \"#utility.yul\":1907:1912   */\n      dup2\n        /* \"#utility.yul\":1880:1913   */\n      tag_174\n      jump\t// in\n    tag_248:\n        /* \"#utility.yul\":1780:1919   */\n      swap3\n      swap2\n      pop\n      pop\n      jump\t// out\n        /* \"#utility.yul\":1925:2254   */\n    tag_26:\n        /* \"#utility.yul\":1984:1990   */\n      0x00\n        /* \"#utility.yul\":2033:2035   */\n      0x20\n        /* \"#utility.yul\":2021:2030   */\n      dup3\n        /* \"#utility.yul\":2012:2019   */\n      dup5\n        /* \"#utility.yul\":2008:2031   */\n      sub\n        /* \"#utility.yul\":2004:2036   */\n      slt\n        /* \"#utility.yul\":2001:2120   */\n      iszero\n      tag_250\n      jumpi\n        /* \"#utility.yul\":2039:2118   */\n      tag_251\n      tag_171\n      jump\t// in\n    tag_251:\n        /* \"#utility.yul\":2001:2120   */\n    tag_250:\n        /* \"#utility.yul\":2159:2160   */\n      0x00\n        /* \"#utility.yul\":2184:2237   */\n      tag_252\n        /* \"#utility.yul\":2229:2236   */\n      dup5\n        /* \"#utility.yul\":2220:2226   */\n      dup3\n        /* \"#utility.yul\":2209:2218   */\n      dup6\n        /* \"#utility.yul\":2205:2227   */\n      add\n        /* \"#utility.yul\":2184:2237   */\n      tag_175\n      jump\t// in\n    tag_252:\n        /* \"#utility.yul\":2174:2237   */\n      swap2\n      pop\n        /* \"#utility.yul\":2130:2247   */\n      pop\n        /* \"#utility.yul\":1925:2254   */\n      swap3\n      swap2\n      pop\n      pop\n      jump\t// out\n        /* \"#utility.yul\":2260:2386   */\n    tag_176:\n        /* \"#utility.yul\":2297:2304   */\n      0x00\n        /* \"#utility.yul\":2337:2379   */\n      0xffffffffffffffffffffffffffffffffffffffff\n        /* \"#utility.yul\":2330:2335   */\n      dup3\n        /* \"#utility.yul\":2326:2380   */\n      and\n        /* \"#utility.yul\":2315:2380   */\n      swap1\n      pop\n        /* \"#utility.yul\":2260:2386   */\n      swap2\n      swap1\n      pop\n      jump\t// out\n        /* \"#utility.yul\":2392:2488   */\n    tag_177:\n        /* \"#utility.yul\":2429:2436   */\n      0x00\n        /* \"#utility.yul\":2458:2482   */\n      tag_255\n        /* \"#utility.yul\":2476:2481   */\n      dup3\n        /* \"#utility.yul\":2458:2482   */\n      tag_176\n      jump\t// in\n    tag_255:\n        /* \"#utility.yul\":2447:2482   */\n      swap1\n      pop\n        /* \"#utility.yul\":2392:2488   */\n      swap2\n      swap1\n      pop\n      jump\t// out\n        /* \"#utility.yul\":2494:2612   */\n    tag_178:\n        /* \"#utility.yul\":2581:2605   */\n      tag_257\n        /* \"#utility.yul\":2599:2604   */\n      dup2\n        /* \"#utility.yul\":2581:2605   */\n      tag_177\n      jump\t// in\n    tag_257:\n        /* \"#utility.yul\":2576:2579   */\n      dup3\n        /* \"#utility.yul\":2569:2606   */\n      mstore\n        /* \"#utility.yul\":2494:2612   */\n      pop\n      pop\n      jump\t// out\n        /* \"#utility.yul\":2618:2840   */\n    tag_29:\n        /* \"#utility.yul\":2711:2715   */\n      0x00\n        /* \"#utility.yul\":2749:2751   */\n      0x20\n        /* \"#utility.yul\":2738:2747   */\n      dup3\n        /* \"#utility.yul\":2734:2752   */\n      add\n        /* \"#utility.yul\":2726:2752   */\n      swap1\n      pop\n        /* \"#utility.yul\":2762:2833   */\n      tag_259\n        /* \"#utility.yul\":2830:2831   */\n      0x00\n        /* \"#utility.yul\":2819:2828   */\n      dup4\n        /* \"#utility.yul\":2815:2832   */\n      add\n        /* \"#utility.yul\":2806:2812   */\n      dup5\n        /* \"#utility.yul\":2762:2833   */\n      tag_178\n      jump\t// in\n    tag_259:\n        /* \"#utility.yul\":2618:2840   */\n      swap3\n      swap2\n      pop\n      pop\n      jump\t// out\n        /* \"#utility.yul\":2846:2968   */\n    tag_179:\n        /* \"#utility.yul\":2919:2943   */\n      tag_261\n        /* \"#utility.yul\":2937:2942   */\n      dup2\n        /* \"#utility.yul\":2919:2943   */\n      tag_177\n      jump\t// in\n    tag_261:\n        /* \"#utility.yul\":2912:2917   */\n      dup2\n        /* \"#utility.yul\":2909:2944   */\n      eq\n        /* \"#utility.yul\":2899:2962   */\n      tag_262\n      jumpi\n        /* \"#utility.yul\":2958:2959   */\n      0x00\n        /* \"#utility.yul\":2955:2956   */\n      dup1\n        /* \"#utility.yul\":2948:2960   */\n      revert\n        /* \"#utility.yul\":2899:2962   */\n    tag_262:\n        /* \"#utility.yul\":2846:2968   */\n      pop\n      jump\t// out\n        /* \"#utility.yul\":2974:3113   */\n    tag_180:\n        /* \"#utility.yul\":3020:3025   */\n      0x00\n        /* \"#utility.yul\":3058:3064   */\n      dup2\n        /* \"#utility.yul\":3045:3065   */\n      calldataload\n        /* \"#utility.yul\":3036:3065   */\n      swap1\n      pop\n        /* \"#utility.yul\":3074:3107   */\n      tag_264\n        /* \"#utility.yul\":3101:3106   */\n      dup2\n        /* \"#utility.yul\":3074:3107   */\n      tag_179\n      jump\t// in\n    tag_264:\n        /* \"#utility.yul\":2974:3113   */\n      swap3\n      swap2\n      pop\n      pop\n      jump\t// out\n        /* \"#utility.yul\":3119:3593   */\n    tag_32:\n        /* \"#utility.yul\":3187:3193   */\n      0x00\n        /* \"#utility.yul\":3195:3201   */\n      dup1\n        /* \"#utility.yul\":3244:3246   */\n      0x40\n        /* \"#utility.yul\":3232:3241   */\n      dup4\n        /* \"#utility.yul\":3223:3230   */\n      dup6\n        /* \"#utility.yul\":3219:3242   */\n      sub\n        /* \"#utility.yul\":3215:3247   */\n      slt\n        /* \"#utility.yul\":3212:3331   */\n      iszero\n      tag_266\n      jumpi\n        /* \"#utility.yul\":3250:3329   */\n      tag_267\n      tag_171\n      jump\t// in\n    tag_267:\n        /* \"#utility.yul\":3212:3331   */\n    tag_266:\n        /* \"#utility.yul\":3370:3371   */\n      0x00\n        /* \"#utility.yul\":3395:3448   */\n      tag_268\n        /* \"#utility.yul\":3440:3447   */\n      dup6\n        /* \"#utility.yul\":3431:3437   */\n      dup3\n        /* \"#utility.yul\":3420:3429   */\n      dup7\n        /* \"#utility.yul\":3416:3438   */\n      add\n        /* \"#utility.yul\":3395:3448   */\n      tag_180\n      jump\t// in\n    tag_268:\n        /* \"#utility.yul\":3385:3448   */\n      swap3\n      pop\n        /* \"#utility.yul\":3341:3458   */\n      pop\n        /* \"#utility.yul\":3497:3499   */\n      0x20\n        /* \"#utility.yul\":3523:3576   */\n      tag_269\n        /* \"#utility.yul\":3568:3575   */\n      dup6\n        /* \"#utility.yul\":3559:3565   */\n      dup3\n        /* \"#utility.yul\":3548:3557   */\n      dup7\n        /* \"#utility.yul\":3544:3566   */\n      add\n        /* \"#utility.yul\":3523:3576   */\n      tag_175\n      jump\t// in\n    tag_269:\n        /* \"#utility.yul\":3513:3576   */\n      swap2\n      pop\n        /* \"#utility.yul\":3468:3586   */\n      pop\n        /* \"#utility.yul\":3119:3593   */\n      swap3\n      pop\n      swap3\n      swap1\n      pop\n      jump\t// out\n        /* \"#utility.yul\":3599:3928   */\n    tag_41:\n        /* \"#utility.yul\":3658:3664   */\n      0x00\n        /* \"#utility.yul\":3707:3709   */\n      0x20\n        /* \"#utility.yul\":3695:3704   */\n      dup3\n        /* \"#utility.yul\":3686:3693   */\n      dup5\n        /* \"#utility.yul\":3682:3705   */\n      sub\n        /* \"#utility.yul\":3678:3710   */\n      slt\n        /* \"#utility.yul\":3675:3794   */\n      iszero\n      tag_271\n      jumpi\n        /* \"#utility.yul\":3713:3792   */\n      tag_272\n      tag_171\n      jump\t// in\n    tag_272:\n        /* \"#utility.yul\":3675:3794   */\n    tag_271:\n        /* \"#utility.yul\":3833:3834   */\n      0x00\n        /* \"#utility.yul\":3858:3911   */\n      tag_273\n        /* \"#utility.yul\":3903:3910   */\n      dup5\n        /* \"#utility.yul\":3894:3900   */\n      dup3\n        /* \"#utility.yul\":3883:3892   */\n      dup6\n        /* \"#utility.yul\":3879:3901   */\n      add\n        /* \"#utility.yul\":3858:3911   */\n      tag_180\n      jump\t// in\n    tag_273:\n        /* \"#utility.yul\":3848:3911   */\n      swap2\n      pop\n        /* \"#utility.yul\":3804:3921   */\n      pop\n        /* \"#utility.yul\":3599:3928   */\n      swap3\n      swap2\n      pop\n      pop\n      jump\t// out\n        /* \"#utility.yul\":3934:4052   */\n    tag_181:\n        /* \"#utility.yul\":4021:4045   */\n      tag_275\n        /* \"#utility.yul\":4039:4044   */\n      dup2\n        /* \"#utility.yul\":4021:4045   */\n      tag_173\n      jump\t// in\n    tag_275:\n        /* \"#utility.yul\":4016:4019   */\n      dup3\n        /* \"#utility.yul\":4009:4046   */\n      mstore\n        /* \"#utility.yul\":3934:4052   */\n      pop\n      pop\n      jump\t// out\n        /* \"#utility.yul\":4058:4280   */\n    tag_51:\n        /* \"#utility.yul\":4151:4155   */\n      0x00\n        /* \"#utility.yul\":4189:4191   */\n      0x20\n        /* \"#utility.yul\":4178:4187   */\n      dup3\n        /* \"#utility.yul\":4174:4192   */\n      add\n        /* \"#utility.yul\":4166:4192   */\n      swap1\n      pop\n        /* \"#utility.yul\":4202:4273   */\n      tag_277\n        /* \"#utility.yul\":4270:4271   */\n      0x00\n        /* \"#utility.yul\":4259:4268   */\n      dup4\n        /* \"#utility.yul\":4255:4272   */\n      add\n        /* \"#utility.yul\":4246:4252   */\n      dup5\n        /* \"#utility.yul\":4202:4273   */\n      tag_181\n      jump\t// in\n    tag_277:\n        /* \"#utility.yul\":4058:4280   */\n      swap3\n      swap2\n      pop\n      pop\n      jump\t// out\n        /* \"#utility.yul\":4286:4403   */\n    tag_182:\n        /* \"#utility.yul\":4395:4396   */\n      0x00\n        /* \"#utility.yul\":4392:4393   */\n      dup1\n        /* \"#utility.yul\":4385:4397   */\n      revert\n        /* \"#utility.yul\":4409:4526   */\n    tag_183:\n        /* \"#utility.yul\":4518:4519   */\n      0x00\n        /* \"#utility.yul\":4515:4516   */\n      dup1\n        /* \"#utility.yul\":4508:4520   */\n      revert\n        /* \"#utility.yul\":4532:4712   */\n    tag_184:\n        /* \"#utility.yul\":4580:4657   */\n      0x4e487b7100000000000000000000000000000000000000000000000000000000\n        /* \"#utility.yul\":4577:4578   */\n      0x00\n        /* \"#utility.yul\":4570:4658   */\n      mstore\n        /* \"#utility.yul\":4677:4681   */\n      0x41\n        /* \"#utility.yul\":4674:4675   */\n      0x04\n        /* \"#utility.yul\":4667:4682   */\n      mstore\n        /* \"#utility.yul\":4701:4705   */\n      0x24\n        /* \"#utility.yul\":4698:4699   */\n      0x00\n        /* \"#utility.yul\":4691:4706   */\n      revert\n        /* \"#utility.yul\":4718:4999   */\n    tag_185:\n        /* \"#utility.yul\":4801:4828   */\n      tag_282\n        /* \"#utility.yul\":4823:4827   */\n      dup3\n        /* \"#utility.yul\":4801:4828   */\n      tag_168\n      jump\t// in\n    tag_282:\n        /* \"#utility.yul\":4793:4799   */\n      dup2\n        /* \"#utility.yul\":4789:4829   */\n      add\n        /* \"#utility.yul\":4931:4937   */\n      dup2\n        /* \"#utility.yul\":4919:4929   */\n      dup2\n        /* \"#utility.yul\":4916:4938   */\n      lt\n        /* \"#utility.yul\":4895:4913   */\n      0xffffffffffffffff\n        /* \"#utility.yul\":4883:4893   */\n      dup3\n        /* \"#utility.yul\":4880:4914   */\n      gt\n        /* \"#utility.yul\":4877:4939   */\n      or\n        /* \"#utility.yul\":4874:4962   */\n      iszero\n      tag_283\n      jumpi\n        /* \"#utility.yul\":4942:4960   */\n      tag_284\n      tag_184\n      jump\t// in\n    tag_284:\n        /* \"#utility.yul\":4874:4962   */\n    tag_283:\n        /* \"#utility.yul\":4982:4992   */\n      dup1\n        /* \"#utility.yul\":4978:4980   */\n      0x40\n        /* \"#utility.yul\":4971:4993   */\n      mstore\n        /* \"#utility.yul\":4761:4999   */\n      pop\n        /* \"#utility.yul\":4718:4999   */\n      pop\n      pop\n      jump\t// out\n        /* \"#utility.yul\":5005:5134   */\n    tag_186:\n        /* \"#utility.yul\":5039:5045   */\n      0x00\n        /* \"#utility.yul\":5066:5086   */\n      tag_286\n      tag_170\n      jump\t// in\n    tag_286:\n        /* \"#utility.yul\":5056:5086   */\n      swap1\n      pop\n        /* \"#utility.yul\":5095:5128   */\n      tag_287\n        /* \"#utility.yul\":5123:5127   */\n      dup3\n        /* \"#utility.yul\":5115:5121   */\n      dup3\n        /* \"#utility.yul\":5095:5128   */\n      tag_185\n      jump\t// in\n    tag_287:\n        /* \"#utility.yul\":5005:5134   */\n      swap2\n      swap1\n      pop\n      jump\t// out\n        /* \"#utility.yul\":5140:5448   */\n    tag_187:\n        /* \"#utility.yul\":5202:5206   */\n      0x00\n        /* \"#utility.yul\":5292:5310   */\n      0xffffffffffffffff\n        /* \"#utility.yul\":5284:5290   */\n      dup3\n        /* \"#utility.yul\":5281:5311   */\n      gt\n        /* \"#utility.yul\":5278:5334   */\n      iszero\n      tag_289\n      jumpi\n        /* \"#utility.yul\":5314:5332   */\n      tag_290\n      tag_184\n      jump\t// in\n    tag_290:\n        /* \"#utility.yul\":5278:5334   */\n    tag_289:\n        /* \"#utility.yul\":5352:5381   */\n      tag_291\n        /* \"#utility.yul\":5374:5380   */\n      dup3\n        /* \"#utility.yul\":5352:5381   */\n      tag_168\n      jump\t// in\n    tag_291:\n        /* \"#utility.yul\":5344:5381   */\n      swap1\n      pop\n        /* \"#utility.yul\":5436:5440   */\n      0x20\n        /* \"#utility.yul\":5430:5434   */\n      dup2\n        /* \"#utility.yul\":5426:5441   */\n      add\n        /* \"#utility.yul\":5418:5441   */\n      swap1\n      pop\n        /* \"#utility.yul\":5140:5448   */\n      swap2\n      swap1\n      pop\n      jump\t// out\n        /* \"#utility.yul\":5454:5602   */\n    tag_188:\n        /* \"#utility.yul\":5552:5558   */\n      dup3\n        /* \"#utility.yul\":5547:5550   */\n      dup2\n        /* \"#utility.yul\":5542:5545   */\n      dup4\n        /* \"#utility.yul\":5529:5559   */\n      calldatacopy\n        /* \"#utility.yul\":5593:5594   */\n      0x00\n        /* \"#utility.yul\":5584:5590   */\n      dup4\n        /* \"#utility.yul\":5579:5582   */\n      dup4\n        /* \"#utility.yul\":5575:5591   */\n      add\n        /* \"#utility.yul\":5568:5595   */\n      mstore\n        /* \"#utility.yul\":5454:5602   */\n      pop\n      pop\n      pop\n      jump\t// out\n        /* \"#utility.yul\":5608:6033   */\n    tag_189:\n        /* \"#utility.yul\":5686:5691   */\n      0x00\n        /* \"#utility.yul\":5711:5777   */\n      tag_294\n        /* \"#utility.yul\":5727:5776   */\n      tag_295\n        /* \"#utility.yul\":5769:5775   */\n      dup5\n        /* \"#utility.yul\":5727:5776   */\n      tag_187\n      jump\t// in\n    tag_295:\n        /* \"#utility.yul\":5711:5777   */\n      tag_186\n      jump\t// in\n    tag_294:\n        /* \"#utility.yul\":5702:5777   */\n      swap1\n      pop\n        /* \"#utility.yul\":5800:5806   */\n      dup3\n        /* \"#utility.yul\":5793:5798   */\n      dup2\n        /* \"#utility.yul\":5786:5807   */\n      mstore\n        /* \"#utility.yul\":5838:5842   */\n      0x20\n        /* \"#utility.yul\":5831:5836   */\n      dup2\n        /* \"#utility.yul\":5827:5843   */\n      add\n        /* \"#utility.yul\":5876:5879   */\n      dup5\n        /* \"#utility.yul\":5867:5873   */\n      dup5\n        /* \"#utility.yul\":5862:5865   */\n      dup5\n        /* \"#utility.yul\":5858:5874   */\n      add\n        /* \"#utility.yul\":5855:5880   */\n      gt\n        /* \"#utility.yul\":5852:5964   */\n      iszero\n      tag_296\n      jumpi\n        /* \"#utility.yul\":5883:5962   */\n      tag_297\n      tag_183\n      jump\t// in\n    tag_297:\n        /* \"#utility.yul\":5852:5964   */\n    tag_296:\n        /* \"#utility.yul\":5973:6027   */\n      tag_298\n        /* \"#utility.yul\":6020:6026   */\n      dup5\n        /* \"#utility.yul\":6015:6018   */\n      dup3\n        /* \"#utility.yul\":6010:6013   */\n      dup6\n        /* \"#utility.yul\":5973:6027   */\n      tag_188\n      jump\t// in\n    tag_298:\n        /* \"#utility.yul\":5692:6033   */\n      pop\n        /* \"#utility.yul\":5608:6033   */\n      swap4\n      swap3\n      pop\n      pop\n      pop\n      jump\t// out\n        /* \"#utility.yul\":6053:6393   */\n    tag_190:\n        /* \"#utility.yul\":6109:6114   */\n      0x00\n        /* \"#utility.yul\":6158:6161   */\n      dup3\n        /* \"#utility.yul\":6151:6155   */\n      0x1f\n        /* \"#utility.yul\":6143:6149   */\n      dup4\n        /* \"#utility.yul\":6139:6156   */\n      add\n        /* \"#utility.yul\":6135:6162   */\n      slt\n        /* \"#utility.yul\":6125:6247   */\n      tag_300\n      jumpi\n        /* \"#utility.yul\":6166:6245   */\n      tag_301\n      tag_182\n      jump\t// in\n    tag_301:\n        /* \"#utility.yul\":6125:6247   */\n    tag_300:\n        /* \"#utility.yul\":6283:6289   */\n      dup2\n        /* \"#utility.yul\":6270:6290   */\n      calldataload\n        /* \"#utility.yul\":6308:6387   */\n      tag_302\n        /* \"#utility.yul\":6383:6386   */\n      dup5\n        /* \"#utility.yul\":6375:6381   */\n      dup3\n        /* \"#utility.yul\":6368:6372   */\n      0x20\n        /* \"#utility.yul\":6360:6366   */\n      dup7\n        /* \"#utility.yul\":6356:6373   */\n      add\n        /* \"#utility.yul\":6308:6387   */\n      tag_189\n      jump\t// in\n    tag_302:\n        /* \"#utility.yul\":6299:6387   */\n      swap2\n      pop\n        /* \"#utility.yul\":6115:6393   */\n      pop\n        /* \"#utility.yul\":6053:6393   */\n      swap3\n      swap2\n      pop\n      pop\n      jump\t// out\n        /* \"#utility.yul\":6399:6908   */\n    tag_59:\n        /* \"#utility.yul\":6468:6474   */\n      0x00\n        /* \"#utility.yul\":6517:6519   */\n      0x20\n        /* \"#utility.yul\":6505:6514   */\n      dup3\n        /* \"#utility.yul\":6496:6503   */\n      dup5\n        /* \"#utility.yul\":6492:6515   */\n      sub\n        /* \"#utility.yul\":6488:6520   */\n      slt\n        /* \"#utility.yul\":6485:6604   */\n      iszero\n      tag_304\n      jumpi\n        /* \"#utility.yul\":6523:6602   */\n      tag_305\n      tag_171\n      jump\t// in\n    tag_305:\n        /* \"#utility.yul\":6485:6604   */\n    tag_304:\n        /* \"#utility.yul\":6671:6672   */\n      0x00\n        /* \"#utility.yul\":6660:6669   */\n      dup3\n        /* \"#utility.yul\":6656:6673   */\n      add\n        /* \"#utility.yul\":6643:6674   */\n      calldataload\n        /* \"#utility.yul\":6701:6719   */\n      0xffffffffffffffff\n        /* \"#utility.yul\":6693:6699   */\n      dup2\n        /* \"#utility.yul\":6690:6720   */\n      gt\n        /* \"#utility.yul\":6687:6804   */\n      iszero\n      tag_306\n      jumpi\n        /* \"#utility.yul\":6723:6802   */\n      tag_307\n      tag_172\n      jump\t// in\n    tag_307:\n        /* \"#utility.yul\":6687:6804   */\n    tag_306:\n        /* \"#utility.yul\":6828:6891   */\n      tag_308\n        /* \"#utility.yul\":6883:6890   */\n      dup5\n        /* \"#utility.yul\":6874:6880   */\n      dup3\n        /* \"#utility.yul\":6863:6872   */\n      dup6\n        /* \"#utility.yul\":6859:6881   */\n      add\n        /* \"#utility.yul\":6828:6891   */\n      tag_190\n      jump\t// in\n    tag_308:\n        /* \"#utility.yul\":6818:6891   */\n      swap2\n      pop\n        /* \"#utility.yul\":6614:6901   */\n      pop\n        /* \"#utility.yul\":6399:6908   */\n      swap3\n      swap2\n      pop\n      pop\n      jump\t// out\n        /* \"#utility.yul\":6914:7094   */\n    tag_191:\n        /* \"#utility.yul\":6962:7039   */\n      0x4e487b7100000000000000000000000000000000000000000000000000000000\n        /* \"#utility.yul\":6959:6960   */\n      0x00\n        /* \"#utility.yul\":6952:7040   */\n      mstore\n        /* \"#utility.yul\":7059:7063   */\n      0x22\n        /* \"#utility.yul\":7056:7057   */\n      0x04\n        /* \"#utility.yul\":7049:7064   */\n      mstore\n        /* \"#utility.yul\":7083:7087   */\n      0x24\n        /* \"#utility.yul\":7080:7081   */\n      0x00\n        /* \"#utility.yul\":7073:7088   */\n      revert\n        /* \"#utility.yul\":7100:7420   */\n    tag_72:\n        /* \"#utility.yul\":7144:7150   */\n      0x00\n        /* \"#utility.yul\":7181:7182   */\n      0x02\n        /* \"#utility.yul\":7175:7179   */\n      dup3\n        /* \"#utility.yul\":7171:7183   */\n      div\n        /* \"#utility.yul\":7161:7183   */\n      swap1\n      pop\n        /* \"#utility.yul\":7228:7229   */\n      0x01\n        /* \"#utility.yul\":7222:7226   */\n      dup3\n        /* \"#utility.yul\":7218:7230   */\n      and\n        /* \"#utility.yul\":7249:7267   */\n      dup1\n        /* \"#utility.yul\":7239:7320   */\n      tag_311\n      jumpi\n        /* \"#utility.yul\":7305:7309   */\n      0x7f\n        /* \"#utility.yul\":7297:7303   */\n      dup3\n        /* \"#utility.yul\":7293:7310   */\n      and\n        /* \"#utility.yul\":7283:7310   */\n      swap2\n      pop\n        /* \"#utility.yul\":7239:7320   */\n    tag_311:\n        /* \"#utility.yul\":7367:7369   */\n      0x20\n        /* \"#utility.yul\":7359:7365   */\n      dup3\n        /* \"#utility.yul\":7356:7370   */\n      lt\n        /* \"#utility.yul\":7336:7354   */\n      dup2\n        /* \"#utility.yul\":7333:7371   */\n      sub\n        /* \"#utility.yul\":7330:7414   */\n      tag_312\n      jumpi\n        /* \"#utility.yul\":7386:7404   */\n      tag_313\n      tag_191\n      jump\t// in\n    tag_313:\n        /* \"#utility.yul\":7330:7414   */\n    tag_312:\n        /* \"#utility.yul\":7151:7420   */\n      pop\n        /* \"#utility.yul\":7100:7420   */\n      swap2\n      swap1\n      pop\n      jump\t// out\n        /* \"#utility.yul\":7426:7646   */\n    tag_192:\n        /* \"#utility.yul\":7566:7600   */\n      0x4552433732313a20617070726f76616c20746f2063757272656e74206f776e65\n        /* \"#utility.yul\":7562:7563   */\n      0x00\n        /* \"#utility.yul\":7554:7560   */\n      dup3\n        /* \"#utility.yul\":7550:7564   */\n      add\n        /* \"#utility.yul\":7543:7601   */\n      mstore\n        /* \"#utility.yul\":7635:7638   */\n      0x7200000000000000000000000000000000000000000000000000000000000000\n        /* \"#utility.yul\":7630:7632   */\n      0x20\n        /* \"#utility.yul\":7622:7628   */\n      dup3\n        /* \"#utility.yul\":7618:7633   */\n      add\n        /* \"#utility.yul\":7611:7639   */\n      mstore\n        /* \"#utility.yul\":7426:7646   */\n      pop\n      jump\t// out\n        /* \"#utility.yul\":7652:8018   */\n    tag_193:\n        /* \"#utility.yul\":7794:7797   */\n      0x00\n        /* \"#utility.yul\":7815:7882   */\n      tag_316\n        /* \"#utility.yul\":7879:7881   */\n      0x21\n        /* \"#utility.yul\":7874:7877   */\n      dup4\n        /* \"#utility.yul\":7815:7882   */\n      tag_166\n      jump\t// in\n    tag_316:\n        /* \"#utility.yul\":7808:7882   */\n      swap2\n      pop\n        /* \"#utility.yul\":7891:7984   */\n      tag_317\n        /* \"#utility.yul\":7980:7983   */\n      dup3\n        /* \"#utility.yul\":7891:7984   */\n      tag_192\n      jump\t// in\n    tag_317:\n        /* \"#utility.yul\":8009:8011   */\n      0x40\n        /* \"#utility.yul\":8004:8007   */\n      dup3\n        /* \"#utility.yul\":8000:8012   */\n      add\n        /* \"#utility.yul\":7993:8012   */\n      swap1\n      pop\n        /* \"#utility.yul\":7652:8018   */\n      swap2\n      swap1\n      pop\n      jump\t// out\n        /* \"#utility.yul\":8024:8443   */\n    tag_82:\n        /* \"#utility.yul\":8190:8194   */\n      0x00\n        /* \"#utility.yul\":8228:8230   */\n      0x20\n        /* \"#utility.yul\":8217:8226   */\n      dup3\n        /* \"#utility.yul\":8213:8231   */\n      add\n        /* \"#utility.yul\":8205:8231   */\n      swap1\n      pop\n        /* \"#utility.yul\":8277:8286   */\n      dup2\n        /* \"#utility.yul\":8271:8275   */\n      dup2\n        /* \"#utility.yul\":8267:8287   */\n      sub\n        /* \"#utility.yul\":8263:8264   */\n      0x00\n        /* \"#utility.yul\":8252:8261   */\n      dup4\n        /* \"#utility.yul\":8248:8265   */\n      add\n        /* \"#utility.yul\":8241:8288   */\n      mstore\n        /* \"#utility.yul\":8305:8436   */\n      tag_319\n        /* \"#utility.yul\":8431:8435   */\n      dup2\n        /* \"#utility.yul\":8305:8436   */\n      tag_193\n      jump\t// in\n    tag_319:\n        /* \"#utility.yul\":8297:8436   */\n      swap1\n      pop\n        /* \"#utility.yul\":8024:8443   */\n      swap2\n      swap1\n      pop\n      jump\t// out\n        /* \"#utility.yul\":8449:8671   */\n    tag_194:\n        /* \"#utility.yul\":8589:8623   */\n      0x4552433732313a20617070726f76652063616c6c6572206973206e6f74206f77\n        /* \"#utility.yul\":8585:8586   */\n      0x00\n        /* \"#utility.yul\":8577:8583   */\n      dup3\n        /* \"#utility.yul\":8573:8587   */\n      add\n        /* \"#utility.yul\":8566:8624   */\n      mstore\n        /* \"#utility.yul\":8658:8663   */\n      0x6e65720000000000000000000000000000000000000000000000000000000000\n        /* \"#utility.yul\":8653:8655   */\n      0x20\n        /* \"#utility.yul\":8645:8651   */\n      dup3\n        /* \"#utility.yul\":8641:8656   */\n      add\n        /* \"#utility.yul\":8634:8664   */\n      mstore\n        /* \"#utility.yul\":8449:8671   */\n      pop\n      jump\t// out\n        /* \"#utility.yul\":8677:9043   */\n    tag_195:\n        /* \"#utility.yul\":8819:8822   */\n      0x00\n        /* \"#utility.yul\":8840:8907   */\n      tag_322\n        /* \"#utility.yul\":8904:8906   */\n      0x23\n        /* \"#utility.yul\":8899:8902   */\n      dup4\n        /* \"#utility.yul\":8840:8907   */\n      tag_166\n      jump\t// in\n    tag_322:\n        /* \"#utility.yul\":8833:8907   */\n      swap2\n      pop\n        /* \"#utility.yul\":8916:9009   */\n      tag_323\n        /* \"#utility.yul\":9005:9008   */\n      dup3\n        /* \"#utility.yul\":8916:9009   */\n      tag_194\n      jump\t// in\n    tag_323:\n        /* \"#utility.yul\":9034:9036   */\n      0x40\n        /* \"#utility.yul\":9029:9032   */\n      dup3\n        /* \"#utility.yul\":9025:9037   */\n      add\n        /* \"#utility.yul\":9018:9037   */\n      swap1\n      pop\n        /* \"#utility.yul\":8677:9043   */\n      swap2\n      swap1\n      pop\n      jump\t// out\n        /* \"#utility.yul\":9049:9468   */\n    tag_85:\n        /* \"#utility.yul\":9215:9219   */\n      0x00\n        /* \"#utility.yul\":9253:9255   */\n      0x20\n        /* \"#utility.yul\":9242:9251   */\n      dup3\n        /* \"#utility.yul\":9238:9256   */\n      add\n        /* \"#utility.yul\":9230:9256   */\n      swap1\n      pop\n        /* \"#utility.yul\":9302:9311   */\n      dup2\n        /* \"#utility.yul\":9296:9300   */\n      dup2\n        /* \"#utility.yul\":9292:9312   */\n      sub\n        /* \"#utility.yul\":9288:9289   */\n      0x00\n        /* \"#utility.yul\":9277:9286   */\n      dup4\n        /* \"#utility.yul\":9273:9290   */\n      add\n        /* \"#utility.yul\":9266:9313   */\n      mstore\n        /* \"#utility.yul\":9330:9461   */\n      tag_325\n        /* \"#utility.yul\":9456:9460   */\n      dup2\n        /* \"#utility.yul\":9330:9461   */\n      tag_195\n      jump\t// in\n    tag_325:\n        /* \"#utility.yul\":9322:9461   */\n      swap1\n      pop\n        /* \"#utility.yul\":9049:9468   */\n      swap2\n      swap1\n      pop\n      jump\t// out\n        /* \"#utility.yul\":9474:9656   */\n    tag_196:\n        /* \"#utility.yul\":9614:9648   */\n      0x4f776e61626c653a2063616c6c6572206973206e6f7420746865206f776e6572\n        /* \"#utility.yul\":9610:9611   */\n      0x00\n        /* \"#utility.yul\":9602:9608   */\n      dup3\n        /* \"#utility.yul\":9598:9612   */\n      add\n        /* \"#utility.yul\":9591:9649   */\n      mstore\n        /* \"#utility.yul\":9474:9656   */\n      pop\n      jump\t// out\n        /* \"#utility.yul\":9662:10028   */\n    tag_197:\n        /* \"#utility.yul\":9804:9807   */\n      0x00\n        /* \"#utility.yul\":9825:9892   */\n      tag_328\n        /* \"#utility.yul\":9889:9891   */\n      0x20\n        /* \"#utility.yul\":9884:9887   */\n      dup4\n        /* \"#utility.yul\":9825:9892   */\n      tag_166\n      jump\t// in\n    tag_328:\n        /* \"#utility.yul\":9818:9892   */\n      swap2\n      pop\n        /* \"#utility.yul\":9901:9994   */\n      tag_329\n        /* \"#utility.yul\":9990:9993   */\n      dup3\n        /* \"#utility.yul\":9901:9994   */\n      tag_196\n      jump\t// in\n    tag_329:\n        /* \"#utility.yul\":10019:10021   */\n      0x20\n        /* \"#utility.yul\":10014:10017   */\n      dup3\n        /* \"#utility.yul\":10010:10022   */\n      add\n        /* \"#utility.yul\":10003:10022   */\n      swap1\n      pop\n        /* \"#utility.yul\":9662:10028   */\n      swap2\n      swap1\n      pop\n      jump\t// out\n        /* \"#utility.yul\":10034:10453   */\n    tag_89:\n        /* \"#utility.yul\":10200:10204   */\n      0x00\n        /* \"#utility.yul\":10238:10240   */\n      0x20\n        /* \"#utility.yul\":10227:10236   */\n      dup3\n        /* \"#utility.yul\":10223:10241   */\n      add\n        /* \"#utility.yul\":10215:10241   */\n      swap1\n      pop\n        /* \"#utility.yul\":10287:10296   */\n      dup2\n        /* \"#utility.yul\":10281:10285   */\n      dup2\n        /* \"#utility.yul\":10277:10297   */\n      sub\n        /* \"#utility.yul\":10273:10274   */\n      0x00\n        /* \"#utility.yul\":10262:10271   */\n      dup4\n        /* \"#utility.yul\":10258:10275   */\n      add\n        /* \"#utility.yul\":10251:10298   */\n      mstore\n        /* \"#utility.yul\":10315:10446   */\n      tag_331\n        /* \"#utility.yul\":10441:10445   */\n      dup2\n        /* \"#utility.yul\":10315:10446   */\n      tag_197\n      jump\t// in\n    tag_331:\n        /* \"#utility.yul\":10307:10446   */\n      swap1\n      pop\n        /* \"#utility.yul\":10034:10453   */\n      swap2\n      swap1\n      pop\n      jump\t// out\n        /* \"#utility.yul\":10459:10637   */\n    tag_198:\n        /* \"#utility.yul\":10599:10629   */\n      0x436f756e74206d7573742062652067726561746572207468616e203000000000\n        /* \"#utility.yul\":10595:10596   */\n      0x00\n        /* \"#utility.yul\":10587:10593   */\n      dup3\n        /* \"#utility.yul\":10583:10597   */\n      add\n        /* \"#utility.yul\":10576:10630   */\n      mstore\n        /* \"#utility.yul\":10459:10637   */\n      pop\n      jump\t// out\n        /* \"#utility.yul\":10643:11009   */\n    tag_199:\n        /* \"#utility.yul\":10785:10788   */\n      0x00\n        /* \"#utility.yul\":10806:10873   */\n      tag_334\n        /* \"#utility.yul\":10870:10872   */\n      0x1c\n        /* \"#utility.yul\":10865:10868   */\n      dup4\n        /* \"#utility.yul\":10806:10873   */\n      tag_166\n      jump\t// in\n    tag_334:\n        /* \"#utility.yul\":10799:10873   */\n      swap2\n      pop\n        /* \"#utility.yul\":10882:10975   */\n      tag_335\n        /* \"#utility.yul\":10971:10974   */\n      dup3\n        /* \"#utility.yul\":10882:10975   */\n      tag_198\n      jump\t// in\n    tag_335:\n        /* \"#utility.yul\":11000:11002   */\n      0x20\n        /* \"#utility.yul\":10995:10998   */\n      dup3\n        /* \"#utility.yul\":10991:11003   */\n      add\n        /* \"#utility.yul\":10984:11003   */\n      swap1\n      pop\n        /* \"#utility.yul\":10643:11009   */\n      swap2\n      swap1\n      pop\n      jump\t// out\n        /* \"#utility.yul\":11015:11434   */\n    tag_93:\n        /* \"#utility.yul\":11181:11185   */\n      0x00\n        /* \"#utility.yul\":11219:11221   */\n      0x20\n        /* \"#utility.yul\":11208:11217   */\n      dup3\n        /* \"#utility.yul\":11204:11222   */\n      add\n        /* \"#utility.yul\":11196:11222   */\n      swap1\n      pop\n        /* \"#utility.yul\":11268:11277   */\n      dup2\n        /* \"#utility.yul\":11262:11266   */\n      dup2\n        /* \"#utility.yul\":11258:11278   */\n      sub\n        /* \"#utility.yul\":11254:11255   */\n      0x00\n        /* \"#utility.yul\":11243:11252   */\n      dup4\n        /* \"#utility.yul\":11239:11256   */\n      add\n        /* \"#utility.yul\":11232:11279   */\n      mstore\n        /* \"#utility.yul\":11296:11427   */\n      tag_337\n        /* \"#utility.yul\":11422:11426   */\n      dup2\n        /* \"#utility.yul\":11296:11427   */\n      tag_199\n      jump\t// in\n    tag_337:\n        /* \"#utility.yul\":11288:11427   */\n      swap1\n      pop\n        /* \"#utility.yul\":11015:11434   */\n      swap2\n      swap1\n      pop\n      jump\t// out\n        /* \"#utility.yul\":11440:11620   */\n    tag_200:\n        /* \"#utility.yul\":11488:11565   */\n      0x4e487b7100000000000000000000000000000000000000000000000000000000\n        /* \"#utility.yul\":11485:11486   */\n      0x00\n        /* \"#utility.yul\":11478:11566   */\n      mstore\n        /* \"#utility.yul\":11585:11589   */\n      0x11\n        /* \"#utility.yul\":11582:11583   */\n      0x04\n        /* \"#utility.yul\":11575:11590   */\n      mstore\n        /* \"#utility.yul\":11609:11613   */\n      0x24\n        /* \"#utility.yul\":11606:11607   */\n      0x00\n        /* \"#utility.yul\":11599:11614   */\n      revert\n        /* \"#utility.yul\":11626:11859   */\n    tag_98:\n        /* \"#utility.yul\":11665:11668   */\n      0x00\n        /* \"#utility.yul\":11688:11712   */\n      tag_340\n        /* \"#utility.yul\":11706:11711   */\n      dup3\n        /* \"#utility.yul\":11688:11712   */\n      tag_173\n      jump\t// in\n    tag_340:\n        /* \"#utility.yul\":11679:11712   */\n      swap2\n      pop\n        /* \"#utility.yul\":11734:11800   */\n      0xffffffffffffffffffffffffffffffffffffffffffffffffffffffffffffffff\n        /* \"#utility.yul\":11727:11732   */\n      dup3\n        /* \"#utility.yul\":11724:11801   */\n      sub\n        /* \"#utility.yul\":11721:11824   */\n      tag_341\n      jumpi\n        /* \"#utility.yul\":11804:11822   */\n      tag_342\n      tag_200\n      jump\t// in\n    tag_342:\n        /* \"#utility.yul\":11721:11824   */\n    tag_341:\n        /* \"#utility.yul\":11851:11852   */\n      0x01\n        /* \"#utility.yul\":11844:11849   */\n      dup3\n        /* \"#utility.yul\":11840:11853   */\n      add\n        /* \"#utility.yul\":11833:11853   */\n      swap1\n      pop\n        /* \"#utility.yul\":11626:11859   */\n      swap2\n      swap1\n      pop\n      jump\t// out\n        /* \"#utility.yul\":11865:12035   */\n    tag_201:\n        /* \"#utility.yul\":12005:12027   */\n      0x5061757361626c653a206e6f7420706175736564000000000000000000000000\n        /* \"#utility.yul\":12001:12002   */\n      0x00\n        /* \"#utility.yul\":11993:11999   */\n      dup3\n        /* \"#utility.yul\":11989:12003   */\n      add\n        /* \"#utility.yul\":11982:12028   */\n      mstore\n        /* \"#utility.yul\":11865:12035   */\n      pop\n      jump\t// out\n        /* \"#utility.yul\":12041:12407   */\n    tag_202:\n        /* \"#utility.yul\":12183:12186   */\n      0x00\n        /* \"#utility.yul\":12204:12271   */\n      tag_345\n        /* \"#utility.yul\":12268:12270   */\n      0x14\n        /* \"#utility.yul\":12263:12266   */\n      dup4\n        /* \"#utility.yul\":12204:12271   */\n      tag_166\n      jump\t// in\n    tag_345:\n        /* \"#utility.yul\":12197:12271   */\n      swap2\n      pop\n        /* \"#utility.yul\":12280:12373   */\n      tag_346\n        /* \"#utility.yul\":12369:12372   */\n      dup3\n        /* \"#utility.yul\":12280:12373   */\n      tag_201\n      jump\t// in\n    tag_346:\n        /* \"#utility.yul\":12398:12400   */\n      0x20\n        /* \"#utility.yul\":12393:12396   */\n      dup3\n        /* \"#utility.yul\":12389:12401   */\n      add\n        /* \"#utility.yul\":12382:12401   */\n      swap1\n      pop\n        /* \"#utility.yul\":12041:12407   */\n      swap2\n      swap1\n      pop\n      jump\t// out\n        /* \"#utility.yul\":12413:12832   */\n    tag_107:\n        /* \"#utility.yul\":12579:12583   */\n      0x00\n        /* \"#utility.yul\":12617:12619   */\n      0x20\n        /* \"#utility.yul\":12606:12615   */\n      dup3\n        /* \"#utility.yul\":12602:12620   */\n      add\n        /* \"#utility.yul\":12594:12620   */\n      swap1\n      pop\n        /* \"#utility.yul\":12666:12675   */\n      dup2\n        /* \"#utility.yul\":12660:12664   */\n      dup2\n        /* \"#utility.yul\":12656:12676   */\n      sub\n        /* \"#utility.yul\":12652:12653   */\n      0x00\n        /* \"#utility.yul\":12641:12650   */\n      dup4\n        /* \"#utility.yul\":12637:12654   */\n      add\n        /* \"#utility.yul\":12630:12677   */\n      mstore\n        /* \"#utility.yul\":12694:12825   */\n      tag_348\n        /* \"#utility.yul\":12820:12824   */\n      dup2\n        /* \"#utility.yul\":12694:12825   */\n      tag_202\n      jump\t// in\n    tag_348:\n        /* \"#utility.yul\":12686:12825   */\n      swap1\n      pop\n        /* \"#utility.yul\":12413:12832   */\n      swap2\n      swap1\n      pop\n      jump\t// out\n        /* \"#utility.yul\":12838:13012   */\n    tag_203:\n        /* \"#utility.yul\":12978:13004   */\n      0x4552433732313a20696e76616c696420746f6b656e2049440000000000000000\n        /* \"#utility.yul\":12974:12975   */\n      0x00\n        /* \"#utility.yul\":12966:12972   */\n      dup3\n        /* \"#utility.yul\":12962:12976   */\n      add\n        /* \"#utility.yul\":12955:13005   */\n      mstore\n        /* \"#utility.yul\":12838:13012   */\n      pop\n      jump\t// out\n        /* \"#utility.yul\":13018:13384   */\n    tag_204:\n        /* \"#utility.yul\":13160:13163   */\n      0x00\n        /* \"#utility.yul\":13181:13248   */\n      tag_351\n        /* \"#utility.yul\":13245:13247   */\n      0x18\n        /* \"#utility.yul\":13240:13243   */\n      dup4\n        /* \"#utility.yul\":13181:13248   */\n      tag_166\n      jump\t// in\n    tag_351:\n        /* \"#utility.yul\":13174:13248   */\n      swap2\n      pop\n        /* \"#utility.yul\":13257:13350   */\n      tag_352\n        /* \"#utility.yul\":13346:13349   */\n      dup3\n        /* \"#utility.yul\":13257:13350   */\n      tag_203\n      jump\t// in\n    tag_352:\n        /* \"#utility.yul\":13375:13377   */\n      0x20\n        /* \"#utility.yul\":13370:13373   */\n      dup3\n        /* \"#utility.yul\":13366:13378   */\n      add\n        /* \"#utility.yul\":13359:13378   */\n      swap1\n      pop\n        /* \"#utility.yul\":13018:13384   */\n      swap2\n      swap1\n      pop\n      jump\t// out\n        /* \"#utility.yul\":13390:13809   */\n    tag_119:\n        /* \"#utility.yul\":13556:13560   */\n      0x00\n        /* \"#utility.yul\":13594:13596   */\n      0x20\n        /* \"#utility.yul\":13583:13592   */\n      dup3\n        /* \"#utility.yul\":13579:13597   */\n      add\n        /* \"#utility.yul\":13571:13597   */\n      swap1\n      pop\n        /* \"#utility.yul\":13643:13652   */\n      dup2\n        /* \"#utility.yul\":13637:13641   */\n      dup2\n        /* \"#utility.yul\":13633:13653   */\n      sub\n        /* \"#utility.yul\":13629:13630   */\n      0x00\n        /* \"#utility.yul\":13618:13627   */\n      dup4\n        /* \"#utility.yul\":13614:13631   */\n      add\n        /* \"#utility.yul\":13607:13654   */\n      mstore\n        /* \"#utility.yul\":13671:13802   */\n      tag_354\n        /* \"#utility.yul\":13797:13801   */\n      dup2\n        /* \"#utility.yul\":13671:13802   */\n      tag_204\n      jump\t// in\n    tag_354:\n        /* \"#utility.yul\":13663:13802   */\n      swap1\n      pop\n        /* \"#utility.yul\":13390:13809   */\n      swap2\n      swap1\n      pop\n      jump\t// out\n        /* \"#utility.yul\":13815:13981   */\n    tag_205:\n        /* \"#utility.yul\":13955:13973   */\n      0x5061757361626c653a2070617573656400000000000000000000000000000000\n        /* \"#utility.yul\":13951:13952   */\n      0x00\n        /* \"#utility.yul\":13943:13949   */\n      dup3\n        /* \"#utility.yul\":13939:13953   */\n      add\n        /* \"#utility.yul\":13932:13974   */\n      mstore\n        /* \"#utility.yul\":13815:13981   */\n      pop\n      jump\t// out\n        /* \"#utility.yul\":13987:14353   */\n    tag_206:\n        /* \"#utility.yul\":14129:14132   */\n      0x00\n        /* \"#utility.yul\":14150:14217   */\n      tag_357\n        /* \"#utility.yul\":14214:14216   */\n      0x10\n        /* \"#utility.yul\":14209:14212   */\n      dup4\n        /* \"#utility.yul\":14150:14217   */\n      tag_166\n      jump\t// in\n    tag_357:\n        /* \"#utility.yul\":14143:14217   */\n      swap2\n      pop\n        /* \"#utility.yul\":14226:14319   */\n      tag_358\n        /* \"#utility.yul\":14315:14318   */\n      dup3\n        /* \"#utility.yul\":14226:14319   */\n      tag_205\n      jump\t// in\n    tag_358:\n        /* \"#utility.yul\":14344:14346   */\n      0x20\n        /* \"#utility.yul\":14339:14342   */\n      dup3\n        /* \"#utility.yul\":14335:14347   */\n      add\n        /* \"#utility.yul\":14328:14347   */\n      swap1\n      pop\n        /* \"#utility.yul\":13987:14353   */\n      swap2\n      swap1\n      pop\n      jump\t// out\n        /* \"#utility.yul\":14359:14778   */\n    tag_127:\n        /* \"#utility.yul\":14525:14529   */\n      0x00\n        /* \"#utility.yul\":14563:14565   */\n      0x20\n        /* \"#utility.yul\":14552:14561   */\n      dup3\n        /* \"#utility.yul\":14548:14566   */\n      add\n        /* \"#utility.yul\":14540:14566   */\n      swap1\n      pop\n        /* \"#utility.yul\":14612:14621   */\n      dup2\n        /* \"#utility.yul\":14606:14610   */\n      dup2\n        /* \"#utility.yul\":14602:14622   */\n      sub\n        /* \"#utility.yul\":14598:14599   */\n      0x00\n        /* \"#utility.yul\":14587:14596   */\n      dup4\n        /* \"#utility.yul\":14583:14600   */\n      add\n        /* \"#utility.yul\":14576:14623   */\n      mstore\n        /* \"#utility.yul\":14640:14771   */\n      tag_360\n        /* \"#utility.yul\":14766:14770   */\n      dup2\n        /* \"#utility.yul\":14640:14771   */\n      tag_206\n      jump\t// in\n    tag_360:\n        /* \"#utility.yul\":14632:14771   */\n      swap1\n      pop\n        /* \"#utility.yul\":14359:14778   */\n      swap2\n      swap1\n      pop\n      jump\t// out\n        /* \"#utility.yul\":14784:14925   */\n    tag_207:\n        /* \"#utility.yul\":14833:14837   */\n      0x00\n        /* \"#utility.yul\":14856:14859   */\n      dup2\n        /* \"#utility.yul\":14848:14859   */\n      swap1\n      pop\n        /* \"#utility.yul\":14879:14882   */\n      dup2\n        /* \"#utility.yul\":14876:14877   */\n      0x00\n        /* \"#utility.yul\":14869:14883   */\n      mstore\n        /* \"#utility.yul\":14913:14917   */\n      0x20\n        /* \"#utility.yul\":14910:14911   */\n      0x00\n        /* \"#utility.yul\":14900:14918   */\n      keccak256\n        /* \"#utility.yul\":14892:14918   */\n      swap1\n      pop\n        /* \"#utility.yul\":14784:14925   */\n      swap2\n      swap1\n      pop\n      jump\t// out\n        /* \"#utility.yul\":14931:15024   */\n    tag_208:\n        /* \"#utility.yul\":14968:14974   */\n      0x00\n        /* \"#utility.yul\":15015:15017   */\n      0x20\n        /* \"#utility.yul\":15010:15012   */\n      0x1f\n        /* \"#utility.yul\":15003:15008   */\n      dup4\n        /* \"#utility.yul\":14999:15013   */\n      add\n        /* \"#utility.yul\":14995:15018   */\n      div\n        /* \"#utility.yul\":14985:15018   */\n      swap1\n      pop\n        /* \"#utility.yul\":14931:15024   */\n      swap2\n      swap1\n      pop\n      jump\t// out\n        /* \"#utility.yul\":15030:15137   */\n    tag_209:\n        /* \"#utility.yul\":15074:15082   */\n      0x00\n        /* \"#utility.yul\":15124:15129   */\n      dup3\n        /* \"#utility.yul\":15118:15122   */\n      dup3\n        /* \"#utility.yul\":15114:15130   */\n      shl\n        /* \"#utility.yul\":15093:15130   */\n      swap1\n      pop\n        /* \"#utility.yul\":15030:15137   */\n      swap3\n      swap2\n      pop\n      pop\n      jump\t// out\n        /* \"#utility.yul\":15143:15536   */\n    tag_210:\n        /* \"#utility.yul\":15212:15218   */\n      0x00\n        /* \"#utility.yul\":15262:15263   */\n      0x08\n        /* \"#utility.yul\":15250:15260   */\n      dup4\n        /* \"#utility.yul\":15246:15264   */\n      mul\n        /* \"#utility.yul\":15285:15382   */\n      tag_365\n        /* \"#utility.yul\":15315:15381   */\n      0xffffffffffffffffffffffffffffffffffffffffffffffffffffffffffffffff\n        /* \"#utility.yul\":15304:15313   */\n      dup3\n        /* \"#utility.yul\":15285:15382   */\n      tag_209\n      jump\t// in\n    tag_365:\n        /* \"#utility.yul\":15403:15442   */\n      tag_366\n        /* \"#utility.yul\":15433:15441   */\n      dup7\n        /* \"#utility.yul\":15422:15431   */\n      dup4\n        /* \"#utility.yul\":15403:15442   */\n      tag_209\n      jump\t// in\n    tag_366:\n        /* \"#utility.yul\":15391:15442   */\n      swap6\n      pop\n        /* \"#utility.yul\":15475:15479   */\n      dup1\n        /* \"#utility.yul\":15471:15480   */\n      not\n        /* \"#utility.yul\":15464:15469   */\n      dup5\n        /* \"#utility.yul\":15460:15481   */\n      and\n        /* \"#utility.yul\":15451:15481   */\n      swap4\n      pop\n        /* \"#utility.yul\":15524:15528   */\n      dup1\n        /* \"#utility.yul\":15514:15522   */\n      dup7\n        /* \"#utility.yul\":15510:15529   */\n      and\n        /* \"#utility.yul\":15503:15508   */\n      dup5\n        /* \"#utility.yul\":15500:15530   */\n      or\n        /* \"#utility.yul\":15490:15530   */\n      swap3\n      pop\n        /* \"#utility.yul\":15219:15536   */\n      pop\n      pop\n        /* \"#utility.yul\":15143:15536   */\n      swap4\n      swap3\n      pop\n      pop\n      pop\n      jump\t// out\n        /* \"#utility.yul\":15542:15602   */\n    tag_211:\n        /* \"#utility.yul\":15570:15573   */\n      0x00\n        /* \"#utility.yul\":15591:15596   */\n      dup2\n        /* \"#utility.yul\":15584:15596   */\n      swap1\n      pop\n        /* \"#utility.yul\":15542:15602   */\n      swap2\n      swap1\n      pop\n      jump\t// out\n        /* \"#utility.yul\":15608:15750   */\n    tag_212:\n        /* \"#utility.yul\":15658:15667   */\n      0x00\n        /* \"#utility.yul\":15691:15744   */\n      tag_369\n        /* \"#utility.yul\":15709:15743   */\n      tag_370\n        /* \"#utility.yul\":15718:15742   */\n      tag_371\n        /* \"#utility.yul\":15736:15741   */\n      dup5\n        /* \"#utility.yul\":15718:15742   */\n      tag_173\n      jump\t// in\n    tag_371:\n        /* \"#utility.yul\":15709:15743   */\n      tag_211\n      jump\t// in\n    tag_370:\n        /* \"#utility.yul\":15691:15744   */\n      tag_173\n      jump\t// in\n    tag_369:\n        /* \"#utility.yul\":15678:15744   */\n      swap1\n      pop\n        /* \"#utility.yul\":15608:15750   */\n      swap2\n      swap1\n      pop\n      jump\t// out\n        /* \"#utility.yul\":15756:15831   */\n    tag_213:\n        /* \"#utility.yul\":15799:15802   */\n      0x00\n        /* \"#utility.yul\":15820:15825   */\n      dup2\n        /* \"#utility.yul\":15813:15825   */\n      swap1\n      pop\n        /* \"#utility.yul\":15756:15831   */\n      swap2\n      swap1\n      pop\n      jump\t// out\n        /* \"#utility.yul\":15837:16106   */\n    tag_214:\n        /* \"#utility.yul\":15947:15986   */\n      tag_374\n        /* \"#utility.yul\":15978:15985   */\n      dup4\n        /* \"#utility.yul\":15947:15986   */\n      tag_212\n      jump\t// in\n    tag_374:\n        /* \"#utility.yul\":16008:16099   */\n      tag_375\n        /* \"#utility.yul\":16057:16098   */\n      tag_376\n        /* \"#utility.yul\":16081:16097   */\n      dup3\n        /* \"#utility.yul\":16057:16098   */\n      tag_213\n      jump\t// in\n    tag_376:\n        /* \"#utility.yul\":16049:16055   */\n      dup5\n        /* \"#utility.yul\":16042:16046   */\n      dup5\n        /* \"#utility.yul\":16036:16047   */\n      sload\n        /* \"#utility.yul\":16008:16099   */\n      tag_210\n      jump\t// in\n    tag_375:\n        /* \"#utility.yul\":16002:16006   */\n      dup3\n        /* \"#utility.yul\":15995:16100   */\n      sstore\n        /* \"#utility.yul\":15913:16106   */\n      pop\n        /* \"#utility.yul\":15837:16106   */\n      pop\n      pop\n      pop\n      jump\t// out\n        /* \"#utility.yul\":16112:16185   */\n    tag_215:\n        /* \"#utility.yul\":16157:16160   */\n      0x00\n        /* \"#utility.yul\":16112:16185   */\n      swap1\n      jump\t// out\n        /* \"#utility.yul\":16191:16380   */\n    tag_216:\n        /* \"#utility.yul\":16268:16300   */\n      tag_379\n      tag_215\n      jump\t// in\n    tag_379:\n        /* \"#utility.yul\":16309:16374   */\n      tag_380\n        /* \"#utility.yul\":16367:16373   */\n      dup2\n        /* \"#utility.yul\":16359:16365   */\n      dup5\n        /* \"#utility.yul\":16353:16357   */\n      dup5\n        /* \"#utility.yul\":16309:16374   */\n      tag_214\n      jump\t// in\n    tag_380:\n        /* \"#utility.yul\":16244:16380   */\n      pop\n        /* \"#utility.yul\":16191:16380   */\n      pop\n      pop\n      jump\t// out\n        /* \"#utility.yul\":16386:16572   */\n    tag_217:\n        /* \"#utility.yul\":16446:16566   */\n    tag_382:\n        /* \"#utility.yul\":16463:16466   */\n      dup2\n        /* \"#utility.yul\":16456:16461   */\n      dup2\n        /* \"#utility.yul\":16453:16467   */\n      lt\n        /* \"#utility.yul\":16446:16566   */\n      iszero\n      tag_384\n      jumpi\n        /* \"#utility.yul\":16517:16556   */\n      tag_385\n        /* \"#utility.yul\":16554:16555   */\n      0x00\n        /* \"#utility.yul\":16547:16552   */\n      dup3\n        /* \"#utility.yul\":16517:16556   */\n      tag_216\n      jump\t// in\n    tag_385:\n        /* \"#utility.yul\":16490:16491   */\n      0x01\n        /* \"#utility.yul\":16483:16488   */\n      dup2\n        /* \"#utility.yul\":16479:16492   */\n      add\n        /* \"#utility.yul\":16470:16492   */\n      swap1\n      pop\n        /* \"#utility.yul\":16446:16566   */\n      jump(tag_382)\n    tag_384:\n        /* \"#utility.yul\":16386:16572   */\n      pop\n      pop\n      jump\t// out\n        /* \"#utility.yul\":16578:17121   */\n    tag_218:\n        /* \"#utility.yul\":16679:16681   */\n      0x1f\n        /* \"#utility.yul\":16674:16677   */\n      dup3\n        /* \"#utility.yul\":16671:16682   */\n      gt\n        /* \"#utility.yul\":16668:17114   */\n      iszero\n      tag_387\n      jumpi\n        /* \"#utility.yul\":16713:16751   */\n      tag_388\n        /* \"#utility.yul\":16745:16750   */\n      dup2\n        /* \"#utility.yul\":16713:16751   */\n      tag_207\n      jump\t// in\n    tag_388:\n        /* \"#utility.yul\":16797:16826   */\n      tag_389\n        /* \"#utility.yul\":16815:16825   */\n      dup5\n        /* \"#utility.yul\":16797:16826   */\n      tag_208\n      jump\t// in\n    tag_389:\n        /* \"#utility.yul\":16787:16795   */\n      dup2\n        /* \"#utility.yul\":16783:16827   */\n      add\n        /* \"#utility.yul\":16980:16982   */\n      0x20\n        /* \"#utility.yul\":16968:16978   */\n      dup6\n        /* \"#utility.yul\":16965:16983   */\n      lt\n        /* \"#utility.yul\":16962:17011   */\n      iszero\n      tag_390\n      jumpi\n        /* \"#utility.yul\":17001:17009   */\n      dup2\n        /* \"#utility.yul\":16986:17009   */\n      swap1\n      pop\n        /* \"#utility.yul\":16962:17011   */\n    tag_390:\n        /* \"#utility.yul\":17024:17104   */\n      tag_391\n        /* \"#utility.yul\":17080:17102   */\n      tag_392\n        /* \"#utility.yul\":17098:17101   */\n      dup6\n        /* \"#utility.yul\":17080:17102   */\n      tag_208\n      jump\t// in\n    tag_392:\n        /* \"#utility.yul\":17070:17078   */\n      dup4\n        /* \"#utility.yul\":17066:17103   */\n      add\n        /* \"#utility.yul\":17053:17064   */\n      dup3\n        /* \"#utility.yul\":17024:17104   */\n      tag_217\n      jump\t// in\n    tag_391:\n        /* \"#utility.yul\":16683:17114   */\n      pop\n      pop\n        /* \"#utility.yul\":16668:17114   */\n    tag_387:\n        /* \"#utility.yul\":16578:17121   */\n      pop\n      pop\n      pop\n      jump\t// out\n        /* \"#utility.yul\":17127:17244   */\n    tag_219:\n        /* \"#utility.yul\":17181:17189   */\n      0x00\n        /* \"#utility.yul\":17231:17236   */\n      dup3\n        /* \"#utility.yul\":17225:17229   */\n      dup3\n        /* \"#utility.yul\":17221:17237   */\n      shr\n        /* \"#utility.yul\":17200:17237   */\n      swap1\n      pop\n        /* \"#utility.yul\":17127:17244   */\n      swap3\n      swap2\n      pop\n      pop\n      jump\t// out\n        /* \"#utility.yul\":17250:17419   */\n    tag_220:\n        /* \"#utility.yul\":17294:17300   */\n      0x00\n        /* \"#utility.yul\":17327:17378   */\n      tag_395\n        /* \"#utility.yul\":17375:17376   */\n      0x00\n        /* \"#utility.yul\":17371:17377   */\n      not\n        /* \"#utility.yul\":17363:17368   */\n      dup5\n        /* \"#utility.yul\":17360:17361   */\n      0x08\n        /* \"#utility.yul\":17356:17369   */\n      mul\n        /* \"#utility.yul\":17327:17378   */\n      tag_219\n      jump\t// in\n    tag_395:\n        /* \"#utility.yul\":17323:17379   */\n      not\n        /* \"#utility.yul\":17408:17412   */\n      dup1\n        /* \"#utility.yul\":17402:17406   */\n      dup4\n        /* \"#utility.yul\":17398:17413   */\n      and\n        /* \"#utility.yul\":17388:17413   */\n      swap2\n      pop\n        /* \"#utility.yul\":17301:17419   */\n      pop\n        /* \"#utility.yul\":17250:17419   */\n      swap3\n      swap2\n      pop\n      pop\n      jump\t// out\n        /* \"#utility.yul\":17424:17719   */\n    tag_221:\n        /* \"#utility.yul\":17500:17504   */\n      0x00\n        /* \"#utility.yul\":17646:17675   */\n      tag_397\n        /* \"#utility.yul\":17671:17674   */\n      dup4\n        /* \"#utility.yul\":17665:17669   */\n      dup4\n        /* \"#utility.yul\":17646:17675   */\n      tag_220\n      jump\t// in\n    tag_397:\n        /* \"#utility.yul\":17638:17675   */\n      swap2\n      pop\n        /* \"#utility.yul\":17708:17711   */\n      dup3\n        /* \"#utility.yul\":17705:17706   */\n      0x02\n        /* \"#utility.yul\":17701:17712   */\n      mul\n        /* \"#utility.yul\":17695:17699   */\n      dup3\n        /* \"#utility.yul\":17692:17713   */\n      or\n        /* \"#utility.yul\":17684:17713   */\n      swap1\n      pop\n        /* \"#utility.yul\":17424:17719   */\n      swap3\n      swap2\n      pop\n      pop\n      jump\t// out\n        /* \"#utility.yul\":17724:19119   */\n    tag_136:\n        /* \"#utility.yul\":17841:17878   */\n      tag_399\n        /* \"#utility.yul\":17874:17877   */\n      dup3\n        /* \"#utility.yul\":17841:17878   */\n      tag_165\n      jump\t// in\n    tag_399:\n        /* \"#utility.yul\":17943:17961   */\n      0xffffffffffffffff\n        /* \"#utility.yul\":17935:17941   */\n      dup2\n        /* \"#utility.yul\":17932:17962   */\n      gt\n        /* \"#utility.yul\":17929:17985   */\n      iszero\n      tag_400\n      jumpi\n        /* \"#utility.yul\":17965:17983   */\n      tag_401\n      tag_184\n      jump\t// in\n    tag_401:\n        /* \"#utility.yul\":17929:17985   */\n    tag_400:\n        /* \"#utility.yul\":18009:18047   */\n      tag_402\n        /* \"#utility.yul\":18041:18045   */\n      dup3\n        /* \"#utility.yul\":18035:18046   */\n      sload\n        /* \"#utility.yul\":18009:18047   */\n      tag_72\n      jump\t// in\n    tag_402:\n        /* \"#utility.yul\":18094:18161   */\n      tag_403\n        /* \"#utility.yul\":18154:18160   */\n      dup3\n        /* \"#utility.yul\":18146:18152   */\n      dup3\n        /* \"#utility.yul\":18140:18144   */\n      dup6\n        /* \"#utility.yul\":18094:18161   */\n      tag_218\n      jump\t// in\n    tag_403:\n        /* \"#utility.yul\":18188:18189   */\n      0x00\n        /* \"#utility.yul\":18212:18216   */\n      0x20\n        /* \"#utility.yul\":18199:18216   */\n      swap1\n      pop\n        /* \"#utility.yul\":18244:18246   */\n      0x1f\n        /* \"#utility.yul\":18236:18242   */\n      dup4\n        /* \"#utility.yul\":18233:18247   */\n      gt\n        /* \"#utility.yul\":18261:18262   */\n      0x01\n        /* \"#utility.yul\":18256:18874   */\n      dup2\n      eq\n      tag_405\n      jumpi\n        /* \"#utility.yul\":18918:18919   */\n      0x00\n        /* \"#utility.yul\":18935:18941   */\n      dup5\n        /* \"#utility.yul\":18932:19009   */\n      iszero\n      tag_406\n      jumpi\n        /* \"#utility.yul\":18984:18993   */\n      dup3\n        /* \"#utility.yul\":18979:18982   */\n      dup8\n        /* \"#utility.yul\":18975:18994   */\n      add\n        /* \"#utility.yul\":18969:18995   */\n      mload\n        /* \"#utility.yul\":18960:18995   */\n      swap1\n      pop\n        /* \"#utility.yul\":18932:19009   */\n    tag_406:\n        /* \"#utility.yul\":19035:19102   */\n      tag_407\n        /* \"#utility.yul\":19095:19101   */\n      dup6\n        /* \"#utility.yul\":19088:19093   */\n      dup3\n        /* \"#utility.yul\":19035:19102   */\n      tag_221\n      jump\t// in\n    tag_407:\n        /* \"#utility.yul\":19029:19033   */\n      dup7\n        /* \"#utility.yul\":19022:19103   */\n      sstore\n        /* \"#utility.yul\":18891:19113   */\n      pop\n        /* \"#utility.yul\":18226:19113   */\n      jump(tag_404)\n        /* \"#utility.yul\":18256:18874   */\n    tag_405:\n        /* \"#utility.yul\":18308:18312   */\n      0x1f\n        /* \"#utility.yul\":18304:18313   */\n      not\n        /* \"#utility.yul\":18296:18302   */\n      dup5\n        /* \"#utility.yul\":18292:18314   */\n      and\n        /* \"#utility.yul\":18342:18379   */\n      tag_408\n        /* \"#utility.yul\":18374:18378   */\n      dup7\n        /* \"#utility.yul\":18342:18379   */\n      tag_207\n      jump\t// in\n    tag_408:\n        /* \"#utility.yul\":18401:18402   */\n      0x00\n        /* \"#utility.yul\":18415:18623   */\n    tag_409:\n        /* \"#utility.yul\":18429:18436   */\n      dup3\n        /* \"#utility.yul\":18426:18427   */\n      dup2\n        /* \"#utility.yul\":18423:18437   */\n      lt\n        /* \"#utility.yul\":18415:18623   */\n      iszero\n      tag_411\n      jumpi\n        /* \"#utility.yul\":18508:18517   */\n      dup5\n        /* \"#utility.yul\":18503:18506   */\n      dup10\n        /* \"#utility.yul\":18499:18518   */\n      add\n        /* \"#utility.yul\":18493:18519   */\n      mload\n        /* \"#utility.yul\":18485:18491   */\n      dup3\n        /* \"#utility.yul\":18478:18520   */\n      sstore\n        /* \"#utility.yul\":18559:18560   */\n      0x01\n        /* \"#utility.yul\":18551:18557   */\n      dup3\n        /* \"#utility.yul\":18547:18561   */\n      add\n        /* \"#utility.yul\":18537:18561   */\n      swap2\n      pop\n        /* \"#utility.yul\":18606:18608   */\n      0x20\n        /* \"#utility.yul\":18595:18604   */\n      dup6\n        /* \"#utility.yul\":18591:18609   */\n      add\n        /* \"#utility.yul\":18578:18609   */\n      swap5\n      pop\n        /* \"#utility.yul\":18452:18456   */\n      0x20\n        /* \"#utility.yul\":18449:18450   */\n      dup2\n        /* \"#utility.yul\":18445:18457   */\n      add\n        /* \"#utility.yul\":18440:18457   */\n      swap1\n      pop\n        /* \"#utility.yul\":18415:18623   */\n      jump(tag_409)\n    tag_411:\n        /* \"#utility.yul\":18651:18657   */\n      dup7\n        /* \"#utility.yul\":18642:18649   */\n      dup4\n        /* \"#utility.yul\":18639:18658   */\n      lt\n        /* \"#utility.yul\":18636:18815   */\n      iszero\n      tag_412\n      jumpi\n        /* \"#utility.yul\":18709:18718   */\n      dup5\n        /* \"#utility.yul\":18704:18707   */\n      dup10\n        /* \"#utility.yul\":18700:18719   */\n      add\n        /* \"#utility.yul\":18694:18720   */\n      mload\n        /* \"#utility.yul\":18752:18800   */\n      tag_413\n        /* \"#utility.yul\":18794:18798   */\n      0x1f\n        /* \"#utility.yul\":18786:18792   */\n      dup10\n        /* \"#utility.yul\":18782:18799   */\n      and\n        /* \"#utility.yul\":18771:18780   */\n      dup3\n        /* \"#utility.yul\":18752:18800   */\n      tag_220\n      jump\t// in\n    tag_413:\n        /* \"#utility.yul\":18744:18750   */\n      dup4\n        /* \"#utility.yul\":18737:18801   */\n      sstore\n        /* \"#utility.yul\":18659:18815   */\n      pop\n        /* \"#utility.yul\":18636:18815   */\n    tag_412:\n        /* \"#utility.yul\":18861:18862   */\n      0x01\n        /* \"#utility.yul\":18857:18858   */\n      0x02\n        /* \"#utility.yul\":18849:18855   */\n      dup9\n        /* \"#utility.yul\":18845:18859   */\n      mul\n        /* \"#utility.yul\":18841:18863   */\n      add\n        /* \"#utility.yul\":18835:18839   */\n      dup9\n        /* \"#utility.yul\":18828:18864   */\n      sstore\n        /* \"#utility.yul\":18263:18874   */\n      pop\n      pop\n      pop\n        /* \"#utility.yul\":18226:19113   */\n    tag_404:\n      pop\n        /* \"#utility.yul\":17816:19119   */\n      pop\n      pop\n      pop\n        /* \"#utility.yul\":17724:19119   */\n      pop\n      pop\n      jump\t// out\n        /* \"#utility.yul\":19125:19350   */\n    tag_222:\n        /* \"#utility.yul\":19265:19299   */\n      0x4f776e61626c653a206e6577206f776e657220697320746865207a65726f2061\n        /* \"#utility.yul\":19261:19262   */\n      0x00\n        /* \"#utility.yul\":19253:19259   */\n      dup3\n        /* \"#utility.yul\":19249:19263   */\n      add\n        /* \"#utility.yul\":19242:19300   */\n      mstore\n        /* \"#utility.yul\":19334:19342   */\n      0x6464726573730000000000000000000000000000000000000000000000000000\n        /* \"#utility.yul\":19329:19331   */\n      0x20\n        /* \"#utility.yul\":19321:19327   */\n      dup3\n        /* \"#utility.yul\":19317:19332   */\n      add\n        /* \"#utility.yul\":19310:19343   */\n      mstore\n        /* \"#utility.yul\":19125:19350   */\n      pop\n      jump\t// out\n        /* \"#utility.yul\":19356:19722   */\n    tag_223:\n        /* \"#utility.yul\":19498:19501   */\n      0x00\n        /* \"#utility.yul\":19519:19586   */\n      tag_416\n        /* \"#utility.yul\":19583:19585   */\n      0x26\n        /* \"#utility.yul\":19578:19581   */\n      dup4\n        /* \"#utility.yul\":19519:19586   */\n      tag_166\n      jump\t// in\n    tag_416:\n        /* \"#utility.yul\":19512:19586   */\n      swap2\n      pop\n        /* \"#utility.yul\":19595:19688   */\n      tag_417\n        /* \"#utility.yul\":19684:19687   */\n      dup3\n        /* \"#utility.yul\":19595:19688   */\n      tag_222\n      jump\t// in\n    tag_417:\n        /* \"#utility.yul\":19713:19715   */\n      0x40\n        /* \"#utility.yul\":19708:19711   */\n      dup3\n        /* \"#utility.yul\":19704:19716   */\n      add\n        /* \"#utility.yul\":19697:19716   */\n      swap1\n      pop\n        /* \"#utility.yul\":19356:19722   */\n      swap2\n      swap1\n      pop\n      jump\t// out\n        /* \"#utility.yul\":19728:20147   */\n    tag_155:\n        /* \"#utility.yul\":19894:19898   */\n      0x00\n        /* \"#utility.yul\":19932:19934   */\n      0x20\n        /* \"#utility.yul\":19921:19930   */\n      dup3\n        /* \"#utility.yul\":19917:19935   */\n      add\n        /* \"#utility.yul\":19909:19935   */\n      swap1\n      pop\n        /* \"#utility.yul\":19981:19990   */\n      dup2\n        /* \"#utility.yul\":19975:19979   */\n      dup2\n        /* \"#utility.yul\":19971:19991   */\n      sub\n        /* \"#utility.yul\":19967:19968   */\n      0x00\n        /* \"#utility.yul\":19956:19965   */\n      dup4\n        /* \"#utility.yul\":19952:19969   */\n      add\n        /* \"#utility.yul\":19945:19992   */\n      mstore\n        /* \"#utility.yul\":20009:20140   */\n      tag_419\n        /* \"#utility.yul\":20135:20139   */\n      dup2\n        /* \"#utility.yul\":20009:20140   */\n      tag_223\n      jump\t// in\n    tag_419:\n        /* \"#utility.yul\":20001:20140   */\n      swap1\n      pop\n        /* \"#utility.yul\":19728:20147   */\n      swap2\n      swap1\n      pop\n      jump\t// out\n        /* \"#utility.yul\":20153:20335   */\n    tag_224:\n        /* \"#utility.yul\":20293:20327   */\n      0x4552433732313a206d696e7420746f20746865207a65726f2061646472657373\n        /* \"#utility.yul\":20289:20290   */\n      0x00\n        /* \"#utility.yul\":20281:20287   */\n      dup3\n        /* \"#utility.yul\":20277:20291   */\n      add\n        /* \"#utility.yul\":20270:20328   */\n      mstore\n        /* \"#utility.yul\":20153:20335   */\n      pop\n      jump\t// out\n        /* \"#utility.yul\":20341:20707   */\n    tag_225:\n        /* \"#utility.yul\":20483:20486   */\n      0x00\n        /* \"#utility.yul\":20504:20571   */\n      tag_422\n        /* \"#utility.yul\":20568:20570   */\n      0x20\n        /* \"#utility.yul\":20563:20566   */\n      dup4\n        /* \"#utility.yul\":20504:20571   */\n      tag_166\n      jump\t// in\n    tag_422:\n        /* \"#utility.yul\":20497:20571   */\n      swap2\n      pop\n        /* \"#utility.yul\":20580:20673   */\n      tag_423\n        /* \"#utility.yul\":20669:20672   */\n      dup3\n        /* \"#utility.yul\":20580:20673   */\n      tag_224\n      jump\t// in\n    tag_423:\n        /* \"#utility.yul\":20698:20700   */\n      0x20\n        /* \"#utility.yul\":20693:20696   */\n      dup3\n        /* \"#utility.yul\":20689:20701   */\n      add\n        /* \"#utility.yul\":20682:20701   */\n      swap1\n      pop\n        /* \"#utility.yul\":20341:20707   */\n      swap2\n      swap1\n      pop\n      jump\t// out\n        /* \"#utility.yul\":20713:21132   */\n    tag_159:\n        /* \"#utility.yul\":20879:20883   */\n      0x00\n        /* \"#utility.yul\":20917:20919   */\n      0x20\n        /* \"#utility.yul\":20906:20915   */\n      dup3\n        /* \"#utility.yul\":20902:20920   */\n      add\n        /* \"#utility.yul\":20894:20920   */\n      swap1\n      pop\n        /* \"#utility.yul\":20966:20975   */\n      dup2\n        /* \"#utility.yul\":20960:20964   */\n      dup2\n        /* \"#utility.yul\":20956:20976   */\n      sub\n        /* \"#utility.yul\":20952:20953   */\n      0x00\n        /* \"#utility.yul\":20941:20950   */\n      dup4\n        /* \"#utility.yul\":20937:20954   */\n      add\n        /* \"#utility.yul\":20930:20977   */\n      mstore\n        /* \"#utility.yul\":20994:21125   */\n      tag_425\n        /* \"#utility.yul\":21120:21124   */\n      dup2\n        /* \"#utility.yul\":20994:21125   */\n      tag_225\n      jump\t// in\n    tag_425:\n        /* \"#utility.yul\":20986:21125   */\n      swap1\n      pop\n        /* \"#utility.yul\":20713:21132   */\n      swap2\n      swap1\n      pop\n      jump\t// out\n        /* \"#utility.yul\":21138:21316   */\n    tag_226:\n        /* \"#utility.yul\":21278:21308   */\n      0x4552433732313a20746f6b656e20616c7265616479206d696e74656400000000\n        /* \"#utility.yul\":21274:21275   */\n      0x00\n        /* \"#utility.yul\":21266:21272   */\n      dup3\n        /* \"#utility.yul\":21262:21276   */\n      add\n        /* \"#utility.yul\":21255:21309   */\n      mstore\n        /* \"#utility.yul\":21138:21316   */\n      pop\n      jump\t// out\n        /* \"#utility.yul\":21322:21688   */\n    tag_227:\n        /* \"#utility.yul\":21464:21467   */\n      0x00\n        /* \"#utility.yul\":21485:21552   */\n      tag_428\n        /* \"#utility.yul\":21549:21551   */\n      0x1c\n        /* \"#utility.yul\":21544:21547   */\n      dup4\n        /* \"#utility.yul\":21485:21552   */\n      tag_166\n      jump\t// in\n    tag_428:\n        /* \"#utility.yul\":21478:21552   */\n      swap2\n      pop\n        /* \"#utility.yul\":21561:21654   */\n      tag_429\n        /* \"#utility.yul\":21650:21653   */\n      dup3\n        /* \"#utility.yul\":21561:21654   */\n      tag_226\n      jump\t// in\n    tag_429:\n        /* \"#utility.yul\":21679:21681   */\n      0x20\n        /* \"#utility.yul\":21674:21677   */\n      dup3\n        /* \"#utility.yul\":21670:21682   */\n      add\n        /* \"#utility.yul\":21663:21682   */\n      swap1\n      pop\n        /* \"#utility.yul\":21322:21688   */\n      swap2\n      swap1\n      pop\n      jump\t// out\n        /* \"#utility.yul\":21694:22113   */\n    tag_162:\n        /* \"#utility.yul\":21860:21864   */\n      0x00\n        /* \"#utility.yul\":21898:21900   */\n      0x20\n        /* \"#utility.yul\":21887:21896   */\n      dup3\n        /* \"#utility.yul\":21883:21901   */\n      add\n        /* \"#utility.yul\":21875:21901   */\n      swap1\n      pop\n        /* \"#utility.yul\":21947:21956   */\n      dup2\n        /* \"#utility.yul\":21941:21945   */\n      dup2\n        /* \"#utility.yul\":21937:21957   */\n      sub\n        /* \"#utility.yul\":21933:21934   */\n      0x00\n        /* \"#utility.yul\":21922:21931   */\n      dup4\n        /* \"#utility.yul\":21918:21935   */\n      add\n        /* \"#utility.yul\":21911:21958   */\n      mstore\n        /* \"#utility.yul\":21975:22106   */\n      tag_431\n        /* \"#utility.yul\":22101:22105   */\n      dup2\n        /* \"#utility.yul\":21975:22106   */\n      tag_227\n      jump\t// in\n    tag_431:\n        /* \"#utility.yul\":21967:22106   */\n      swap1\n      pop\n        /* \"#utility.yul\":21694:22113   */\n      swap2\n      swap1\n      pop\n      jump\t// out\n        /* \"#utility.yul\":22119:22310   */\n    tag_164:\n        /* \"#utility.yul\":22159:22162   */\n      0x00\n        /* \"#utility.yul\":22178:22198   */\n      tag_433\n        /* \"#utility.yul\":22196:22197   */\n      dup3\n        /* \"#utility.yul\":22178:22198   */\n      tag_173\n      jump\t// in\n    tag_433:\n        /* \"#utility.yul\":22173:22198   */\n      swap2\n      pop\n        /* \"#utility.yul\":22212:22232   */\n      tag_434\n        /* \"#utility.yul\":22230:22231   */\n      dup4\n        /* \"#utility.yul\":22212:22232   */\n      tag_173\n      jump\t// in\n    tag_434:\n        /* \"#utility.yul\":22207:22232   */\n      swap3\n      pop\n        /* \"#utility.yul\":22255:22256   */\n      dup3\n        /* \"#utility.yul\":22252:22253   */\n      dup3\n        /* \"#utility.yul\":22248:22257   */\n      add\n        /* \"#utility.yul\":22241:22257   */\n      swap1\n      pop\n        /* \"#utility.yul\":22276:22279   */\n      dup1\n        /* \"#utility.yul\":22273:22274   */\n      dup3\n        /* \"#utility.yul\":22270:22280   */\n      gt\n        /* \"#utility.yul\":22267:22303   */\n      iszero\n      tag_435\n      jumpi\n        /* \"#utility.yul\":22283:22301   */\n      tag_436\n      tag_200\n      jump\t// in\n    tag_436:\n        /* \"#utility.yul\":22267:22303   */\n    tag_435:\n        /* \"#utility.yul\":22119:22310   */\n      swap3\n      swap2\n      pop\n      pop\n      jump\t// out\n\n    auxdata: 0xa26469706673582212201c6be785a61cc20b83717b34eb5239b9f7307f9100b12a5e01846c429093eaf264736f6c634300081a0033\n}\n",
				"bytecode": {
					"linkReferences": {},
					"object": "608060405234801561000f575f80fd5b506040516123f73803806123f7833981810160405281019061003191906103e1565b6040518060400160405280600881526020017f76657263373231320000000000000000000000000000000000000000000000008152506040518060400160405280600681526020017f7645373231320000000000000000000000000000000000000000000000000000815250335f806101000a81548173ffffffffffffffffffffffffffffffffffffffff021916908373ffffffffffffffffffffffffffffffffffffffff1602179055505f8054906101000a900473ffffffffffffffffffffffffffffffffffffffff1673ffffffffffffffffffffffffffffffffffffffff165f73ffffffffffffffffffffffffffffffffffffffff167f8be0079c531659141344cd1fd0a4f28419497f9722a3daafe3b4186f6b6457e060405160405180910390a381600190816101649190610646565b5080600290816101749190610646565b5050505f60075f6101000a81548160ff02191690831515021790555061019f816101cd60201b60201c565b6040518060600160405280602e81526020016123c9602e9139600990816101c69190610646565b505061081b565b5f8054906101000a900473ffffffffffffffffffffffffffffffffffffffff1673ffffffffffffffffffffffffffffffffffffffff163373ffffffffffffffffffffffffffffffffffffffff161461025a576040517f08c379a00000000000000000000000000000000000000000000000000000000081526004016102519061076f565b60405180910390fd5b5f73ffffffffffffffffffffffffffffffffffffffff168173ffffffffffffffffffffffffffffffffffffffff16036102c8576040517f08c379a00000000000000000000000000000000000000000000000000000000081526004016102bf906107fd565b60405180910390fd5b8073ffffffffffffffffffffffffffffffffffffffff165f8054906101000a900473ffffffffffffffffffffffffffffffffffffffff1673ffffffffffffffffffffffffffffffffffffffff167f8be0079c531659141344cd1fd0a4f28419497f9722a3daafe3b4186f6b6457e060405160405180910390a3805f806101000a81548173ffffffffffffffffffffffffffffffffffffffff021916908373ffffffffffffffffffffffffffffffffffffffff16021790555050565b5f80fd5b5f73ffffffffffffffffffffffffffffffffffffffff82169050919050565b5f6103b082610387565b9050919050565b6103c0816103a6565b81146103ca575f80fd5b50565b5f815190506103db816103b7565b92915050565b5f602082840312156103f6576103f5610383565b5b5f610403848285016103cd565b91505092915050565b5f81519050919050565b7f4e487b71000000000000000000000000000000000000000000000000000000005f52604160045260245ffd5b7f4e487b71000000000000000000000000000000000000000000000000000000005f52602260045260245ffd5b5f600282049050600182168061048757607f821691505b60208210810361049a57610499610443565b5b50919050565b5f819050815f5260205f209050919050565b5f6020601f8301049050919050565b5f82821b905092915050565b5f600883026104fc7fffffffffffffffffffffffffffffffffffffffffffffffffffffffffffffffff826104c1565b61050686836104c1565b95508019841693508086168417925050509392505050565b5f819050919050565b5f819050919050565b5f61054a6105456105408461051e565b610527565b61051e565b9050919050565b5f819050919050565b61056383610530565b61057761056f82610551565b8484546104cd565b825550505050565b5f90565b61058b61057f565b61059681848461055a565b505050565b5b818110156105b9576105ae5f82610583565b60018101905061059c565b5050565b601f8211156105fe576105cf816104a0565b6105d8846104b2565b810160208510156105e7578190505b6105fb6105f3856104b2565b83018261059b565b50505b505050565b5f82821c905092915050565b5f61061e5f1984600802610603565b1980831691505092915050565b5f610636838361060f565b9150826002028217905092915050565b61064f8261040c565b67ffffffffffffffff81111561066857610667610416565b5b6106728254610470565b61067d8282856105bd565b5f60209050601f8311600181146106ae575f841561069c578287015190505b6106a6858261062b565b86555061070d565b601f1984166106bc866104a0565b5f5b828110156106e3578489015182556001820191506020850194506020810190506106be565b8683101561070057848901516106fc601f89168261060f565b8355505b6001600288020188555050505b505050505050565b5f82825260208201905092915050565b7f4f776e61626c653a2063616c6c6572206973206e6f7420746865206f776e65725f82015250565b5f610759602083610715565b915061076482610725565b602082019050919050565b5f6020820190508181035f8301526107868161074d565b9050919050565b7f4f776e61626c653a206e6577206f776e657220697320746865207a65726f20615f8201527f6464726573730000000000000000000000000000000000000000000000000000602082015250565b5f6107e7602683610715565b91506107f28261078d565b604082019050919050565b5f6020820190508181035f830152610814816107db565b9050919050565b611ba1806108285f395ff3fe608060405234801561000f575f80fd5b50600436106100e8575f3560e01c806370a082311161008a578063938e3d7b11610064578063938e3d7b1461022057806395d89b411461023c578063e8a3d4851461025a578063f2fde38b14610278576100e8565b806370a08231146101c85780638456cb59146101f85780638da5cb5b14610202576100e8565b80632649d62e116100c65780632649d62e146101565780633f4ba83a1461017257806340d097c31461017c5780636352211e14610198576100e8565b806306fdde03146100ec578063081812fc1461010a578063095ea7b31461013a575b5f80fd5b6100f4610294565b6040516101019190611064565b60405180910390f35b610124600480360381019061011f91906110c8565b610324565b6040516101319190611132565b60405180910390f35b610154600480360381019061014f9190611175565b61035d565b005b610170600480360381019061016b9190611175565b6104f4565b005b61017a610603565b005b610196600480360381019061019191906111b3565b610730565b005b6101b260048036038101906101ad91906110c8565b6107e4565b6040516101bf9190611132565b60405180910390f35b6101e260048036038101906101dd91906111b3565b610890565b6040516101ef91906111ed565b60405180910390f35b6102006108d6565b005b61020a610a05565b6040516102179190611132565b60405180910390f35b61023a60048036038101906102359190611332565b610a2c565b005b610244610acc565b6040516102519190611064565b60405180910390f35b610262610b5c565b60405161026f9190611064565b60405180910390f35b610292600480360381019061028d91906111b3565b610bec565b005b6060600180546102a3906113a6565b80601f01602080910402602001604051908101604052809291908181526020018280546102cf906113a6565b801561031a5780601f106102f15761010080835404028352916020019161031a565b820191905f5260205f20905b8154815290600101906020018083116102fd57829003601f168201915b5050505050905090565b5f60065f8381526020019081526020015f205f9054906101000a900473ffffffffffffffffffffffffffffffffffffffff169050919050565b5f610367826107e4565b90508073ffffffffffffffffffffffffffffffffffffffff168373ffffffffffffffffffffffffffffffffffffffff16036103d7576040517f08c379a00000000000000000000000000000000000000000000000000000000081526004016103ce90611446565b60405180910390fd5b8073ffffffffffffffffffffffffffffffffffffffff163373ffffffffffffffffffffffffffffffffffffffff1614610445576040517f08c379a000000000000000000000000000000000000000000000000000000000815260040161043c906114d4565b60405180910390fd5b8260065f8481526020019081526020015f205f6101000a81548173ffffffffffffffffffffffffffffffffffffffff021916908373ffffffffffffffffffffffffffffffffffffffff160217905550818373ffffffffffffffffffffffffffffffffffffffff168273ffffffffffffffffffffffffffffffffffffffff167f8c5be1e5ebec7d5bd14f71427d1e84f3dd0314c0f7b2291e5b200ac8c7c3b92560405160405180910390a4505050565b5f8054906101000a900473ffffffffffffffffffffffffffffffffffffffff1673ffffffffffffffffffffffffffffffffffffffff163373ffffffffffffffffffffffffffffffffffffffff1614610581576040517f08c379a00000000000000000000000000000000000000000000000000000000081526004016105789061153c565b60405180910390fd5b5f81116105c3576040517f08c379a00000000000000000000000000000000000000000000000000000000081526004016105ba906115a4565b60405180910390fd5b5f5b818110156105fe575f60085f8154809291906105e0906115ef565b9190505590506105f08482610da2565b5080806001019150506105c5565b505050565b5f8054906101000a900473ffffffffffffffffffffffffffffffffffffffff1673ffffffffffffffffffffffffffffffffffffffff163373ffffffffffffffffffffffffffffffffffffffff1614610690576040517f08c379a00000000000000000000000000000000000000000000000000000000081526004016106879061153c565b60405180910390fd5b60075f9054906101000a900460ff166106de576040517f08c379a00000000000000000000000000000000000000000000000000000000081526004016106d590611680565b60405180910390fd5b5f60075f6101000a81548160ff0219169083151502179055507f5db9ee0a495bf2e6ff9c91a7834c1ba4fdd244a5e8aa4e537bd38aeae4b073aa336040516107269190611132565b60405180910390a1565b5f8054906101000a900473ffffffffffffffffffffffffffffffffffffffff1673ffffffffffffffffffffffffffffffffffffffff163373ffffffffffffffffffffffffffffffffffffffff16146107bd576040517f08c379a00000000000000000000000000000000000000000000000000000000081526004016107b49061153c565b60405180910390fd5b5f60085f8154809291906107d0906115ef565b9190505590506107e08282610da2565b5050565b5f8060045f8481526020019081526020015f205f9054906101000a900473ffffffffffffffffffffffffffffffffffffffff1690505f73ffffffffffffffffffffffffffffffffffffffff168173ffffffffffffffffffffffffffffffffffffffff1603610887576040517f08c379a000000000000000000000000000000000000000000000000000000000815260040161087e906116e8565b60405180910390fd5b80915050919050565b5f60055f8373ffffffffffffffffffffffffffffffffffffffff1673ffffffffffffffffffffffffffffffffffffffff1681526020019081526020015f20549050919050565b5f8054906101000a900473ffffffffffffffffffffffffffffffffffffffff1673ffffffffffffffffffffffffffffffffffffffff163373ffffffffffffffffffffffffffffffffffffffff1614610963576040517f08c379a000000000000000000000000000000000000000000000000000000000815260040161095a9061153c565b60405180910390fd5b60075f9054906101000a900460ff16156109b2576040517f08c379a00000000000000000000000000000000000000000000000000000000081526004016109a990611750565b60405180910390fd5b600160075f6101000a81548160ff0219169083151502179055507f62e78cea01bee320cd4e420270b5ea74000d11b0c9f74754ebdbfc544b05a258336040516109fb9190611132565b60405180910390a1565b5f805f9054906101000a900473ffffffffffffffffffffffffffffffffffffffff16905090565b5f8054906101000a900473ffffffffffffffffffffffffffffffffffffffff1673ffffffffffffffffffffffffffffffffffffffff163373ffffffffffffffffffffffffffffffffffffffff1614610ab9576040517f08c379a0000000000000000000000000000000000000000000000000000000008152600401610ab09061153c565b60405180910390fd5b8060099081610ac8919061190b565b5050565b606060028054610adb906113a6565b80601f0160208091040260200160405190810160405280929190818152602001828054610b07906113a6565b8015610b525780601f10610b2957610100808354040283529160200191610b52565b820191905f5260205f20905b815481529060010190602001808311610b3557829003601f168201915b5050505050905090565b606060098054610b6b906113a6565b80601f0160208091040260200160405190810160405280929190818152602001828054610b97906113a6565b8015610be25780601f10610bb957610100808354040283529160200191610be2565b820191905f5260205f20905b815481529060010190602001808311610bc557829003601f168201915b5050505050905090565b5f8054906101000a900473ffffffffffffffffffffffffffffffffffffffff1673ffffffffffffffffffffffffffffffffffffffff163373ffffffffffffffffffffffffffffffffffffffff1614610c79576040517f08c379a0000000000000000000000000000000000000000000000000000000008152600401610c709061153c565b60405180910390fd5b5f73ffffffffffffffffffffffffffffffffffffffff168173ffffffffffffffffffffffffffffffffffffffff1603610ce7576040517f08c379a0000000000000000000000000000000000000000000000000000000008152600401610cde90611a4a565b60405180910390fd5b8073ffffffffffffffffffffffffffffffffffffffff165f8054906101000a900473ffffffffffffffffffffffffffffffffffffffff1673ffffffffffffffffffffffffffffffffffffffff167f8be0079c531659141344cd1fd0a4f28419497f9722a3daafe3b4186f6b6457e060405160405180910390a3805f806101000a81548173ffffffffffffffffffffffffffffffffffffffff021916908373ffffffffffffffffffffffffffffffffffffffff16021790555050565b5f73ffffffffffffffffffffffffffffffffffffffff168273ffffffffffffffffffffffffffffffffffffffff1603610e10576040517f08c379a0000000000000000000000000000000000000000000000000000000008152600401610e0790611ab2565b60405180910390fd5b5f73ffffffffffffffffffffffffffffffffffffffff1660045f8381526020019081526020015f205f9054906101000a900473ffffffffffffffffffffffffffffffffffffffff1673ffffffffffffffffffffffffffffffffffffffff1614610eae576040517f08c379a0000000000000000000000000000000000000000000000000000000008152600401610ea590611b1a565b60405180910390fd5b8160045f8381526020019081526020015f205f6101000a81548173ffffffffffffffffffffffffffffffffffffffff021916908373ffffffffffffffffffffffffffffffffffffffff160217905550600160055f8473ffffffffffffffffffffffffffffffffffffffff1673ffffffffffffffffffffffffffffffffffffffff1681526020019081526020015f205f828254610f4a9190611b38565b92505081905550808273ffffffffffffffffffffffffffffffffffffffff165f73ffffffffffffffffffffffffffffffffffffffff167fddf252ad1be2c89b69c2b068fc378daa952ba7f163c4a11628f55a4df523b3ef60405160405180910390a4808273ffffffffffffffffffffffffffffffffffffffff167f0f6798a560793a54c3bcfe86a93cde1e73087d944c0ea20544137d412139688560405160405180910390a35050565b5f81519050919050565b5f82825260208201905092915050565b8281835e5f83830152505050565b5f601f19601f8301169050919050565b5f61103682610ff4565b6110408185610ffe565b935061105081856020860161100e565b6110598161101c565b840191505092915050565b5f6020820190508181035f83015261107c818461102c565b905092915050565b5f604051905090565b5f80fd5b5f80fd5b5f819050919050565b6110a781611095565b81146110b1575f80fd5b50565b5f813590506110c28161109e565b92915050565b5f602082840312156110dd576110dc61108d565b5b5f6110ea848285016110b4565b91505092915050565b5f73ffffffffffffffffffffffffffffffffffffffff82169050919050565b5f61111c826110f3565b9050919050565b61112c81611112565b82525050565b5f6020820190506111455f830184611123565b92915050565b61115481611112565b811461115e575f80fd5b50565b5f8135905061116f8161114b565b92915050565b5f806040838503121561118b5761118a61108d565b5b5f61119885828601611161565b92505060206111a9858286016110b4565b9150509250929050565b5f602082840312156111c8576111c761108d565b5b5f6111d584828501611161565b91505092915050565b6111e781611095565b82525050565b5f6020820190506112005f8301846111de565b92915050565b5f80fd5b5f80fd5b7f4e487b71000000000000000000000000000000000000000000000000000000005f52604160045260245ffd5b6112448261101c565b810181811067ffffffffffffffff821117156112635761126261120e565b5b80604052505050565b5f611275611084565b9050611281828261123b565b919050565b5f67ffffffffffffffff8211156112a05761129f61120e565b5b6112a98261101c565b9050602081019050919050565b828183375f83830152505050565b5f6112d66112d184611286565b61126c565b9050828152602081018484840111156112f2576112f161120a565b5b6112fd8482856112b6565b509392505050565b5f82601f83011261131957611318611206565b5b81356113298482602086016112c4565b91505092915050565b5f602082840312156113475761134661108d565b5b5f82013567ffffffffffffffff81111561136457611363611091565b5b61137084828501611305565b91505092915050565b7f4e487b71000000000000000000000000000000000000000000000000000000005f52602260045260245ffd5b5f60028204905060018216806113bd57607f821691505b6020821081036113d0576113cf611379565b5b50919050565b7f4552433732313a20617070726f76616c20746f2063757272656e74206f776e655f8201527f7200000000000000000000000000000000000000000000000000000000000000602082015250565b5f611430602183610ffe565b915061143b826113d6565b604082019050919050565b5f6020820190508181035f83015261145d81611424565b9050919050565b7f4552433732313a20617070726f76652063616c6c6572206973206e6f74206f775f8201527f6e65720000000000000000000000000000000000000000000000000000000000602082015250565b5f6114be602383610ffe565b91506114c982611464565b604082019050919050565b5f6020820190508181035f8301526114eb816114b2565b9050919050565b7f4f776e61626c653a2063616c6c6572206973206e6f7420746865206f776e65725f82015250565b5f611526602083610ffe565b9150611531826114f2565b602082019050919050565b5f6020820190508181035f8301526115538161151a565b9050919050565b7f436f756e74206d7573742062652067726561746572207468616e2030000000005f82015250565b5f61158e601c83610ffe565b91506115998261155a565b602082019050919050565b5f6020820190508181035f8301526115bb81611582565b9050919050565b7f4e487b71000000000000000000000000000000000000000000000000000000005f52601160045260245ffd5b5f6115f982611095565b91507fffffffffffffffffffffffffffffffffffffffffffffffffffffffffffffffff820361162b5761162a6115c2565b5b600182019050919050565b7f5061757361626c653a206e6f74207061757365640000000000000000000000005f82015250565b5f61166a601483610ffe565b915061167582611636565b602082019050919050565b5f6020820190508181035f8301526116978161165e565b9050919050565b7f4552433732313a20696e76616c696420746f6b656e20494400000000000000005f82015250565b5f6116d2601883610ffe565b91506116dd8261169e565b602082019050919050565b5f6020820190508181035f8301526116ff816116c6565b9050919050565b7f5061757361626c653a20706175736564000000000000000000000000000000005f82015250565b5f61173a601083610ffe565b915061174582611706565b602082019050919050565b5f6020820190508181035f8301526117678161172e565b9050919050565b5f819050815f5260205f209050919050565b5f6020601f8301049050919050565b5f82821b905092915050565b5f600883026117ca7fffffffffffffffffffffffffffffffffffffffffffffffffffffffffffffffff8261178f565b6117d4868361178f565b95508019841693508086168417925050509392505050565b5f819050919050565b5f61180f61180a61180584611095565b6117ec565b611095565b9050919050565b5f819050919050565b611828836117f5565b61183c61183482611816565b84845461179b565b825550505050565b5f90565b611850611844565b61185b81848461181f565b505050565b5b8181101561187e576118735f82611848565b600181019050611861565b5050565b601f8211156118c3576118948161176e565b61189d84611780565b810160208510156118ac578190505b6118c06118b885611780565b830182611860565b50505b505050565b5f82821c905092915050565b5f6118e35f19846008026118c8565b1980831691505092915050565b5f6118fb83836118d4565b9150826002028217905092915050565b61191482610ff4565b67ffffffffffffffff81111561192d5761192c61120e565b5b61193782546113a6565b611942828285611882565b5f60209050601f831160018114611973575f8415611961578287015190505b61196b85826118f0565b8655506119d2565b601f1984166119818661176e565b5f5b828110156119a857848901518255600182019150602085019450602081019050611983565b868310156119c557848901516119c1601f8916826118d4565b8355505b6001600288020188555050505b505050505050565b7f4f776e61626c653a206e6577206f776e657220697320746865207a65726f20615f8201527f6464726573730000000000000000000000000000000000000000000000000000602082015250565b5f611a34602683610ffe565b9150611a3f826119da565b604082019050919050565b5f6020820190508181035f830152611a6181611a28565b9050919050565b7f4552433732313a206d696e7420746f20746865207a65726f20616464726573735f82015250565b5f611a9c602083610ffe565b9150611aa782611a68565b602082019050919050565b5f6020820190508181035f830152611ac981611a90565b9050919050565b7f4552433732313a20746f6b656e20616c7265616479206d696e746564000000005f82015250565b5f611b04601c83610ffe565b9150611b0f82611ad0565b602082019050919050565b5f6020820190508181035f830152611b3181611af8565b9050919050565b5f611b4282611095565b9150611b4d83611095565b9250828201905080821115611b6557611b646115c2565b5b9291505056fea26469706673582212201c6be785a61cc20b83717b34eb5239b9f7307f9100b12a5e01846c429093eaf264736f6c634300081a003368747470733a2f2f6d657461646174612e626f6f6d6c616e642e696f2f636f6e74726163742d6d65746164617461",
					"opcodes": "PUSH1 0x80 PUSH1 0x40 MSTORE CALLVALUE DUP1 ISZERO PUSH2 0xF JUMPI PUSH0 DUP1 REVERT JUMPDEST POP PUSH1 0x40 MLOAD PUSH2 0x23F7 CODESIZE SUB DUP1 PUSH2 0x23F7 DUP4 CODECOPY DUP2 DUP2 ADD PUSH1 0x40 MSTORE DUP2 ADD SWAP1 PUSH2 0x31 SWAP2 SWAP1 PUSH2 0x3E1 JUMP JUMPDEST PUSH1 0x40 MLOAD DUP1 PUSH1 0x40 ADD PUSH1 0x40 MSTORE DUP1 PUSH1 0x8 DUP2 MSTORE PUSH1 0x20 ADD PUSH32 0x7665726337323132000000000000000000000000000000000000000000000000 DUP2 MSTORE POP PUSH1 0x40 MLOAD DUP1 PUSH1 0x40 ADD PUSH1 0x40 MSTORE DUP1 PUSH1 0x6 DUP2 MSTORE PUSH1 0x20 ADD PUSH32 0x7645373231320000000000000000000000000000000000000000000000000000 DUP2 MSTORE POP CALLER PUSH0 DUP1 PUSH2 0x100 EXP DUP2 SLOAD DUP2 PUSH20 0xFFFFFFFFFFFFFFFFFFFFFFFFFFFFFFFFFFFFFFFF MUL NOT AND SWAP1 DUP4 PUSH20 0xFFFFFFFFFFFFFFFFFFFFFFFFFFFFFFFFFFFFFFFF AND MUL OR SWAP1 SSTORE POP PUSH0 DUP1 SLOAD SWAP1 PUSH2 0x100 EXP SWAP1 DIV PUSH20 0xFFFFFFFFFFFFFFFFFFFFFFFFFFFFFFFFFFFFFFFF AND PUSH20 0xFFFFFFFFFFFFFFFFFFFFFFFFFFFFFFFFFFFFFFFF AND PUSH0 PUSH20 0xFFFFFFFFFFFFFFFFFFFFFFFFFFFFFFFFFFFFFFFF AND PUSH32 0x8BE0079C531659141344CD1FD0A4F28419497F9722A3DAAFE3B4186F6B6457E0 PUSH1 0x40 MLOAD PUSH1 0x40 MLOAD DUP1 SWAP2 SUB SWAP1 LOG3 DUP2 PUSH1 0x1 SWAP1 DUP2 PUSH2 0x164 SWAP2 SWAP1 PUSH2 0x646 JUMP JUMPDEST POP DUP1 PUSH1 0x2 SWAP1 DUP2 PUSH2 0x174 SWAP2 SWAP1 PUSH2 0x646 JUMP JUMPDEST POP POP POP PUSH0 PUSH1 0x7 PUSH0 PUSH2 0x100 EXP DUP2 SLOAD DUP2 PUSH1 0xFF MUL NOT AND SWAP1 DUP4 ISZERO ISZERO MUL OR SWAP1 SSTORE POP PUSH2 0x19F DUP2 PUSH2 0x1CD PUSH1 0x20 SHL PUSH1 0x20 SHR JUMP JUMPDEST PUSH1 0x40 MLOAD DUP1 PUSH1 0x60 ADD PUSH1 0x40 MSTORE DUP1 PUSH1 0x2E DUP2 MSTORE PUSH1 0x20 ADD PUSH2 0x23C9 PUSH1 0x2E SWAP2 CODECOPY PUSH1 0x9 SWAP1 DUP2 PUSH2 0x1C6 SWAP2 SWAP1 PUSH2 0x646 JUMP JUMPDEST POP POP PUSH2 0x81B JUMP JUMPDEST PUSH0 DUP1 SLOAD SWAP1 PUSH2 0x100 EXP SWAP1 DIV PUSH20 0xFFFFFFFFFFFFFFFFFFFFFFFFFFFFFFFFFFFFFFFF AND PUSH20 0xFFFFFFFFFFFFFFFFFFFFFFFFFFFFFFFFFFFFFFFF AND CALLER PUSH20 0xFFFFFFFFFFFFFFFFFFFFFFFFFFFFFFFFFFFFFFFF AND EQ PUSH2 0x25A JUMPI PUSH1 0x40 MLOAD PUSH32 0x8C379A000000000000000000000000000000000000000000000000000000000 DUP2 MSTORE PUSH1 0x4 ADD PUSH2 0x251 SWAP1 PUSH2 0x76F JUMP JUMPDEST PUSH1 0x40 MLOAD DUP1 SWAP2 SUB SWAP1 REVERT JUMPDEST PUSH0 PUSH20 0xFFFFFFFFFFFFFFFFFFFFFFFFFFFFFFFFFFFFFFFF AND DUP2 PUSH20 0xFFFFFFFFFFFFFFFFFFFFFFFFFFFFFFFFFFFFFFFF AND SUB PUSH2 0x2C8 JUMPI PUSH1 0x40 MLOAD PUSH32 0x8C379A000000000000000000000000000000000000000000000000000000000 DUP2 MSTORE PUSH1 0x4 ADD PUSH2 0x2BF SWAP1 PUSH2 0x7FD JUMP JUMPDEST PUSH1 0x40 MLOAD DUP1 SWAP2 SUB SWAP1 REVERT JUMPDEST DUP1 PUSH20 0xFFFFFFFFFFFFFFFFFFFFFFFFFFFFFFFFFFFFFFFF AND PUSH0 DUP1 SLOAD SWAP1 PUSH2 0x100 EXP SWAP1 DIV PUSH20 0xFFFFFFFFFFFFFFFFFFFFFFFFFFFFFFFFFFFFFFFF AND PUSH20 0xFFFFFFFFFFFFFFFFFFFFFFFFFFFFFFFFFFFFFFFF AND PUSH32 0x8BE0079C531659141344CD1FD0A4F28419497F9722A3DAAFE3B4186F6B6457E0 PUSH1 0x40 MLOAD PUSH1 0x40 MLOAD DUP1 SWAP2 SUB SWAP1 LOG3 DUP1 PUSH0 DUP1 PUSH2 0x100 EXP DUP2 SLOAD DUP2 PUSH20 0xFFFFFFFFFFFFFFFFFFFFFFFFFFFFFFFFFFFFFFFF MUL NOT AND SWAP1 DUP4 PUSH20 0xFFFFFFFFFFFFFFFFFFFFFFFFFFFFFFFFFFFFFFFF AND MUL OR SWAP1 SSTORE POP POP JUMP JUMPDEST PUSH0 DUP1 REVERT JUMPDEST PUSH0 PUSH20 0xFFFFFFFFFFFFFFFFFFFFFFFFFFFFFFFFFFFFFFFF DUP3 AND SWAP1 POP SWAP2 SWAP1 POP JUMP JUMPDEST PUSH0 PUSH2 0x3B0 DUP3 PUSH2 0x387 JUMP JUMPDEST SWAP1 POP SWAP2 SWAP1 POP JUMP JUMPDEST PUSH2 0x3C0 DUP2 PUSH2 0x3A6 JUMP JUMPDEST DUP2 EQ PUSH2 0x3CA JUMPI PUSH0 DUP1 REVERT JUMPDEST POP JUMP JUMPDEST PUSH0 DUP2 MLOAD SWAP1 POP PUSH2 0x3DB DUP2 PUSH2 0x3B7 JUMP JUMPDEST SWAP3 SWAP2 POP POP JUMP JUMPDEST PUSH0 PUSH1 0x20 DUP3 DUP5 SUB SLT ISZERO PUSH2 0x3F6 JUMPI PUSH2 0x3F5 PUSH2 0x383 JUMP JUMPDEST JUMPDEST PUSH0 PUSH2 0x403 DUP5 DUP3 DUP6 ADD PUSH2 0x3CD JUMP JUMPDEST SWAP2 POP POP SWAP3 SWAP2 POP POP JUMP JUMPDEST PUSH0 DUP2 MLOAD SWAP1 POP SWAP2 SWAP1 POP JUMP JUMPDEST PUSH32 0x4E487B7100000000000000000000000000000000000000000000000000000000 PUSH0 MSTORE PUSH1 0x41 PUSH1 0x4 MSTORE PUSH1 0x24 PUSH0 REVERT JUMPDEST PUSH32 0x4E487B7100000000000000000000000000000000000000000000000000000000 PUSH0 MSTORE PUSH1 0x22 PUSH1 0x4 MSTORE PUSH1 0x24 PUSH0 REVERT JUMPDEST PUSH0 PUSH1 0x2 DUP3 DIV SWAP1 POP PUSH1 0x1 DUP3 AND DUP1 PUSH2 0x487 JUMPI PUSH1 0x7F DUP3 AND SWAP2 POP JUMPDEST PUSH1 0x20 DUP3 LT DUP2 SUB PUSH2 0x49A JUMPI PUSH2 0x499 PUSH2 0x443 JUMP JUMPDEST JUMPDEST POP SWAP2 SWAP1 POP JUMP JUMPDEST PUSH0 DUP2 SWAP1 POP DUP2 PUSH0 MSTORE PUSH1 0x20 PUSH0 KECCAK256 SWAP1 POP SWAP2 SWAP1 POP JUMP JUMPDEST PUSH0 PUSH1 0x20 PUSH1 0x1F DUP4 ADD DIV SWAP1 POP SWAP2 SWAP1 POP JUMP JUMPDEST PUSH0 DUP3 DUP3 SHL SWAP1 POP SWAP3 SWAP2 POP POP JUMP JUMPDEST PUSH0 PUSH1 0x8 DUP4 MUL PUSH2 0x4FC PUSH32 0xFFFFFFFFFFFFFFFFFFFFFFFFFFFFFFFFFFFFFFFFFFFFFFFFFFFFFFFFFFFFFFFF DUP3 PUSH2 0x4C1 JUMP JUMPDEST PUSH2 0x506 DUP7 DUP4 PUSH2 0x4C1 JUMP JUMPDEST SWAP6 POP DUP1 NOT DUP5 AND SWAP4 POP DUP1 DUP7 AND DUP5 OR SWAP3 POP POP POP SWAP4 SWAP3 POP POP POP JUMP JUMPDEST PUSH0 DUP2 SWAP1 POP SWAP2 SWAP1 POP JUMP JUMPDEST PUSH0 DUP2 SWAP1 POP SWAP2 SWAP1 POP JUMP JUMPDEST PUSH0 PUSH2 0x54A PUSH2 0x545 PUSH2 0x540 DUP5 PUSH2 0x51E JUMP JUMPDEST PUSH2 0x527 JUMP JUMPDEST PUSH2 0x51E JUMP JUMPDEST SWAP1 POP SWAP2 SWAP1 POP JUMP JUMPDEST PUSH0 DUP2 SWAP1 POP SWAP2 SWAP1 POP JUMP JUMPDEST PUSH2 0x563 DUP4 PUSH2 0x530 JUMP JUMPDEST PUSH2 0x577 PUSH2 0x56F DUP3 PUSH2 0x551 JUMP JUMPDEST DUP5 DUP5 SLOAD PUSH2 0x4CD JUMP JUMPDEST DUP3 SSTORE POP POP POP POP JUMP JUMPDEST PUSH0 SWAP1 JUMP JUMPDEST PUSH2 0x58B PUSH2 0x57F JUMP JUMPDEST PUSH2 0x596 DUP2 DUP5 DUP5 PUSH2 0x55A JUMP JUMPDEST POP POP POP JUMP JUMPDEST JUMPDEST DUP2 DUP2 LT ISZERO PUSH2 0x5B9 JUMPI PUSH2 0x5AE PUSH0 DUP3 PUSH2 0x583 JUMP JUMPDEST PUSH1 0x1 DUP2 ADD SWAP1 POP PUSH2 0x59C JUMP JUMPDEST POP POP JUMP JUMPDEST PUSH1 0x1F DUP3 GT ISZERO PUSH2 0x5FE JUMPI PUSH2 0x5CF DUP2 PUSH2 0x4A0 JUMP JUMPDEST PUSH2 0x5D8 DUP5 PUSH2 0x4B2 JUMP JUMPDEST DUP2 ADD PUSH1 0x20 DUP6 LT ISZERO PUSH2 0x5E7 JUMPI DUP2 SWAP1 POP JUMPDEST PUSH2 0x5FB PUSH2 0x5F3 DUP6 PUSH2 0x4B2 JUMP JUMPDEST DUP4 ADD DUP3 PUSH2 0x59B JUMP JUMPDEST POP POP JUMPDEST POP POP POP JUMP JUMPDEST PUSH0 DUP3 DUP3 SHR SWAP1 POP SWAP3 SWAP2 POP POP JUMP JUMPDEST PUSH0 PUSH2 0x61E PUSH0 NOT DUP5 PUSH1 0x8 MUL PUSH2 0x603 JUMP JUMPDEST NOT DUP1 DUP4 AND SWAP2 POP POP SWAP3 SWAP2 POP POP JUMP JUMPDEST PUSH0 PUSH2 0x636 DUP4 DUP4 PUSH2 0x60F JUMP JUMPDEST SWAP2 POP DUP3 PUSH1 0x2 MUL DUP3 OR SWAP1 POP SWAP3 SWAP2 POP POP JUMP JUMPDEST PUSH2 0x64F DUP3 PUSH2 0x40C JUMP JUMPDEST PUSH8 0xFFFFFFFFFFFFFFFF DUP2 GT ISZERO PUSH2 0x668 JUMPI PUSH2 0x667 PUSH2 0x416 JUMP JUMPDEST JUMPDEST PUSH2 0x672 DUP3 SLOAD PUSH2 0x470 JUMP JUMPDEST PUSH2 0x67D DUP3 DUP3 DUP6 PUSH2 0x5BD JUMP JUMPDEST PUSH0 PUSH1 0x20 SWAP1 POP PUSH1 0x1F DUP4 GT PUSH1 0x1 DUP2 EQ PUSH2 0x6AE JUMPI PUSH0 DUP5 ISZERO PUSH2 0x69C JUMPI DUP3 DUP8 ADD MLOAD SWAP1 POP JUMPDEST PUSH2 0x6A6 DUP6 DUP3 PUSH2 0x62B JUMP JUMPDEST DUP7 SSTORE POP PUSH2 0x70D JUMP JUMPDEST PUSH1 0x1F NOT DUP5 AND PUSH2 0x6BC DUP7 PUSH2 0x4A0 JUMP JUMPDEST PUSH0 JUMPDEST DUP3 DUP2 LT ISZERO PUSH2 0x6E3 JUMPI DUP5 DUP10 ADD MLOAD DUP3 SSTORE PUSH1 0x1 DUP3 ADD SWAP2 POP PUSH1 0x20 DUP6 ADD SWAP5 POP PUSH1 0x20 DUP2 ADD SWAP1 POP PUSH2 0x6BE JUMP JUMPDEST DUP7 DUP4 LT ISZERO PUSH2 0x700 JUMPI DUP5 DUP10 ADD MLOAD PUSH2 0x6FC PUSH1 0x1F DUP10 AND DUP3 PUSH2 0x60F JUMP JUMPDEST DUP4 SSTORE POP JUMPDEST PUSH1 0x1 PUSH1 0x2 DUP9 MUL ADD DUP9 SSTORE POP POP POP JUMPDEST POP POP POP POP POP POP JUMP JUMPDEST PUSH0 DUP3 DUP3 MSTORE PUSH1 0x20 DUP3 ADD SWAP1 POP SWAP3 SWAP2 POP POP JUMP JUMPDEST PUSH32 0x4F776E61626C653A2063616C6C6572206973206E6F7420746865206F776E6572 PUSH0 DUP3 ADD MSTORE POP JUMP JUMPDEST PUSH0 PUSH2 0x759 PUSH1 0x20 DUP4 PUSH2 0x715 JUMP JUMPDEST SWAP2 POP PUSH2 0x764 DUP3 PUSH2 0x725 JUMP JUMPDEST PUSH1 0x20 DUP3 ADD SWAP1 POP SWAP2 SWAP1 POP JUMP JUMPDEST PUSH0 PUSH1 0x20 DUP3 ADD SWAP1 POP DUP2 DUP2 SUB PUSH0 DUP4 ADD MSTORE PUSH2 0x786 DUP2 PUSH2 0x74D JUMP JUMPDEST SWAP1 POP SWAP2 SWAP1 POP JUMP JUMPDEST PUSH32 0x4F776E61626C653A206E6577206F776E657220697320746865207A65726F2061 PUSH0 DUP3 ADD MSTORE PUSH32 0x6464726573730000000000000000000000000000000000000000000000000000 PUSH1 0x20 DUP3 ADD MSTORE POP JUMP JUMPDEST PUSH0 PUSH2 0x7E7 PUSH1 0x26 DUP4 PUSH2 0x715 JUMP JUMPDEST SWAP2 POP PUSH2 0x7F2 DUP3 PUSH2 0x78D JUMP JUMPDEST PUSH1 0x40 DUP3 ADD SWAP1 POP SWAP2 SWAP1 POP JUMP JUMPDEST PUSH0 PUSH1 0x20 DUP3 ADD SWAP1 POP DUP2 DUP2 SUB PUSH0 DUP4 ADD MSTORE PUSH2 0x814 DUP2 PUSH2 0x7DB JUMP JUMPDEST SWAP1 POP SWAP2 SWAP1 POP JUMP JUMPDEST PUSH2 0x1BA1 DUP1 PUSH2 0x828 PUSH0 CODECOPY PUSH0 RETURN INVALID PUSH1 0x80 PUSH1 0x40 MSTORE CALLVALUE DUP1 ISZERO PUSH2 0xF JUMPI PUSH0 DUP1 REVERT JUMPDEST POP PUSH1 0x4 CALLDATASIZE LT PUSH2 0xE8 JUMPI PUSH0 CALLDATALOAD PUSH1 0xE0 SHR DUP1 PUSH4 0x70A08231 GT PUSH2 0x8A JUMPI DUP1 PUSH4 0x938E3D7B GT PUSH2 0x64 JUMPI DUP1 PUSH4 0x938E3D7B EQ PUSH2 0x220 JUMPI DUP1 PUSH4 0x95D89B41 EQ PUSH2 0x23C JUMPI DUP1 PUSH4 0xE8A3D485 EQ PUSH2 0x25A JUMPI DUP1 PUSH4 0xF2FDE38B EQ PUSH2 0x278 JUMPI PUSH2 0xE8 JUMP JUMPDEST DUP1 PUSH4 0x70A08231 EQ PUSH2 0x1C8 JUMPI DUP1 PUSH4 0x8456CB59 EQ PUSH2 0x1F8 JUMPI DUP1 PUSH4 0x8DA5CB5B EQ PUSH2 0x202 JUMPI PUSH2 0xE8 JUMP JUMPDEST DUP1 PUSH4 0x2649D62E GT PUSH2 0xC6 JUMPI DUP1 PUSH4 0x2649D62E EQ PUSH2 0x156 JUMPI DUP1 PUSH4 0x3F4BA83A EQ PUSH2 0x172 JUMPI DUP1 PUSH4 0x40D097C3 EQ PUSH2 0x17C JUMPI DUP1 PUSH4 0x6352211E EQ PUSH2 0x198 JUMPI PUSH2 0xE8 JUMP JUMPDEST DUP1 PUSH4 0x6FDDE03 EQ PUSH2 0xEC JUMPI DUP1 PUSH4 0x81812FC EQ PUSH2 0x10A JUMPI DUP1 PUSH4 0x95EA7B3 EQ PUSH2 0x13A JUMPI JUMPDEST PUSH0 DUP1 REVERT JUMPDEST PUSH2 0xF4 PUSH2 0x294 JUMP JUMPDEST PUSH1 0x40 MLOAD PUSH2 0x101 SWAP2 SWAP1 PUSH2 0x1064 JUMP JUMPDEST PUSH1 0x40 MLOAD DUP1 SWAP2 SUB SWAP1 RETURN JUMPDEST PUSH2 0x124 PUSH1 0x4 DUP1 CALLDATASIZE SUB DUP2 ADD SWAP1 PUSH2 0x11F SWAP2 SWAP1 PUSH2 0x10C8 JUMP JUMPDEST PUSH2 0x324 JUMP JUMPDEST PUSH1 0x40 MLOAD PUSH2 0x131 SWAP2 SWAP1 PUSH2 0x1132 JUMP JUMPDEST PUSH1 0x40 MLOAD DUP1 SWAP2 SUB SWAP1 RETURN JUMPDEST PUSH2 0x154 PUSH1 0x4 DUP1 CALLDATASIZE SUB DUP2 ADD SWAP1 PUSH2 0x14F SWAP2 SWAP1 PUSH2 0x1175 JUMP JUMPDEST PUSH2 0x35D JUMP JUMPDEST STOP JUMPDEST PUSH2 0x170 PUSH1 0x4 DUP1 CALLDATASIZE SUB DUP2 ADD SWAP1 PUSH2 0x16B SWAP2 SWAP1 PUSH2 0x1175 JUMP JUMPDEST PUSH2 0x4F4 JUMP JUMPDEST STOP JUMPDEST PUSH2 0x17A PUSH2 0x603 JUMP JUMPDEST STOP JUMPDEST PUSH2 0x196 PUSH1 0x4 DUP1 CALLDATASIZE SUB DUP2 ADD SWAP1 PUSH2 0x191 SWAP2 SWAP1 PUSH2 0x11B3 JUMP JUMPDEST PUSH2 0x730 JUMP JUMPDEST STOP JUMPDEST PUSH2 0x1B2 PUSH1 0x4 DUP1 CALLDATASIZE SUB DUP2 ADD SWAP1 PUSH2 0x1AD SWAP2 SWAP1 PUSH2 0x10C8 JUMP JUMPDEST PUSH2 0x7E4 JUMP JUMPDEST PUSH1 0x40 MLOAD PUSH2 0x1BF SWAP2 SWAP1 PUSH2 0x1132 JUMP JUMPDEST PUSH1 0x40 MLOAD DUP1 SWAP2 SUB SWAP1 RETURN JUMPDEST PUSH2 0x1E2 PUSH1 0x4 DUP1 CALLDATASIZE SUB DUP2 ADD SWAP1 PUSH2 0x1DD SWAP2 SWAP1 PUSH2 0x11B3 JUMP JUMPDEST PUSH2 0x890 JUMP JUMPDEST PUSH1 0x40 MLOAD PUSH2 0x1EF SWAP2 SWAP1 PUSH2 0x11ED JUMP JUMPDEST PUSH1 0x40 MLOAD DUP1 SWAP2 SUB SWAP1 RETURN JUMPDEST PUSH2 0x200 PUSH2 0x8D6 JUMP JUMPDEST STOP JUMPDEST PUSH2 0x20A PUSH2 0xA05 JUMP JUMPDEST PUSH1 0x40 MLOAD PUSH2 0x217 SWAP2 SWAP1 PUSH2 0x1132 JUMP JUMPDEST PUSH1 0x40 MLOAD DUP1 SWAP2 SUB SWAP1 RETURN JUMPDEST PUSH2 0x23A PUSH1 0x4 DUP1 CALLDATASIZE SUB DUP2 ADD SWAP1 PUSH2 0x235 SWAP2 SWAP1 PUSH2 0x1332 JUMP JUMPDEST PUSH2 0xA2C JUMP JUMPDEST STOP JUMPDEST PUSH2 0x244 PUSH2 0xACC JUMP JUMPDEST PUSH1 0x40 MLOAD PUSH2 0x251 SWAP2 SWAP1 PUSH2 0x1064 JUMP JUMPDEST PUSH1 0x40 MLOAD DUP1 SWAP2 SUB SWAP1 RETURN JUMPDEST PUSH2 0x262 PUSH2 0xB5C JUMP JUMPDEST PUSH1 0x40 MLOAD PUSH2 0x26F SWAP2 SWAP1 PUSH2 0x1064 JUMP JUMPDEST PUSH1 0x40 MLOAD DUP1 SWAP2 SUB SWAP1 RETURN JUMPDEST PUSH2 0x292 PUSH1 0x4 DUP1 CALLDATASIZE SUB DUP2 ADD SWAP1 PUSH2 0x28D SWAP2 SWAP1 PUSH2 0x11B3 JUMP JUMPDEST PUSH2 0xBEC JUMP JUMPDEST STOP JUMPDEST PUSH1 0x60 PUSH1 0x1 DUP1 SLOAD PUSH2 0x2A3 SWAP1 PUSH2 0x13A6 JUMP JUMPDEST DUP1 PUSH1 0x1F ADD PUSH1 0x20 DUP1 SWAP2 DIV MUL PUSH1 0x20 ADD PUSH1 0x40 MLOAD SWAP1 DUP2 ADD PUSH1 0x40 MSTORE DUP1 SWAP3 SWAP2 SWAP1 DUP2 DUP2 MSTORE PUSH1 0x20 ADD DUP3 DUP1 SLOAD PUSH2 0x2CF SWAP1 PUSH2 0x13A6 JUMP JUMPDEST DUP1 ISZERO PUSH2 0x31A JUMPI DUP1 PUSH1 0x1F LT PUSH2 0x2F1 JUMPI PUSH2 0x100 DUP1 DUP4 SLOAD DIV MUL DUP4 MSTORE SWAP2 PUSH1 0x20 ADD SWAP2 PUSH2 0x31A JUMP JUMPDEST DUP3 ADD SWAP2 SWAP1 PUSH0 MSTORE PUSH1 0x20 PUSH0 KECCAK256 SWAP1 JUMPDEST DUP2 SLOAD DUP2 MSTORE SWAP1 PUSH1 0x1 ADD SWAP1 PUSH1 0x20 ADD DUP1 DUP4 GT PUSH2 0x2FD JUMPI DUP3 SWAP1 SUB PUSH1 0x1F AND DUP3 ADD SWAP2 JUMPDEST POP POP POP POP POP SWAP1 POP SWAP1 JUMP JUMPDEST PUSH0 PUSH1 0x6 PUSH0 DUP4 DUP2 MSTORE PUSH1 0x20 ADD SWAP1 DUP2 MSTORE PUSH1 0x20 ADD PUSH0 KECCAK256 PUSH0 SWAP1 SLOAD SWAP1 PUSH2 0x100 EXP SWAP1 DIV PUSH20 0xFFFFFFFFFFFFFFFFFFFFFFFFFFFFFFFFFFFFFFFF AND SWAP1 POP SWAP2 SWAP1 POP JUMP JUMPDEST PUSH0 PUSH2 0x367 DUP3 PUSH2 0x7E4 JUMP JUMPDEST SWAP1 POP DUP1 PUSH20 0xFFFFFFFFFFFFFFFFFFFFFFFFFFFFFFFFFFFFFFFF AND DUP4 PUSH20 0xFFFFFFFFFFFFFFFFFFFFFFFFFFFFFFFFFFFFFFFF AND SUB PUSH2 0x3D7 JUMPI PUSH1 0x40 MLOAD PUSH32 0x8C379A000000000000000000000000000000000000000000000000000000000 DUP2 MSTORE PUSH1 0x4 ADD PUSH2 0x3CE SWAP1 PUSH2 0x1446 JUMP JUMPDEST PUSH1 0x40 MLOAD DUP1 SWAP2 SUB SWAP1 REVERT JUMPDEST DUP1 PUSH20 0xFFFFFFFFFFFFFFFFFFFFFFFFFFFFFFFFFFFFFFFF AND CALLER PUSH20 0xFFFFFFFFFFFFFFFFFFFFFFFFFFFFFFFFFFFFFFFF AND EQ PUSH2 0x445 JUMPI PUSH1 0x40 MLOAD PUSH32 0x8C379A000000000000000000000000000000000000000000000000000000000 DUP2 MSTORE PUSH1 0x4 ADD PUSH2 0x43C SWAP1 PUSH2 0x14D4 JUMP JUMPDEST PUSH1 0x40 MLOAD DUP1 SWAP2 SUB SWAP1 REVERT JUMPDEST DUP3 PUSH1 0x6 PUSH0 DUP5 DUP2 MSTORE PUSH1 0x20 ADD SWAP1 DUP2 MSTORE PUSH1 0x20 ADD PUSH0 KECCAK256 PUSH0 PUSH2 0x100 EXP DUP2 SLOAD DUP2 PUSH20 0xFFFFFFFFFFFFFFFFFFFFFFFFFFFFFFFFFFFFFFFF MUL NOT AND SWAP1 DUP4 PUSH20 0xFFFFFFFFFFFFFFFFFFFFFFFFFFFFFFFFFFFFFFFF AND MUL OR SWAP1 SSTORE POP DUP2 DUP4 PUSH20 0xFFFFFFFFFFFFFFFFFFFFFFFFFFFFFFFFFFFFFFFF AND DUP3 PUSH20 0xFFFFFFFFFFFFFFFFFFFFFFFFFFFFFFFFFFFFFFFF AND PUSH32 0x8C5BE1E5EBEC7D5BD14F71427D1E84F3DD0314C0F7B2291E5B200AC8C7C3B925 PUSH1 0x40 MLOAD PUSH1 0x40 MLOAD DUP1 SWAP2 SUB SWAP1 LOG4 POP POP POP JUMP JUMPDEST PUSH0 DUP1 SLOAD SWAP1 PUSH2 0x100 EXP SWAP1 DIV PUSH20 0xFFFFFFFFFFFFFFFFFFFFFFFFFFFFFFFFFFFFFFFF AND PUSH20 0xFFFFFFFFFFFFFFFFFFFFFFFFFFFFFFFFFFFFFFFF AND CALLER PUSH20 0xFFFFFFFFFFFFFFFFFFFFFFFFFFFFFFFFFFFFFFFF AND EQ PUSH2 0x581 JUMPI PUSH1 0x40 MLOAD PUSH32 0x8C379A000000000000000000000000000000000000000000000000000000000 DUP2 MSTORE PUSH1 0x4 ADD PUSH2 0x578 SWAP1 PUSH2 0x153C JUMP JUMPDEST PUSH1 0x40 MLOAD DUP1 SWAP2 SUB SWAP1 REVERT JUMPDEST PUSH0 DUP2 GT PUSH2 0x5C3 JUMPI PUSH1 0x40 MLOAD PUSH32 0x8C379A000000000000000000000000000000000000000000000000000000000 DUP2 MSTORE PUSH1 0x4 ADD PUSH2 0x5BA SWAP1 PUSH2 0x15A4 JUMP JUMPDEST PUSH1 0x40 MLOAD DUP1 SWAP2 SUB SWAP1 REVERT JUMPDEST PUSH0 JUMPDEST DUP2 DUP2 LT ISZERO PUSH2 0x5FE JUMPI PUSH0 PUSH1 0x8 PUSH0 DUP2 SLOAD DUP1 SWAP3 SWAP2 SWAP1 PUSH2 0x5E0 SWAP1 PUSH2 0x15EF JUMP JUMPDEST SWAP2 SWAP1 POP SSTORE SWAP1 POP PUSH2 0x5F0 DUP5 DUP3 PUSH2 0xDA2 JUMP JUMPDEST POP DUP1 DUP1 PUSH1 0x1 ADD SWAP2 POP POP PUSH2 0x5C5 JUMP JUMPDEST POP POP POP JUMP JUMPDEST PUSH0 DUP1 SLOAD SWAP1 PUSH2 0x100 EXP SWAP1 DIV PUSH20 0xFFFFFFFFFFFFFFFFFFFFFFFFFFFFFFFFFFFFFFFF AND PUSH20 0xFFFFFFFFFFFFFFFFFFFFFFFFFFFFFFFFFFFFFFFF AND CALLER PUSH20 0xFFFFFFFFFFFFFFFFFFFFFFFFFFFFFFFFFFFFFFFF AND EQ PUSH2 0x690 JUMPI PUSH1 0x40 MLOAD PUSH32 0x8C379A000000000000000000000000000000000000000000000000000000000 DUP2 MSTORE PUSH1 0x4 ADD PUSH2 0x687 SWAP1 PUSH2 0x153C JUMP JUMPDEST PUSH1 0x40 MLOAD DUP1 SWAP2 SUB SWAP1 REVERT JUMPDEST PUSH1 0x7 PUSH0 SWAP1 SLOAD SWAP1 PUSH2 0x100 EXP SWAP1 DIV PUSH1 0xFF AND PUSH2 0x6DE JUMPI PUSH1 0x40 MLOAD PUSH32 0x8C379A000000000000000000000000000000000000000000000000000000000 DUP2 MSTORE PUSH1 0x4 ADD PUSH2 0x6D5 SWAP1 PUSH2 0x1680 JUMP JUMPDEST PUSH1 0x40 MLOAD DUP1 SWAP2 SUB SWAP1 REVERT JUMPDEST PUSH0 PUSH1 0x7 PUSH0 PUSH2 0x100 EXP DUP2 SLOAD DUP2 PUSH1 0xFF MUL NOT AND SWAP1 DUP4 ISZERO ISZERO MUL OR SWAP1 SSTORE POP PUSH32 0x5DB9EE0A495BF2E6FF9C91A7834C1BA4FDD244A5E8AA4E537BD38AEAE4B073AA CALLER PUSH1 0x40 MLOAD PUSH2 0x726 SWAP2 SWAP1 PUSH2 0x1132 JUMP JUMPDEST PUSH1 0x40 MLOAD DUP1 SWAP2 SUB SWAP1 LOG1 JUMP JUMPDEST PUSH0 DUP1 SLOAD SWAP1 PUSH2 0x100 EXP SWAP1 DIV PUSH20 0xFFFFFFFFFFFFFFFFFFFFFFFFFFFFFFFFFFFFFFFF AND PUSH20 0xFFFFFFFFFFFFFFFFFFFFFFFFFFFFFFFFFFFFFFFF AND CALLER PUSH20 0xFFFFFFFFFFFFFFFFFFFFFFFFFFFFFFFFFFFFFFFF AND EQ PUSH2 0x7BD JUMPI PUSH1 0x40 MLOAD PUSH32 0x8C379A000000000000000000000000000000000000000000000000000000000 DUP2 MSTORE PUSH1 0x4 ADD PUSH2 0x7B4 SWAP1 PUSH2 0x153C JUMP JUMPDEST PUSH1 0x40 MLOAD DUP1 SWAP2 SUB SWAP1 REVERT JUMPDEST PUSH0 PUSH1 0x8 PUSH0 DUP2 SLOAD DUP1 SWAP3 SWAP2 SWAP1 PUSH2 0x7D0 SWAP1 PUSH2 0x15EF JUMP JUMPDEST SWAP2 SWAP1 POP SSTORE SWAP1 POP PUSH2 0x7E0 DUP3 DUP3 PUSH2 0xDA2 JUMP JUMPDEST POP POP JUMP JUMPDEST PUSH0 DUP1 PUSH1 0x4 PUSH0 DUP5 DUP2 MSTORE PUSH1 0x20 ADD SWAP1 DUP2 MSTORE PUSH1 0x20 ADD PUSH0 KECCAK256 PUSH0 SWAP1 SLOAD SWAP1 PUSH2 0x100 EXP SWAP1 DIV PUSH20 0xFFFFFFFFFFFFFFFFFFFFFFFFFFFFFFFFFFFFFFFF AND SWAP1 POP PUSH0 PUSH20 0xFFFFFFFFFFFFFFFFFFFFFFFFFFFFFFFFFFFFFFFF AND DUP2 PUSH20 0xFFFFFFFFFFFFFFFFFFFFFFFFFFFFFFFFFFFFFFFF AND SUB PUSH2 0x887 JUMPI PUSH1 0x40 MLOAD PUSH32 0x8C379A000000000000000000000000000000000000000000000000000000000 DUP2 MSTORE PUSH1 0x4 ADD PUSH2 0x87E SWAP1 PUSH2 0x16E8 JUMP JUMPDEST PUSH1 0x40 MLOAD DUP1 SWAP2 SUB SWAP1 REVERT JUMPDEST DUP1 SWAP2 POP POP SWAP2 SWAP1 POP JUMP JUMPDEST PUSH0 PUSH1 0x5 PUSH0 DUP4 PUSH20 0xFFFFFFFFFFFFFFFFFFFFFFFFFFFFFFFFFFFFFFFF AND PUSH20 0xFFFFFFFFFFFFFFFFFFFFFFFFFFFFFFFFFFFFFFFF AND DUP2 MSTORE PUSH1 0x20 ADD SWAP1 DUP2 MSTORE PUSH1 0x20 ADD PUSH0 KECCAK256 SLOAD SWAP1 POP SWAP2 SWAP1 POP JUMP JUMPDEST PUSH0 DUP1 SLOAD SWAP1 PUSH2 0x100 EXP SWAP1 DIV PUSH20 0xFFFFFFFFFFFFFFFFFFFFFFFFFFFFFFFFFFFFFFFF AND PUSH20 0xFFFFFFFFFFFFFFFFFFFFFFFFFFFFFFFFFFFFFFFF AND CALLER PUSH20 0xFFFFFFFFFFFFFFFFFFFFFFFFFFFFFFFFFFFFFFFF AND EQ PUSH2 0x963 JUMPI PUSH1 0x40 MLOAD PUSH32 0x8C379A000000000000000000000000000000000000000000000000000000000 DUP2 MSTORE PUSH1 0x4 ADD PUSH2 0x95A SWAP1 PUSH2 0x153C JUMP JUMPDEST PUSH1 0x40 MLOAD DUP1 SWAP2 SUB SWAP1 REVERT JUMPDEST PUSH1 0x7 PUSH0 SWAP1 SLOAD SWAP1 PUSH2 0x100 EXP SWAP1 DIV PUSH1 0xFF AND ISZERO PUSH2 0x9B2 JUMPI PUSH1 0x40 MLOAD PUSH32 0x8C379A000000000000000000000000000000000000000000000000000000000 DUP2 MSTORE PUSH1 0x4 ADD PUSH2 0x9A9 SWAP1 PUSH2 0x1750 JUMP JUMPDEST PUSH1 0x40 MLOAD DUP1 SWAP2 SUB SWAP1 REVERT JUMPDEST PUSH1 0x1 PUSH1 0x7 PUSH0 PUSH2 0x100 EXP DUP2 SLOAD DUP2 PUSH1 0xFF MUL NOT AND SWAP1 DUP4 ISZERO ISZERO MUL OR SWAP1 SSTORE POP PUSH32 0x62E78CEA01BEE320CD4E420270B5EA74000D11B0C9F74754EBDBFC544B05A258 CALLER PUSH1 0x40 MLOAD PUSH2 0x9FB SWAP2 SWAP1 PUSH2 0x1132 JUMP JUMPDEST PUSH1 0x40 MLOAD DUP1 SWAP2 SUB SWAP1 LOG1 JUMP JUMPDEST PUSH0 DUP1 PUSH0 SWAP1 SLOAD SWAP1 PUSH2 0x100 EXP SWAP1 DIV PUSH20 0xFFFFFFFFFFFFFFFFFFFFFFFFFFFFFFFFFFFFFFFF AND SWAP1 POP SWAP1 JUMP JUMPDEST PUSH0 DUP1 SLOAD SWAP1 PUSH2 0x100 EXP SWAP1 DIV PUSH20 0xFFFFFFFFFFFFFFFFFFFFFFFFFFFFFFFFFFFFFFFF AND PUSH20 0xFFFFFFFFFFFFFFFFFFFFFFFFFFFFFFFFFFFFFFFF AND CALLER PUSH20 0xFFFFFFFFFFFFFFFFFFFFFFFFFFFFFFFFFFFFFFFF AND EQ PUSH2 0xAB9 JUMPI PUSH1 0x40 MLOAD PUSH32 0x8C379A000000000000000000000000000000000000000000000000000000000 DUP2 MSTORE PUSH1 0x4 ADD PUSH2 0xAB0 SWAP1 PUSH2 0x153C JUMP JUMPDEST PUSH1 0x40 MLOAD DUP1 SWAP2 SUB SWAP1 REVERT JUMPDEST DUP1 PUSH1 0x9 SWAP1 DUP2 PUSH2 0xAC8 SWAP2 SWAP1 PUSH2 0x190B JUMP JUMPDEST POP POP JUMP JUMPDEST PUSH1 0x60 PUSH1 0x2 DUP1 SLOAD PUSH2 0xADB SWAP1 PUSH2 0x13A6 JUMP JUMPDEST DUP1 PUSH1 0x1F ADD PUSH1 0x20 DUP1 SWAP2 DIV MUL PUSH1 0x20 ADD PUSH1 0x40 MLOAD SWAP1 DUP2 ADD PUSH1 0x40 MSTORE DUP1 SWAP3 SWAP2 SWAP1 DUP2 DUP2 MSTORE PUSH1 0x20 ADD DUP3 DUP1 SLOAD PUSH2 0xB07 SWAP1 PUSH2 0x13A6 JUMP JUMPDEST DUP1 ISZERO PUSH2 0xB52 JUMPI DUP1 PUSH1 0x1F LT PUSH2 0xB29 JUMPI PUSH2 0x100 DUP1 DUP4 SLOAD DIV MUL DUP4 MSTORE SWAP2 PUSH1 0x20 ADD SWAP2 PUSH2 0xB52 JUMP JUMPDEST DUP3 ADD SWAP2 SWAP1 PUSH0 MSTORE PUSH1 0x20 PUSH0 KECCAK256 SWAP1 JUMPDEST DUP2 SLOAD DUP2 MSTORE SWAP1 PUSH1 0x1 ADD SWAP1 PUSH1 0x20 ADD DUP1 DUP4 GT PUSH2 0xB35 JUMPI DUP3 SWAP1 SUB PUSH1 0x1F AND DUP3 ADD SWAP2 JUMPDEST POP POP POP POP POP SWAP1 POP SWAP1 JUMP JUMPDEST PUSH1 0x60 PUSH1 0x9 DUP1 SLOAD PUSH2 0xB6B SWAP1 PUSH2 0x13A6 JUMP JUMPDEST DUP1 PUSH1 0x1F ADD PUSH1 0x20 DUP1 SWAP2 DIV MUL PUSH1 0x20 ADD PUSH1 0x40 MLOAD SWAP1 DUP2 ADD PUSH1 0x40 MSTORE DUP1 SWAP3 SWAP2 SWAP1 DUP2 DUP2 MSTORE PUSH1 0x20 ADD DUP3 DUP1 SLOAD PUSH2 0xB97 SWAP1 PUSH2 0x13A6 JUMP JUMPDEST DUP1 ISZERO PUSH2 0xBE2 JUMPI DUP1 PUSH1 0x1F LT PUSH2 0xBB9 JUMPI PUSH2 0x100 DUP1 DUP4 SLOAD DIV MUL DUP4 MSTORE SWAP2 PUSH1 0x20 ADD SWAP2 PUSH2 0xBE2 JUMP JUMPDEST DUP3 ADD SWAP2 SWAP1 PUSH0 MSTORE PUSH1 0x20 PUSH0 KECCAK256 SWAP1 JUMPDEST DUP2 SLOAD DUP2 MSTORE SWAP1 PUSH1 0x1 ADD SWAP1 PUSH1 0x20 ADD DUP1 DUP4 GT PUSH2 0xBC5 JUMPI DUP3 SWAP1 SUB PUSH1 0x1F AND DUP3 ADD SWAP2 JUMPDEST POP POP POP POP POP SWAP1 POP SWAP1 JUMP JUMPDEST PUSH0 DUP1 SLOAD SWAP1 PUSH2 0x100 EXP SWAP1 DIV PUSH20 0xFFFFFFFFFFFFFFFFFFFFFFFFFFFFFFFFFFFFFFFF AND PUSH20 0xFFFFFFFFFFFFFFFFFFFFFFFFFFFFFFFFFFFFFFFF AND CALLER PUSH20 0xFFFFFFFFFFFFFFFFFFFFFFFFFFFFFFFFFFFFFFFF AND EQ PUSH2 0xC79 JUMPI PUSH1 0x40 MLOAD PUSH32 0x8C379A000000000000000000000000000000000000000000000000000000000 DUP2 MSTORE PUSH1 0x4 ADD PUSH2 0xC70 SWAP1 PUSH2 0x153C JUMP JUMPDEST PUSH1 0x40 MLOAD DUP1 SWAP2 SUB SWAP1 REVERT JUMPDEST PUSH0 PUSH20 0xFFFFFFFFFFFFFFFFFFFFFFFFFFFFFFFFFFFFFFFF AND DUP2 PUSH20 0xFFFFFFFFFFFFFFFFFFFFFFFFFFFFFFFFFFFFFFFF AND SUB PUSH2 0xCE7 JUMPI PUSH1 0x40 MLOAD PUSH32 0x8C379A000000000000000000000000000000000000000000000000000000000 DUP2 MSTORE PUSH1 0x4 ADD PUSH2 0xCDE SWAP1 PUSH2 0x1A4A JUMP JUMPDEST PUSH1 0x40 MLOAD DUP1 SWAP2 SUB SWAP1 REVERT JUMPDEST DUP1 PUSH20 0xFFFFFFFFFFFFFFFFFFFFFFFFFFFFFFFFFFFFFFFF AND PUSH0 DUP1 SLOAD SWAP1 PUSH2 0x100 EXP SWAP1 DIV PUSH20 0xFFFFFFFFFFFFFFFFFFFFFFFFFFFFFFFFFFFFFFFF AND PUSH20 0xFFFFFFFFFFFFFFFFFFFFFFFFFFFFFFFFFFFFFFFF AND PUSH32 0x8BE0079C531659141344CD1FD0A4F28419497F9722A3DAAFE3B4186F6B6457E0 PUSH1 0x40 MLOAD PUSH1 0x40 MLOAD DUP1 SWAP2 SUB SWAP1 LOG3 DUP1 PUSH0 DUP1 PUSH2 0x100 EXP DUP2 SLOAD DUP2 PUSH20 0xFFFFFFFFFFFFFFFFFFFFFFFFFFFFFFFFFFFFFFFF MUL NOT AND SWAP1 DUP4 PUSH20 0xFFFFFFFFFFFFFFFFFFFFFFFFFFFFFFFFFFFFFFFF AND MUL OR SWAP1 SSTORE POP POP JUMP JUMPDEST PUSH0 PUSH20 0xFFFFFFFFFFFFFFFFFFFFFFFFFFFFFFFFFFFFFFFF AND DUP3 PUSH20 0xFFFFFFFFFFFFFFFFFFFFFFFFFFFFFFFFFFFFFFFF AND SUB PUSH2 0xE10 JUMPI PUSH1 0x40 MLOAD PUSH32 0x8C379A000000000000000000000000000000000000000000000000000000000 DUP2 MSTORE PUSH1 0x4 ADD PUSH2 0xE07 SWAP1 PUSH2 0x1AB2 JUMP JUMPDEST PUSH1 0x40 MLOAD DUP1 SWAP2 SUB SWAP1 REVERT JUMPDEST PUSH0 PUSH20 0xFFFFFFFFFFFFFFFFFFFFFFFFFFFFFFFFFFFFFFFF AND PUSH1 0x4 PUSH0 DUP4 DUP2 MSTORE PUSH1 0x20 ADD SWAP1 DUP2 MSTORE PUSH1 0x20 ADD PUSH0 KECCAK256 PUSH0 SWAP1 SLOAD SWAP1 PUSH2 0x100 EXP SWAP1 DIV PUSH20 0xFFFFFFFFFFFFFFFFFFFFFFFFFFFFFFFFFFFFFFFF AND PUSH20 0xFFFFFFFFFFFFFFFFFFFFFFFFFFFFFFFFFFFFFFFF AND EQ PUSH2 0xEAE JUMPI PUSH1 0x40 MLOAD PUSH32 0x8C379A000000000000000000000000000000000000000000000000000000000 DUP2 MSTORE PUSH1 0x4 ADD PUSH2 0xEA5 SWAP1 PUSH2 0x1B1A JUMP JUMPDEST PUSH1 0x40 MLOAD DUP1 SWAP2 SUB SWAP1 REVERT JUMPDEST DUP2 PUSH1 0x4 PUSH0 DUP4 DUP2 MSTORE PUSH1 0x20 ADD SWAP1 DUP2 MSTORE PUSH1 0x20 ADD PUSH0 KECCAK256 PUSH0 PUSH2 0x100 EXP DUP2 SLOAD DUP2 PUSH20 0xFFFFFFFFFFFFFFFFFFFFFFFFFFFFFFFFFFFFFFFF MUL NOT AND SWAP1 DUP4 PUSH20 0xFFFFFFFFFFFFFFFFFFFFFFFFFFFFFFFFFFFFFFFF AND MUL OR SWAP1 SSTORE POP PUSH1 0x1 PUSH1 0x5 PUSH0 DUP5 PUSH20 0xFFFFFFFFFFFFFFFFFFFFFFFFFFFFFFFFFFFFFFFF AND PUSH20 0xFFFFFFFFFFFFFFFFFFFFFFFFFFFFFFFFFFFFFFFF AND DUP2 MSTORE PUSH1 0x20 ADD SWAP1 DUP2 MSTORE PUSH1 0x20 ADD PUSH0 KECCAK256 PUSH0 DUP3 DUP3 SLOAD PUSH2 0xF4A SWAP2 SWAP1 PUSH2 0x1B38 JUMP JUMPDEST SWAP3 POP POP DUP2 SWAP1 SSTORE POP DUP1 DUP3 PUSH20 0xFFFFFFFFFFFFFFFFFFFFFFFFFFFFFFFFFFFFFFFF AND PUSH0 PUSH20 0xFFFFFFFFFFFFFFFFFFFFFFFFFFFFFFFFFFFFFFFF AND PUSH32 0xDDF252AD1BE2C89B69C2B068FC378DAA952BA7F163C4A11628F55A4DF523B3EF PUSH1 0x40 MLOAD PUSH1 0x40 MLOAD DUP1 SWAP2 SUB SWAP1 LOG4 DUP1 DUP3 PUSH20 0xFFFFFFFFFFFFFFFFFFFFFFFFFFFFFFFFFFFFFFFF AND PUSH32 0xF6798A560793A54C3BCFE86A93CDE1E73087D944C0EA20544137D4121396885 PUSH1 0x40 MLOAD PUSH1 0x40 MLOAD DUP1 SWAP2 SUB SWAP1 LOG3 POP POP JUMP JUMPDEST PUSH0 DUP2 MLOAD SWAP1 POP SWAP2 SWAP1 POP JUMP JUMPDEST PUSH0 DUP3 DUP3 MSTORE PUSH1 0x20 DUP3 ADD SWAP1 POP SWAP3 SWAP2 POP POP JUMP JUMPDEST DUP3 DUP2 DUP4 MCOPY PUSH0 DUP4 DUP4 ADD MSTORE POP POP POP JUMP JUMPDEST PUSH0 PUSH1 0x1F NOT PUSH1 0x1F DUP4 ADD AND SWAP1 POP SWAP2 SWAP1 POP JUMP JUMPDEST PUSH0 PUSH2 0x1036 DUP3 PUSH2 0xFF4 JUMP JUMPDEST PUSH2 0x1040 DUP2 DUP6 PUSH2 0xFFE JUMP JUMPDEST SWAP4 POP PUSH2 0x1050 DUP2 DUP6 PUSH1 0x20 DUP7 ADD PUSH2 0x100E JUMP JUMPDEST PUSH2 0x1059 DUP2 PUSH2 0x101C JUMP JUMPDEST DUP5 ADD SWAP2 POP POP SWAP3 SWAP2 POP POP JUMP JUMPDEST PUSH0 PUSH1 0x20 DUP3 ADD SWAP1 POP DUP2 DUP2 SUB PUSH0 DUP4 ADD MSTORE PUSH2 0x107C DUP2 DUP5 PUSH2 0x102C JUMP JUMPDEST SWAP1 POP SWAP3 SWAP2 POP POP JUMP JUMPDEST PUSH0 PUSH1 0x40 MLOAD SWAP1 POP SWAP1 JUMP JUMPDEST PUSH0 DUP1 REVERT JUMPDEST PUSH0 DUP1 REVERT JUMPDEST PUSH0 DUP2 SWAP1 POP SWAP2 SWAP1 POP JUMP JUMPDEST PUSH2 0x10A7 DUP2 PUSH2 0x1095 JUMP JUMPDEST DUP2 EQ PUSH2 0x10B1 JUMPI PUSH0 DUP1 REVERT JUMPDEST POP JUMP JUMPDEST PUSH0 DUP2 CALLDATALOAD SWAP1 POP PUSH2 0x10C2 DUP2 PUSH2 0x109E JUMP JUMPDEST SWAP3 SWAP2 POP POP JUMP JUMPDEST PUSH0 PUSH1 0x20 DUP3 DUP5 SUB SLT ISZERO PUSH2 0x10DD JUMPI PUSH2 0x10DC PUSH2 0x108D JUMP JUMPDEST JUMPDEST PUSH0 PUSH2 0x10EA DUP5 DUP3 DUP6 ADD PUSH2 0x10B4 JUMP JUMPDEST SWAP2 POP POP SWAP3 SWAP2 POP POP JUMP JUMPDEST PUSH0 PUSH20 0xFFFFFFFFFFFFFFFFFFFFFFFFFFFFFFFFFFFFFFFF DUP3 AND SWAP1 POP SWAP2 SWAP1 POP JUMP JUMPDEST PUSH0 PUSH2 0x111C DUP3 PUSH2 0x10F3 JUMP JUMPDEST SWAP1 POP SWAP2 SWAP1 POP JUMP JUMPDEST PUSH2 0x112C DUP2 PUSH2 0x1112 JUMP JUMPDEST DUP3 MSTORE POP POP JUMP JUMPDEST PUSH0 PUSH1 0x20 DUP3 ADD SWAP1 POP PUSH2 0x1145 PUSH0 DUP4 ADD DUP5 PUSH2 0x1123 JUMP JUMPDEST SWAP3 SWAP2 POP POP JUMP JUMPDEST PUSH2 0x1154 DUP2 PUSH2 0x1112 JUMP JUMPDEST DUP2 EQ PUSH2 0x115E JUMPI PUSH0 DUP1 REVERT JUMPDEST POP JUMP JUMPDEST PUSH0 DUP2 CALLDATALOAD SWAP1 POP PUSH2 0x116F DUP2 PUSH2 0x114B JUMP JUMPDEST SWAP3 SWAP2 POP POP JUMP JUMPDEST PUSH0 DUP1 PUSH1 0x40 DUP4 DUP6 SUB SLT ISZERO PUSH2 0x118B JUMPI PUSH2 0x118A PUSH2 0x108D JUMP JUMPDEST JUMPDEST PUSH0 PUSH2 0x1198 DUP6 DUP3 DUP7 ADD PUSH2 0x1161 JUMP JUMPDEST SWAP3 POP POP PUSH1 0x20 PUSH2 0x11A9 DUP6 DUP3 DUP7 ADD PUSH2 0x10B4 JUMP JUMPDEST SWAP2 POP POP SWAP3 POP SWAP3 SWAP1 POP JUMP JUMPDEST PUSH0 PUSH1 0x20 DUP3 DUP5 SUB SLT ISZERO PUSH2 0x11C8 JUMPI PUSH2 0x11C7 PUSH2 0x108D JUMP JUMPDEST JUMPDEST PUSH0 PUSH2 0x11D5 DUP5 DUP3 DUP6 ADD PUSH2 0x1161 JUMP JUMPDEST SWAP2 POP POP SWAP3 SWAP2 POP POP JUMP JUMPDEST PUSH2 0x11E7 DUP2 PUSH2 0x1095 JUMP JUMPDEST DUP3 MSTORE POP POP JUMP JUMPDEST PUSH0 PUSH1 0x20 DUP3 ADD SWAP1 POP PUSH2 0x1200 PUSH0 DUP4 ADD DUP5 PUSH2 0x11DE JUMP JUMPDEST SWAP3 SWAP2 POP POP JUMP JUMPDEST PUSH0 DUP1 REVERT JUMPDEST PUSH0 DUP1 REVERT JUMPDEST PUSH32 0x4E487B7100000000000000000000000000000000000000000000000000000000 PUSH0 MSTORE PUSH1 0x41 PUSH1 0x4 MSTORE PUSH1 0x24 PUSH0 REVERT JUMPDEST PUSH2 0x1244 DUP3 PUSH2 0x101C JUMP JUMPDEST DUP2 ADD DUP2 DUP2 LT PUSH8 0xFFFFFFFFFFFFFFFF DUP3 GT OR ISZERO PUSH2 0x1263 JUMPI PUSH2 0x1262 PUSH2 0x120E JUMP JUMPDEST JUMPDEST DUP1 PUSH1 0x40 MSTORE POP POP POP JUMP JUMPDEST PUSH0 PUSH2 0x1275 PUSH2 0x1084 JUMP JUMPDEST SWAP1 POP PUSH2 0x1281 DUP3 DUP3 PUSH2 0x123B JUMP JUMPDEST SWAP2 SWAP1 POP JUMP JUMPDEST PUSH0 PUSH8 0xFFFFFFFFFFFFFFFF DUP3 GT ISZERO PUSH2 0x12A0 JUMPI PUSH2 0x129F PUSH2 0x120E JUMP JUMPDEST JUMPDEST PUSH2 0x12A9 DUP3 PUSH2 0x101C JUMP JUMPDEST SWAP1 POP PUSH1 0x20 DUP2 ADD SWAP1 POP SWAP2 SWAP1 POP JUMP JUMPDEST DUP3 DUP2 DUP4 CALLDATACOPY PUSH0 DUP4 DUP4 ADD MSTORE POP POP POP JUMP JUMPDEST PUSH0 PUSH2 0x12D6 PUSH2 0x12D1 DUP5 PUSH2 0x1286 JUMP JUMPDEST PUSH2 0x126C JUMP JUMPDEST SWAP1 POP DUP3 DUP2 MSTORE PUSH1 0x20 DUP2 ADD DUP5 DUP5 DUP5 ADD GT ISZERO PUSH2 0x12F2 JUMPI PUSH2 0x12F1 PUSH2 0x120A JUMP JUMPDEST JUMPDEST PUSH2 0x12FD DUP5 DUP3 DUP6 PUSH2 0x12B6 JUMP JUMPDEST POP SWAP4 SWAP3 POP POP POP JUMP JUMPDEST PUSH0 DUP3 PUSH1 0x1F DUP4 ADD SLT PUSH2 0x1319 JUMPI PUSH2 0x1318 PUSH2 0x1206 JUMP JUMPDEST JUMPDEST DUP2 CALLDATALOAD PUSH2 0x1329 DUP5 DUP3 PUSH1 0x20 DUP7 ADD PUSH2 0x12C4 JUMP JUMPDEST SWAP2 POP POP SWAP3 SWAP2 POP POP JUMP JUMPDEST PUSH0 PUSH1 0x20 DUP3 DUP5 SUB SLT ISZERO PUSH2 0x1347 JUMPI PUSH2 0x1346 PUSH2 0x108D JUMP JUMPDEST JUMPDEST PUSH0 DUP3 ADD CALLDATALOAD PUSH8 0xFFFFFFFFFFFFFFFF DUP2 GT ISZERO PUSH2 0x1364 JUMPI PUSH2 0x1363 PUSH2 0x1091 JUMP JUMPDEST JUMPDEST PUSH2 0x1370 DUP5 DUP3 DUP6 ADD PUSH2 0x1305 JUMP JUMPDEST SWAP2 POP POP SWAP3 SWAP2 POP POP JUMP JUMPDEST PUSH32 0x4E487B7100000000000000000000000000000000000000000000000000000000 PUSH0 MSTORE PUSH1 0x22 PUSH1 0x4 MSTORE PUSH1 0x24 PUSH0 REVERT JUMPDEST PUSH0 PUSH1 0x2 DUP3 DIV SWAP1 POP PUSH1 0x1 DUP3 AND DUP1 PUSH2 0x13BD JUMPI PUSH1 0x7F DUP3 AND SWAP2 POP JUMPDEST PUSH1 0x20 DUP3 LT DUP2 SUB PUSH2 0x13D0 JUMPI PUSH2 0x13CF PUSH2 0x1379 JUMP JUMPDEST JUMPDEST POP SWAP2 SWAP1 POP JUMP JUMPDEST PUSH32 0x4552433732313A20617070726F76616C20746F2063757272656E74206F776E65 PUSH0 DUP3 ADD MSTORE PUSH32 0x7200000000000000000000000000000000000000000000000000000000000000 PUSH1 0x20 DUP3 ADD MSTORE POP JUMP JUMPDEST PUSH0 PUSH2 0x1430 PUSH1 0x21 DUP4 PUSH2 0xFFE JUMP JUMPDEST SWAP2 POP PUSH2 0x143B DUP3 PUSH2 0x13D6 JUMP JUMPDEST PUSH1 0x40 DUP3 ADD SWAP1 POP SWAP2 SWAP1 POP JUMP JUMPDEST PUSH0 PUSH1 0x20 DUP3 ADD SWAP1 POP DUP2 DUP2 SUB PUSH0 DUP4 ADD MSTORE PUSH2 0x145D DUP2 PUSH2 0x1424 JUMP JUMPDEST SWAP1 POP SWAP2 SWAP1 POP JUMP JUMPDEST PUSH32 0x4552433732313A20617070726F76652063616C6C6572206973206E6F74206F77 PUSH0 DUP3 ADD MSTORE PUSH32 0x6E65720000000000000000000000000000000000000000000000000000000000 PUSH1 0x20 DUP3 ADD MSTORE POP JUMP JUMPDEST PUSH0 PUSH2 0x14BE PUSH1 0x23 DUP4 PUSH2 0xFFE JUMP JUMPDEST SWAP2 POP PUSH2 0x14C9 DUP3 PUSH2 0x1464 JUMP JUMPDEST PUSH1 0x40 DUP3 ADD SWAP1 POP SWAP2 SWAP1 POP JUMP JUMPDEST PUSH0 PUSH1 0x20 DUP3 ADD SWAP1 POP DUP2 DUP2 SUB PUSH0 DUP4 ADD MSTORE PUSH2 0x14EB DUP2 PUSH2 0x14B2 JUMP JUMPDEST SWAP1 POP SWAP2 SWAP1 POP JUMP JUMPDEST PUSH32 0x4F776E61626C653A2063616C6C6572206973206E6F7420746865206F776E6572 PUSH0 DUP3 ADD MSTORE POP JUMP JUMPDEST PUSH0 PUSH2 0x1526 PUSH1 0x20 DUP4 PUSH2 0xFFE JUMP JUMPDEST SWAP2 POP PUSH2 0x1531 DUP3 PUSH2 0x14F2 JUMP JUMPDEST PUSH1 0x20 DUP3 ADD SWAP1 POP SWAP2 SWAP1 POP JUMP JUMPDEST PUSH0 PUSH1 0x20 DUP3 ADD SWAP1 POP DUP2 DUP2 SUB PUSH0 DUP4 ADD MSTORE PUSH2 0x1553 DUP2 PUSH2 0x151A JUMP JUMPDEST SWAP1 POP SWAP2 SWAP1 POP JUMP JUMPDEST PUSH32 0x436F756E74206D7573742062652067726561746572207468616E203000000000 PUSH0 DUP3 ADD MSTORE POP JUMP JUMPDEST PUSH0 PUSH2 0x158E PUSH1 0x1C DUP4 PUSH2 0xFFE JUMP JUMPDEST SWAP2 POP PUSH2 0x1599 DUP3 PUSH2 0x155A JUMP JUMPDEST PUSH1 0x20 DUP3 ADD SWAP1 POP SWAP2 SWAP1 POP JUMP JUMPDEST PUSH0 PUSH1 0x20 DUP3 ADD SWAP1 POP DUP2 DUP2 SUB PUSH0 DUP4 ADD MSTORE PUSH2 0x15BB DUP2 PUSH2 0x1582 JUMP JUMPDEST SWAP1 POP SWAP2 SWAP1 POP JUMP JUMPDEST PUSH32 0x4E487B7100000000000000000000000000000000000000000000000000000000 PUSH0 MSTORE PUSH1 0x11 PUSH1 0x4 MSTORE PUSH1 0x24 PUSH0 REVERT JUMPDEST PUSH0 PUSH2 0x15F9 DUP3 PUSH2 0x1095 JUMP JUMPDEST SWAP2 POP PUSH32 0xFFFFFFFFFFFFFFFFFFFFFFFFFFFFFFFFFFFFFFFFFFFFFFFFFFFFFFFFFFFFFFFF DUP3 SUB PUSH2 0x162B JUMPI PUSH2 0x162A PUSH2 0x15C2 JUMP JUMPDEST JUMPDEST PUSH1 0x1 DUP3 ADD SWAP1 POP SWAP2 SWAP1 POP JUMP JUMPDEST PUSH32 0x5061757361626C653A206E6F7420706175736564000000000000000000000000 PUSH0 DUP3 ADD MSTORE POP JUMP JUMPDEST PUSH0 PUSH2 0x166A PUSH1 0x14 DUP4 PUSH2 0xFFE JUMP JUMPDEST SWAP2 POP PUSH2 0x1675 DUP3 PUSH2 0x1636 JUMP JUMPDEST PUSH1 0x20 DUP3 ADD SWAP1 POP SWAP2 SWAP1 POP JUMP JUMPDEST PUSH0 PUSH1 0x20 DUP3 ADD SWAP1 POP DUP2 DUP2 SUB PUSH0 DUP4 ADD MSTORE PUSH2 0x1697 DUP2 PUSH2 0x165E JUMP JUMPDEST SWAP1 POP SWAP2 SWAP1 POP JUMP JUMPDEST PUSH32 0x4552433732313A20696E76616C696420746F6B656E2049440000000000000000 PUSH0 DUP3 ADD MSTORE POP JUMP JUMPDEST PUSH0 PUSH2 0x16D2 PUSH1 0x18 DUP4 PUSH2 0xFFE JUMP JUMPDEST SWAP2 POP PUSH2 0x16DD DUP3 PUSH2 0x169E JUMP JUMPDEST PUSH1 0x20 DUP3 ADD SWAP1 POP SWAP2 SWAP1 POP JUMP JUMPDEST PUSH0 PUSH1 0x20 DUP3 ADD SWAP1 POP DUP2 DUP2 SUB PUSH0 DUP4 ADD MSTORE PUSH2 0x16FF DUP2 PUSH2 0x16C6 JUMP JUMPDEST SWAP1 POP SWAP2 SWAP1 POP JUMP JUMPDEST PUSH32 0x5061757361626C653A2070617573656400000000000000000000000000000000 PUSH0 DUP3 ADD MSTORE POP JUMP JUMPDEST PUSH0 PUSH2 0x173A PUSH1 0x10 DUP4 PUSH2 0xFFE JUMP JUMPDEST SWAP2 POP PUSH2 0x1745 DUP3 PUSH2 0x1706 JUMP JUMPDEST PUSH1 0x20 DUP3 ADD SWAP1 POP SWAP2 SWAP1 POP JUMP JUMPDEST PUSH0 PUSH1 0x20 DUP3 ADD SWAP1 POP DUP2 DUP2 SUB PUSH0 DUP4 ADD MSTORE PUSH2 0x1767 DUP2 PUSH2 0x172E JUMP JUMPDEST SWAP1 POP SWAP2 SWAP1 POP JUMP JUMPDEST PUSH0 DUP2 SWAP1 POP DUP2 PUSH0 MSTORE PUSH1 0x20 PUSH0 KECCAK256 SWAP1 POP SWAP2 SWAP1 POP JUMP JUMPDEST PUSH0 PUSH1 0x20 PUSH1 0x1F DUP4 ADD DIV SWAP1 POP SWAP2 SWAP1 POP JUMP JUMPDEST PUSH0 DUP3 DUP3 SHL SWAP1 POP SWAP3 SWAP2 POP POP JUMP JUMPDEST PUSH0 PUSH1 0x8 DUP4 MUL PUSH2 0x17CA PUSH32 0xFFFFFFFFFFFFFFFFFFFFFFFFFFFFFFFFFFFFFFFFFFFFFFFFFFFFFFFFFFFFFFFF DUP3 PUSH2 0x178F JUMP JUMPDEST PUSH2 0x17D4 DUP7 DUP4 PUSH2 0x178F JUMP JUMPDEST SWAP6 POP DUP1 NOT DUP5 AND SWAP4 POP DUP1 DUP7 AND DUP5 OR SWAP3 POP POP POP SWAP4 SWAP3 POP POP POP JUMP JUMPDEST PUSH0 DUP2 SWAP1 POP SWAP2 SWAP1 POP JUMP JUMPDEST PUSH0 PUSH2 0x180F PUSH2 0x180A PUSH2 0x1805 DUP5 PUSH2 0x1095 JUMP JUMPDEST PUSH2 0x17EC JUMP JUMPDEST PUSH2 0x1095 JUMP JUMPDEST SWAP1 POP SWAP2 SWAP1 POP JUMP JUMPDEST PUSH0 DUP2 SWAP1 POP SWAP2 SWAP1 POP JUMP JUMPDEST PUSH2 0x1828 DUP4 PUSH2 0x17F5 JUMP JUMPDEST PUSH2 0x183C PUSH2 0x1834 DUP3 PUSH2 0x1816 JUMP JUMPDEST DUP5 DUP5 SLOAD PUSH2 0x179B JUMP JUMPDEST DUP3 SSTORE POP POP POP POP JUMP JUMPDEST PUSH0 SWAP1 JUMP JUMPDEST PUSH2 0x1850 PUSH2 0x1844 JUMP JUMPDEST PUSH2 0x185B DUP2 DUP5 DUP5 PUSH2 0x181F JUMP JUMPDEST POP POP POP JUMP JUMPDEST JUMPDEST DUP2 DUP2 LT ISZERO PUSH2 0x187E JUMPI PUSH2 0x1873 PUSH0 DUP3 PUSH2 0x1848 JUMP JUMPDEST PUSH1 0x1 DUP2 ADD SWAP1 POP PUSH2 0x1861 JUMP JUMPDEST POP POP JUMP JUMPDEST PUSH1 0x1F DUP3 GT ISZERO PUSH2 0x18C3 JUMPI PUSH2 0x1894 DUP2 PUSH2 0x176E JUMP JUMPDEST PUSH2 0x189D DUP5 PUSH2 0x1780 JUMP JUMPDEST DUP2 ADD PUSH1 0x20 DUP6 LT ISZERO PUSH2 0x18AC JUMPI DUP2 SWAP1 POP JUMPDEST PUSH2 0x18C0 PUSH2 0x18B8 DUP6 PUSH2 0x1780 JUMP JUMPDEST DUP4 ADD DUP3 PUSH2 0x1860 JUMP JUMPDEST POP POP JUMPDEST POP POP POP JUMP JUMPDEST PUSH0 DUP3 DUP3 SHR SWAP1 POP SWAP3 SWAP2 POP POP JUMP JUMPDEST PUSH0 PUSH2 0x18E3 PUSH0 NOT DUP5 PUSH1 0x8 MUL PUSH2 0x18C8 JUMP JUMPDEST NOT DUP1 DUP4 AND SWAP2 POP POP SWAP3 SWAP2 POP POP JUMP JUMPDEST PUSH0 PUSH2 0x18FB DUP4 DUP4 PUSH2 0x18D4 JUMP JUMPDEST SWAP2 POP DUP3 PUSH1 0x2 MUL DUP3 OR SWAP1 POP SWAP3 SWAP2 POP POP JUMP JUMPDEST PUSH2 0x1914 DUP3 PUSH2 0xFF4 JUMP JUMPDEST PUSH8 0xFFFFFFFFFFFFFFFF DUP2 GT ISZERO PUSH2 0x192D JUMPI PUSH2 0x192C PUSH2 0x120E JUMP JUMPDEST JUMPDEST PUSH2 0x1937 DUP3 SLOAD PUSH2 0x13A6 JUMP JUMPDEST PUSH2 0x1942 DUP3 DUP3 DUP6 PUSH2 0x1882 JUMP JUMPDEST PUSH0 PUSH1 0x20 SWAP1 POP PUSH1 0x1F DUP4 GT PUSH1 0x1 DUP2 EQ PUSH2 0x1973 JUMPI PUSH0 DUP5 ISZERO PUSH2 0x1961 JUMPI DUP3 DUP8 ADD MLOAD SWAP1 POP JUMPDEST PUSH2 0x196B DUP6 DUP3 PUSH2 0x18F0 JUMP JUMPDEST DUP7 SSTORE POP PUSH2 0x19D2 JUMP JUMPDEST PUSH1 0x1F NOT DUP5 AND PUSH2 0x1981 DUP7 PUSH2 0x176E JUMP JUMPDEST PUSH0 JUMPDEST DUP3 DUP2 LT ISZERO PUSH2 0x19A8 JUMPI DUP5 DUP10 ADD MLOAD DUP3 SSTORE PUSH1 0x1 DUP3 ADD SWAP2 POP PUSH1 0x20 DUP6 ADD SWAP5 POP PUSH1 0x20 DUP2 ADD SWAP1 POP PUSH2 0x1983 JUMP JUMPDEST DUP7 DUP4 LT ISZERO PUSH2 0x19C5 JUMPI DUP5 DUP10 ADD MLOAD PUSH2 0x19C1 PUSH1 0x1F DUP10 AND DUP3 PUSH2 0x18D4 JUMP JUMPDEST DUP4 SSTORE POP JUMPDEST PUSH1 0x1 PUSH1 0x2 DUP9 MUL ADD DUP9 SSTORE POP POP POP JUMPDEST POP POP POP POP POP POP JUMP JUMPDEST PUSH32 0x4F776E61626C653A206E6577206F776E657220697320746865207A65726F2061 PUSH0 DUP3 ADD MSTORE PUSH32 0x6464726573730000000000000000000000000000000000000000000000000000 PUSH1 0x20 DUP3 ADD MSTORE POP JUMP JUMPDEST PUSH0 PUSH2 0x1A34 PUSH1 0x26 DUP4 PUSH2 0xFFE JUMP JUMPDEST SWAP2 POP PUSH2 0x1A3F DUP3 PUSH2 0x19DA JUMP JUMPDEST PUSH1 0x40 DUP3 ADD SWAP1 POP SWAP2 SWAP1 POP JUMP JUMPDEST PUSH0 PUSH1 0x20 DUP3 ADD SWAP1 POP DUP2 DUP2 SUB PUSH0 DUP4 ADD MSTORE PUSH2 0x1A61 DUP2 PUSH2 0x1A28 JUMP JUMPDEST SWAP1 POP SWAP2 SWAP1 POP JUMP JUMPDEST PUSH32 0x4552433732313A206D696E7420746F20746865207A65726F2061646472657373 PUSH0 DUP3 ADD MSTORE POP JUMP JUMPDEST PUSH0 PUSH2 0x1A9C PUSH1 0x20 DUP4 PUSH2 0xFFE JUMP JUMPDEST SWAP2 POP PUSH2 0x1AA7 DUP3 PUSH2 0x1A68 JUMP JUMPDEST PUSH1 0x20 DUP3 ADD SWAP1 POP SWAP2 SWAP1 POP JUMP JUMPDEST PUSH0 PUSH1 0x20 DUP3 ADD SWAP1 POP DUP2 DUP2 SUB PUSH0 DUP4 ADD MSTORE PUSH2 0x1AC9 DUP2 PUSH2 0x1A90 JUMP JUMPDEST SWAP1 POP SWAP2 SWAP1 POP JUMP JUMPDEST PUSH32 0x4552433732313A20746F6B656E20616C7265616479206D696E74656400000000 PUSH0 DUP3 ADD MSTORE POP JUMP JUMPDEST PUSH0 PUSH2 0x1B04 PUSH1 0x1C DUP4 PUSH2 0xFFE JUMP JUMPDEST SWAP2 POP PUSH2 0x1B0F DUP3 PUSH2 0x1AD0 JUMP JUMPDEST PUSH1 0x20 DUP3 ADD SWAP1 POP SWAP2 SWAP1 POP JUMP JUMPDEST PUSH0 PUSH1 0x20 DUP3 ADD SWAP1 POP DUP2 DUP2 SUB PUSH0 DUP4 ADD MSTORE PUSH2 0x1B31 DUP2 PUSH2 0x1AF8 JUMP JUMPDEST SWAP1 POP SWAP2 SWAP1 POP JUMP JUMPDEST PUSH0 PUSH2 0x1B42 DUP3 PUSH2 0x1095 JUMP JUMPDEST SWAP2 POP PUSH2 0x1B4D DUP4 PUSH2 0x1095 JUMP JUMPDEST SWAP3 POP DUP3 DUP3 ADD SWAP1 POP DUP1 DUP3 GT ISZERO PUSH2 0x1B65 JUMPI PUSH2 0x1B64 PUSH2 0x15C2 JUMP JUMPDEST JUMPDEST SWAP3 SWAP2 POP POP JUMP INVALID LOG2 PUSH5 0x6970667358 0x22 SLT KECCAK256 SHR PUSH12 0xE785A61CC20B83717B34EB52 CODECOPY 0xB9 0xF7 ADDRESS PUSH32 0x9100B12A5E01846C429093EAF264736F6C634300081A003368747470733A2F2F PUSH14 0x657461646174612E626F6F6D6C61 PUSH15 0x642E696F2F636F6E74726163742D6D PUSH6 0x746164617461 "
				},
				"gasEstimates": {
					"creation": {
						"codeDepositCost": "1414600",
						"executionCost": "infinite",
						"totalCost": "infinite"
					},
					"external": {
						"approve(address,uint256)": "29334",
						"balanceOf(address)": "2852",
						"contractURI()": "infinite",
						"getApproved(uint256)": "2898",
						"multiMint(address,uint256)": "infinite",
						"name()": "infinite",
						"owner()": "2582",
						"ownerOf(uint256)": "3030",
						"pause()": "30010",
						"safeMint(address)": "infinite",
						"setContractURI(string)": "infinite",
						"symbol()": "infinite",
						"transferOwnership(address)": "30680",
						"unpause()": "30006"
					},
					"internal": {
						"_baseURI()": "infinite"
					}
				},
				"methodIdentifiers": {
					"approve(address,uint256)": "095ea7b3",
					"balanceOf(address)": "70a08231",
					"contractURI()": "e8a3d485",
					"getApproved(uint256)": "081812fc",
					"multiMint(address,uint256)": "2649d62e",
					"name()": "06fdde03",
					"owner()": "8da5cb5b",
					"ownerOf(uint256)": "6352211e",
					"pause()": "8456cb59",
					"safeMint(address)": "40d097c3",
					"setContractURI(string)": "938e3d7b",
					"symbol()": "95d89b41",
					"transferOwnership(address)": "f2fde38b",
					"unpause()": "3f4ba83a"
				}
			},
			"storageLayout": {
				"storage": [
					{
						"astId": 3,
						"contract": "contracts/selfErc721.sol:Erc7212",
						"label": "_owner",
						"offset": 0,
						"slot": "0",
						"type": "t_address"
					},
					{
						"astId": 152,
						"contract": "contracts/selfErc721.sol:Erc7212",
						"label": "_name",
						"offset": 0,
						"slot": "1",
						"type": "t_string_storage"
					},
					{
						"astId": 154,
						"contract": "contracts/selfErc721.sol:Erc7212",
						"label": "_symbol",
						"offset": 0,
						"slot": "2",
						"type": "t_string_storage"
					},
					{
						"astId": 156,
						"contract": "contracts/selfErc721.sol:Erc7212",
						"label": "_nextTokenId",
						"offset": 0,
						"slot": "3",
						"type": "t_uint256"
					},
					{
						"astId": 160,
						"contract": "contracts/selfErc721.sol:Erc7212",
						"label": "_owners",
						"offset": 0,
						"slot": "4",
						"type": "t_mapping(t_uint256,t_address)"
					},
					{
						"astId": 164,
						"contract": "contracts/selfErc721.sol:Erc7212",
						"label": "_balances",
						"offset": 0,
						"slot": "5",
						"type": "t_mapping(t_address,t_uint256)"
					},
					{
						"astId": 168,
						"contract": "contracts/selfErc721.sol:Erc7212",
						"label": "_tokenApprovals",
						"offset": 0,
						"slot": "6",
						"type": "t_mapping(t_uint256,t_address)"
					},
					{
						"astId": 78,
						"contract": "contracts/selfErc721.sol:Erc7212",
						"label": "_paused",
						"offset": 0,
						"slot": "7",
						"type": "t_bool"
					},
					{
						"astId": 456,
						"contract": "contracts/selfErc721.sol:Erc7212",
						"label": "_nextTokenId",
						"offset": 0,
						"slot": "8",
						"type": "t_uint256"
					},
					{
						"astId": 458,
						"contract": "contracts/selfErc721.sol:Erc7212",
						"label": "_contractURI",
						"offset": 0,
						"slot": "9",
						"type": "t_string_storage"
					}
				],
				"types": {
					"t_address": {
						"encoding": "inplace",
						"label": "address",
						"numberOfBytes": "20"
					},
					"t_bool": {
						"encoding": "inplace",
						"label": "bool",
						"numberOfBytes": "1"
					},
					"t_mapping(t_address,t_uint256)": {
						"encoding": "mapping",
						"key": "t_address",
						"label": "mapping(address => uint256)",
						"numberOfBytes": "32",
						"value": "t_uint256"
					},
					"t_mapping(t_uint256,t_address)": {
						"encoding": "mapping",
						"key": "t_uint256",
						"label": "mapping(uint256 => address)",
						"numberOfBytes": "32",
						"value": "t_address"
					},
					"t_string_storage": {
						"encoding": "bytes",
						"label": "string",
						"numberOfBytes": "32"
					},
					"t_uint256": {
						"encoding": "inplace",
						"label": "uint256",
						"numberOfBytes": "32"
					}
				}
			},
			"userdoc": {
				"kind": "user",
				"methods": {},
				"version": 1
			}
		}
	}
}