{
	"contracts/terc404.sol": {
		"My404": {
			"abi": [
				{
					"inputs": [
						{
							"internalType": "string",
							"name": "_name",
							"type": "string"
						},
						{
							"internalType": "string",
							"name": "_symbol",
							"type": "string"
						}
					],
					"stateMutability": "nonpayable",
					"type": "constructor"
				},
				{
					"inputs": [
						{
							"internalType": "address",
							"name": "",
							"type": "address"
						}
					],
					"name": "balanceOf",
					"outputs": [
						{
							"internalType": "uint256",
							"name": "",
							"type": "uint256"
						}
					],
					"stateMutability": "view",
					"type": "function"
				},
				{
					"inputs": [
						{
							"internalType": "address",
							"name": "to",
							"type": "address"
						},
						{
							"internalType": "string",
							"name": "metadataURI",
							"type": "string"
						}
					],
					"name": "mint",
					"outputs": [],
					"stateMutability": "nonpayable",
					"type": "function"
				},
				{
					"inputs": [],
					"name": "name",
					"outputs": [
						{
							"internalType": "string",
							"name": "",
							"type": "string"
						}
					],
					"stateMutability": "view",
					"type": "function"
				},
				{
					"inputs": [
						{
							"internalType": "uint256",
							"name": "tokenId",
							"type": "uint256"
						}
					],
					"name": "ownerOf",
					"outputs": [
						{
							"internalType": "address",
							"name": "",
							"type": "address"
						}
					],
					"stateMutability": "view",
					"type": "function"
				},
				{
					"inputs": [],
					"name": "symbol",
					"outputs": [
						{
							"internalType": "string",
							"name": "",
							"type": "string"
						}
					],
					"stateMutability": "view",
					"type": "function"
				},
				{
					"inputs": [
						{
							"internalType": "uint256",
							"name": "tokenId",
							"type": "uint256"
						}
					],
					"name": "tokenURI",
					"outputs": [
						{
							"internalType": "string",
							"name": "",
							"type": "string"
						}
					],
					"stateMutability": "view",
					"type": "function"
				},
				{
					"inputs": [
						{
							"internalType": "address",
							"name": "from",
							"type": "address"
						},
						{
							"internalType": "address",
							"name": "to",
							"type": "address"
						},
						{
							"internalType": "uint256",
							"name": "tokenId",
							"type": "uint256"
						}
					],
					"name": "transfer",
					"outputs": [],
					"stateMutability": "nonpayable",
					"type": "function"
				}
			],
			"devdoc": {
				"kind": "dev",
				"methods": {},
				"version": 1
			},
			"evm": {
				"assembly": "    /* \"contracts/terc404.sol\":148:1757  contract My404 is ERC404 {... */\n  mstore(0x40, 0x80)\n    /* \"contracts/terc404.sol\":487:640  constructor(string memory _name, string memory _symbol) ERC404(_name, _symbol) {... */\n  callvalue\n  dup1\n  iszero\n  tag_1\n  jumpi\n  0x00\n  dup1\n  revert\ntag_1:\n  pop\n  mload(0x40)\n  sub(codesize, bytecodeSize)\n  dup1\n  bytecodeSize\n  dup4\n  codecopy\n  dup2\n  dup2\n  add\n  0x40\n  mstore\n  dup2\n  add\n  swap1\n  tag_2\n  swap2\n  swap1\n  tag_3\n  jump\t// in\ntag_2:\n    /* \"contracts/terc404.sol\":550:555  _name */\n  dup2\n    /* \"contracts/terc404.sol\":557:564  _symbol */\n  dup2\n    /* \"contracts/tabserc404.sol\":281:286  _name */\n  dup2\n    /* \"contracts/tabserc404.sol\":274:278  name */\n  0x00\n    /* \"contracts/tabserc404.sol\":274:286  name = _name */\n  swap1\n  dup2\n  tag_7\n  swap2\n  swap1\n  tag_8\n  jump\t// in\ntag_7:\n  pop\n    /* \"contracts/tabserc404.sol\":306:313  _symbol */\n  dup1\n    /* \"contracts/tabserc404.sol\":297:303  symbol */\n  0x01\n    /* \"contracts/tabserc404.sol\":297:313  symbol = _symbol */\n  swap1\n  dup2\n  tag_9\n  swap2\n  swap1\n  tag_8\n  jump\t// in\ntag_9:\n  pop\n    /* \"contracts/tabserc404.sol\":207:321  constructor(string memory _name, string memory _symbol) {... */\n  pop\n  pop\n    /* \"contracts/terc404.sol\":595:596  0 */\n  0x00\n    /* \"contracts/terc404.sol\":577:592  _tokenIdCounter */\n  0x02\n    /* \"contracts/terc404.sol\":577:596  _tokenIdCounter = 0 */\n  dup2\n  swap1\n  sstore\n  pop\n    /* \"contracts/terc404.sol\":487:640  constructor(string memory _name, string memory _symbol) ERC404(_name, _symbol) {... */\n  pop\n  pop\n    /* \"contracts/terc404.sol\":148:1757  contract My404 is ERC404 {... */\n  jump(tag_11)\n    /* \"#utility.yul\":7:82   */\ntag_12:\n    /* \"#utility.yul\":40:46   */\n  0x00\n    /* \"#utility.yul\":73:75   */\n  0x40\n    /* \"#utility.yul\":67:76   */\n  mload\n    /* \"#utility.yul\":57:76   */\n  swap1\n  pop\n    /* \"#utility.yul\":7:82   */\n  swap1\n  jump\t// out\n    /* \"#utility.yul\":88:205   */\ntag_13:\n    /* \"#utility.yul\":197:198   */\n  0x00\n    /* \"#utility.yul\":194:195   */\n  dup1\n    /* \"#utility.yul\":187:199   */\n  revert\n    /* \"#utility.yul\":211:328   */\ntag_14:\n    /* \"#utility.yul\":320:321   */\n  0x00\n    /* \"#utility.yul\":317:318   */\n  dup1\n    /* \"#utility.yul\":310:322   */\n  revert\n    /* \"#utility.yul\":334:451   */\ntag_15:\n    /* \"#utility.yul\":443:444   */\n  0x00\n    /* \"#utility.yul\":440:441   */\n  dup1\n    /* \"#utility.yul\":433:445   */\n  revert\n    /* \"#utility.yul\":457:574   */\ntag_16:\n    /* \"#utility.yul\":566:567   */\n  0x00\n    /* \"#utility.yul\":563:564   */\n  dup1\n    /* \"#utility.yul\":556:568   */\n  revert\n    /* \"#utility.yul\":580:682   */\ntag_17:\n    /* \"#utility.yul\":621:627   */\n  0x00\n    /* \"#utility.yul\":672:674   */\n  0x1f\n    /* \"#utility.yul\":668:675   */\n  not\n    /* \"#utility.yul\":663:665   */\n  0x1f\n    /* \"#utility.yul\":656:661   */\n  dup4\n    /* \"#utility.yul\":652:666   */\n  add\n    /* \"#utility.yul\":648:676   */\n  and\n    /* \"#utility.yul\":638:676   */\n  swap1\n  pop\n    /* \"#utility.yul\":580:682   */\n  swap2\n  swap1\n  pop\n  jump\t// out\n    /* \"#utility.yul\":688:868   */\ntag_18:\n    /* \"#utility.yul\":736:813   */\n  0x4e487b7100000000000000000000000000000000000000000000000000000000\n    /* \"#utility.yul\":733:734   */\n  0x00\n    /* \"#utility.yul\":726:814   */\n  mstore\n    /* \"#utility.yul\":833:837   */\n  0x41\n    /* \"#utility.yul\":830:831   */\n  0x04\n    /* \"#utility.yul\":823:838   */\n  mstore\n    /* \"#utility.yul\":857:861   */\n  0x24\n    /* \"#utility.yul\":854:855   */\n  0x00\n    /* \"#utility.yul\":847:862   */\n  revert\n    /* \"#utility.yul\":874:1155   */\ntag_19:\n    /* \"#utility.yul\":957:984   */\n  tag_53\n    /* \"#utility.yul\":979:983   */\n  dup3\n    /* \"#utility.yul\":957:984   */\n  tag_17\n  jump\t// in\ntag_53:\n    /* \"#utility.yul\":949:955   */\n  dup2\n    /* \"#utility.yul\":945:985   */\n  add\n    /* \"#utility.yul\":1087:1093   */\n  dup2\n    /* \"#utility.yul\":1075:1085   */\n  dup2\n    /* \"#utility.yul\":1072:1094   */\n  lt\n    /* \"#utility.yul\":1051:1069   */\n  0xffffffffffffffff\n    /* \"#utility.yul\":1039:1049   */\n  dup3\n    /* \"#utility.yul\":1036:1070   */\n  gt\n    /* \"#utility.yul\":1033:1095   */\n  or\n    /* \"#utility.yul\":1030:1118   */\n  iszero\n  tag_54\n  jumpi\n    /* \"#utility.yul\":1098:1116   */\n  tag_55\n  tag_18\n  jump\t// in\ntag_55:\n    /* \"#utility.yul\":1030:1118   */\ntag_54:\n    /* \"#utility.yul\":1138:1148   */\n  dup1\n    /* \"#utility.yul\":1134:1136   */\n  0x40\n    /* \"#utility.yul\":1127:1149   */\n  mstore\n    /* \"#utility.yul\":917:1155   */\n  pop\n    /* \"#utility.yul\":874:1155   */\n  pop\n  pop\n  jump\t// out\n    /* \"#utility.yul\":1161:1290   */\ntag_20:\n    /* \"#utility.yul\":1195:1201   */\n  0x00\n    /* \"#utility.yul\":1222:1242   */\n  tag_57\n  tag_12\n  jump\t// in\ntag_57:\n    /* \"#utility.yul\":1212:1242   */\n  swap1\n  pop\n    /* \"#utility.yul\":1251:1284   */\n  tag_58\n    /* \"#utility.yul\":1279:1283   */\n  dup3\n    /* \"#utility.yul\":1271:1277   */\n  dup3\n    /* \"#utility.yul\":1251:1284   */\n  tag_19\n  jump\t// in\ntag_58:\n    /* \"#utility.yul\":1161:1290   */\n  swap2\n  swap1\n  pop\n  jump\t// out\n    /* \"#utility.yul\":1296:1604   */\ntag_21:\n    /* \"#utility.yul\":1358:1362   */\n  0x00\n    /* \"#utility.yul\":1448:1466   */\n  0xffffffffffffffff\n    /* \"#utility.yul\":1440:1446   */\n  dup3\n    /* \"#utility.yul\":1437:1467   */\n  gt\n    /* \"#utility.yul\":1434:1490   */\n  iszero\n  tag_60\n  jumpi\n    /* \"#utility.yul\":1470:1488   */\n  tag_61\n  tag_18\n  jump\t// in\ntag_61:\n    /* \"#utility.yul\":1434:1490   */\ntag_60:\n    /* \"#utility.yul\":1508:1537   */\n  tag_62\n    /* \"#utility.yul\":1530:1536   */\n  dup3\n    /* \"#utility.yul\":1508:1537   */\n  tag_17\n  jump\t// in\ntag_62:\n    /* \"#utility.yul\":1500:1537   */\n  swap1\n  pop\n    /* \"#utility.yul\":1592:1596   */\n  0x20\n    /* \"#utility.yul\":1586:1590   */\n  dup2\n    /* \"#utility.yul\":1582:1597   */\n  add\n    /* \"#utility.yul\":1574:1597   */\n  swap1\n  pop\n    /* \"#utility.yul\":1296:1604   */\n  swap2\n  swap1\n  pop\n  jump\t// out\n    /* \"#utility.yul\":1610:1856   */\ntag_22:\n    /* \"#utility.yul\":1691:1692   */\n  0x00\n    /* \"#utility.yul\":1701:1814   */\ntag_64:\n    /* \"#utility.yul\":1715:1721   */\n  dup4\n    /* \"#utility.yul\":1712:1713   */\n  dup2\n    /* \"#utility.yul\":1709:1722   */\n  lt\n    /* \"#utility.yul\":1701:1814   */\n  iszero\n  tag_66\n  jumpi\n    /* \"#utility.yul\":1800:1801   */\n  dup1\n    /* \"#utility.yul\":1795:1798   */\n  dup3\n    /* \"#utility.yul\":1791:1802   */\n  add\n    /* \"#utility.yul\":1785:1803   */\n  mload\n    /* \"#utility.yul\":1781:1782   */\n  dup2\n    /* \"#utility.yul\":1776:1779   */\n  dup5\n    /* \"#utility.yul\":1772:1783   */\n  add\n    /* \"#utility.yul\":1765:1804   */\n  mstore\n    /* \"#utility.yul\":1737:1739   */\n  0x20\n    /* \"#utility.yul\":1734:1735   */\n  dup2\n    /* \"#utility.yul\":1730:1740   */\n  add\n    /* \"#utility.yul\":1725:1740   */\n  swap1\n  pop\n    /* \"#utility.yul\":1701:1814   */\n  jump(tag_64)\ntag_66:\n    /* \"#utility.yul\":1848:1849   */\n  0x00\n    /* \"#utility.yul\":1839:1845   */\n  dup5\n    /* \"#utility.yul\":1834:1837   */\n  dup5\n    /* \"#utility.yul\":1830:1846   */\n  add\n    /* \"#utility.yul\":1823:1850   */\n  mstore\n    /* \"#utility.yul\":1672:1856   */\n  pop\n    /* \"#utility.yul\":1610:1856   */\n  pop\n  pop\n  pop\n  jump\t// out\n    /* \"#utility.yul\":1862:2296   */\ntag_23:\n    /* \"#utility.yul\":1951:1956   */\n  0x00\n    /* \"#utility.yul\":1976:2042   */\n  tag_68\n    /* \"#utility.yul\":1992:2041   */\n  tag_69\n    /* \"#utility.yul\":2034:2040   */\n  dup5\n    /* \"#utility.yul\":1992:2041   */\n  tag_21\n  jump\t// in\ntag_69:\n    /* \"#utility.yul\":1976:2042   */\n  tag_20\n  jump\t// in\ntag_68:\n    /* \"#utility.yul\":1967:2042   */\n  swap1\n  pop\n    /* \"#utility.yul\":2065:2071   */\n  dup3\n    /* \"#utility.yul\":2058:2063   */\n  dup2\n    /* \"#utility.yul\":2051:2072   */\n  mstore\n    /* \"#utility.yul\":2103:2107   */\n  0x20\n    /* \"#utility.yul\":2096:2101   */\n  dup2\n    /* \"#utility.yul\":2092:2108   */\n  add\n    /* \"#utility.yul\":2141:2144   */\n  dup5\n    /* \"#utility.yul\":2132:2138   */\n  dup5\n    /* \"#utility.yul\":2127:2130   */\n  dup5\n    /* \"#utility.yul\":2123:2139   */\n  add\n    /* \"#utility.yul\":2120:2145   */\n  gt\n    /* \"#utility.yul\":2117:2229   */\n  iszero\n  tag_70\n  jumpi\n    /* \"#utility.yul\":2148:2227   */\n  tag_71\n  tag_16\n  jump\t// in\ntag_71:\n    /* \"#utility.yul\":2117:2229   */\ntag_70:\n    /* \"#utility.yul\":2238:2290   */\n  tag_72\n    /* \"#utility.yul\":2283:2289   */\n  dup5\n    /* \"#utility.yul\":2278:2281   */\n  dup3\n    /* \"#utility.yul\":2273:2276   */\n  dup6\n    /* \"#utility.yul\":2238:2290   */\n  tag_22\n  jump\t// in\ntag_72:\n    /* \"#utility.yul\":1957:2296   */\n  pop\n    /* \"#utility.yul\":1862:2296   */\n  swap4\n  swap3\n  pop\n  pop\n  pop\n  jump\t// out\n    /* \"#utility.yul\":2316:2671   */\ntag_24:\n    /* \"#utility.yul\":2383:2388   */\n  0x00\n    /* \"#utility.yul\":2432:2435   */\n  dup3\n    /* \"#utility.yul\":2425:2429   */\n  0x1f\n    /* \"#utility.yul\":2417:2423   */\n  dup4\n    /* \"#utility.yul\":2413:2430   */\n  add\n    /* \"#utility.yul\":2409:2436   */\n  slt\n    /* \"#utility.yul\":2399:2521   */\n  tag_74\n  jumpi\n    /* \"#utility.yul\":2440:2519   */\n  tag_75\n  tag_15\n  jump\t// in\ntag_75:\n    /* \"#utility.yul\":2399:2521   */\ntag_74:\n    /* \"#utility.yul\":2550:2556   */\n  dup2\n    /* \"#utility.yul\":2544:2557   */\n  mload\n    /* \"#utility.yul\":2575:2665   */\n  tag_76\n    /* \"#utility.yul\":2661:2664   */\n  dup5\n    /* \"#utility.yul\":2653:2659   */\n  dup3\n    /* \"#utility.yul\":2646:2650   */\n  0x20\n    /* \"#utility.yul\":2638:2644   */\n  dup7\n    /* \"#utility.yul\":2634:2651   */\n  add\n    /* \"#utility.yul\":2575:2665   */\n  tag_23\n  jump\t// in\ntag_76:\n    /* \"#utility.yul\":2566:2665   */\n  swap2\n  pop\n    /* \"#utility.yul\":2389:2671   */\n  pop\n    /* \"#utility.yul\":2316:2671   */\n  swap3\n  swap2\n  pop\n  pop\n  jump\t// out\n    /* \"#utility.yul\":2677:3530   */\ntag_3:\n    /* \"#utility.yul\":2776:2782   */\n  0x00\n    /* \"#utility.yul\":2784:2790   */\n  dup1\n    /* \"#utility.yul\":2833:2835   */\n  0x40\n    /* \"#utility.yul\":2821:2830   */\n  dup4\n    /* \"#utility.yul\":2812:2819   */\n  dup6\n    /* \"#utility.yul\":2808:2831   */\n  sub\n    /* \"#utility.yul\":2804:2836   */\n  slt\n    /* \"#utility.yul\":2801:2920   */\n  iszero\n  tag_78\n  jumpi\n    /* \"#utility.yul\":2839:2918   */\n  tag_79\n  tag_13\n  jump\t// in\ntag_79:\n    /* \"#utility.yul\":2801:2920   */\ntag_78:\n    /* \"#utility.yul\":2980:2981   */\n  0x00\n    /* \"#utility.yul\":2969:2978   */\n  dup4\n    /* \"#utility.yul\":2965:2982   */\n  add\n    /* \"#utility.yul\":2959:2983   */\n  mload\n    /* \"#utility.yul\":3010:3028   */\n  0xffffffffffffffff\n    /* \"#utility.yul\":3002:3008   */\n  dup2\n    /* \"#utility.yul\":2999:3029   */\n  gt\n    /* \"#utility.yul\":2996:3113   */\n  iszero\n  tag_80\n  jumpi\n    /* \"#utility.yul\":3032:3111   */\n  tag_81\n  tag_14\n  jump\t// in\ntag_81:\n    /* \"#utility.yul\":2996:3113   */\ntag_80:\n    /* \"#utility.yul\":3137:3211   */\n  tag_82\n    /* \"#utility.yul\":3203:3210   */\n  dup6\n    /* \"#utility.yul\":3194:3200   */\n  dup3\n    /* \"#utility.yul\":3183:3192   */\n  dup7\n    /* \"#utility.yul\":3179:3201   */\n  add\n    /* \"#utility.yul\":3137:3211   */\n  tag_24\n  jump\t// in\ntag_82:\n    /* \"#utility.yul\":3127:3211   */\n  swap3\n  pop\n    /* \"#utility.yul\":2930:3221   */\n  pop\n    /* \"#utility.yul\":3281:3283   */\n  0x20\n    /* \"#utility.yul\":3270:3279   */\n  dup4\n    /* \"#utility.yul\":3266:3284   */\n  add\n    /* \"#utility.yul\":3260:3285   */\n  mload\n    /* \"#utility.yul\":3312:3330   */\n  0xffffffffffffffff\n    /* \"#utility.yul\":3304:3310   */\n  dup2\n    /* \"#utility.yul\":3301:3331   */\n  gt\n    /* \"#utility.yul\":3298:3415   */\n  iszero\n  tag_83\n  jumpi\n    /* \"#utility.yul\":3334:3413   */\n  tag_84\n  tag_14\n  jump\t// in\ntag_84:\n    /* \"#utility.yul\":3298:3415   */\ntag_83:\n    /* \"#utility.yul\":3439:3513   */\n  tag_85\n    /* \"#utility.yul\":3505:3512   */\n  dup6\n    /* \"#utility.yul\":3496:3502   */\n  dup3\n    /* \"#utility.yul\":3485:3494   */\n  dup7\n    /* \"#utility.yul\":3481:3503   */\n  add\n    /* \"#utility.yul\":3439:3513   */\n  tag_24\n  jump\t// in\ntag_85:\n    /* \"#utility.yul\":3429:3513   */\n  swap2\n  pop\n    /* \"#utility.yul\":3231:3523   */\n  pop\n    /* \"#utility.yul\":2677:3530   */\n  swap3\n  pop\n  swap3\n  swap1\n  pop\n  jump\t// out\n    /* \"#utility.yul\":3536:3635   */\ntag_25:\n    /* \"#utility.yul\":3588:3594   */\n  0x00\n    /* \"#utility.yul\":3622:3627   */\n  dup2\n    /* \"#utility.yul\":3616:3628   */\n  mload\n    /* \"#utility.yul\":3606:3628   */\n  swap1\n  pop\n    /* \"#utility.yul\":3536:3635   */\n  swap2\n  swap1\n  pop\n  jump\t// out\n    /* \"#utility.yul\":3641:3821   */\ntag_26:\n    /* \"#utility.yul\":3689:3766   */\n  0x4e487b7100000000000000000000000000000000000000000000000000000000\n    /* \"#utility.yul\":3686:3687   */\n  0x00\n    /* \"#utility.yul\":3679:3767   */\n  mstore\n    /* \"#utility.yul\":3786:3790   */\n  0x22\n    /* \"#utility.yul\":3783:3784   */\n  0x04\n    /* \"#utility.yul\":3776:3791   */\n  mstore\n    /* \"#utility.yul\":3810:3814   */\n  0x24\n    /* \"#utility.yul\":3807:3808   */\n  0x00\n    /* \"#utility.yul\":3800:3815   */\n  revert\n    /* \"#utility.yul\":3827:4147   */\ntag_27:\n    /* \"#utility.yul\":3871:3877   */\n  0x00\n    /* \"#utility.yul\":3908:3909   */\n  0x02\n    /* \"#utility.yul\":3902:3906   */\n  dup3\n    /* \"#utility.yul\":3898:3910   */\n  div\n    /* \"#utility.yul\":3888:3910   */\n  swap1\n  pop\n    /* \"#utility.yul\":3955:3956   */\n  0x01\n    /* \"#utility.yul\":3949:3953   */\n  dup3\n    /* \"#utility.yul\":3945:3957   */\n  and\n    /* \"#utility.yul\":3976:3994   */\n  dup1\n    /* \"#utility.yul\":3966:4047   */\n  tag_89\n  jumpi\n    /* \"#utility.yul\":4032:4036   */\n  0x7f\n    /* \"#utility.yul\":4024:4030   */\n  dup3\n    /* \"#utility.yul\":4020:4037   */\n  and\n    /* \"#utility.yul\":4010:4037   */\n  swap2\n  pop\n    /* \"#utility.yul\":3966:4047   */\ntag_89:\n    /* \"#utility.yul\":4094:4096   */\n  0x20\n    /* \"#utility.yul\":4086:4092   */\n  dup3\n    /* \"#utility.yul\":4083:4097   */\n  lt\n    /* \"#utility.yul\":4063:4081   */\n  dup2\n    /* \"#utility.yul\":4060:4098   */\n  sub\n    /* \"#utility.yul\":4057:4141   */\n  tag_90\n  jumpi\n    /* \"#utility.yul\":4113:4131   */\n  tag_91\n  tag_26\n  jump\t// in\ntag_91:\n    /* \"#utility.yul\":4057:4141   */\ntag_90:\n    /* \"#utility.yul\":3878:4147   */\n  pop\n    /* \"#utility.yul\":3827:4147   */\n  swap2\n  swap1\n  pop\n  jump\t// out\n    /* \"#utility.yul\":4153:4294   */\ntag_28:\n    /* \"#utility.yul\":4202:4206   */\n  0x00\n    /* \"#utility.yul\":4225:4228   */\n  dup2\n    /* \"#utility.yul\":4217:4228   */\n  swap1\n  pop\n    /* \"#utility.yul\":4248:4251   */\n  dup2\n    /* \"#utility.yul\":4245:4246   */\n  0x00\n    /* \"#utility.yul\":4238:4252   */\n  mstore\n    /* \"#utility.yul\":4282:4286   */\n  0x20\n    /* \"#utility.yul\":4279:4280   */\n  0x00\n    /* \"#utility.yul\":4269:4287   */\n  keccak256\n    /* \"#utility.yul\":4261:4287   */\n  swap1\n  pop\n    /* \"#utility.yul\":4153:4294   */\n  swap2\n  swap1\n  pop\n  jump\t// out\n    /* \"#utility.yul\":4300:4393   */\ntag_29:\n    /* \"#utility.yul\":4337:4343   */\n  0x00\n    /* \"#utility.yul\":4384:4386   */\n  0x20\n    /* \"#utility.yul\":4379:4381   */\n  0x1f\n    /* \"#utility.yul\":4372:4377   */\n  dup4\n    /* \"#utility.yul\":4368:4382   */\n  add\n    /* \"#utility.yul\":4364:4387   */\n  div\n    /* \"#utility.yul\":4354:4387   */\n  swap1\n  pop\n    /* \"#utility.yul\":4300:4393   */\n  swap2\n  swap1\n  pop\n  jump\t// out\n    /* \"#utility.yul\":4399:4506   */\ntag_30:\n    /* \"#utility.yul\":4443:4451   */\n  0x00\n    /* \"#utility.yul\":4493:4498   */\n  dup3\n    /* \"#utility.yul\":4487:4491   */\n  dup3\n    /* \"#utility.yul\":4483:4499   */\n  shl\n    /* \"#utility.yul\":4462:4499   */\n  swap1\n  pop\n    /* \"#utility.yul\":4399:4506   */\n  swap3\n  swap2\n  pop\n  pop\n  jump\t// out\n    /* \"#utility.yul\":4512:4905   */\ntag_31:\n    /* \"#utility.yul\":4581:4587   */\n  0x00\n    /* \"#utility.yul\":4631:4632   */\n  0x08\n    /* \"#utility.yul\":4619:4629   */\n  dup4\n    /* \"#utility.yul\":4615:4633   */\n  mul\n    /* \"#utility.yul\":4654:4751   */\n  tag_96\n    /* \"#utility.yul\":4684:4750   */\n  0xffffffffffffffffffffffffffffffffffffffffffffffffffffffffffffffff\n    /* \"#utility.yul\":4673:4682   */\n  dup3\n    /* \"#utility.yul\":4654:4751   */\n  tag_30\n  jump\t// in\ntag_96:\n    /* \"#utility.yul\":4772:4811   */\n  tag_97\n    /* \"#utility.yul\":4802:4810   */\n  dup7\n    /* \"#utility.yul\":4791:4800   */\n  dup4\n    /* \"#utility.yul\":4772:4811   */\n  tag_30\n  jump\t// in\ntag_97:\n    /* \"#utility.yul\":4760:4811   */\n  swap6\n  pop\n    /* \"#utility.yul\":4844:4848   */\n  dup1\n    /* \"#utility.yul\":4840:4849   */\n  not\n    /* \"#utility.yul\":4833:4838   */\n  dup5\n    /* \"#utility.yul\":4829:4850   */\n  and\n    /* \"#utility.yul\":4820:4850   */\n  swap4\n  pop\n    /* \"#utility.yul\":4893:4897   */\n  dup1\n    /* \"#utility.yul\":4883:4891   */\n  dup7\n    /* \"#utility.yul\":4879:4898   */\n  and\n    /* \"#utility.yul\":4872:4877   */\n  dup5\n    /* \"#utility.yul\":4869:4899   */\n  or\n    /* \"#utility.yul\":4859:4899   */\n  swap3\n  pop\n    /* \"#utility.yul\":4588:4905   */\n  pop\n  pop\n    /* \"#utility.yul\":4512:4905   */\n  swap4\n  swap3\n  pop\n  pop\n  pop\n  jump\t// out\n    /* \"#utility.yul\":4911:4988   */\ntag_32:\n    /* \"#utility.yul\":4948:4955   */\n  0x00\n    /* \"#utility.yul\":4977:4982   */\n  dup2\n    /* \"#utility.yul\":4966:4982   */\n  swap1\n  pop\n    /* \"#utility.yul\":4911:4988   */\n  swap2\n  swap1\n  pop\n  jump\t// out\n    /* \"#utility.yul\":4994:5054   */\ntag_33:\n    /* \"#utility.yul\":5022:5025   */\n  0x00\n    /* \"#utility.yul\":5043:5048   */\n  dup2\n    /* \"#utility.yul\":5036:5048   */\n  swap1\n  pop\n    /* \"#utility.yul\":4994:5054   */\n  swap2\n  swap1\n  pop\n  jump\t// out\n    /* \"#utility.yul\":5060:5202   */\ntag_34:\n    /* \"#utility.yul\":5110:5119   */\n  0x00\n    /* \"#utility.yul\":5143:5196   */\n  tag_101\n    /* \"#utility.yul\":5161:5195   */\n  tag_102\n    /* \"#utility.yul\":5170:5194   */\n  tag_103\n    /* \"#utility.yul\":5188:5193   */\n  dup5\n    /* \"#utility.yul\":5170:5194   */\n  tag_32\n  jump\t// in\ntag_103:\n    /* \"#utility.yul\":5161:5195   */\n  tag_33\n  jump\t// in\ntag_102:\n    /* \"#utility.yul\":5143:5196   */\n  tag_32\n  jump\t// in\ntag_101:\n    /* \"#utility.yul\":5130:5196   */\n  swap1\n  pop\n    /* \"#utility.yul\":5060:5202   */\n  swap2\n  swap1\n  pop\n  jump\t// out\n    /* \"#utility.yul\":5208:5283   */\ntag_35:\n    /* \"#utility.yul\":5251:5254   */\n  0x00\n    /* \"#utility.yul\":5272:5277   */\n  dup2\n    /* \"#utility.yul\":5265:5277   */\n  swap1\n  pop\n    /* \"#utility.yul\":5208:5283   */\n  swap2\n  swap1\n  pop\n  jump\t// out\n    /* \"#utility.yul\":5289:5558   */\ntag_36:\n    /* \"#utility.yul\":5399:5438   */\n  tag_106\n    /* \"#utility.yul\":5430:5437   */\n  dup4\n    /* \"#utility.yul\":5399:5438   */\n  tag_34\n  jump\t// in\ntag_106:\n    /* \"#utility.yul\":5460:5551   */\n  tag_107\n    /* \"#utility.yul\":5509:5550   */\n  tag_108\n    /* \"#utility.yul\":5533:5549   */\n  dup3\n    /* \"#utility.yul\":5509:5550   */\n  tag_35\n  jump\t// in\ntag_108:\n    /* \"#utility.yul\":5501:5507   */\n  dup5\n    /* \"#utility.yul\":5494:5498   */\n  dup5\n    /* \"#utility.yul\":5488:5499   */\n  sload\n    /* \"#utility.yul\":5460:5551   */\n  tag_31\n  jump\t// in\ntag_107:\n    /* \"#utility.yul\":5454:5458   */\n  dup3\n    /* \"#utility.yul\":5447:5552   */\n  sstore\n    /* \"#utility.yul\":5365:5558   */\n  pop\n    /* \"#utility.yul\":5289:5558   */\n  pop\n  pop\n  pop\n  jump\t// out\n    /* \"#utility.yul\":5564:5637   */\ntag_37:\n    /* \"#utility.yul\":5609:5612   */\n  0x00\n    /* \"#utility.yul\":5564:5637   */\n  swap1\n  jump\t// out\n    /* \"#utility.yul\":5643:5832   */\ntag_38:\n    /* \"#utility.yul\":5720:5752   */\n  tag_111\n  tag_37\n  jump\t// in\ntag_111:\n    /* \"#utility.yul\":5761:5826   */\n  tag_112\n    /* \"#utility.yul\":5819:5825   */\n  dup2\n    /* \"#utility.yul\":5811:5817   */\n  dup5\n    /* \"#utility.yul\":5805:5809   */\n  dup5\n    /* \"#utility.yul\":5761:5826   */\n  tag_36\n  jump\t// in\ntag_112:\n    /* \"#utility.yul\":5696:5832   */\n  pop\n    /* \"#utility.yul\":5643:5832   */\n  pop\n  pop\n  jump\t// out\n    /* \"#utility.yul\":5838:6024   */\ntag_39:\n    /* \"#utility.yul\":5898:6018   */\ntag_114:\n    /* \"#utility.yul\":5915:5918   */\n  dup2\n    /* \"#utility.yul\":5908:5913   */\n  dup2\n    /* \"#utility.yul\":5905:5919   */\n  lt\n    /* \"#utility.yul\":5898:6018   */\n  iszero\n  tag_116\n  jumpi\n    /* \"#utility.yul\":5969:6008   */\n  tag_117\n    /* \"#utility.yul\":6006:6007   */\n  0x00\n    /* \"#utility.yul\":5999:6004   */\n  dup3\n    /* \"#utility.yul\":5969:6008   */\n  tag_38\n  jump\t// in\ntag_117:\n    /* \"#utility.yul\":5942:5943   */\n  0x01\n    /* \"#utility.yul\":5935:5940   */\n  dup2\n    /* \"#utility.yul\":5931:5944   */\n  add\n    /* \"#utility.yul\":5922:5944   */\n  swap1\n  pop\n    /* \"#utility.yul\":5898:6018   */\n  jump(tag_114)\ntag_116:\n    /* \"#utility.yul\":5838:6024   */\n  pop\n  pop\n  jump\t// out\n    /* \"#utility.yul\":6030:6573   */\ntag_40:\n    /* \"#utility.yul\":6131:6133   */\n  0x1f\n    /* \"#utility.yul\":6126:6129   */\n  dup3\n    /* \"#utility.yul\":6123:6134   */\n  gt\n    /* \"#utility.yul\":6120:6566   */\n  iszero\n  tag_119\n  jumpi\n    /* \"#utility.yul\":6165:6203   */\n  tag_120\n    /* \"#utility.yul\":6197:6202   */\n  dup2\n    /* \"#utility.yul\":6165:6203   */\n  tag_28\n  jump\t// in\ntag_120:\n    /* \"#utility.yul\":6249:6278   */\n  tag_121\n    /* \"#utility.yul\":6267:6277   */\n  dup5\n    /* \"#utility.yul\":6249:6278   */\n  tag_29\n  jump\t// in\ntag_121:\n    /* \"#utility.yul\":6239:6247   */\n  dup2\n    /* \"#utility.yul\":6235:6279   */\n  add\n    /* \"#utility.yul\":6432:6434   */\n  0x20\n    /* \"#utility.yul\":6420:6430   */\n  dup6\n    /* \"#utility.yul\":6417:6435   */\n  lt\n    /* \"#utility.yul\":6414:6463   */\n  iszero\n  tag_122\n  jumpi\n    /* \"#utility.yul\":6453:6461   */\n  dup2\n    /* \"#utility.yul\":6438:6461   */\n  swap1\n  pop\n    /* \"#utility.yul\":6414:6463   */\ntag_122:\n    /* \"#utility.yul\":6476:6556   */\n  tag_123\n    /* \"#utility.yul\":6532:6554   */\n  tag_124\n    /* \"#utility.yul\":6550:6553   */\n  dup6\n    /* \"#utility.yul\":6532:6554   */\n  tag_29\n  jump\t// in\ntag_124:\n    /* \"#utility.yul\":6522:6530   */\n  dup4\n    /* \"#utility.yul\":6518:6555   */\n  add\n    /* \"#utility.yul\":6505:6516   */\n  dup3\n    /* \"#utility.yul\":6476:6556   */\n  tag_39\n  jump\t// in\ntag_123:\n    /* \"#utility.yul\":6135:6566   */\n  pop\n  pop\n    /* \"#utility.yul\":6120:6566   */\ntag_119:\n    /* \"#utility.yul\":6030:6573   */\n  pop\n  pop\n  pop\n  jump\t// out\n    /* \"#utility.yul\":6579:6696   */\ntag_41:\n    /* \"#utility.yul\":6633:6641   */\n  0x00\n    /* \"#utility.yul\":6683:6688   */\n  dup3\n    /* \"#utility.yul\":6677:6681   */\n  dup3\n    /* \"#utility.yul\":6673:6689   */\n  shr\n    /* \"#utility.yul\":6652:6689   */\n  swap1\n  pop\n    /* \"#utility.yul\":6579:6696   */\n  swap3\n  swap2\n  pop\n  pop\n  jump\t// out\n    /* \"#utility.yul\":6702:6871   */\ntag_42:\n    /* \"#utility.yul\":6746:6752   */\n  0x00\n    /* \"#utility.yul\":6779:6830   */\n  tag_127\n    /* \"#utility.yul\":6827:6828   */\n  0x00\n    /* \"#utility.yul\":6823:6829   */\n  not\n    /* \"#utility.yul\":6815:6820   */\n  dup5\n    /* \"#utility.yul\":6812:6813   */\n  0x08\n    /* \"#utility.yul\":6808:6821   */\n  mul\n    /* \"#utility.yul\":6779:6830   */\n  tag_41\n  jump\t// in\ntag_127:\n    /* \"#utility.yul\":6775:6831   */\n  not\n    /* \"#utility.yul\":6860:6864   */\n  dup1\n    /* \"#utility.yul\":6854:6858   */\n  dup4\n    /* \"#utility.yul\":6850:6865   */\n  and\n    /* \"#utility.yul\":6840:6865   */\n  swap2\n  pop\n    /* \"#utility.yul\":6753:6871   */\n  pop\n    /* \"#utility.yul\":6702:6871   */\n  swap3\n  swap2\n  pop\n  pop\n  jump\t// out\n    /* \"#utility.yul\":6876:7171   */\ntag_43:\n    /* \"#utility.yul\":6952:6956   */\n  0x00\n    /* \"#utility.yul\":7098:7127   */\n  tag_129\n    /* \"#utility.yul\":7123:7126   */\n  dup4\n    /* \"#utility.yul\":7117:7121   */\n  dup4\n    /* \"#utility.yul\":7098:7127   */\n  tag_42\n  jump\t// in\ntag_129:\n    /* \"#utility.yul\":7090:7127   */\n  swap2\n  pop\n    /* \"#utility.yul\":7160:7163   */\n  dup3\n    /* \"#utility.yul\":7157:7158   */\n  0x02\n    /* \"#utility.yul\":7153:7164   */\n  mul\n    /* \"#utility.yul\":7147:7151   */\n  dup3\n    /* \"#utility.yul\":7144:7165   */\n  or\n    /* \"#utility.yul\":7136:7165   */\n  swap1\n  pop\n    /* \"#utility.yul\":6876:7171   */\n  swap3\n  swap2\n  pop\n  pop\n  jump\t// out\n    /* \"#utility.yul\":7176:8571   */\ntag_8:\n    /* \"#utility.yul\":7293:7330   */\n  tag_131\n    /* \"#utility.yul\":7326:7329   */\n  dup3\n    /* \"#utility.yul\":7293:7330   */\n  tag_25\n  jump\t// in\ntag_131:\n    /* \"#utility.yul\":7395:7413   */\n  0xffffffffffffffff\n    /* \"#utility.yul\":7387:7393   */\n  dup2\n    /* \"#utility.yul\":7384:7414   */\n  gt\n    /* \"#utility.yul\":7381:7437   */\n  iszero\n  tag_132\n  jumpi\n    /* \"#utility.yul\":7417:7435   */\n  tag_133\n  tag_18\n  jump\t// in\ntag_133:\n    /* \"#utility.yul\":7381:7437   */\ntag_132:\n    /* \"#utility.yul\":7461:7499   */\n  tag_134\n    /* \"#utility.yul\":7493:7497   */\n  dup3\n    /* \"#utility.yul\":7487:7498   */\n  sload\n    /* \"#utility.yul\":7461:7499   */\n  tag_27\n  jump\t// in\ntag_134:\n    /* \"#utility.yul\":7546:7613   */\n  tag_135\n    /* \"#utility.yul\":7606:7612   */\n  dup3\n    /* \"#utility.yul\":7598:7604   */\n  dup3\n    /* \"#utility.yul\":7592:7596   */\n  dup6\n    /* \"#utility.yul\":7546:7613   */\n  tag_40\n  jump\t// in\ntag_135:\n    /* \"#utility.yul\":7640:7641   */\n  0x00\n    /* \"#utility.yul\":7664:7668   */\n  0x20\n    /* \"#utility.yul\":7651:7668   */\n  swap1\n  pop\n    /* \"#utility.yul\":7696:7698   */\n  0x1f\n    /* \"#utility.yul\":7688:7694   */\n  dup4\n    /* \"#utility.yul\":7685:7699   */\n  gt\n    /* \"#utility.yul\":7713:7714   */\n  0x01\n    /* \"#utility.yul\":7708:8326   */\n  dup2\n  eq\n  tag_137\n  jumpi\n    /* \"#utility.yul\":8370:8371   */\n  0x00\n    /* \"#utility.yul\":8387:8393   */\n  dup5\n    /* \"#utility.yul\":8384:8461   */\n  iszero\n  tag_138\n  jumpi\n    /* \"#utility.yul\":8436:8445   */\n  dup3\n    /* \"#utility.yul\":8431:8434   */\n  dup8\n    /* \"#utility.yul\":8427:8446   */\n  add\n    /* \"#utility.yul\":8421:8447   */\n  mload\n    /* \"#utility.yul\":8412:8447   */\n  swap1\n  pop\n    /* \"#utility.yul\":8384:8461   */\ntag_138:\n    /* \"#utility.yul\":8487:8554   */\n  tag_139\n    /* \"#utility.yul\":8547:8553   */\n  dup6\n    /* \"#utility.yul\":8540:8545   */\n  dup3\n    /* \"#utility.yul\":8487:8554   */\n  tag_43\n  jump\t// in\ntag_139:\n    /* \"#utility.yul\":8481:8485   */\n  dup7\n    /* \"#utility.yul\":8474:8555   */\n  sstore\n    /* \"#utility.yul\":8343:8565   */\n  pop\n    /* \"#utility.yul\":7678:8565   */\n  jump(tag_136)\n    /* \"#utility.yul\":7708:8326   */\ntag_137:\n    /* \"#utility.yul\":7760:7764   */\n  0x1f\n    /* \"#utility.yul\":7756:7765   */\n  not\n    /* \"#utility.yul\":7748:7754   */\n  dup5\n    /* \"#utility.yul\":7744:7766   */\n  and\n    /* \"#utility.yul\":7794:7831   */\n  tag_140\n    /* \"#utility.yul\":7826:7830   */\n  dup7\n    /* \"#utility.yul\":7794:7831   */\n  tag_28\n  jump\t// in\ntag_140:\n    /* \"#utility.yul\":7853:7854   */\n  0x00\n    /* \"#utility.yul\":7867:8075   */\ntag_141:\n    /* \"#utility.yul\":7881:7888   */\n  dup3\n    /* \"#utility.yul\":7878:7879   */\n  dup2\n    /* \"#utility.yul\":7875:7889   */\n  lt\n    /* \"#utility.yul\":7867:8075   */\n  iszero\n  tag_143\n  jumpi\n    /* \"#utility.yul\":7960:7969   */\n  dup5\n    /* \"#utility.yul\":7955:7958   */\n  dup10\n    /* \"#utility.yul\":7951:7970   */\n  add\n    /* \"#utility.yul\":7945:7971   */\n  mload\n    /* \"#utility.yul\":7937:7943   */\n  dup3\n    /* \"#utility.yul\":7930:7972   */\n  sstore\n    /* \"#utility.yul\":8011:8012   */\n  0x01\n    /* \"#utility.yul\":8003:8009   */\n  dup3\n    /* \"#utility.yul\":7999:8013   */\n  add\n    /* \"#utility.yul\":7989:8013   */\n  swap2\n  pop\n    /* \"#utility.yul\":8058:8060   */\n  0x20\n    /* \"#utility.yul\":8047:8056   */\n  dup6\n    /* \"#utility.yul\":8043:8061   */\n  add\n    /* \"#utility.yul\":8030:8061   */\n  swap5\n  pop\n    /* \"#utility.yul\":7904:7908   */\n  0x20\n    /* \"#utility.yul\":7901:7902   */\n  dup2\n    /* \"#utility.yul\":7897:7909   */\n  add\n    /* \"#utility.yul\":7892:7909   */\n  swap1\n  pop\n    /* \"#utility.yul\":7867:8075   */\n  jump(tag_141)\ntag_143:\n    /* \"#utility.yul\":8103:8109   */\n  dup7\n    /* \"#utility.yul\":8094:8101   */\n  dup4\n    /* \"#utility.yul\":8091:8110   */\n  lt\n    /* \"#utility.yul\":8088:8267   */\n  iszero\n  tag_144\n  jumpi\n    /* \"#utility.yul\":8161:8170   */\n  dup5\n    /* \"#utility.yul\":8156:8159   */\n  dup10\n    /* \"#utility.yul\":8152:8171   */\n  add\n    /* \"#utility.yul\":8146:8172   */\n  mload\n    /* \"#utility.yul\":8204:8252   */\n  tag_145\n    /* \"#utility.yul\":8246:8250   */\n  0x1f\n    /* \"#utility.yul\":8238:8244   */\n  dup10\n    /* \"#utility.yul\":8234:8251   */\n  and\n    /* \"#utility.yul\":8223:8232   */\n  dup3\n    /* \"#utility.yul\":8204:8252   */\n  tag_42\n  jump\t// in\ntag_145:\n    /* \"#utility.yul\":8196:8202   */\n  dup4\n    /* \"#utility.yul\":8189:8253   */\n  sstore\n    /* \"#utility.yul\":8111:8267   */\n  pop\n    /* \"#utility.yul\":8088:8267   */\ntag_144:\n    /* \"#utility.yul\":8313:8314   */\n  0x01\n    /* \"#utility.yul\":8309:8310   */\n  0x02\n    /* \"#utility.yul\":8301:8307   */\n  dup9\n    /* \"#utility.yul\":8297:8311   */\n  mul\n    /* \"#utility.yul\":8293:8315   */\n  add\n    /* \"#utility.yul\":8287:8291   */\n  dup9\n    /* \"#utility.yul\":8280:8316   */\n  sstore\n    /* \"#utility.yul\":7715:8326   */\n  pop\n  pop\n  pop\n    /* \"#utility.yul\":7678:8565   */\ntag_136:\n  pop\n    /* \"#utility.yul\":7268:8571   */\n  pop\n  pop\n  pop\n    /* \"#utility.yul\":7176:8571   */\n  pop\n  pop\n  jump\t// out\n    /* \"contracts/terc404.sol\":148:1757  contract My404 is ERC404 {... */\ntag_11:\n  dataSize(sub_0)\n  dup1\n  dataOffset(sub_0)\n  0x00\n  codecopy\n  0x00\n  return\nstop\n\nsub_0: assembly {\n        /* \"contracts/terc404.sol\":148:1757  contract My404 is ERC404 {... */\n      mstore(0x40, 0x80)\n      callvalue\n      dup1\n      iszero\n      tag_1\n      jumpi\n      0x00\n      dup1\n      revert\n    tag_1:\n      pop\n      jumpi(tag_2, lt(calldatasize, 0x04))\n      shr(0xe0, calldataload(0x00))\n      dup1\n      0x95d89b41\n      gt\n      tag_10\n      jumpi\n      dup1\n      0x95d89b41\n      eq\n      tag_6\n      jumpi\n      dup1\n      0xbeabacc8\n      eq\n      tag_7\n      jumpi\n      dup1\n      0xc87b56dd\n      eq\n      tag_8\n      jumpi\n      dup1\n      0xd0def521\n      eq\n      tag_9\n      jumpi\n      jump(tag_2)\n    tag_10:\n      dup1\n      0x06fdde03\n      eq\n      tag_3\n      jumpi\n      dup1\n      0x6352211e\n      eq\n      tag_4\n      jumpi\n      dup1\n      0x70a08231\n      eq\n      tag_5\n      jumpi\n    tag_2:\n      0x00\n      dup1\n      revert\n        /* \"contracts/tabserc404.sol\":99:117  string public name */\n    tag_3:\n      tag_11\n      tag_12\n      jump\t// in\n    tag_11:\n      mload(0x40)\n      tag_13\n      swap2\n      swap1\n      tag_14\n      jump\t// in\n    tag_13:\n      mload(0x40)\n      dup1\n      swap2\n      sub\n      swap1\n      return\n        /* \"contracts/terc404.sol\":1648:1754  function ownerOf(uint256 tokenId) public view returns (address) {... */\n    tag_4:\n      tag_15\n      0x04\n      dup1\n      calldatasize\n      sub\n      dup2\n      add\n      swap1\n      tag_16\n      swap2\n      swap1\n      tag_17\n      jump\t// in\n    tag_16:\n      tag_18\n      jump\t// in\n    tag_15:\n      mload(0x40)\n      tag_19\n      swap2\n      swap1\n      tag_20\n      jump\t// in\n    tag_19:\n      mload(0x40)\n      dup1\n      swap2\n      sub\n      swap1\n      return\n        /* \"contracts/terc404.sol\":288:332  mapping(address => uint256) public balanceOf */\n    tag_5:\n      tag_21\n      0x04\n      dup1\n      calldatasize\n      sub\n      dup2\n      add\n      swap1\n      tag_22\n      swap2\n      swap1\n      tag_23\n      jump\t// in\n    tag_22:\n      tag_24\n      jump\t// in\n    tag_21:\n      mload(0x40)\n      tag_25\n      swap2\n      swap1\n      tag_26\n      jump\t// in\n    tag_25:\n      mload(0x40)\n      dup1\n      swap2\n      sub\n      swap1\n      return\n        /* \"contracts/tabserc404.sol\":124:144  string public symbol */\n    tag_6:\n      tag_27\n      tag_28\n      jump\t// in\n    tag_27:\n      mload(0x40)\n      tag_29\n      swap2\n      swap1\n      tag_14\n      jump\t// in\n    tag_29:\n      mload(0x40)\n      dup1\n      swap2\n      sub\n      swap1\n      return\n        /* \"contracts/terc404.sol\":1323:1592  function transfer(address from, address to, uint256 tokenId) public {... */\n    tag_7:\n      tag_30\n      0x04\n      dup1\n      calldatasize\n      sub\n      dup2\n      add\n      swap1\n      tag_31\n      swap2\n      swap1\n      tag_32\n      jump\t// in\n    tag_31:\n      tag_33\n      jump\t// in\n    tag_30:\n      stop\n        /* \"contracts/terc404.sol\":1161:1277  function tokenURI(uint256 tokenId) public view returns (string memory) {... */\n    tag_8:\n      tag_34\n      0x04\n      dup1\n      calldatasize\n      sub\n      dup2\n      add\n      swap1\n      tag_35\n      swap2\n      swap1\n      tag_17\n      jump\t// in\n    tag_35:\n      tag_36\n      jump\t// in\n    tag_34:\n      mload(0x40)\n      tag_37\n      swap2\n      swap1\n      tag_14\n      jump\t// in\n    tag_37:\n      mload(0x40)\n      dup1\n      swap2\n      sub\n      swap1\n      return\n        /* \"contracts/terc404.sol\":678:924  function mint(address to, string memory metadataURI) public {... */\n    tag_9:\n      tag_38\n      0x04\n      dup1\n      calldatasize\n      sub\n      dup2\n      add\n      swap1\n      tag_39\n      swap2\n      swap1\n      tag_40\n      jump\t// in\n    tag_39:\n      tag_41\n      jump\t// in\n    tag_38:\n      stop\n        /* \"contracts/tabserc404.sol\":99:117  string public name */\n    tag_12:\n      0x00\n      dup1\n      sload\n      tag_42\n      swap1\n      tag_43\n      jump\t// in\n    tag_42:\n      dup1\n      0x1f\n      add\n      0x20\n      dup1\n      swap2\n      div\n      mul\n      0x20\n      add\n      mload(0x40)\n      swap1\n      dup2\n      add\n      0x40\n      mstore\n      dup1\n      swap3\n      swap2\n      swap1\n      dup2\n      dup2\n      mstore\n      0x20\n      add\n      dup3\n      dup1\n      sload\n      tag_44\n      swap1\n      tag_43\n      jump\t// in\n    tag_44:\n      dup1\n      iszero\n      tag_45\n      jumpi\n      dup1\n      0x1f\n      lt\n      tag_46\n      jumpi\n      0x0100\n      dup1\n      dup4\n      sload\n      div\n      mul\n      dup4\n      mstore\n      swap2\n      0x20\n      add\n      swap2\n      jump(tag_45)\n    tag_46:\n      dup3\n      add\n      swap2\n      swap1\n      0x00\n      mstore\n      keccak256(0x00, 0x20)\n      swap1\n    tag_47:\n      dup2\n      sload\n      dup2\n      mstore\n      swap1\n      0x01\n      add\n      swap1\n      0x20\n      add\n      dup1\n      dup4\n      gt\n      tag_47\n      jumpi\n      dup3\n      swap1\n      sub\n      0x1f\n      and\n      dup3\n      add\n      swap2\n    tag_45:\n      pop\n      pop\n      pop\n      pop\n      pop\n      dup2\n      jump\t// out\n        /* \"contracts/terc404.sol\":1648:1754  function ownerOf(uint256 tokenId) public view returns (address) {... */\n    tag_18:\n        /* \"contracts/terc404.sol\":1703:1710  address */\n      0x00\n        /* \"contracts/terc404.sol\":1730:1737  _owners */\n      0x05\n        /* \"contracts/terc404.sol\":1730:1746  _owners[tokenId] */\n      0x00\n        /* \"contracts/terc404.sol\":1738:1745  tokenId */\n      dup4\n        /* \"contracts/terc404.sol\":1730:1746  _owners[tokenId] */\n      dup2\n      mstore\n      0x20\n      add\n      swap1\n      dup2\n      mstore\n      0x20\n      add\n      0x00\n      keccak256\n      0x00\n      swap1\n      sload\n      swap1\n      0x0100\n      exp\n      swap1\n      div\n      0xffffffffffffffffffffffffffffffffffffffff\n      and\n        /* \"contracts/terc404.sol\":1723:1746  return _owners[tokenId] */\n      swap1\n      pop\n        /* \"contracts/terc404.sol\":1648:1754  function ownerOf(uint256 tokenId) public view returns (address) {... */\n      swap2\n      swap1\n      pop\n      jump\t// out\n        /* \"contracts/terc404.sol\":288:332  mapping(address => uint256) public balanceOf */\n    tag_24:\n      mstore(0x20, 0x03)\n      dup1\n      0x00\n      mstore\n      keccak256(0x00, 0x40)\n      0x00\n      swap2\n      pop\n      swap1\n      pop\n      sload\n      dup2\n      jump\t// out\n        /* \"contracts/tabserc404.sol\":124:144  string public symbol */\n    tag_28:\n      0x01\n      dup1\n      sload\n      tag_49\n      swap1\n      tag_43\n      jump\t// in\n    tag_49:\n      dup1\n      0x1f\n      add\n      0x20\n      dup1\n      swap2\n      div\n      mul\n      0x20\n      add\n      mload(0x40)\n      swap1\n      dup2\n      add\n      0x40\n      mstore\n      dup1\n      swap3\n      swap2\n      swap1\n      dup2\n      dup2\n      mstore\n      0x20\n      add\n      dup3\n      dup1\n      sload\n      tag_50\n      swap1\n      tag_43\n      jump\t// in\n    tag_50:\n      dup1\n      iszero\n      tag_51\n      jumpi\n      dup1\n      0x1f\n      lt\n      tag_52\n      jumpi\n      0x0100\n      dup1\n      dup4\n      sload\n      div\n      mul\n      dup4\n      mstore\n      swap2\n      0x20\n      add\n      swap2\n      jump(tag_51)\n    tag_52:\n      dup3\n      add\n      swap2\n      swap1\n      0x00\n      mstore\n      keccak256(0x00, 0x20)\n      swap1\n    tag_53:\n      dup2\n      sload\n      dup2\n      mstore\n      swap1\n      0x01\n      add\n      swap1\n      0x20\n      add\n      dup1\n      dup4\n      gt\n      tag_53\n      jumpi\n      dup3\n      swap1\n      sub\n      0x1f\n      and\n      dup3\n      add\n      swap2\n    tag_51:\n      pop\n      pop\n      pop\n      pop\n      pop\n      dup2\n      jump\t// out\n        /* \"contracts/terc404.sol\":1323:1592  function transfer(address from, address to, uint256 tokenId) public {... */\n    tag_33:\n        /* \"contracts/terc404.sol\":1430:1434  from */\n      dup3\n        /* \"contracts/terc404.sol\":1410:1434  _owners[tokenId] == from */\n      0xffffffffffffffffffffffffffffffffffffffff\n      and\n        /* \"contracts/terc404.sol\":1410:1417  _owners */\n      0x05\n        /* \"contracts/terc404.sol\":1410:1426  _owners[tokenId] */\n      0x00\n        /* \"contracts/terc404.sol\":1418:1425  tokenId */\n      dup4\n        /* \"contracts/terc404.sol\":1410:1426  _owners[tokenId] */\n      dup2\n      mstore\n      0x20\n      add\n      swap1\n      dup2\n      mstore\n      0x20\n      add\n      0x00\n      keccak256\n      0x00\n      swap1\n      sload\n      swap1\n      0x0100\n      exp\n      swap1\n      div\n      0xffffffffffffffffffffffffffffffffffffffff\n      and\n        /* \"contracts/terc404.sol\":1410:1434  _owners[tokenId] == from */\n      0xffffffffffffffffffffffffffffffffffffffff\n      and\n      eq\n        /* \"contracts/terc404.sol\":1402:1492  require(_owners[tokenId] == from, \"ERC404: transfer of token that is not owned by sender\") */\n      tag_55\n      jumpi\n      mload(0x40)\n      0x08c379a000000000000000000000000000000000000000000000000000000000\n      dup2\n      mstore\n      0x04\n      add\n      tag_56\n      swap1\n      tag_57\n      jump\t// in\n    tag_56:\n      mload(0x40)\n      dup1\n      swap2\n      sub\n      swap1\n      revert\n    tag_55:\n        /* \"contracts/terc404.sol\":1522:1524  to */\n      dup2\n        /* \"contracts/terc404.sol\":1503:1510  _owners */\n      0x05\n        /* \"contracts/terc404.sol\":1503:1519  _owners[tokenId] */\n      0x00\n        /* \"contracts/terc404.sol\":1511:1518  tokenId */\n      dup4\n        /* \"contracts/terc404.sol\":1503:1519  _owners[tokenId] */\n      dup2\n      mstore\n      0x20\n      add\n      swap1\n      dup2\n      mstore\n      0x20\n      add\n      0x00\n      keccak256\n      0x00\n        /* \"contracts/terc404.sol\":1503:1524  _owners[tokenId] = to */\n      0x0100\n      exp\n      dup2\n      sload\n      dup2\n      0xffffffffffffffffffffffffffffffffffffffff\n      mul\n      not\n      and\n      swap1\n      dup4\n      0xffffffffffffffffffffffffffffffffffffffff\n      and\n      mul\n      or\n      swap1\n      sstore\n      pop\n        /* \"contracts/terc404.sol\":1554:1555  1 */\n      0x01\n        /* \"contracts/terc404.sol\":1535:1544  balanceOf */\n      0x03\n        /* \"contracts/terc404.sol\":1535:1550  balanceOf[from] */\n      0x00\n        /* \"contracts/terc404.sol\":1545:1549  from */\n      dup6\n        /* \"contracts/terc404.sol\":1535:1550  balanceOf[from] */\n      0xffffffffffffffffffffffffffffffffffffffff\n      and\n      0xffffffffffffffffffffffffffffffffffffffff\n      and\n      dup2\n      mstore\n      0x20\n      add\n      swap1\n      dup2\n      mstore\n      0x20\n      add\n      0x00\n      keccak256\n      0x00\n        /* \"contracts/terc404.sol\":1535:1555  balanceOf[from] -= 1 */\n      dup3\n      dup3\n      sload\n      tag_58\n      swap2\n      swap1\n      tag_59\n      jump\t// in\n    tag_58:\n      swap3\n      pop\n      pop\n      dup2\n      swap1\n      sstore\n      pop\n        /* \"contracts/terc404.sol\":1583:1584  1 */\n      0x01\n        /* \"contracts/terc404.sol\":1566:1575  balanceOf */\n      0x03\n        /* \"contracts/terc404.sol\":1566:1579  balanceOf[to] */\n      0x00\n        /* \"contracts/terc404.sol\":1576:1578  to */\n      dup5\n        /* \"contracts/terc404.sol\":1566:1579  balanceOf[to] */\n      0xffffffffffffffffffffffffffffffffffffffff\n      and\n      0xffffffffffffffffffffffffffffffffffffffff\n      and\n      dup2\n      mstore\n      0x20\n      add\n      swap1\n      dup2\n      mstore\n      0x20\n      add\n      0x00\n      keccak256\n      0x00\n        /* \"contracts/terc404.sol\":1566:1584  balanceOf[to] += 1 */\n      dup3\n      dup3\n      sload\n      tag_60\n      swap2\n      swap1\n      tag_61\n      jump\t// in\n    tag_60:\n      swap3\n      pop\n      pop\n      dup2\n      swap1\n      sstore\n      pop\n        /* \"contracts/terc404.sol\":1323:1592  function transfer(address from, address to, uint256 tokenId) public {... */\n      pop\n      pop\n      pop\n      jump\t// out\n        /* \"contracts/terc404.sol\":1161:1277  function tokenURI(uint256 tokenId) public view returns (string memory) {... */\n    tag_36:\n        /* \"contracts/terc404.sol\":1217:1230  string memory */\n      0x60\n        /* \"contracts/terc404.sol\":1250:1260  _tokenURIs */\n      0x04\n        /* \"contracts/terc404.sol\":1250:1269  _tokenURIs[tokenId] */\n      0x00\n        /* \"contracts/terc404.sol\":1261:1268  tokenId */\n      dup4\n        /* \"contracts/terc404.sol\":1250:1269  _tokenURIs[tokenId] */\n      dup2\n      mstore\n      0x20\n      add\n      swap1\n      dup2\n      mstore\n      0x20\n      add\n      0x00\n      keccak256\n        /* \"contracts/terc404.sol\":1243:1269  return _tokenURIs[tokenId] */\n      dup1\n      sload\n      tag_63\n      swap1\n      tag_43\n      jump\t// in\n    tag_63:\n      dup1\n      0x1f\n      add\n      0x20\n      dup1\n      swap2\n      div\n      mul\n      0x20\n      add\n      mload(0x40)\n      swap1\n      dup2\n      add\n      0x40\n      mstore\n      dup1\n      swap3\n      swap2\n      swap1\n      dup2\n      dup2\n      mstore\n      0x20\n      add\n      dup3\n      dup1\n      sload\n      tag_64\n      swap1\n      tag_43\n      jump\t// in\n    tag_64:\n      dup1\n      iszero\n      tag_65\n      jumpi\n      dup1\n      0x1f\n      lt\n      tag_66\n      jumpi\n      0x0100\n      dup1\n      dup4\n      sload\n      div\n      mul\n      dup4\n      mstore\n      swap2\n      0x20\n      add\n      swap2\n      jump(tag_65)\n    tag_66:\n      dup3\n      add\n      swap2\n      swap1\n      0x00\n      mstore\n      keccak256(0x00, 0x20)\n      swap1\n    tag_67:\n      dup2\n      sload\n      dup2\n      mstore\n      swap1\n      0x01\n      add\n      swap1\n      0x20\n      add\n      dup1\n      dup4\n      gt\n      tag_67\n      jumpi\n      dup3\n      swap1\n      sub\n      0x1f\n      and\n      dup3\n      add\n      swap2\n    tag_65:\n      pop\n      pop\n      pop\n      pop\n      pop\n      swap1\n      pop\n        /* \"contracts/terc404.sol\":1161:1277  function tokenURI(uint256 tokenId) public view returns (string memory) {... */\n      swap2\n      swap1\n      pop\n      jump\t// out\n        /* \"contracts/terc404.sol\":678:924  function mint(address to, string memory metadataURI) public {... */\n    tag_41:\n        /* \"contracts/terc404.sol\":749:764  uint256 tokenId */\n      0x00\n        /* \"contracts/terc404.sol\":767:782  _tokenIdCounter */\n      sload(0x02)\n        /* \"contracts/terc404.sol\":749:782  uint256 tokenId = _tokenIdCounter */\n      swap1\n      pop\n        /* \"contracts/terc404.sol\":812:814  to */\n      dup3\n        /* \"contracts/terc404.sol\":793:800  _owners */\n      0x05\n        /* \"contracts/terc404.sol\":793:809  _owners[tokenId] */\n      0x00\n        /* \"contracts/terc404.sol\":801:808  tokenId */\n      dup4\n        /* \"contracts/terc404.sol\":793:809  _owners[tokenId] */\n      dup2\n      mstore\n      0x20\n      add\n      swap1\n      dup2\n      mstore\n      0x20\n      add\n      0x00\n      keccak256\n      0x00\n        /* \"contracts/terc404.sol\":793:814  _owners[tokenId] = to */\n      0x0100\n      exp\n      dup2\n      sload\n      dup2\n      0xffffffffffffffffffffffffffffffffffffffff\n      mul\n      not\n      and\n      swap1\n      dup4\n      0xffffffffffffffffffffffffffffffffffffffff\n      and\n      mul\n      or\n      swap1\n      sstore\n      pop\n        /* \"contracts/terc404.sol\":842:843  1 */\n      0x01\n        /* \"contracts/terc404.sol\":825:834  balanceOf */\n      0x03\n        /* \"contracts/terc404.sol\":825:838  balanceOf[to] */\n      0x00\n        /* \"contracts/terc404.sol\":835:837  to */\n      dup6\n        /* \"contracts/terc404.sol\":825:838  balanceOf[to] */\n      0xffffffffffffffffffffffffffffffffffffffff\n      and\n      0xffffffffffffffffffffffffffffffffffffffff\n      and\n      dup2\n      mstore\n      0x20\n      add\n      swap1\n      dup2\n      mstore\n      0x20\n      add\n      0x00\n      keccak256\n      0x00\n        /* \"contracts/terc404.sol\":825:843  balanceOf[to] += 1 */\n      dup3\n      dup3\n      sload\n      tag_69\n      swap2\n      swap1\n      tag_61\n      jump\t// in\n    tag_69:\n      swap3\n      pop\n      pop\n      dup2\n      swap1\n      sstore\n      pop\n        /* \"contracts/terc404.sol\":854:888  _setTokenURI(tokenId, metadataURI) */\n      tag_70\n        /* \"contracts/terc404.sol\":867:874  tokenId */\n      dup2\n        /* \"contracts/terc404.sol\":876:887  metadataURI */\n      dup4\n        /* \"contracts/terc404.sol\":854:866  _setTokenURI */\n      tag_71\n        /* \"contracts/terc404.sol\":854:888  _setTokenURI(tokenId, metadataURI) */\n      jump\t// in\n    tag_70:\n        /* \"contracts/terc404.sol\":899:914  _tokenIdCounter */\n      0x02\n      0x00\n        /* \"contracts/terc404.sol\":899:916  _tokenIdCounter++ */\n      dup2\n      sload\n      dup1\n      swap3\n      swap2\n      swap1\n      tag_72\n      swap1\n      tag_73\n      jump\t// in\n    tag_72:\n      swap2\n      swap1\n      pop\n      sstore\n      pop\n        /* \"contracts/terc404.sol\":738:924  {... */\n      pop\n        /* \"contracts/terc404.sol\":678:924  function mint(address to, string memory metadataURI) public {... */\n      pop\n      pop\n      jump\t// out\n        /* \"contracts/terc404.sol\":978:1105  function _setTokenURI(uint256 tokenId, string memory metadataURI) internal {... */\n    tag_71:\n        /* \"contracts/terc404.sol\":1086:1097  metadataURI */\n      dup1\n        /* \"contracts/terc404.sol\":1064:1074  _tokenURIs */\n      0x04\n        /* \"contracts/terc404.sol\":1064:1083  _tokenURIs[tokenId] */\n      0x00\n        /* \"contracts/terc404.sol\":1075:1082  tokenId */\n      dup5\n        /* \"contracts/terc404.sol\":1064:1083  _tokenURIs[tokenId] */\n      dup2\n      mstore\n      0x20\n      add\n      swap1\n      dup2\n      mstore\n      0x20\n      add\n      0x00\n      keccak256\n        /* \"contracts/terc404.sol\":1064:1097  _tokenURIs[tokenId] = metadataURI */\n      swap1\n      dup2\n      tag_75\n      swap2\n      swap1\n      tag_76\n      jump\t// in\n    tag_75:\n      pop\n        /* \"contracts/terc404.sol\":978:1105  function _setTokenURI(uint256 tokenId, string memory metadataURI) internal {... */\n      pop\n      pop\n      jump\t// out\n        /* \"#utility.yul\":7:106   */\n    tag_77:\n        /* \"#utility.yul\":59:65   */\n      0x00\n        /* \"#utility.yul\":93:98   */\n      dup2\n        /* \"#utility.yul\":87:99   */\n      mload\n        /* \"#utility.yul\":77:99   */\n      swap1\n      pop\n        /* \"#utility.yul\":7:106   */\n      swap2\n      swap1\n      pop\n      jump\t// out\n        /* \"#utility.yul\":112:281   */\n    tag_78:\n        /* \"#utility.yul\":196:207   */\n      0x00\n        /* \"#utility.yul\":230:236   */\n      dup3\n        /* \"#utility.yul\":225:228   */\n      dup3\n        /* \"#utility.yul\":218:237   */\n      mstore\n        /* \"#utility.yul\":270:274   */\n      0x20\n        /* \"#utility.yul\":265:268   */\n      dup3\n        /* \"#utility.yul\":261:275   */\n      add\n        /* \"#utility.yul\":246:275   */\n      swap1\n      pop\n        /* \"#utility.yul\":112:281   */\n      swap3\n      swap2\n      pop\n      pop\n      jump\t// out\n        /* \"#utility.yul\":287:533   */\n    tag_79:\n        /* \"#utility.yul\":368:369   */\n      0x00\n        /* \"#utility.yul\":378:491   */\n    tag_126:\n        /* \"#utility.yul\":392:398   */\n      dup4\n        /* \"#utility.yul\":389:390   */\n      dup2\n        /* \"#utility.yul\":386:399   */\n      lt\n        /* \"#utility.yul\":378:491   */\n      iszero\n      tag_128\n      jumpi\n        /* \"#utility.yul\":477:478   */\n      dup1\n        /* \"#utility.yul\":472:475   */\n      dup3\n        /* \"#utility.yul\":468:479   */\n      add\n        /* \"#utility.yul\":462:480   */\n      mload\n        /* \"#utility.yul\":458:459   */\n      dup2\n        /* \"#utility.yul\":453:456   */\n      dup5\n        /* \"#utility.yul\":449:460   */\n      add\n        /* \"#utility.yul\":442:481   */\n      mstore\n        /* \"#utility.yul\":414:416   */\n      0x20\n        /* \"#utility.yul\":411:412   */\n      dup2\n        /* \"#utility.yul\":407:417   */\n      add\n        /* \"#utility.yul\":402:417   */\n      swap1\n      pop\n        /* \"#utility.yul\":378:491   */\n      jump(tag_126)\n    tag_128:\n        /* \"#utility.yul\":525:526   */\n      0x00\n        /* \"#utility.yul\":516:522   */\n      dup5\n        /* \"#utility.yul\":511:514   */\n      dup5\n        /* \"#utility.yul\":507:523   */\n      add\n        /* \"#utility.yul\":500:527   */\n      mstore\n        /* \"#utility.yul\":349:533   */\n      pop\n        /* \"#utility.yul\":287:533   */\n      pop\n      pop\n      pop\n      jump\t// out\n        /* \"#utility.yul\":539:641   */\n    tag_80:\n        /* \"#utility.yul\":580:586   */\n      0x00\n        /* \"#utility.yul\":631:633   */\n      0x1f\n        /* \"#utility.yul\":627:634   */\n      not\n        /* \"#utility.yul\":622:624   */\n      0x1f\n        /* \"#utility.yul\":615:620   */\n      dup4\n        /* \"#utility.yul\":611:625   */\n      add\n        /* \"#utility.yul\":607:635   */\n      and\n        /* \"#utility.yul\":597:635   */\n      swap1\n      pop\n        /* \"#utility.yul\":539:641   */\n      swap2\n      swap1\n      pop\n      jump\t// out\n        /* \"#utility.yul\":647:1024   */\n    tag_81:\n        /* \"#utility.yul\":735:738   */\n      0x00\n        /* \"#utility.yul\":763:802   */\n      tag_131\n        /* \"#utility.yul\":796:801   */\n      dup3\n        /* \"#utility.yul\":763:802   */\n      tag_77\n      jump\t// in\n    tag_131:\n        /* \"#utility.yul\":818:889   */\n      tag_132\n        /* \"#utility.yul\":882:888   */\n      dup2\n        /* \"#utility.yul\":877:880   */\n      dup6\n        /* \"#utility.yul\":818:889   */\n      tag_78\n      jump\t// in\n    tag_132:\n        /* \"#utility.yul\":811:889   */\n      swap4\n      pop\n        /* \"#utility.yul\":898:963   */\n      tag_133\n        /* \"#utility.yul\":956:962   */\n      dup2\n        /* \"#utility.yul\":951:954   */\n      dup6\n        /* \"#utility.yul\":944:948   */\n      0x20\n        /* \"#utility.yul\":937:942   */\n      dup7\n        /* \"#utility.yul\":933:949   */\n      add\n        /* \"#utility.yul\":898:963   */\n      tag_79\n      jump\t// in\n    tag_133:\n        /* \"#utility.yul\":988:1017   */\n      tag_134\n        /* \"#utility.yul\":1010:1016   */\n      dup2\n        /* \"#utility.yul\":988:1017   */\n      tag_80\n      jump\t// in\n    tag_134:\n        /* \"#utility.yul\":983:986   */\n      dup5\n        /* \"#utility.yul\":979:1018   */\n      add\n        /* \"#utility.yul\":972:1018   */\n      swap2\n      pop\n        /* \"#utility.yul\":739:1024   */\n      pop\n        /* \"#utility.yul\":647:1024   */\n      swap3\n      swap2\n      pop\n      pop\n      jump\t// out\n        /* \"#utility.yul\":1030:1343   */\n    tag_14:\n        /* \"#utility.yul\":1143:1147   */\n      0x00\n        /* \"#utility.yul\":1181:1183   */\n      0x20\n        /* \"#utility.yul\":1170:1179   */\n      dup3\n        /* \"#utility.yul\":1166:1184   */\n      add\n        /* \"#utility.yul\":1158:1184   */\n      swap1\n      pop\n        /* \"#utility.yul\":1230:1239   */\n      dup2\n        /* \"#utility.yul\":1224:1228   */\n      dup2\n        /* \"#utility.yul\":1220:1240   */\n      sub\n        /* \"#utility.yul\":1216:1217   */\n      0x00\n        /* \"#utility.yul\":1205:1214   */\n      dup4\n        /* \"#utility.yul\":1201:1218   */\n      add\n        /* \"#utility.yul\":1194:1241   */\n      mstore\n        /* \"#utility.yul\":1258:1336   */\n      tag_136\n        /* \"#utility.yul\":1331:1335   */\n      dup2\n        /* \"#utility.yul\":1322:1328   */\n      dup5\n        /* \"#utility.yul\":1258:1336   */\n      tag_81\n      jump\t// in\n    tag_136:\n        /* \"#utility.yul\":1250:1336   */\n      swap1\n      pop\n        /* \"#utility.yul\":1030:1343   */\n      swap3\n      swap2\n      pop\n      pop\n      jump\t// out\n        /* \"#utility.yul\":1349:1424   */\n    tag_82:\n        /* \"#utility.yul\":1382:1388   */\n      0x00\n        /* \"#utility.yul\":1415:1417   */\n      0x40\n        /* \"#utility.yul\":1409:1418   */\n      mload\n        /* \"#utility.yul\":1399:1418   */\n      swap1\n      pop\n        /* \"#utility.yul\":1349:1424   */\n      swap1\n      jump\t// out\n        /* \"#utility.yul\":1430:1547   */\n    tag_83:\n        /* \"#utility.yul\":1539:1540   */\n      0x00\n        /* \"#utility.yul\":1536:1537   */\n      dup1\n        /* \"#utility.yul\":1529:1541   */\n      revert\n        /* \"#utility.yul\":1553:1670   */\n    tag_84:\n        /* \"#utility.yul\":1662:1663   */\n      0x00\n        /* \"#utility.yul\":1659:1660   */\n      dup1\n        /* \"#utility.yul\":1652:1664   */\n      revert\n        /* \"#utility.yul\":1676:1753   */\n    tag_85:\n        /* \"#utility.yul\":1713:1720   */\n      0x00\n        /* \"#utility.yul\":1742:1747   */\n      dup2\n        /* \"#utility.yul\":1731:1747   */\n      swap1\n      pop\n        /* \"#utility.yul\":1676:1753   */\n      swap2\n      swap1\n      pop\n      jump\t// out\n        /* \"#utility.yul\":1759:1881   */\n    tag_86:\n        /* \"#utility.yul\":1832:1856   */\n      tag_142\n        /* \"#utility.yul\":1850:1855   */\n      dup2\n        /* \"#utility.yul\":1832:1856   */\n      tag_85\n      jump\t// in\n    tag_142:\n        /* \"#utility.yul\":1825:1830   */\n      dup2\n        /* \"#utility.yul\":1822:1857   */\n      eq\n        /* \"#utility.yul\":1812:1875   */\n      tag_143\n      jumpi\n        /* \"#utility.yul\":1871:1872   */\n      0x00\n        /* \"#utility.yul\":1868:1869   */\n      dup1\n        /* \"#utility.yul\":1861:1873   */\n      revert\n        /* \"#utility.yul\":1812:1875   */\n    tag_143:\n        /* \"#utility.yul\":1759:1881   */\n      pop\n      jump\t// out\n        /* \"#utility.yul\":1887:2026   */\n    tag_87:\n        /* \"#utility.yul\":1933:1938   */\n      0x00\n        /* \"#utility.yul\":1971:1977   */\n      dup2\n        /* \"#utility.yul\":1958:1978   */\n      calldataload\n        /* \"#utility.yul\":1949:1978   */\n      swap1\n      pop\n        /* \"#utility.yul\":1987:2020   */\n      tag_145\n        /* \"#utility.yul\":2014:2019   */\n      dup2\n        /* \"#utility.yul\":1987:2020   */\n      tag_86\n      jump\t// in\n    tag_145:\n        /* \"#utility.yul\":1887:2026   */\n      swap3\n      swap2\n      pop\n      pop\n      jump\t// out\n        /* \"#utility.yul\":2032:2361   */\n    tag_17:\n        /* \"#utility.yul\":2091:2097   */\n      0x00\n        /* \"#utility.yul\":2140:2142   */\n      0x20\n        /* \"#utility.yul\":2128:2137   */\n      dup3\n        /* \"#utility.yul\":2119:2126   */\n      dup5\n        /* \"#utility.yul\":2115:2138   */\n      sub\n        /* \"#utility.yul\":2111:2143   */\n      slt\n        /* \"#utility.yul\":2108:2227   */\n      iszero\n      tag_147\n      jumpi\n        /* \"#utility.yul\":2146:2225   */\n      tag_148\n      tag_83\n      jump\t// in\n    tag_148:\n        /* \"#utility.yul\":2108:2227   */\n    tag_147:\n        /* \"#utility.yul\":2266:2267   */\n      0x00\n        /* \"#utility.yul\":2291:2344   */\n      tag_149\n        /* \"#utility.yul\":2336:2343   */\n      dup5\n        /* \"#utility.yul\":2327:2333   */\n      dup3\n        /* \"#utility.yul\":2316:2325   */\n      dup6\n        /* \"#utility.yul\":2312:2334   */\n      add\n        /* \"#utility.yul\":2291:2344   */\n      tag_87\n      jump\t// in\n    tag_149:\n        /* \"#utility.yul\":2281:2344   */\n      swap2\n      pop\n        /* \"#utility.yul\":2237:2354   */\n      pop\n        /* \"#utility.yul\":2032:2361   */\n      swap3\n      swap2\n      pop\n      pop\n      jump\t// out\n        /* \"#utility.yul\":2367:2493   */\n    tag_88:\n        /* \"#utility.yul\":2404:2411   */\n      0x00\n        /* \"#utility.yul\":2444:2486   */\n      0xffffffffffffffffffffffffffffffffffffffff\n        /* \"#utility.yul\":2437:2442   */\n      dup3\n        /* \"#utility.yul\":2433:2487   */\n      and\n        /* \"#utility.yul\":2422:2487   */\n      swap1\n      pop\n        /* \"#utility.yul\":2367:2493   */\n      swap2\n      swap1\n      pop\n      jump\t// out\n        /* \"#utility.yul\":2499:2595   */\n    tag_89:\n        /* \"#utility.yul\":2536:2543   */\n      0x00\n        /* \"#utility.yul\":2565:2589   */\n      tag_152\n        /* \"#utility.yul\":2583:2588   */\n      dup3\n        /* \"#utility.yul\":2565:2589   */\n      tag_88\n      jump\t// in\n    tag_152:\n        /* \"#utility.yul\":2554:2589   */\n      swap1\n      pop\n        /* \"#utility.yul\":2499:2595   */\n      swap2\n      swap1\n      pop\n      jump\t// out\n        /* \"#utility.yul\":2601:2719   */\n    tag_90:\n        /* \"#utility.yul\":2688:2712   */\n      tag_154\n        /* \"#utility.yul\":2706:2711   */\n      dup2\n        /* \"#utility.yul\":2688:2712   */\n      tag_89\n      jump\t// in\n    tag_154:\n        /* \"#utility.yul\":2683:2686   */\n      dup3\n        /* \"#utility.yul\":2676:2713   */\n      mstore\n        /* \"#utility.yul\":2601:2719   */\n      pop\n      pop\n      jump\t// out\n        /* \"#utility.yul\":2725:2947   */\n    tag_20:\n        /* \"#utility.yul\":2818:2822   */\n      0x00\n        /* \"#utility.yul\":2856:2858   */\n      0x20\n        /* \"#utility.yul\":2845:2854   */\n      dup3\n        /* \"#utility.yul\":2841:2859   */\n      add\n        /* \"#utility.yul\":2833:2859   */\n      swap1\n      pop\n        /* \"#utility.yul\":2869:2940   */\n      tag_156\n        /* \"#utility.yul\":2937:2938   */\n      0x00\n        /* \"#utility.yul\":2926:2935   */\n      dup4\n        /* \"#utility.yul\":2922:2939   */\n      add\n        /* \"#utility.yul\":2913:2919   */\n      dup5\n        /* \"#utility.yul\":2869:2940   */\n      tag_90\n      jump\t// in\n    tag_156:\n        /* \"#utility.yul\":2725:2947   */\n      swap3\n      swap2\n      pop\n      pop\n      jump\t// out\n        /* \"#utility.yul\":2953:3075   */\n    tag_91:\n        /* \"#utility.yul\":3026:3050   */\n      tag_158\n        /* \"#utility.yul\":3044:3049   */\n      dup2\n        /* \"#utility.yul\":3026:3050   */\n      tag_89\n      jump\t// in\n    tag_158:\n        /* \"#utility.yul\":3019:3024   */\n      dup2\n        /* \"#utility.yul\":3016:3051   */\n      eq\n        /* \"#utility.yul\":3006:3069   */\n      tag_159\n      jumpi\n        /* \"#utility.yul\":3065:3066   */\n      0x00\n        /* \"#utility.yul\":3062:3063   */\n      dup1\n        /* \"#utility.yul\":3055:3067   */\n      revert\n        /* \"#utility.yul\":3006:3069   */\n    tag_159:\n        /* \"#utility.yul\":2953:3075   */\n      pop\n      jump\t// out\n        /* \"#utility.yul\":3081:3220   */\n    tag_92:\n        /* \"#utility.yul\":3127:3132   */\n      0x00\n        /* \"#utility.yul\":3165:3171   */\n      dup2\n        /* \"#utility.yul\":3152:3172   */\n      calldataload\n        /* \"#utility.yul\":3143:3172   */\n      swap1\n      pop\n        /* \"#utility.yul\":3181:3214   */\n      tag_161\n        /* \"#utility.yul\":3208:3213   */\n      dup2\n        /* \"#utility.yul\":3181:3214   */\n      tag_91\n      jump\t// in\n    tag_161:\n        /* \"#utility.yul\":3081:3220   */\n      swap3\n      swap2\n      pop\n      pop\n      jump\t// out\n        /* \"#utility.yul\":3226:3555   */\n    tag_23:\n        /* \"#utility.yul\":3285:3291   */\n      0x00\n        /* \"#utility.yul\":3334:3336   */\n      0x20\n        /* \"#utility.yul\":3322:3331   */\n      dup3\n        /* \"#utility.yul\":3313:3320   */\n      dup5\n        /* \"#utility.yul\":3309:3332   */\n      sub\n        /* \"#utility.yul\":3305:3337   */\n      slt\n        /* \"#utility.yul\":3302:3421   */\n      iszero\n      tag_163\n      jumpi\n        /* \"#utility.yul\":3340:3419   */\n      tag_164\n      tag_83\n      jump\t// in\n    tag_164:\n        /* \"#utility.yul\":3302:3421   */\n    tag_163:\n        /* \"#utility.yul\":3460:3461   */\n      0x00\n        /* \"#utility.yul\":3485:3538   */\n      tag_165\n        /* \"#utility.yul\":3530:3537   */\n      dup5\n        /* \"#utility.yul\":3521:3527   */\n      dup3\n        /* \"#utility.yul\":3510:3519   */\n      dup6\n        /* \"#utility.yul\":3506:3528   */\n      add\n        /* \"#utility.yul\":3485:3538   */\n      tag_92\n      jump\t// in\n    tag_165:\n        /* \"#utility.yul\":3475:3538   */\n      swap2\n      pop\n        /* \"#utility.yul\":3431:3548   */\n      pop\n        /* \"#utility.yul\":3226:3555   */\n      swap3\n      swap2\n      pop\n      pop\n      jump\t// out\n        /* \"#utility.yul\":3561:3679   */\n    tag_93:\n        /* \"#utility.yul\":3648:3672   */\n      tag_167\n        /* \"#utility.yul\":3666:3671   */\n      dup2\n        /* \"#utility.yul\":3648:3672   */\n      tag_85\n      jump\t// in\n    tag_167:\n        /* \"#utility.yul\":3643:3646   */\n      dup3\n        /* \"#utility.yul\":3636:3673   */\n      mstore\n        /* \"#utility.yul\":3561:3679   */\n      pop\n      pop\n      jump\t// out\n        /* \"#utility.yul\":3685:3907   */\n    tag_26:\n        /* \"#utility.yul\":3778:3782   */\n      0x00\n        /* \"#utility.yul\":3816:3818   */\n      0x20\n        /* \"#utility.yul\":3805:3814   */\n      dup3\n        /* \"#utility.yul\":3801:3819   */\n      add\n        /* \"#utility.yul\":3793:3819   */\n      swap1\n      pop\n        /* \"#utility.yul\":3829:3900   */\n      tag_169\n        /* \"#utility.yul\":3897:3898   */\n      0x00\n        /* \"#utility.yul\":3886:3895   */\n      dup4\n        /* \"#utility.yul\":3882:3899   */\n      add\n        /* \"#utility.yul\":3873:3879   */\n      dup5\n        /* \"#utility.yul\":3829:3900   */\n      tag_93\n      jump\t// in\n    tag_169:\n        /* \"#utility.yul\":3685:3907   */\n      swap3\n      swap2\n      pop\n      pop\n      jump\t// out\n        /* \"#utility.yul\":3913:4532   */\n    tag_32:\n        /* \"#utility.yul\":3990:3996   */\n      0x00\n        /* \"#utility.yul\":3998:4004   */\n      dup1\n        /* \"#utility.yul\":4006:4012   */\n      0x00\n        /* \"#utility.yul\":4055:4057   */\n      0x60\n        /* \"#utility.yul\":4043:4052   */\n      dup5\n        /* \"#utility.yul\":4034:4041   */\n      dup7\n        /* \"#utility.yul\":4030:4053   */\n      sub\n        /* \"#utility.yul\":4026:4058   */\n      slt\n        /* \"#utility.yul\":4023:4142   */\n      iszero\n      tag_171\n      jumpi\n        /* \"#utility.yul\":4061:4140   */\n      tag_172\n      tag_83\n      jump\t// in\n    tag_172:\n        /* \"#utility.yul\":4023:4142   */\n    tag_171:\n        /* \"#utility.yul\":4181:4182   */\n      0x00\n        /* \"#utility.yul\":4206:4259   */\n      tag_173\n        /* \"#utility.yul\":4251:4258   */\n      dup7\n        /* \"#utility.yul\":4242:4248   */\n      dup3\n        /* \"#utility.yul\":4231:4240   */\n      dup8\n        /* \"#utility.yul\":4227:4249   */\n      add\n        /* \"#utility.yul\":4206:4259   */\n      tag_92\n      jump\t// in\n    tag_173:\n        /* \"#utility.yul\":4196:4259   */\n      swap4\n      pop\n        /* \"#utility.yul\":4152:4269   */\n      pop\n        /* \"#utility.yul\":4308:4310   */\n      0x20\n        /* \"#utility.yul\":4334:4387   */\n      tag_174\n        /* \"#utility.yul\":4379:4386   */\n      dup7\n        /* \"#utility.yul\":4370:4376   */\n      dup3\n        /* \"#utility.yul\":4359:4368   */\n      dup8\n        /* \"#utility.yul\":4355:4377   */\n      add\n        /* \"#utility.yul\":4334:4387   */\n      tag_92\n      jump\t// in\n    tag_174:\n        /* \"#utility.yul\":4324:4387   */\n      swap3\n      pop\n        /* \"#utility.yul\":4279:4397   */\n      pop\n        /* \"#utility.yul\":4436:4438   */\n      0x40\n        /* \"#utility.yul\":4462:4515   */\n      tag_175\n        /* \"#utility.yul\":4507:4514   */\n      dup7\n        /* \"#utility.yul\":4498:4504   */\n      dup3\n        /* \"#utility.yul\":4487:4496   */\n      dup8\n        /* \"#utility.yul\":4483:4505   */\n      add\n        /* \"#utility.yul\":4462:4515   */\n      tag_87\n      jump\t// in\n    tag_175:\n        /* \"#utility.yul\":4452:4515   */\n      swap2\n      pop\n        /* \"#utility.yul\":4407:4525   */\n      pop\n        /* \"#utility.yul\":3913:4532   */\n      swap3\n      pop\n      swap3\n      pop\n      swap3\n      jump\t// out\n        /* \"#utility.yul\":4538:4655   */\n    tag_94:\n        /* \"#utility.yul\":4647:4648   */\n      0x00\n        /* \"#utility.yul\":4644:4645   */\n      dup1\n        /* \"#utility.yul\":4637:4649   */\n      revert\n        /* \"#utility.yul\":4661:4778   */\n    tag_95:\n        /* \"#utility.yul\":4770:4771   */\n      0x00\n        /* \"#utility.yul\":4767:4768   */\n      dup1\n        /* \"#utility.yul\":4760:4772   */\n      revert\n        /* \"#utility.yul\":4784:4964   */\n    tag_96:\n        /* \"#utility.yul\":4832:4909   */\n      0x4e487b7100000000000000000000000000000000000000000000000000000000\n        /* \"#utility.yul\":4829:4830   */\n      0x00\n        /* \"#utility.yul\":4822:4910   */\n      mstore\n        /* \"#utility.yul\":4929:4933   */\n      0x41\n        /* \"#utility.yul\":4926:4927   */\n      0x04\n        /* \"#utility.yul\":4919:4934   */\n      mstore\n        /* \"#utility.yul\":4953:4957   */\n      0x24\n        /* \"#utility.yul\":4950:4951   */\n      0x00\n        /* \"#utility.yul\":4943:4958   */\n      revert\n        /* \"#utility.yul\":4970:5251   */\n    tag_97:\n        /* \"#utility.yul\":5053:5080   */\n      tag_180\n        /* \"#utility.yul\":5075:5079   */\n      dup3\n        /* \"#utility.yul\":5053:5080   */\n      tag_80\n      jump\t// in\n    tag_180:\n        /* \"#utility.yul\":5045:5051   */\n      dup2\n        /* \"#utility.yul\":5041:5081   */\n      add\n        /* \"#utility.yul\":5183:5189   */\n      dup2\n        /* \"#utility.yul\":5171:5181   */\n      dup2\n        /* \"#utility.yul\":5168:5190   */\n      lt\n        /* \"#utility.yul\":5147:5165   */\n      0xffffffffffffffff\n        /* \"#utility.yul\":5135:5145   */\n      dup3\n        /* \"#utility.yul\":5132:5166   */\n      gt\n        /* \"#utility.yul\":5129:5191   */\n      or\n        /* \"#utility.yul\":5126:5214   */\n      iszero\n      tag_181\n      jumpi\n        /* \"#utility.yul\":5194:5212   */\n      tag_182\n      tag_96\n      jump\t// in\n    tag_182:\n        /* \"#utility.yul\":5126:5214   */\n    tag_181:\n        /* \"#utility.yul\":5234:5244   */\n      dup1\n        /* \"#utility.yul\":5230:5232   */\n      0x40\n        /* \"#utility.yul\":5223:5245   */\n      mstore\n        /* \"#utility.yul\":5013:5251   */\n      pop\n        /* \"#utility.yul\":4970:5251   */\n      pop\n      pop\n      jump\t// out\n        /* \"#utility.yul\":5257:5386   */\n    tag_98:\n        /* \"#utility.yul\":5291:5297   */\n      0x00\n        /* \"#utility.yul\":5318:5338   */\n      tag_184\n      tag_82\n      jump\t// in\n    tag_184:\n        /* \"#utility.yul\":5308:5338   */\n      swap1\n      pop\n        /* \"#utility.yul\":5347:5380   */\n      tag_185\n        /* \"#utility.yul\":5375:5379   */\n      dup3\n        /* \"#utility.yul\":5367:5373   */\n      dup3\n        /* \"#utility.yul\":5347:5380   */\n      tag_97\n      jump\t// in\n    tag_185:\n        /* \"#utility.yul\":5257:5386   */\n      swap2\n      swap1\n      pop\n      jump\t// out\n        /* \"#utility.yul\":5392:5700   */\n    tag_99:\n        /* \"#utility.yul\":5454:5458   */\n      0x00\n        /* \"#utility.yul\":5544:5562   */\n      0xffffffffffffffff\n        /* \"#utility.yul\":5536:5542   */\n      dup3\n        /* \"#utility.yul\":5533:5563   */\n      gt\n        /* \"#utility.yul\":5530:5586   */\n      iszero\n      tag_187\n      jumpi\n        /* \"#utility.yul\":5566:5584   */\n      tag_188\n      tag_96\n      jump\t// in\n    tag_188:\n        /* \"#utility.yul\":5530:5586   */\n    tag_187:\n        /* \"#utility.yul\":5604:5633   */\n      tag_189\n        /* \"#utility.yul\":5626:5632   */\n      dup3\n        /* \"#utility.yul\":5604:5633   */\n      tag_80\n      jump\t// in\n    tag_189:\n        /* \"#utility.yul\":5596:5633   */\n      swap1\n      pop\n        /* \"#utility.yul\":5688:5692   */\n      0x20\n        /* \"#utility.yul\":5682:5686   */\n      dup2\n        /* \"#utility.yul\":5678:5693   */\n      add\n        /* \"#utility.yul\":5670:5693   */\n      swap1\n      pop\n        /* \"#utility.yul\":5392:5700   */\n      swap2\n      swap1\n      pop\n      jump\t// out\n        /* \"#utility.yul\":5706:5852   */\n    tag_100:\n        /* \"#utility.yul\":5803:5809   */\n      dup3\n        /* \"#utility.yul\":5798:5801   */\n      dup2\n        /* \"#utility.yul\":5793:5796   */\n      dup4\n        /* \"#utility.yul\":5780:5810   */\n      calldatacopy\n        /* \"#utility.yul\":5844:5845   */\n      0x00\n        /* \"#utility.yul\":5835:5841   */\n      dup4\n        /* \"#utility.yul\":5830:5833   */\n      dup4\n        /* \"#utility.yul\":5826:5842   */\n      add\n        /* \"#utility.yul\":5819:5846   */\n      mstore\n        /* \"#utility.yul\":5706:5852   */\n      pop\n      pop\n      pop\n      jump\t// out\n        /* \"#utility.yul\":5858:6283   */\n    tag_101:\n        /* \"#utility.yul\":5936:5941   */\n      0x00\n        /* \"#utility.yul\":5961:6027   */\n      tag_192\n        /* \"#utility.yul\":5977:6026   */\n      tag_193\n        /* \"#utility.yul\":6019:6025   */\n      dup5\n        /* \"#utility.yul\":5977:6026   */\n      tag_99\n      jump\t// in\n    tag_193:\n        /* \"#utility.yul\":5961:6027   */\n      tag_98\n      jump\t// in\n    tag_192:\n        /* \"#utility.yul\":5952:6027   */\n      swap1\n      pop\n        /* \"#utility.yul\":6050:6056   */\n      dup3\n        /* \"#utility.yul\":6043:6048   */\n      dup2\n        /* \"#utility.yul\":6036:6057   */\n      mstore\n        /* \"#utility.yul\":6088:6092   */\n      0x20\n        /* \"#utility.yul\":6081:6086   */\n      dup2\n        /* \"#utility.yul\":6077:6093   */\n      add\n        /* \"#utility.yul\":6126:6129   */\n      dup5\n        /* \"#utility.yul\":6117:6123   */\n      dup5\n        /* \"#utility.yul\":6112:6115   */\n      dup5\n        /* \"#utility.yul\":6108:6124   */\n      add\n        /* \"#utility.yul\":6105:6130   */\n      gt\n        /* \"#utility.yul\":6102:6214   */\n      iszero\n      tag_194\n      jumpi\n        /* \"#utility.yul\":6133:6212   */\n      tag_195\n      tag_95\n      jump\t// in\n    tag_195:\n        /* \"#utility.yul\":6102:6214   */\n    tag_194:\n        /* \"#utility.yul\":6223:6277   */\n      tag_196\n        /* \"#utility.yul\":6270:6276   */\n      dup5\n        /* \"#utility.yul\":6265:6268   */\n      dup3\n        /* \"#utility.yul\":6260:6263   */\n      dup6\n        /* \"#utility.yul\":6223:6277   */\n      tag_100\n      jump\t// in\n    tag_196:\n        /* \"#utility.yul\":5942:6283   */\n      pop\n        /* \"#utility.yul\":5858:6283   */\n      swap4\n      swap3\n      pop\n      pop\n      pop\n      jump\t// out\n        /* \"#utility.yul\":6303:6643   */\n    tag_102:\n        /* \"#utility.yul\":6359:6364   */\n      0x00\n        /* \"#utility.yul\":6408:6411   */\n      dup3\n        /* \"#utility.yul\":6401:6405   */\n      0x1f\n        /* \"#utility.yul\":6393:6399   */\n      dup4\n        /* \"#utility.yul\":6389:6406   */\n      add\n        /* \"#utility.yul\":6385:6412   */\n      slt\n        /* \"#utility.yul\":6375:6497   */\n      tag_198\n      jumpi\n        /* \"#utility.yul\":6416:6495   */\n      tag_199\n      tag_94\n      jump\t// in\n    tag_199:\n        /* \"#utility.yul\":6375:6497   */\n    tag_198:\n        /* \"#utility.yul\":6533:6539   */\n      dup2\n        /* \"#utility.yul\":6520:6540   */\n      calldataload\n        /* \"#utility.yul\":6558:6637   */\n      tag_200\n        /* \"#utility.yul\":6633:6636   */\n      dup5\n        /* \"#utility.yul\":6625:6631   */\n      dup3\n        /* \"#utility.yul\":6618:6622   */\n      0x20\n        /* \"#utility.yul\":6610:6616   */\n      dup7\n        /* \"#utility.yul\":6606:6623   */\n      add\n        /* \"#utility.yul\":6558:6637   */\n      tag_101\n      jump\t// in\n    tag_200:\n        /* \"#utility.yul\":6549:6637   */\n      swap2\n      pop\n        /* \"#utility.yul\":6365:6643   */\n      pop\n        /* \"#utility.yul\":6303:6643   */\n      swap3\n      swap2\n      pop\n      pop\n      jump\t// out\n        /* \"#utility.yul\":6649:7303   */\n    tag_40:\n        /* \"#utility.yul\":6727:6733   */\n      0x00\n        /* \"#utility.yul\":6735:6741   */\n      dup1\n        /* \"#utility.yul\":6784:6786   */\n      0x40\n        /* \"#utility.yul\":6772:6781   */\n      dup4\n        /* \"#utility.yul\":6763:6770   */\n      dup6\n        /* \"#utility.yul\":6759:6782   */\n      sub\n        /* \"#utility.yul\":6755:6787   */\n      slt\n        /* \"#utility.yul\":6752:6871   */\n      iszero\n      tag_202\n      jumpi\n        /* \"#utility.yul\":6790:6869   */\n      tag_203\n      tag_83\n      jump\t// in\n    tag_203:\n        /* \"#utility.yul\":6752:6871   */\n    tag_202:\n        /* \"#utility.yul\":6910:6911   */\n      0x00\n        /* \"#utility.yul\":6935:6988   */\n      tag_204\n        /* \"#utility.yul\":6980:6987   */\n      dup6\n        /* \"#utility.yul\":6971:6977   */\n      dup3\n        /* \"#utility.yul\":6960:6969   */\n      dup7\n        /* \"#utility.yul\":6956:6978   */\n      add\n        /* \"#utility.yul\":6935:6988   */\n      tag_92\n      jump\t// in\n    tag_204:\n        /* \"#utility.yul\":6925:6988   */\n      swap3\n      pop\n        /* \"#utility.yul\":6881:6998   */\n      pop\n        /* \"#utility.yul\":7065:7067   */\n      0x20\n        /* \"#utility.yul\":7054:7063   */\n      dup4\n        /* \"#utility.yul\":7050:7068   */\n      add\n        /* \"#utility.yul\":7037:7069   */\n      calldataload\n        /* \"#utility.yul\":7096:7114   */\n      0xffffffffffffffff\n        /* \"#utility.yul\":7088:7094   */\n      dup2\n        /* \"#utility.yul\":7085:7115   */\n      gt\n        /* \"#utility.yul\":7082:7199   */\n      iszero\n      tag_205\n      jumpi\n        /* \"#utility.yul\":7118:7197   */\n      tag_206\n      tag_84\n      jump\t// in\n    tag_206:\n        /* \"#utility.yul\":7082:7199   */\n    tag_205:\n        /* \"#utility.yul\":7223:7286   */\n      tag_207\n        /* \"#utility.yul\":7278:7285   */\n      dup6\n        /* \"#utility.yul\":7269:7275   */\n      dup3\n        /* \"#utility.yul\":7258:7267   */\n      dup7\n        /* \"#utility.yul\":7254:7276   */\n      add\n        /* \"#utility.yul\":7223:7286   */\n      tag_102\n      jump\t// in\n    tag_207:\n        /* \"#utility.yul\":7213:7286   */\n      swap2\n      pop\n        /* \"#utility.yul\":7008:7296   */\n      pop\n        /* \"#utility.yul\":6649:7303   */\n      swap3\n      pop\n      swap3\n      swap1\n      pop\n      jump\t// out\n        /* \"#utility.yul\":7309:7489   */\n    tag_103:\n        /* \"#utility.yul\":7357:7434   */\n      0x4e487b7100000000000000000000000000000000000000000000000000000000\n        /* \"#utility.yul\":7354:7355   */\n      0x00\n        /* \"#utility.yul\":7347:7435   */\n      mstore\n        /* \"#utility.yul\":7454:7458   */\n      0x22\n        /* \"#utility.yul\":7451:7452   */\n      0x04\n        /* \"#utility.yul\":7444:7459   */\n      mstore\n        /* \"#utility.yul\":7478:7482   */\n      0x24\n        /* \"#utility.yul\":7475:7476   */\n      0x00\n        /* \"#utility.yul\":7468:7483   */\n      revert\n        /* \"#utility.yul\":7495:7815   */\n    tag_43:\n        /* \"#utility.yul\":7539:7545   */\n      0x00\n        /* \"#utility.yul\":7576:7577   */\n      0x02\n        /* \"#utility.yul\":7570:7574   */\n      dup3\n        /* \"#utility.yul\":7566:7578   */\n      div\n        /* \"#utility.yul\":7556:7578   */\n      swap1\n      pop\n        /* \"#utility.yul\":7623:7624   */\n      0x01\n        /* \"#utility.yul\":7617:7621   */\n      dup3\n        /* \"#utility.yul\":7613:7625   */\n      and\n        /* \"#utility.yul\":7644:7662   */\n      dup1\n        /* \"#utility.yul\":7634:7715   */\n      tag_210\n      jumpi\n        /* \"#utility.yul\":7700:7704   */\n      0x7f\n        /* \"#utility.yul\":7692:7698   */\n      dup3\n        /* \"#utility.yul\":7688:7705   */\n      and\n        /* \"#utility.yul\":7678:7705   */\n      swap2\n      pop\n        /* \"#utility.yul\":7634:7715   */\n    tag_210:\n        /* \"#utility.yul\":7762:7764   */\n      0x20\n        /* \"#utility.yul\":7754:7760   */\n      dup3\n        /* \"#utility.yul\":7751:7765   */\n      lt\n        /* \"#utility.yul\":7731:7749   */\n      dup2\n        /* \"#utility.yul\":7728:7766   */\n      sub\n        /* \"#utility.yul\":7725:7809   */\n      tag_211\n      jumpi\n        /* \"#utility.yul\":7781:7799   */\n      tag_212\n      tag_103\n      jump\t// in\n    tag_212:\n        /* \"#utility.yul\":7725:7809   */\n    tag_211:\n        /* \"#utility.yul\":7546:7815   */\n      pop\n        /* \"#utility.yul\":7495:7815   */\n      swap2\n      swap1\n      pop\n      jump\t// out\n        /* \"#utility.yul\":7821:8061   */\n    tag_104:\n        /* \"#utility.yul\":7961:7995   */\n      0x4552433430343a207472616e73666572206f6620746f6b656e20746861742069\n        /* \"#utility.yul\":7957:7958   */\n      0x00\n        /* \"#utility.yul\":7949:7955   */\n      dup3\n        /* \"#utility.yul\":7945:7959   */\n      add\n        /* \"#utility.yul\":7938:7996   */\n      mstore\n        /* \"#utility.yul\":8030:8053   */\n      0x73206e6f74206f776e65642062792073656e6465720000000000000000000000\n        /* \"#utility.yul\":8025:8027   */\n      0x20\n        /* \"#utility.yul\":8017:8023   */\n      dup3\n        /* \"#utility.yul\":8013:8028   */\n      add\n        /* \"#utility.yul\":8006:8054   */\n      mstore\n        /* \"#utility.yul\":7821:8061   */\n      pop\n      jump\t// out\n        /* \"#utility.yul\":8067:8433   */\n    tag_105:\n        /* \"#utility.yul\":8209:8212   */\n      0x00\n        /* \"#utility.yul\":8230:8297   */\n      tag_215\n        /* \"#utility.yul\":8294:8296   */\n      0x35\n        /* \"#utility.yul\":8289:8292   */\n      dup4\n        /* \"#utility.yul\":8230:8297   */\n      tag_78\n      jump\t// in\n    tag_215:\n        /* \"#utility.yul\":8223:8297   */\n      swap2\n      pop\n        /* \"#utility.yul\":8306:8399   */\n      tag_216\n        /* \"#utility.yul\":8395:8398   */\n      dup3\n        /* \"#utility.yul\":8306:8399   */\n      tag_104\n      jump\t// in\n    tag_216:\n        /* \"#utility.yul\":8424:8426   */\n      0x40\n        /* \"#utility.yul\":8419:8422   */\n      dup3\n        /* \"#utility.yul\":8415:8427   */\n      add\n        /* \"#utility.yul\":8408:8427   */\n      swap1\n      pop\n        /* \"#utility.yul\":8067:8433   */\n      swap2\n      swap1\n      pop\n      jump\t// out\n        /* \"#utility.yul\":8439:8858   */\n    tag_57:\n        /* \"#utility.yul\":8605:8609   */\n      0x00\n        /* \"#utility.yul\":8643:8645   */\n      0x20\n        /* \"#utility.yul\":8632:8641   */\n      dup3\n        /* \"#utility.yul\":8628:8646   */\n      add\n        /* \"#utility.yul\":8620:8646   */\n      swap1\n      pop\n        /* \"#utility.yul\":8692:8701   */\n      dup2\n        /* \"#utility.yul\":8686:8690   */\n      dup2\n        /* \"#utility.yul\":8682:8702   */\n      sub\n        /* \"#utility.yul\":8678:8679   */\n      0x00\n        /* \"#utility.yul\":8667:8676   */\n      dup4\n        /* \"#utility.yul\":8663:8680   */\n      add\n        /* \"#utility.yul\":8656:8703   */\n      mstore\n        /* \"#utility.yul\":8720:8851   */\n      tag_218\n        /* \"#utility.yul\":8846:8850   */\n      dup2\n        /* \"#utility.yul\":8720:8851   */\n      tag_105\n      jump\t// in\n    tag_218:\n        /* \"#utility.yul\":8712:8851   */\n      swap1\n      pop\n        /* \"#utility.yul\":8439:8858   */\n      swap2\n      swap1\n      pop\n      jump\t// out\n        /* \"#utility.yul\":8864:9044   */\n    tag_106:\n        /* \"#utility.yul\":8912:8989   */\n      0x4e487b7100000000000000000000000000000000000000000000000000000000\n        /* \"#utility.yul\":8909:8910   */\n      0x00\n        /* \"#utility.yul\":8902:8990   */\n      mstore\n        /* \"#utility.yul\":9009:9013   */\n      0x11\n        /* \"#utility.yul\":9006:9007   */\n      0x04\n        /* \"#utility.yul\":8999:9014   */\n      mstore\n        /* \"#utility.yul\":9033:9037   */\n      0x24\n        /* \"#utility.yul\":9030:9031   */\n      0x00\n        /* \"#utility.yul\":9023:9038   */\n      revert\n        /* \"#utility.yul\":9050:9244   */\n    tag_59:\n        /* \"#utility.yul\":9090:9094   */\n      0x00\n        /* \"#utility.yul\":9110:9130   */\n      tag_221\n        /* \"#utility.yul\":9128:9129   */\n      dup3\n        /* \"#utility.yul\":9110:9130   */\n      tag_85\n      jump\t// in\n    tag_221:\n        /* \"#utility.yul\":9105:9130   */\n      swap2\n      pop\n        /* \"#utility.yul\":9144:9164   */\n      tag_222\n        /* \"#utility.yul\":9162:9163   */\n      dup4\n        /* \"#utility.yul\":9144:9164   */\n      tag_85\n      jump\t// in\n    tag_222:\n        /* \"#utility.yul\":9139:9164   */\n      swap3\n      pop\n        /* \"#utility.yul\":9188:9189   */\n      dup3\n        /* \"#utility.yul\":9185:9186   */\n      dup3\n        /* \"#utility.yul\":9181:9190   */\n      sub\n        /* \"#utility.yul\":9173:9190   */\n      swap1\n      pop\n        /* \"#utility.yul\":9212:9213   */\n      dup2\n        /* \"#utility.yul\":9206:9210   */\n      dup2\n        /* \"#utility.yul\":9203:9214   */\n      gt\n        /* \"#utility.yul\":9200:9237   */\n      iszero\n      tag_223\n      jumpi\n        /* \"#utility.yul\":9217:9235   */\n      tag_224\n      tag_106\n      jump\t// in\n    tag_224:\n        /* \"#utility.yul\":9200:9237   */\n    tag_223:\n        /* \"#utility.yul\":9050:9244   */\n      swap3\n      swap2\n      pop\n      pop\n      jump\t// out\n        /* \"#utility.yul\":9250:9441   */\n    tag_61:\n        /* \"#utility.yul\":9290:9293   */\n      0x00\n        /* \"#utility.yul\":9309:9329   */\n      tag_226\n        /* \"#utility.yul\":9327:9328   */\n      dup3\n        /* \"#utility.yul\":9309:9329   */\n      tag_85\n      jump\t// in\n    tag_226:\n        /* \"#utility.yul\":9304:9329   */\n      swap2\n      pop\n        /* \"#utility.yul\":9343:9363   */\n      tag_227\n        /* \"#utility.yul\":9361:9362   */\n      dup4\n        /* \"#utility.yul\":9343:9363   */\n      tag_85\n      jump\t// in\n    tag_227:\n        /* \"#utility.yul\":9338:9363   */\n      swap3\n      pop\n        /* \"#utility.yul\":9386:9387   */\n      dup3\n        /* \"#utility.yul\":9383:9384   */\n      dup3\n        /* \"#utility.yul\":9379:9388   */\n      add\n        /* \"#utility.yul\":9372:9388   */\n      swap1\n      pop\n        /* \"#utility.yul\":9407:9410   */\n      dup1\n        /* \"#utility.yul\":9404:9405   */\n      dup3\n        /* \"#utility.yul\":9401:9411   */\n      gt\n        /* \"#utility.yul\":9398:9434   */\n      iszero\n      tag_228\n      jumpi\n        /* \"#utility.yul\":9414:9432   */\n      tag_229\n      tag_106\n      jump\t// in\n    tag_229:\n        /* \"#utility.yul\":9398:9434   */\n    tag_228:\n        /* \"#utility.yul\":9250:9441   */\n      swap3\n      swap2\n      pop\n      pop\n      jump\t// out\n        /* \"#utility.yul\":9447:9680   */\n    tag_73:\n        /* \"#utility.yul\":9486:9489   */\n      0x00\n        /* \"#utility.yul\":9509:9533   */\n      tag_231\n        /* \"#utility.yul\":9527:9532   */\n      dup3\n        /* \"#utility.yul\":9509:9533   */\n      tag_85\n      jump\t// in\n    tag_231:\n        /* \"#utility.yul\":9500:9533   */\n      swap2\n      pop\n        /* \"#utility.yul\":9555:9621   */\n      0xffffffffffffffffffffffffffffffffffffffffffffffffffffffffffffffff\n        /* \"#utility.yul\":9548:9553   */\n      dup3\n        /* \"#utility.yul\":9545:9622   */\n      sub\n        /* \"#utility.yul\":9542:9645   */\n      tag_232\n      jumpi\n        /* \"#utility.yul\":9625:9643   */\n      tag_233\n      tag_106\n      jump\t// in\n    tag_233:\n        /* \"#utility.yul\":9542:9645   */\n    tag_232:\n        /* \"#utility.yul\":9672:9673   */\n      0x01\n        /* \"#utility.yul\":9665:9670   */\n      dup3\n        /* \"#utility.yul\":9661:9674   */\n      add\n        /* \"#utility.yul\":9654:9674   */\n      swap1\n      pop\n        /* \"#utility.yul\":9447:9680   */\n      swap2\n      swap1\n      pop\n      jump\t// out\n        /* \"#utility.yul\":9686:9827   */\n    tag_107:\n        /* \"#utility.yul\":9735:9739   */\n      0x00\n        /* \"#utility.yul\":9758:9761   */\n      dup2\n        /* \"#utility.yul\":9750:9761   */\n      swap1\n      pop\n        /* \"#utility.yul\":9781:9784   */\n      dup2\n        /* \"#utility.yul\":9778:9779   */\n      0x00\n        /* \"#utility.yul\":9771:9785   */\n      mstore\n        /* \"#utility.yul\":9815:9819   */\n      0x20\n        /* \"#utility.yul\":9812:9813   */\n      0x00\n        /* \"#utility.yul\":9802:9820   */\n      keccak256\n        /* \"#utility.yul\":9794:9820   */\n      swap1\n      pop\n        /* \"#utility.yul\":9686:9827   */\n      swap2\n      swap1\n      pop\n      jump\t// out\n        /* \"#utility.yul\":9833:9926   */\n    tag_108:\n        /* \"#utility.yul\":9870:9876   */\n      0x00\n        /* \"#utility.yul\":9917:9919   */\n      0x20\n        /* \"#utility.yul\":9912:9914   */\n      0x1f\n        /* \"#utility.yul\":9905:9910   */\n      dup4\n        /* \"#utility.yul\":9901:9915   */\n      add\n        /* \"#utility.yul\":9897:9920   */\n      div\n        /* \"#utility.yul\":9887:9920   */\n      swap1\n      pop\n        /* \"#utility.yul\":9833:9926   */\n      swap2\n      swap1\n      pop\n      jump\t// out\n        /* \"#utility.yul\":9932:10039   */\n    tag_109:\n        /* \"#utility.yul\":9976:9984   */\n      0x00\n        /* \"#utility.yul\":10026:10031   */\n      dup3\n        /* \"#utility.yul\":10020:10024   */\n      dup3\n        /* \"#utility.yul\":10016:10032   */\n      shl\n        /* \"#utility.yul\":9995:10032   */\n      swap1\n      pop\n        /* \"#utility.yul\":9932:10039   */\n      swap3\n      swap2\n      pop\n      pop\n      jump\t// out\n        /* \"#utility.yul\":10045:10438   */\n    tag_110:\n        /* \"#utility.yul\":10114:10120   */\n      0x00\n        /* \"#utility.yul\":10164:10165   */\n      0x08\n        /* \"#utility.yul\":10152:10162   */\n      dup4\n        /* \"#utility.yul\":10148:10166   */\n      mul\n        /* \"#utility.yul\":10187:10284   */\n      tag_238\n        /* \"#utility.yul\":10217:10283   */\n      0xffffffffffffffffffffffffffffffffffffffffffffffffffffffffffffffff\n        /* \"#utility.yul\":10206:10215   */\n      dup3\n        /* \"#utility.yul\":10187:10284   */\n      tag_109\n      jump\t// in\n    tag_238:\n        /* \"#utility.yul\":10305:10344   */\n      tag_239\n        /* \"#utility.yul\":10335:10343   */\n      dup7\n        /* \"#utility.yul\":10324:10333   */\n      dup4\n        /* \"#utility.yul\":10305:10344   */\n      tag_109\n      jump\t// in\n    tag_239:\n        /* \"#utility.yul\":10293:10344   */\n      swap6\n      pop\n        /* \"#utility.yul\":10377:10381   */\n      dup1\n        /* \"#utility.yul\":10373:10382   */\n      not\n        /* \"#utility.yul\":10366:10371   */\n      dup5\n        /* \"#utility.yul\":10362:10383   */\n      and\n        /* \"#utility.yul\":10353:10383   */\n      swap4\n      pop\n        /* \"#utility.yul\":10426:10430   */\n      dup1\n        /* \"#utility.yul\":10416:10424   */\n      dup7\n        /* \"#utility.yul\":10412:10431   */\n      and\n        /* \"#utility.yul\":10405:10410   */\n      dup5\n        /* \"#utility.yul\":10402:10432   */\n      or\n        /* \"#utility.yul\":10392:10432   */\n      swap3\n      pop\n        /* \"#utility.yul\":10121:10438   */\n      pop\n      pop\n        /* \"#utility.yul\":10045:10438   */\n      swap4\n      swap3\n      pop\n      pop\n      pop\n      jump\t// out\n        /* \"#utility.yul\":10444:10504   */\n    tag_111:\n        /* \"#utility.yul\":10472:10475   */\n      0x00\n        /* \"#utility.yul\":10493:10498   */\n      dup2\n        /* \"#utility.yul\":10486:10498   */\n      swap1\n      pop\n        /* \"#utility.yul\":10444:10504   */\n      swap2\n      swap1\n      pop\n      jump\t// out\n        /* \"#utility.yul\":10510:10652   */\n    tag_112:\n        /* \"#utility.yul\":10560:10569   */\n      0x00\n        /* \"#utility.yul\":10593:10646   */\n      tag_242\n        /* \"#utility.yul\":10611:10645   */\n      tag_243\n        /* \"#utility.yul\":10620:10644   */\n      tag_244\n        /* \"#utility.yul\":10638:10643   */\n      dup5\n        /* \"#utility.yul\":10620:10644   */\n      tag_85\n      jump\t// in\n    tag_244:\n        /* \"#utility.yul\":10611:10645   */\n      tag_111\n      jump\t// in\n    tag_243:\n        /* \"#utility.yul\":10593:10646   */\n      tag_85\n      jump\t// in\n    tag_242:\n        /* \"#utility.yul\":10580:10646   */\n      swap1\n      pop\n        /* \"#utility.yul\":10510:10652   */\n      swap2\n      swap1\n      pop\n      jump\t// out\n        /* \"#utility.yul\":10658:10733   */\n    tag_113:\n        /* \"#utility.yul\":10701:10704   */\n      0x00\n        /* \"#utility.yul\":10722:10727   */\n      dup2\n        /* \"#utility.yul\":10715:10727   */\n      swap1\n      pop\n        /* \"#utility.yul\":10658:10733   */\n      swap2\n      swap1\n      pop\n      jump\t// out\n        /* \"#utility.yul\":10739:11008   */\n    tag_114:\n        /* \"#utility.yul\":10849:10888   */\n      tag_247\n        /* \"#utility.yul\":10880:10887   */\n      dup4\n        /* \"#utility.yul\":10849:10888   */\n      tag_112\n      jump\t// in\n    tag_247:\n        /* \"#utility.yul\":10910:11001   */\n      tag_248\n        /* \"#utility.yul\":10959:11000   */\n      tag_249\n        /* \"#utility.yul\":10983:10999   */\n      dup3\n        /* \"#utility.yul\":10959:11000   */\n      tag_113\n      jump\t// in\n    tag_249:\n        /* \"#utility.yul\":10951:10957   */\n      dup5\n        /* \"#utility.yul\":10944:10948   */\n      dup5\n        /* \"#utility.yul\":10938:10949   */\n      sload\n        /* \"#utility.yul\":10910:11001   */\n      tag_110\n      jump\t// in\n    tag_248:\n        /* \"#utility.yul\":10904:10908   */\n      dup3\n        /* \"#utility.yul\":10897:11002   */\n      sstore\n        /* \"#utility.yul\":10815:11008   */\n      pop\n        /* \"#utility.yul\":10739:11008   */\n      pop\n      pop\n      pop\n      jump\t// out\n        /* \"#utility.yul\":11014:11087   */\n    tag_115:\n        /* \"#utility.yul\":11059:11062   */\n      0x00\n        /* \"#utility.yul\":11014:11087   */\n      swap1\n      jump\t// out\n        /* \"#utility.yul\":11093:11282   */\n    tag_116:\n        /* \"#utility.yul\":11170:11202   */\n      tag_252\n      tag_115\n      jump\t// in\n    tag_252:\n        /* \"#utility.yul\":11211:11276   */\n      tag_253\n        /* \"#utility.yul\":11269:11275   */\n      dup2\n        /* \"#utility.yul\":11261:11267   */\n      dup5\n        /* \"#utility.yul\":11255:11259   */\n      dup5\n        /* \"#utility.yul\":11211:11276   */\n      tag_114\n      jump\t// in\n    tag_253:\n        /* \"#utility.yul\":11146:11282   */\n      pop\n        /* \"#utility.yul\":11093:11282   */\n      pop\n      pop\n      jump\t// out\n        /* \"#utility.yul\":11288:11474   */\n    tag_117:\n        /* \"#utility.yul\":11348:11468   */\n    tag_255:\n        /* \"#utility.yul\":11365:11368   */\n      dup2\n        /* \"#utility.yul\":11358:11363   */\n      dup2\n        /* \"#utility.yul\":11355:11369   */\n      lt\n        /* \"#utility.yul\":11348:11468   */\n      iszero\n      tag_257\n      jumpi\n        /* \"#utility.yul\":11419:11458   */\n      tag_258\n        /* \"#utility.yul\":11456:11457   */\n      0x00\n        /* \"#utility.yul\":11449:11454   */\n      dup3\n        /* \"#utility.yul\":11419:11458   */\n      tag_116\n      jump\t// in\n    tag_258:\n        /* \"#utility.yul\":11392:11393   */\n      0x01\n        /* \"#utility.yul\":11385:11390   */\n      dup2\n        /* \"#utility.yul\":11381:11394   */\n      add\n        /* \"#utility.yul\":11372:11394   */\n      swap1\n      pop\n        /* \"#utility.yul\":11348:11468   */\n      jump(tag_255)\n    tag_257:\n        /* \"#utility.yul\":11288:11474   */\n      pop\n      pop\n      jump\t// out\n        /* \"#utility.yul\":11480:12023   */\n    tag_118:\n        /* \"#utility.yul\":11581:11583   */\n      0x1f\n        /* \"#utility.yul\":11576:11579   */\n      dup3\n        /* \"#utility.yul\":11573:11584   */\n      gt\n        /* \"#utility.yul\":11570:12016   */\n      iszero\n      tag_260\n      jumpi\n        /* \"#utility.yul\":11615:11653   */\n      tag_261\n        /* \"#utility.yul\":11647:11652   */\n      dup2\n        /* \"#utility.yul\":11615:11653   */\n      tag_107\n      jump\t// in\n    tag_261:\n        /* \"#utility.yul\":11699:11728   */\n      tag_262\n        /* \"#utility.yul\":11717:11727   */\n      dup5\n        /* \"#utility.yul\":11699:11728   */\n      tag_108\n      jump\t// in\n    tag_262:\n        /* \"#utility.yul\":11689:11697   */\n      dup2\n        /* \"#utility.yul\":11685:11729   */\n      add\n        /* \"#utility.yul\":11882:11884   */\n      0x20\n        /* \"#utility.yul\":11870:11880   */\n      dup6\n        /* \"#utility.yul\":11867:11885   */\n      lt\n        /* \"#utility.yul\":11864:11913   */\n      iszero\n      tag_263\n      jumpi\n        /* \"#utility.yul\":11903:11911   */\n      dup2\n        /* \"#utility.yul\":11888:11911   */\n      swap1\n      pop\n        /* \"#utility.yul\":11864:11913   */\n    tag_263:\n        /* \"#utility.yul\":11926:12006   */\n      tag_264\n        /* \"#utility.yul\":11982:12004   */\n      tag_265\n        /* \"#utility.yul\":12000:12003   */\n      dup6\n        /* \"#utility.yul\":11982:12004   */\n      tag_108\n      jump\t// in\n    tag_265:\n        /* \"#utility.yul\":11972:11980   */\n      dup4\n        /* \"#utility.yul\":11968:12005   */\n      add\n        /* \"#utility.yul\":11955:11966   */\n      dup3\n        /* \"#utility.yul\":11926:12006   */\n      tag_117\n      jump\t// in\n    tag_264:\n        /* \"#utility.yul\":11585:12016   */\n      pop\n      pop\n        /* \"#utility.yul\":11570:12016   */\n    tag_260:\n        /* \"#utility.yul\":11480:12023   */\n      pop\n      pop\n      pop\n      jump\t// out\n        /* \"#utility.yul\":12029:12146   */\n    tag_119:\n        /* \"#utility.yul\":12083:12091   */\n      0x00\n        /* \"#utility.yul\":12133:12138   */\n      dup3\n        /* \"#utility.yul\":12127:12131   */\n      dup3\n        /* \"#utility.yul\":12123:12139   */\n      shr\n        /* \"#utility.yul\":12102:12139   */\n      swap1\n      pop\n        /* \"#utility.yul\":12029:12146   */\n      swap3\n      swap2\n      pop\n      pop\n      jump\t// out\n        /* \"#utility.yul\":12152:12321   */\n    tag_120:\n        /* \"#utility.yul\":12196:12202   */\n      0x00\n        /* \"#utility.yul\":12229:12280   */\n      tag_268\n        /* \"#utility.yul\":12277:12278   */\n      0x00\n        /* \"#utility.yul\":12273:12279   */\n      not\n        /* \"#utility.yul\":12265:12270   */\n      dup5\n        /* \"#utility.yul\":12262:12263   */\n      0x08\n        /* \"#utility.yul\":12258:12271   */\n      mul\n        /* \"#utility.yul\":12229:12280   */\n      tag_119\n      jump\t// in\n    tag_268:\n        /* \"#utility.yul\":12225:12281   */\n      not\n        /* \"#utility.yul\":12310:12314   */\n      dup1\n        /* \"#utility.yul\":12304:12308   */\n      dup4\n        /* \"#utility.yul\":12300:12315   */\n      and\n        /* \"#utility.yul\":12290:12315   */\n      swap2\n      pop\n        /* \"#utility.yul\":12203:12321   */\n      pop\n        /* \"#utility.yul\":12152:12321   */\n      swap3\n      swap2\n      pop\n      pop\n      jump\t// out\n        /* \"#utility.yul\":12326:12621   */\n    tag_121:\n        /* \"#utility.yul\":12402:12406   */\n      0x00\n        /* \"#utility.yul\":12548:12577   */\n      tag_270\n        /* \"#utility.yul\":12573:12576   */\n      dup4\n        /* \"#utility.yul\":12567:12571   */\n      dup4\n        /* \"#utility.yul\":12548:12577   */\n      tag_120\n      jump\t// in\n    tag_270:\n        /* \"#utility.yul\":12540:12577   */\n      swap2\n      pop\n        /* \"#utility.yul\":12610:12613   */\n      dup3\n        /* \"#utility.yul\":12607:12608   */\n      0x02\n        /* \"#utility.yul\":12603:12614   */\n      mul\n        /* \"#utility.yul\":12597:12601   */\n      dup3\n        /* \"#utility.yul\":12594:12615   */\n      or\n        /* \"#utility.yul\":12586:12615   */\n      swap1\n      pop\n        /* \"#utility.yul\":12326:12621   */\n      swap3\n      swap2\n      pop\n      pop\n      jump\t// out\n        /* \"#utility.yul\":12626:14021   */\n    tag_76:\n        /* \"#utility.yul\":12743:12780   */\n      tag_272\n        /* \"#utility.yul\":12776:12779   */\n      dup3\n        /* \"#utility.yul\":12743:12780   */\n      tag_77\n      jump\t// in\n    tag_272:\n        /* \"#utility.yul\":12845:12863   */\n      0xffffffffffffffff\n        /* \"#utility.yul\":12837:12843   */\n      dup2\n        /* \"#utility.yul\":12834:12864   */\n      gt\n        /* \"#utility.yul\":12831:12887   */\n      iszero\n      tag_273\n      jumpi\n        /* \"#utility.yul\":12867:12885   */\n      tag_274\n      tag_96\n      jump\t// in\n    tag_274:\n        /* \"#utility.yul\":12831:12887   */\n    tag_273:\n        /* \"#utility.yul\":12911:12949   */\n      tag_275\n        /* \"#utility.yul\":12943:12947   */\n      dup3\n        /* \"#utility.yul\":12937:12948   */\n      sload\n        /* \"#utility.yul\":12911:12949   */\n      tag_43\n      jump\t// in\n    tag_275:\n        /* \"#utility.yul\":12996:13063   */\n      tag_276\n        /* \"#utility.yul\":13056:13062   */\n      dup3\n        /* \"#utility.yul\":13048:13054   */\n      dup3\n        /* \"#utility.yul\":13042:13046   */\n      dup6\n        /* \"#utility.yul\":12996:13063   */\n      tag_118\n      jump\t// in\n    tag_276:\n        /* \"#utility.yul\":13090:13091   */\n      0x00\n        /* \"#utility.yul\":13114:13118   */\n      0x20\n        /* \"#utility.yul\":13101:13118   */\n      swap1\n      pop\n        /* \"#utility.yul\":13146:13148   */\n      0x1f\n        /* \"#utility.yul\":13138:13144   */\n      dup4\n        /* \"#utility.yul\":13135:13149   */\n      gt\n        /* \"#utility.yul\":13163:13164   */\n      0x01\n        /* \"#utility.yul\":13158:13776   */\n      dup2\n      eq\n      tag_278\n      jumpi\n        /* \"#utility.yul\":13820:13821   */\n      0x00\n        /* \"#utility.yul\":13837:13843   */\n      dup5\n        /* \"#utility.yul\":13834:13911   */\n      iszero\n      tag_279\n      jumpi\n        /* \"#utility.yul\":13886:13895   */\n      dup3\n        /* \"#utility.yul\":13881:13884   */\n      dup8\n        /* \"#utility.yul\":13877:13896   */\n      add\n        /* \"#utility.yul\":13871:13897   */\n      mload\n        /* \"#utility.yul\":13862:13897   */\n      swap1\n      pop\n        /* \"#utility.yul\":13834:13911   */\n    tag_279:\n        /* \"#utility.yul\":13937:14004   */\n      tag_280\n        /* \"#utility.yul\":13997:14003   */\n      dup6\n        /* \"#utility.yul\":13990:13995   */\n      dup3\n        /* \"#utility.yul\":13937:14004   */\n      tag_121\n      jump\t// in\n    tag_280:\n        /* \"#utility.yul\":13931:13935   */\n      dup7\n        /* \"#utility.yul\":13924:14005   */\n      sstore\n        /* \"#utility.yul\":13793:14015   */\n      pop\n        /* \"#utility.yul\":13128:14015   */\n      jump(tag_277)\n        /* \"#utility.yul\":13158:13776   */\n    tag_278:\n        /* \"#utility.yul\":13210:13214   */\n      0x1f\n        /* \"#utility.yul\":13206:13215   */\n      not\n        /* \"#utility.yul\":13198:13204   */\n      dup5\n        /* \"#utility.yul\":13194:13216   */\n      and\n        /* \"#utility.yul\":13244:13281   */\n      tag_281\n        /* \"#utility.yul\":13276:13280   */\n      dup7\n        /* \"#utility.yul\":13244:13281   */\n      tag_107\n      jump\t// in\n    tag_281:\n        /* \"#utility.yul\":13303:13304   */\n      0x00\n        /* \"#utility.yul\":13317:13525   */\n    tag_282:\n        /* \"#utility.yul\":13331:13338   */\n      dup3\n        /* \"#utility.yul\":13328:13329   */\n      dup2\n        /* \"#utility.yul\":13325:13339   */\n      lt\n        /* \"#utility.yul\":13317:13525   */\n      iszero\n      tag_284\n      jumpi\n        /* \"#utility.yul\":13410:13419   */\n      dup5\n        /* \"#utility.yul\":13405:13408   */\n      dup10\n        /* \"#utility.yul\":13401:13420   */\n      add\n        /* \"#utility.yul\":13395:13421   */\n      mload\n        /* \"#utility.yul\":13387:13393   */\n      dup3\n        /* \"#utility.yul\":13380:13422   */\n      sstore\n        /* \"#utility.yul\":13461:13462   */\n      0x01\n        /* \"#utility.yul\":13453:13459   */\n      dup3\n        /* \"#utility.yul\":13449:13463   */\n      add\n        /* \"#utility.yul\":13439:13463   */\n      swap2\n      pop\n        /* \"#utility.yul\":13508:13510   */\n      0x20\n        /* \"#utility.yul\":13497:13506   */\n      dup6\n        /* \"#utility.yul\":13493:13511   */\n      add\n        /* \"#utility.yul\":13480:13511   */\n      swap5\n      pop\n        /* \"#utility.yul\":13354:13358   */\n      0x20\n        /* \"#utility.yul\":13351:13352   */\n      dup2\n        /* \"#utility.yul\":13347:13359   */\n      add\n        /* \"#utility.yul\":13342:13359   */\n      swap1\n      pop\n        /* \"#utility.yul\":13317:13525   */\n      jump(tag_282)\n    tag_284:\n        /* \"#utility.yul\":13553:13559   */\n      dup7\n        /* \"#utility.yul\":13544:13551   */\n      dup4\n        /* \"#utility.yul\":13541:13560   */\n      lt\n        /* \"#utility.yul\":13538:13717   */\n      iszero\n      tag_285\n      jumpi\n        /* \"#utility.yul\":13611:13620   */\n      dup5\n        /* \"#utility.yul\":13606:13609   */\n      dup10\n        /* \"#utility.yul\":13602:13621   */\n      add\n        /* \"#utility.yul\":13596:13622   */\n      mload\n        /* \"#utility.yul\":13654:13702   */\n      tag_286\n        /* \"#utility.yul\":13696:13700   */\n      0x1f\n        /* \"#utility.yul\":13688:13694   */\n      dup10\n        /* \"#utility.yul\":13684:13701   */\n      and\n        /* \"#utility.yul\":13673:13682   */\n      dup3\n        /* \"#utility.yul\":13654:13702   */\n      tag_120\n      jump\t// in\n    tag_286:\n        /* \"#utility.yul\":13646:13652   */\n      dup4\n        /* \"#utility.yul\":13639:13703   */\n      sstore\n        /* \"#utility.yul\":13561:13717   */\n      pop\n        /* \"#utility.yul\":13538:13717   */\n    tag_285:\n        /* \"#utility.yul\":13763:13764   */\n      0x01\n        /* \"#utility.yul\":13759:13760   */\n      0x02\n        /* \"#utility.yul\":13751:13757   */\n      dup9\n        /* \"#utility.yul\":13747:13761   */\n      mul\n        /* \"#utility.yul\":13743:13765   */\n      add\n        /* \"#utility.yul\":13737:13741   */\n      dup9\n        /* \"#utility.yul\":13730:13766   */\n      sstore\n        /* \"#utility.yul\":13165:13776   */\n      pop\n      pop\n      pop\n        /* \"#utility.yul\":13128:14015   */\n    tag_277:\n      pop\n        /* \"#utility.yul\":12718:14021   */\n      pop\n      pop\n      pop\n        /* \"#utility.yul\":12626:14021   */\n      pop\n      pop\n      jump\t// out\n\n    auxdata: 0xa2646970667358221220bba45d6312099f527a807aa562faca5c48d4f7225d7b79ce552f3686b57df01864736f6c63430008160033\n}\n",
				"bytecode": {
					"linkReferences": {},
					"object": "608060405234801562000010575f80fd5b50604051620013dd380380620013dd8339818101604052810190620000369190620001f1565b8181815f9081620000489190620004ab565b5080600190816200005a9190620004ab565b5050505f60028190555050506200058f565b5f604051905090565b5f80fd5b5f80fd5b5f80fd5b5f80fd5b5f601f19601f8301169050919050565b7f4e487b71000000000000000000000000000000000000000000000000000000005f52604160045260245ffd5b620000cd8262000085565b810181811067ffffffffffffffff82111715620000ef57620000ee62000095565b5b80604052505050565b5f620001036200006c565b9050620001118282620000c2565b919050565b5f67ffffffffffffffff82111562000133576200013262000095565b5b6200013e8262000085565b9050602081019050919050565b5f5b838110156200016a5780820151818401526020810190506200014d565b5f8484015250505050565b5f6200018b620001858462000116565b620000f8565b905082815260208101848484011115620001aa57620001a962000081565b5b620001b78482856200014b565b509392505050565b5f82601f830112620001d657620001d56200007d565b5b8151620001e884826020860162000175565b91505092915050565b5f80604083850312156200020a576200020962000075565b5b5f83015167ffffffffffffffff8111156200022a576200022962000079565b5b6200023885828601620001bf565b925050602083015167ffffffffffffffff8111156200025c576200025b62000079565b5b6200026a85828601620001bf565b9150509250929050565b5f81519050919050565b7f4e487b71000000000000000000000000000000000000000000000000000000005f52602260045260245ffd5b5f6002820490506001821680620002c357607f821691505b602082108103620002d957620002d86200027e565b5b50919050565b5f819050815f5260205f209050919050565b5f6020601f8301049050919050565b5f82821b905092915050565b5f600883026200033d7fffffffffffffffffffffffffffffffffffffffffffffffffffffffffffffffff8262000300565b62000349868362000300565b95508019841693508086168417925050509392505050565b5f819050919050565b5f819050919050565b5f620003936200038d620003878462000361565b6200036a565b62000361565b9050919050565b5f819050919050565b620003ae8362000373565b620003c6620003bd826200039a565b8484546200030c565b825550505050565b5f90565b620003dc620003ce565b620003e9818484620003a3565b505050565b5b818110156200041057620004045f82620003d2565b600181019050620003ef565b5050565b601f8211156200045f576200042981620002df565b6200043484620002f1565b8101602085101562000444578190505b6200045c6200045385620002f1565b830182620003ee565b50505b505050565b5f82821c905092915050565b5f620004815f198460080262000464565b1980831691505092915050565b5f6200049b838362000470565b9150826002028217905092915050565b620004b68262000274565b67ffffffffffffffff811115620004d257620004d162000095565b5b620004de8254620002ab565b620004eb82828562000414565b5f60209050601f83116001811462000521575f84156200050c578287015190505b6200051885826200048e565b86555062000587565b601f1984166200053186620002df565b5f5b828110156200055a5784890151825560018201915060208501945060208101905062000533565b868310156200057a578489015162000576601f89168262000470565b8355505b6001600288020188555050505b505050505050565b610e40806200059d5f395ff3fe608060405234801561000f575f80fd5b506004361061007b575f3560e01c806395d89b411161005957806395d89b41146100fd578063beabacc81461011b578063c87b56dd14610137578063d0def521146101675761007b565b806306fdde031461007f5780636352211e1461009d57806370a08231146100cd575b5f80fd5b610087610183565b604051610094919061069f565b60405180910390f35b6100b760048036038101906100b29190610703565b61020e565b6040516100c4919061076d565b60405180910390f35b6100e760048036038101906100e291906107b0565b610247565b6040516100f491906107ea565b60405180910390f35b61010561025c565b604051610112919061069f565b60405180910390f35b61013560048036038101906101309190610803565b6102e8565b005b610151600480360381019061014c9190610703565b610482565b60405161015e919061069f565b60405180910390f35b610181600480360381019061017c919061097f565b610523565b005b5f805461018f90610a06565b80601f01602080910402602001604051908101604052809291908181526020018280546101bb90610a06565b80156102065780601f106101dd57610100808354040283529160200191610206565b820191905f5260205f20905b8154815290600101906020018083116101e957829003601f168201915b505050505081565b5f60055f8381526020019081526020015f205f9054906101000a900473ffffffffffffffffffffffffffffffffffffffff169050919050565b6003602052805f5260405f205f915090505481565b6001805461026990610a06565b80601f016020809104026020016040519081016040528092919081815260200182805461029590610a06565b80156102e05780601f106102b7576101008083540402835291602001916102e0565b820191905f5260205f20905b8154815290600101906020018083116102c357829003601f168201915b505050505081565b8273ffffffffffffffffffffffffffffffffffffffff1660055f8381526020019081526020015f205f9054906101000a900473ffffffffffffffffffffffffffffffffffffffff1673ffffffffffffffffffffffffffffffffffffffff1614610386576040517f08c379a000000000000000000000000000000000000000000000000000000000815260040161037d90610aa6565b60405180910390fd5b8160055f8381526020019081526020015f205f6101000a81548173ffffffffffffffffffffffffffffffffffffffff021916908373ffffffffffffffffffffffffffffffffffffffff160217905550600160035f8573ffffffffffffffffffffffffffffffffffffffff1673ffffffffffffffffffffffffffffffffffffffff1681526020019081526020015f205f8282546104229190610af1565b92505081905550600160035f8473ffffffffffffffffffffffffffffffffffffffff1673ffffffffffffffffffffffffffffffffffffffff1681526020019081526020015f205f8282546104769190610b24565b92505081905550505050565b606060045f8381526020019081526020015f2080546104a090610a06565b80601f01602080910402602001604051908101604052809291908181526020018280546104cc90610a06565b80156105175780601f106104ee57610100808354040283529160200191610517565b820191905f5260205f20905b8154815290600101906020018083116104fa57829003601f168201915b50505050509050919050565b5f60025490508260055f8381526020019081526020015f205f6101000a81548173ffffffffffffffffffffffffffffffffffffffff021916908373ffffffffffffffffffffffffffffffffffffffff160217905550600160035f8573ffffffffffffffffffffffffffffffffffffffff1673ffffffffffffffffffffffffffffffffffffffff1681526020019081526020015f205f8282546105c59190610b24565b925050819055506105d681836105f2565b60025f8154809291906105e890610b57565b9190505550505050565b8060045f8481526020019081526020015f2090816106109190610d3b565b505050565b5f81519050919050565b5f82825260208201905092915050565b5f5b8381101561064c578082015181840152602081019050610631565b5f8484015250505050565b5f601f19601f8301169050919050565b5f61067182610615565b61067b818561061f565b935061068b81856020860161062f565b61069481610657565b840191505092915050565b5f6020820190508181035f8301526106b78184610667565b905092915050565b5f604051905090565b5f80fd5b5f80fd5b5f819050919050565b6106e2816106d0565b81146106ec575f80fd5b50565b5f813590506106fd816106d9565b92915050565b5f60208284031215610718576107176106c8565b5b5f610725848285016106ef565b91505092915050565b5f73ffffffffffffffffffffffffffffffffffffffff82169050919050565b5f6107578261072e565b9050919050565b6107678161074d565b82525050565b5f6020820190506107805f83018461075e565b92915050565b61078f8161074d565b8114610799575f80fd5b50565b5f813590506107aa81610786565b92915050565b5f602082840312156107c5576107c46106c8565b5b5f6107d28482850161079c565b91505092915050565b6107e4816106d0565b82525050565b5f6020820190506107fd5f8301846107db565b92915050565b5f805f6060848603121561081a576108196106c8565b5b5f6108278682870161079c565b93505060206108388682870161079c565b9250506040610849868287016106ef565b9150509250925092565b5f80fd5b5f80fd5b7f4e487b71000000000000000000000000000000000000000000000000000000005f52604160045260245ffd5b61089182610657565b810181811067ffffffffffffffff821117156108b0576108af61085b565b5b80604052505050565b5f6108c26106bf565b90506108ce8282610888565b919050565b5f67ffffffffffffffff8211156108ed576108ec61085b565b5b6108f682610657565b9050602081019050919050565b828183375f83830152505050565b5f61092361091e846108d3565b6108b9565b90508281526020810184848401111561093f5761093e610857565b5b61094a848285610903565b509392505050565b5f82601f83011261096657610965610853565b5b8135610976848260208601610911565b91505092915050565b5f8060408385031215610995576109946106c8565b5b5f6109a28582860161079c565b925050602083013567ffffffffffffffff8111156109c3576109c26106cc565b5b6109cf85828601610952565b9150509250929050565b7f4e487b71000000000000000000000000000000000000000000000000000000005f52602260045260245ffd5b5f6002820490506001821680610a1d57607f821691505b602082108103610a3057610a2f6109d9565b5b50919050565b7f4552433430343a207472616e73666572206f6620746f6b656e207468617420695f8201527f73206e6f74206f776e65642062792073656e6465720000000000000000000000602082015250565b5f610a9060358361061f565b9150610a9b82610a36565b604082019050919050565b5f6020820190508181035f830152610abd81610a84565b9050919050565b7f4e487b71000000000000000000000000000000000000000000000000000000005f52601160045260245ffd5b5f610afb826106d0565b9150610b06836106d0565b9250828203905081811115610b1e57610b1d610ac4565b5b92915050565b5f610b2e826106d0565b9150610b39836106d0565b9250828201905080821115610b5157610b50610ac4565b5b92915050565b5f610b61826106d0565b91507fffffffffffffffffffffffffffffffffffffffffffffffffffffffffffffffff8203610b9357610b92610ac4565b5b600182019050919050565b5f819050815f5260205f209050919050565b5f6020601f8301049050919050565b5f82821b905092915050565b5f60088302610bfa7fffffffffffffffffffffffffffffffffffffffffffffffffffffffffffffffff82610bbf565b610c048683610bbf565b95508019841693508086168417925050509392505050565b5f819050919050565b5f610c3f610c3a610c35846106d0565b610c1c565b6106d0565b9050919050565b5f819050919050565b610c5883610c25565b610c6c610c6482610c46565b848454610bcb565b825550505050565b5f90565b610c80610c74565b610c8b818484610c4f565b505050565b5b81811015610cae57610ca35f82610c78565b600181019050610c91565b5050565b601f821115610cf357610cc481610b9e565b610ccd84610bb0565b81016020851015610cdc578190505b610cf0610ce885610bb0565b830182610c90565b50505b505050565b5f82821c905092915050565b5f610d135f1984600802610cf8565b1980831691505092915050565b5f610d2b8383610d04565b9150826002028217905092915050565b610d4482610615565b67ffffffffffffffff811115610d5d57610d5c61085b565b5b610d678254610a06565b610d72828285610cb2565b5f60209050601f831160018114610da3575f8415610d91578287015190505b610d9b8582610d20565b865550610e02565b601f198416610db186610b9e565b5f5b82811015610dd857848901518255600182019150602085019450602081019050610db3565b86831015610df55784890151610df1601f891682610d04565b8355505b6001600288020188555050505b50505050505056fea2646970667358221220bba45d6312099f527a807aa562faca5c48d4f7225d7b79ce552f3686b57df01864736f6c63430008160033",
					"opcodes": "PUSH1 0x80 PUSH1 0x40 MSTORE CALLVALUE DUP1 ISZERO PUSH3 0x10 JUMPI PUSH0 DUP1 REVERT JUMPDEST POP PUSH1 0x40 MLOAD PUSH3 0x13DD CODESIZE SUB DUP1 PUSH3 0x13DD DUP4 CODECOPY DUP2 DUP2 ADD PUSH1 0x40 MSTORE DUP2 ADD SWAP1 PUSH3 0x36 SWAP2 SWAP1 PUSH3 0x1F1 JUMP JUMPDEST DUP2 DUP2 DUP2 PUSH0 SWAP1 DUP2 PUSH3 0x48 SWAP2 SWAP1 PUSH3 0x4AB JUMP JUMPDEST POP DUP1 PUSH1 0x1 SWAP1 DUP2 PUSH3 0x5A SWAP2 SWAP1 PUSH3 0x4AB JUMP JUMPDEST POP POP POP PUSH0 PUSH1 0x2 DUP2 SWAP1 SSTORE POP POP POP PUSH3 0x58F JUMP JUMPDEST PUSH0 PUSH1 0x40 MLOAD SWAP1 POP SWAP1 JUMP JUMPDEST PUSH0 DUP1 REVERT JUMPDEST PUSH0 DUP1 REVERT JUMPDEST PUSH0 DUP1 REVERT JUMPDEST PUSH0 DUP1 REVERT JUMPDEST PUSH0 PUSH1 0x1F NOT PUSH1 0x1F DUP4 ADD AND SWAP1 POP SWAP2 SWAP1 POP JUMP JUMPDEST PUSH32 0x4E487B7100000000000000000000000000000000000000000000000000000000 PUSH0 MSTORE PUSH1 0x41 PUSH1 0x4 MSTORE PUSH1 0x24 PUSH0 REVERT JUMPDEST PUSH3 0xCD DUP3 PUSH3 0x85 JUMP JUMPDEST DUP2 ADD DUP2 DUP2 LT PUSH8 0xFFFFFFFFFFFFFFFF DUP3 GT OR ISZERO PUSH3 0xEF JUMPI PUSH3 0xEE PUSH3 0x95 JUMP JUMPDEST JUMPDEST DUP1 PUSH1 0x40 MSTORE POP POP POP JUMP JUMPDEST PUSH0 PUSH3 0x103 PUSH3 0x6C JUMP JUMPDEST SWAP1 POP PUSH3 0x111 DUP3 DUP3 PUSH3 0xC2 JUMP JUMPDEST SWAP2 SWAP1 POP JUMP JUMPDEST PUSH0 PUSH8 0xFFFFFFFFFFFFFFFF DUP3 GT ISZERO PUSH3 0x133 JUMPI PUSH3 0x132 PUSH3 0x95 JUMP JUMPDEST JUMPDEST PUSH3 0x13E DUP3 PUSH3 0x85 JUMP JUMPDEST SWAP1 POP PUSH1 0x20 DUP2 ADD SWAP1 POP SWAP2 SWAP1 POP JUMP JUMPDEST PUSH0 JUMPDEST DUP4 DUP2 LT ISZERO PUSH3 0x16A JUMPI DUP1 DUP3 ADD MLOAD DUP2 DUP5 ADD MSTORE PUSH1 0x20 DUP2 ADD SWAP1 POP PUSH3 0x14D JUMP JUMPDEST PUSH0 DUP5 DUP5 ADD MSTORE POP POP POP POP JUMP JUMPDEST PUSH0 PUSH3 0x18B PUSH3 0x185 DUP5 PUSH3 0x116 JUMP JUMPDEST PUSH3 0xF8 JUMP JUMPDEST SWAP1 POP DUP3 DUP2 MSTORE PUSH1 0x20 DUP2 ADD DUP5 DUP5 DUP5 ADD GT ISZERO PUSH3 0x1AA JUMPI PUSH3 0x1A9 PUSH3 0x81 JUMP JUMPDEST JUMPDEST PUSH3 0x1B7 DUP5 DUP3 DUP6 PUSH3 0x14B JUMP JUMPDEST POP SWAP4 SWAP3 POP POP POP JUMP JUMPDEST PUSH0 DUP3 PUSH1 0x1F DUP4 ADD SLT PUSH3 0x1D6 JUMPI PUSH3 0x1D5 PUSH3 0x7D JUMP JUMPDEST JUMPDEST DUP2 MLOAD PUSH3 0x1E8 DUP5 DUP3 PUSH1 0x20 DUP7 ADD PUSH3 0x175 JUMP JUMPDEST SWAP2 POP POP SWAP3 SWAP2 POP POP JUMP JUMPDEST PUSH0 DUP1 PUSH1 0x40 DUP4 DUP6 SUB SLT ISZERO PUSH3 0x20A JUMPI PUSH3 0x209 PUSH3 0x75 JUMP JUMPDEST JUMPDEST PUSH0 DUP4 ADD MLOAD PUSH8 0xFFFFFFFFFFFFFFFF DUP2 GT ISZERO PUSH3 0x22A JUMPI PUSH3 0x229 PUSH3 0x79 JUMP JUMPDEST JUMPDEST PUSH3 0x238 DUP6 DUP3 DUP7 ADD PUSH3 0x1BF JUMP JUMPDEST SWAP3 POP POP PUSH1 0x20 DUP4 ADD MLOAD PUSH8 0xFFFFFFFFFFFFFFFF DUP2 GT ISZERO PUSH3 0x25C JUMPI PUSH3 0x25B PUSH3 0x79 JUMP JUMPDEST JUMPDEST PUSH3 0x26A DUP6 DUP3 DUP7 ADD PUSH3 0x1BF JUMP JUMPDEST SWAP2 POP POP SWAP3 POP SWAP3 SWAP1 POP JUMP JUMPDEST PUSH0 DUP2 MLOAD SWAP1 POP SWAP2 SWAP1 POP JUMP JUMPDEST PUSH32 0x4E487B7100000000000000000000000000000000000000000000000000000000 PUSH0 MSTORE PUSH1 0x22 PUSH1 0x4 MSTORE PUSH1 0x24 PUSH0 REVERT JUMPDEST PUSH0 PUSH1 0x2 DUP3 DIV SWAP1 POP PUSH1 0x1 DUP3 AND DUP1 PUSH3 0x2C3 JUMPI PUSH1 0x7F DUP3 AND SWAP2 POP JUMPDEST PUSH1 0x20 DUP3 LT DUP2 SUB PUSH3 0x2D9 JUMPI PUSH3 0x2D8 PUSH3 0x27E JUMP JUMPDEST JUMPDEST POP SWAP2 SWAP1 POP JUMP JUMPDEST PUSH0 DUP2 SWAP1 POP DUP2 PUSH0 MSTORE PUSH1 0x20 PUSH0 KECCAK256 SWAP1 POP SWAP2 SWAP1 POP JUMP JUMPDEST PUSH0 PUSH1 0x20 PUSH1 0x1F DUP4 ADD DIV SWAP1 POP SWAP2 SWAP1 POP JUMP JUMPDEST PUSH0 DUP3 DUP3 SHL SWAP1 POP SWAP3 SWAP2 POP POP JUMP JUMPDEST PUSH0 PUSH1 0x8 DUP4 MUL PUSH3 0x33D PUSH32 0xFFFFFFFFFFFFFFFFFFFFFFFFFFFFFFFFFFFFFFFFFFFFFFFFFFFFFFFFFFFFFFFF DUP3 PUSH3 0x300 JUMP JUMPDEST PUSH3 0x349 DUP7 DUP4 PUSH3 0x300 JUMP JUMPDEST SWAP6 POP DUP1 NOT DUP5 AND SWAP4 POP DUP1 DUP7 AND DUP5 OR SWAP3 POP POP POP SWAP4 SWAP3 POP POP POP JUMP JUMPDEST PUSH0 DUP2 SWAP1 POP SWAP2 SWAP1 POP JUMP JUMPDEST PUSH0 DUP2 SWAP1 POP SWAP2 SWAP1 POP JUMP JUMPDEST PUSH0 PUSH3 0x393 PUSH3 0x38D PUSH3 0x387 DUP5 PUSH3 0x361 JUMP JUMPDEST PUSH3 0x36A JUMP JUMPDEST PUSH3 0x361 JUMP JUMPDEST SWAP1 POP SWAP2 SWAP1 POP JUMP JUMPDEST PUSH0 DUP2 SWAP1 POP SWAP2 SWAP1 POP JUMP JUMPDEST PUSH3 0x3AE DUP4 PUSH3 0x373 JUMP JUMPDEST PUSH3 0x3C6 PUSH3 0x3BD DUP3 PUSH3 0x39A JUMP JUMPDEST DUP5 DUP5 SLOAD PUSH3 0x30C JUMP JUMPDEST DUP3 SSTORE POP POP POP POP JUMP JUMPDEST PUSH0 SWAP1 JUMP JUMPDEST PUSH3 0x3DC PUSH3 0x3CE JUMP JUMPDEST PUSH3 0x3E9 DUP2 DUP5 DUP5 PUSH3 0x3A3 JUMP JUMPDEST POP POP POP JUMP JUMPDEST JUMPDEST DUP2 DUP2 LT ISZERO PUSH3 0x410 JUMPI PUSH3 0x404 PUSH0 DUP3 PUSH3 0x3D2 JUMP JUMPDEST PUSH1 0x1 DUP2 ADD SWAP1 POP PUSH3 0x3EF JUMP JUMPDEST POP POP JUMP JUMPDEST PUSH1 0x1F DUP3 GT ISZERO PUSH3 0x45F JUMPI PUSH3 0x429 DUP2 PUSH3 0x2DF JUMP JUMPDEST PUSH3 0x434 DUP5 PUSH3 0x2F1 JUMP JUMPDEST DUP2 ADD PUSH1 0x20 DUP6 LT ISZERO PUSH3 0x444 JUMPI DUP2 SWAP1 POP JUMPDEST PUSH3 0x45C PUSH3 0x453 DUP6 PUSH3 0x2F1 JUMP JUMPDEST DUP4 ADD DUP3 PUSH3 0x3EE JUMP JUMPDEST POP POP JUMPDEST POP POP POP JUMP JUMPDEST PUSH0 DUP3 DUP3 SHR SWAP1 POP SWAP3 SWAP2 POP POP JUMP JUMPDEST PUSH0 PUSH3 0x481 PUSH0 NOT DUP5 PUSH1 0x8 MUL PUSH3 0x464 JUMP JUMPDEST NOT DUP1 DUP4 AND SWAP2 POP POP SWAP3 SWAP2 POP POP JUMP JUMPDEST PUSH0 PUSH3 0x49B DUP4 DUP4 PUSH3 0x470 JUMP JUMPDEST SWAP2 POP DUP3 PUSH1 0x2 MUL DUP3 OR SWAP1 POP SWAP3 SWAP2 POP POP JUMP JUMPDEST PUSH3 0x4B6 DUP3 PUSH3 0x274 JUMP JUMPDEST PUSH8 0xFFFFFFFFFFFFFFFF DUP2 GT ISZERO PUSH3 0x4D2 JUMPI PUSH3 0x4D1 PUSH3 0x95 JUMP JUMPDEST JUMPDEST PUSH3 0x4DE DUP3 SLOAD PUSH3 0x2AB JUMP JUMPDEST PUSH3 0x4EB DUP3 DUP3 DUP6 PUSH3 0x414 JUMP JUMPDEST PUSH0 PUSH1 0x20 SWAP1 POP PUSH1 0x1F DUP4 GT PUSH1 0x1 DUP2 EQ PUSH3 0x521 JUMPI PUSH0 DUP5 ISZERO PUSH3 0x50C JUMPI DUP3 DUP8 ADD MLOAD SWAP1 POP JUMPDEST PUSH3 0x518 DUP6 DUP3 PUSH3 0x48E JUMP JUMPDEST DUP7 SSTORE POP PUSH3 0x587 JUMP JUMPDEST PUSH1 0x1F NOT DUP5 AND PUSH3 0x531 DUP7 PUSH3 0x2DF JUMP JUMPDEST PUSH0 JUMPDEST DUP3 DUP2 LT ISZERO PUSH3 0x55A JUMPI DUP5 DUP10 ADD MLOAD DUP3 SSTORE PUSH1 0x1 DUP3 ADD SWAP2 POP PUSH1 0x20 DUP6 ADD SWAP5 POP PUSH1 0x20 DUP2 ADD SWAP1 POP PUSH3 0x533 JUMP JUMPDEST DUP7 DUP4 LT ISZERO PUSH3 0x57A JUMPI DUP5 DUP10 ADD MLOAD PUSH3 0x576 PUSH1 0x1F DUP10 AND DUP3 PUSH3 0x470 JUMP JUMPDEST DUP4 SSTORE POP JUMPDEST PUSH1 0x1 PUSH1 0x2 DUP9 MUL ADD DUP9 SSTORE POP POP POP JUMPDEST POP POP POP POP POP POP JUMP JUMPDEST PUSH2 0xE40 DUP1 PUSH3 0x59D PUSH0 CODECOPY PUSH0 RETURN INVALID PUSH1 0x80 PUSH1 0x40 MSTORE CALLVALUE DUP1 ISZERO PUSH2 0xF JUMPI PUSH0 DUP1 REVERT JUMPDEST POP PUSH1 0x4 CALLDATASIZE LT PUSH2 0x7B JUMPI PUSH0 CALLDATALOAD PUSH1 0xE0 SHR DUP1 PUSH4 0x95D89B41 GT PUSH2 0x59 JUMPI DUP1 PUSH4 0x95D89B41 EQ PUSH2 0xFD JUMPI DUP1 PUSH4 0xBEABACC8 EQ PUSH2 0x11B JUMPI DUP1 PUSH4 0xC87B56DD EQ PUSH2 0x137 JUMPI DUP1 PUSH4 0xD0DEF521 EQ PUSH2 0x167 JUMPI PUSH2 0x7B JUMP JUMPDEST DUP1 PUSH4 0x6FDDE03 EQ PUSH2 0x7F JUMPI DUP1 PUSH4 0x6352211E EQ PUSH2 0x9D JUMPI DUP1 PUSH4 0x70A08231 EQ PUSH2 0xCD JUMPI JUMPDEST PUSH0 DUP1 REVERT JUMPDEST PUSH2 0x87 PUSH2 0x183 JUMP JUMPDEST PUSH1 0x40 MLOAD PUSH2 0x94 SWAP2 SWAP1 PUSH2 0x69F JUMP JUMPDEST PUSH1 0x40 MLOAD DUP1 SWAP2 SUB SWAP1 RETURN JUMPDEST PUSH2 0xB7 PUSH1 0x4 DUP1 CALLDATASIZE SUB DUP2 ADD SWAP1 PUSH2 0xB2 SWAP2 SWAP1 PUSH2 0x703 JUMP JUMPDEST PUSH2 0x20E JUMP JUMPDEST PUSH1 0x40 MLOAD PUSH2 0xC4 SWAP2 SWAP1 PUSH2 0x76D JUMP JUMPDEST PUSH1 0x40 MLOAD DUP1 SWAP2 SUB SWAP1 RETURN JUMPDEST PUSH2 0xE7 PUSH1 0x4 DUP1 CALLDATASIZE SUB DUP2 ADD SWAP1 PUSH2 0xE2 SWAP2 SWAP1 PUSH2 0x7B0 JUMP JUMPDEST PUSH2 0x247 JUMP JUMPDEST PUSH1 0x40 MLOAD PUSH2 0xF4 SWAP2 SWAP1 PUSH2 0x7EA JUMP JUMPDEST PUSH1 0x40 MLOAD DUP1 SWAP2 SUB SWAP1 RETURN JUMPDEST PUSH2 0x105 PUSH2 0x25C JUMP JUMPDEST PUSH1 0x40 MLOAD PUSH2 0x112 SWAP2 SWAP1 PUSH2 0x69F JUMP JUMPDEST PUSH1 0x40 MLOAD DUP1 SWAP2 SUB SWAP1 RETURN JUMPDEST PUSH2 0x135 PUSH1 0x4 DUP1 CALLDATASIZE SUB DUP2 ADD SWAP1 PUSH2 0x130 SWAP2 SWAP1 PUSH2 0x803 JUMP JUMPDEST PUSH2 0x2E8 JUMP JUMPDEST STOP JUMPDEST PUSH2 0x151 PUSH1 0x4 DUP1 CALLDATASIZE SUB DUP2 ADD SWAP1 PUSH2 0x14C SWAP2 SWAP1 PUSH2 0x703 JUMP JUMPDEST PUSH2 0x482 JUMP JUMPDEST PUSH1 0x40 MLOAD PUSH2 0x15E SWAP2 SWAP1 PUSH2 0x69F JUMP JUMPDEST PUSH1 0x40 MLOAD DUP1 SWAP2 SUB SWAP1 RETURN JUMPDEST PUSH2 0x181 PUSH1 0x4 DUP1 CALLDATASIZE SUB DUP2 ADD SWAP1 PUSH2 0x17C SWAP2 SWAP1 PUSH2 0x97F JUMP JUMPDEST PUSH2 0x523 JUMP JUMPDEST STOP JUMPDEST PUSH0 DUP1 SLOAD PUSH2 0x18F SWAP1 PUSH2 0xA06 JUMP JUMPDEST DUP1 PUSH1 0x1F ADD PUSH1 0x20 DUP1 SWAP2 DIV MUL PUSH1 0x20 ADD PUSH1 0x40 MLOAD SWAP1 DUP2 ADD PUSH1 0x40 MSTORE DUP1 SWAP3 SWAP2 SWAP1 DUP2 DUP2 MSTORE PUSH1 0x20 ADD DUP3 DUP1 SLOAD PUSH2 0x1BB SWAP1 PUSH2 0xA06 JUMP JUMPDEST DUP1 ISZERO PUSH2 0x206 JUMPI DUP1 PUSH1 0x1F LT PUSH2 0x1DD JUMPI PUSH2 0x100 DUP1 DUP4 SLOAD DIV MUL DUP4 MSTORE SWAP2 PUSH1 0x20 ADD SWAP2 PUSH2 0x206 JUMP JUMPDEST DUP3 ADD SWAP2 SWAP1 PUSH0 MSTORE PUSH1 0x20 PUSH0 KECCAK256 SWAP1 JUMPDEST DUP2 SLOAD DUP2 MSTORE SWAP1 PUSH1 0x1 ADD SWAP1 PUSH1 0x20 ADD DUP1 DUP4 GT PUSH2 0x1E9 JUMPI DUP3 SWAP1 SUB PUSH1 0x1F AND DUP3 ADD SWAP2 JUMPDEST POP POP POP POP POP DUP2 JUMP JUMPDEST PUSH0 PUSH1 0x5 PUSH0 DUP4 DUP2 MSTORE PUSH1 0x20 ADD SWAP1 DUP2 MSTORE PUSH1 0x20 ADD PUSH0 KECCAK256 PUSH0 SWAP1 SLOAD SWAP1 PUSH2 0x100 EXP SWAP1 DIV PUSH20 0xFFFFFFFFFFFFFFFFFFFFFFFFFFFFFFFFFFFFFFFF AND SWAP1 POP SWAP2 SWAP1 POP JUMP JUMPDEST PUSH1 0x3 PUSH1 0x20 MSTORE DUP1 PUSH0 MSTORE PUSH1 0x40 PUSH0 KECCAK256 PUSH0 SWAP2 POP SWAP1 POP SLOAD DUP2 JUMP JUMPDEST PUSH1 0x1 DUP1 SLOAD PUSH2 0x269 SWAP1 PUSH2 0xA06 JUMP JUMPDEST DUP1 PUSH1 0x1F ADD PUSH1 0x20 DUP1 SWAP2 DIV MUL PUSH1 0x20 ADD PUSH1 0x40 MLOAD SWAP1 DUP2 ADD PUSH1 0x40 MSTORE DUP1 SWAP3 SWAP2 SWAP1 DUP2 DUP2 MSTORE PUSH1 0x20 ADD DUP3 DUP1 SLOAD PUSH2 0x295 SWAP1 PUSH2 0xA06 JUMP JUMPDEST DUP1 ISZERO PUSH2 0x2E0 JUMPI DUP1 PUSH1 0x1F LT PUSH2 0x2B7 JUMPI PUSH2 0x100 DUP1 DUP4 SLOAD DIV MUL DUP4 MSTORE SWAP2 PUSH1 0x20 ADD SWAP2 PUSH2 0x2E0 JUMP JUMPDEST DUP3 ADD SWAP2 SWAP1 PUSH0 MSTORE PUSH1 0x20 PUSH0 KECCAK256 SWAP1 JUMPDEST DUP2 SLOAD DUP2 MSTORE SWAP1 PUSH1 0x1 ADD SWAP1 PUSH1 0x20 ADD DUP1 DUP4 GT PUSH2 0x2C3 JUMPI DUP3 SWAP1 SUB PUSH1 0x1F AND DUP3 ADD SWAP2 JUMPDEST POP POP POP POP POP DUP2 JUMP JUMPDEST DUP3 PUSH20 0xFFFFFFFFFFFFFFFFFFFFFFFFFFFFFFFFFFFFFFFF AND PUSH1 0x5 PUSH0 DUP4 DUP2 MSTORE PUSH1 0x20 ADD SWAP1 DUP2 MSTORE PUSH1 0x20 ADD PUSH0 KECCAK256 PUSH0 SWAP1 SLOAD SWAP1 PUSH2 0x100 EXP SWAP1 DIV PUSH20 0xFFFFFFFFFFFFFFFFFFFFFFFFFFFFFFFFFFFFFFFF AND PUSH20 0xFFFFFFFFFFFFFFFFFFFFFFFFFFFFFFFFFFFFFFFF AND EQ PUSH2 0x386 JUMPI PUSH1 0x40 MLOAD PUSH32 0x8C379A000000000000000000000000000000000000000000000000000000000 DUP2 MSTORE PUSH1 0x4 ADD PUSH2 0x37D SWAP1 PUSH2 0xAA6 JUMP JUMPDEST PUSH1 0x40 MLOAD DUP1 SWAP2 SUB SWAP1 REVERT JUMPDEST DUP2 PUSH1 0x5 PUSH0 DUP4 DUP2 MSTORE PUSH1 0x20 ADD SWAP1 DUP2 MSTORE PUSH1 0x20 ADD PUSH0 KECCAK256 PUSH0 PUSH2 0x100 EXP DUP2 SLOAD DUP2 PUSH20 0xFFFFFFFFFFFFFFFFFFFFFFFFFFFFFFFFFFFFFFFF MUL NOT AND SWAP1 DUP4 PUSH20 0xFFFFFFFFFFFFFFFFFFFFFFFFFFFFFFFFFFFFFFFF AND MUL OR SWAP1 SSTORE POP PUSH1 0x1 PUSH1 0x3 PUSH0 DUP6 PUSH20 0xFFFFFFFFFFFFFFFFFFFFFFFFFFFFFFFFFFFFFFFF AND PUSH20 0xFFFFFFFFFFFFFFFFFFFFFFFFFFFFFFFFFFFFFFFF AND DUP2 MSTORE PUSH1 0x20 ADD SWAP1 DUP2 MSTORE PUSH1 0x20 ADD PUSH0 KECCAK256 PUSH0 DUP3 DUP3 SLOAD PUSH2 0x422 SWAP2 SWAP1 PUSH2 0xAF1 JUMP JUMPDEST SWAP3 POP POP DUP2 SWAP1 SSTORE POP PUSH1 0x1 PUSH1 0x3 PUSH0 DUP5 PUSH20 0xFFFFFFFFFFFFFFFFFFFFFFFFFFFFFFFFFFFFFFFF AND PUSH20 0xFFFFFFFFFFFFFFFFFFFFFFFFFFFFFFFFFFFFFFFF AND DUP2 MSTORE PUSH1 0x20 ADD SWAP1 DUP2 MSTORE PUSH1 0x20 ADD PUSH0 KECCAK256 PUSH0 DUP3 DUP3 SLOAD PUSH2 0x476 SWAP2 SWAP1 PUSH2 0xB24 JUMP JUMPDEST SWAP3 POP POP DUP2 SWAP1 SSTORE POP POP POP POP JUMP JUMPDEST PUSH1 0x60 PUSH1 0x4 PUSH0 DUP4 DUP2 MSTORE PUSH1 0x20 ADD SWAP1 DUP2 MSTORE PUSH1 0x20 ADD PUSH0 KECCAK256 DUP1 SLOAD PUSH2 0x4A0 SWAP1 PUSH2 0xA06 JUMP JUMPDEST DUP1 PUSH1 0x1F ADD PUSH1 0x20 DUP1 SWAP2 DIV MUL PUSH1 0x20 ADD PUSH1 0x40 MLOAD SWAP1 DUP2 ADD PUSH1 0x40 MSTORE DUP1 SWAP3 SWAP2 SWAP1 DUP2 DUP2 MSTORE PUSH1 0x20 ADD DUP3 DUP1 SLOAD PUSH2 0x4CC SWAP1 PUSH2 0xA06 JUMP JUMPDEST DUP1 ISZERO PUSH2 0x517 JUMPI DUP1 PUSH1 0x1F LT PUSH2 0x4EE JUMPI PUSH2 0x100 DUP1 DUP4 SLOAD DIV MUL DUP4 MSTORE SWAP2 PUSH1 0x20 ADD SWAP2 PUSH2 0x517 JUMP JUMPDEST DUP3 ADD SWAP2 SWAP1 PUSH0 MSTORE PUSH1 0x20 PUSH0 KECCAK256 SWAP1 JUMPDEST DUP2 SLOAD DUP2 MSTORE SWAP1 PUSH1 0x1 ADD SWAP1 PUSH1 0x20 ADD DUP1 DUP4 GT PUSH2 0x4FA JUMPI DUP3 SWAP1 SUB PUSH1 0x1F AND DUP3 ADD SWAP2 JUMPDEST POP POP POP POP POP SWAP1 POP SWAP2 SWAP1 POP JUMP JUMPDEST PUSH0 PUSH1 0x2 SLOAD SWAP1 POP DUP3 PUSH1 0x5 PUSH0 DUP4 DUP2 MSTORE PUSH1 0x20 ADD SWAP1 DUP2 MSTORE PUSH1 0x20 ADD PUSH0 KECCAK256 PUSH0 PUSH2 0x100 EXP DUP2 SLOAD DUP2 PUSH20 0xFFFFFFFFFFFFFFFFFFFFFFFFFFFFFFFFFFFFFFFF MUL NOT AND SWAP1 DUP4 PUSH20 0xFFFFFFFFFFFFFFFFFFFFFFFFFFFFFFFFFFFFFFFF AND MUL OR SWAP1 SSTORE POP PUSH1 0x1 PUSH1 0x3 PUSH0 DUP6 PUSH20 0xFFFFFFFFFFFFFFFFFFFFFFFFFFFFFFFFFFFFFFFF AND PUSH20 0xFFFFFFFFFFFFFFFFFFFFFFFFFFFFFFFFFFFFFFFF AND DUP2 MSTORE PUSH1 0x20 ADD SWAP1 DUP2 MSTORE PUSH1 0x20 ADD PUSH0 KECCAK256 PUSH0 DUP3 DUP3 SLOAD PUSH2 0x5C5 SWAP2 SWAP1 PUSH2 0xB24 JUMP JUMPDEST SWAP3 POP POP DUP2 SWAP1 SSTORE POP PUSH2 0x5D6 DUP2 DUP4 PUSH2 0x5F2 JUMP JUMPDEST PUSH1 0x2 PUSH0 DUP2 SLOAD DUP1 SWAP3 SWAP2 SWAP1 PUSH2 0x5E8 SWAP1 PUSH2 0xB57 JUMP JUMPDEST SWAP2 SWAP1 POP SSTORE POP POP POP POP JUMP JUMPDEST DUP1 PUSH1 0x4 PUSH0 DUP5 DUP2 MSTORE PUSH1 0x20 ADD SWAP1 DUP2 MSTORE PUSH1 0x20 ADD PUSH0 KECCAK256 SWAP1 DUP2 PUSH2 0x610 SWAP2 SWAP1 PUSH2 0xD3B JUMP JUMPDEST POP POP POP JUMP JUMPDEST PUSH0 DUP2 MLOAD SWAP1 POP SWAP2 SWAP1 POP JUMP JUMPDEST PUSH0 DUP3 DUP3 MSTORE PUSH1 0x20 DUP3 ADD SWAP1 POP SWAP3 SWAP2 POP POP JUMP JUMPDEST PUSH0 JUMPDEST DUP4 DUP2 LT ISZERO PUSH2 0x64C JUMPI DUP1 DUP3 ADD MLOAD DUP2 DUP5 ADD MSTORE PUSH1 0x20 DUP2 ADD SWAP1 POP PUSH2 0x631 JUMP JUMPDEST PUSH0 DUP5 DUP5 ADD MSTORE POP POP POP POP JUMP JUMPDEST PUSH0 PUSH1 0x1F NOT PUSH1 0x1F DUP4 ADD AND SWAP1 POP SWAP2 SWAP1 POP JUMP JUMPDEST PUSH0 PUSH2 0x671 DUP3 PUSH2 0x615 JUMP JUMPDEST PUSH2 0x67B DUP2 DUP6 PUSH2 0x61F JUMP JUMPDEST SWAP4 POP PUSH2 0x68B DUP2 DUP6 PUSH1 0x20 DUP7 ADD PUSH2 0x62F JUMP JUMPDEST PUSH2 0x694 DUP2 PUSH2 0x657 JUMP JUMPDEST DUP5 ADD SWAP2 POP POP SWAP3 SWAP2 POP POP JUMP JUMPDEST PUSH0 PUSH1 0x20 DUP3 ADD SWAP1 POP DUP2 DUP2 SUB PUSH0 DUP4 ADD MSTORE PUSH2 0x6B7 DUP2 DUP5 PUSH2 0x667 JUMP JUMPDEST SWAP1 POP SWAP3 SWAP2 POP POP JUMP JUMPDEST PUSH0 PUSH1 0x40 MLOAD SWAP1 POP SWAP1 JUMP JUMPDEST PUSH0 DUP1 REVERT JUMPDEST PUSH0 DUP1 REVERT JUMPDEST PUSH0 DUP2 SWAP1 POP SWAP2 SWAP1 POP JUMP JUMPDEST PUSH2 0x6E2 DUP2 PUSH2 0x6D0 JUMP JUMPDEST DUP2 EQ PUSH2 0x6EC JUMPI PUSH0 DUP1 REVERT JUMPDEST POP JUMP JUMPDEST PUSH0 DUP2 CALLDATALOAD SWAP1 POP PUSH2 0x6FD DUP2 PUSH2 0x6D9 JUMP JUMPDEST SWAP3 SWAP2 POP POP JUMP JUMPDEST PUSH0 PUSH1 0x20 DUP3 DUP5 SUB SLT ISZERO PUSH2 0x718 JUMPI PUSH2 0x717 PUSH2 0x6C8 JUMP JUMPDEST JUMPDEST PUSH0 PUSH2 0x725 DUP5 DUP3 DUP6 ADD PUSH2 0x6EF JUMP JUMPDEST SWAP2 POP POP SWAP3 SWAP2 POP POP JUMP JUMPDEST PUSH0 PUSH20 0xFFFFFFFFFFFFFFFFFFFFFFFFFFFFFFFFFFFFFFFF DUP3 AND SWAP1 POP SWAP2 SWAP1 POP JUMP JUMPDEST PUSH0 PUSH2 0x757 DUP3 PUSH2 0x72E JUMP JUMPDEST SWAP1 POP SWAP2 SWAP1 POP JUMP JUMPDEST PUSH2 0x767 DUP2 PUSH2 0x74D JUMP JUMPDEST DUP3 MSTORE POP POP JUMP JUMPDEST PUSH0 PUSH1 0x20 DUP3 ADD SWAP1 POP PUSH2 0x780 PUSH0 DUP4 ADD DUP5 PUSH2 0x75E JUMP JUMPDEST SWAP3 SWAP2 POP POP JUMP JUMPDEST PUSH2 0x78F DUP2 PUSH2 0x74D JUMP JUMPDEST DUP2 EQ PUSH2 0x799 JUMPI PUSH0 DUP1 REVERT JUMPDEST POP JUMP JUMPDEST PUSH0 DUP2 CALLDATALOAD SWAP1 POP PUSH2 0x7AA DUP2 PUSH2 0x786 JUMP JUMPDEST SWAP3 SWAP2 POP POP JUMP JUMPDEST PUSH0 PUSH1 0x20 DUP3 DUP5 SUB SLT ISZERO PUSH2 0x7C5 JUMPI PUSH2 0x7C4 PUSH2 0x6C8 JUMP JUMPDEST JUMPDEST PUSH0 PUSH2 0x7D2 DUP5 DUP3 DUP6 ADD PUSH2 0x79C JUMP JUMPDEST SWAP2 POP POP SWAP3 SWAP2 POP POP JUMP JUMPDEST PUSH2 0x7E4 DUP2 PUSH2 0x6D0 JUMP JUMPDEST DUP3 MSTORE POP POP JUMP JUMPDEST PUSH0 PUSH1 0x20 DUP3 ADD SWAP1 POP PUSH2 0x7FD PUSH0 DUP4 ADD DUP5 PUSH2 0x7DB JUMP JUMPDEST SWAP3 SWAP2 POP POP JUMP JUMPDEST PUSH0 DUP1 PUSH0 PUSH1 0x60 DUP5 DUP7 SUB SLT ISZERO PUSH2 0x81A JUMPI PUSH2 0x819 PUSH2 0x6C8 JUMP JUMPDEST JUMPDEST PUSH0 PUSH2 0x827 DUP7 DUP3 DUP8 ADD PUSH2 0x79C JUMP JUMPDEST SWAP4 POP POP PUSH1 0x20 PUSH2 0x838 DUP7 DUP3 DUP8 ADD PUSH2 0x79C JUMP JUMPDEST SWAP3 POP POP PUSH1 0x40 PUSH2 0x849 DUP7 DUP3 DUP8 ADD PUSH2 0x6EF JUMP JUMPDEST SWAP2 POP POP SWAP3 POP SWAP3 POP SWAP3 JUMP JUMPDEST PUSH0 DUP1 REVERT JUMPDEST PUSH0 DUP1 REVERT JUMPDEST PUSH32 0x4E487B7100000000000000000000000000000000000000000000000000000000 PUSH0 MSTORE PUSH1 0x41 PUSH1 0x4 MSTORE PUSH1 0x24 PUSH0 REVERT JUMPDEST PUSH2 0x891 DUP3 PUSH2 0x657 JUMP JUMPDEST DUP2 ADD DUP2 DUP2 LT PUSH8 0xFFFFFFFFFFFFFFFF DUP3 GT OR ISZERO PUSH2 0x8B0 JUMPI PUSH2 0x8AF PUSH2 0x85B JUMP JUMPDEST JUMPDEST DUP1 PUSH1 0x40 MSTORE POP POP POP JUMP JUMPDEST PUSH0 PUSH2 0x8C2 PUSH2 0x6BF JUMP JUMPDEST SWAP1 POP PUSH2 0x8CE DUP3 DUP3 PUSH2 0x888 JUMP JUMPDEST SWAP2 SWAP1 POP JUMP JUMPDEST PUSH0 PUSH8 0xFFFFFFFFFFFFFFFF DUP3 GT ISZERO PUSH2 0x8ED JUMPI PUSH2 0x8EC PUSH2 0x85B JUMP JUMPDEST JUMPDEST PUSH2 0x8F6 DUP3 PUSH2 0x657 JUMP JUMPDEST SWAP1 POP PUSH1 0x20 DUP2 ADD SWAP1 POP SWAP2 SWAP1 POP JUMP JUMPDEST DUP3 DUP2 DUP4 CALLDATACOPY PUSH0 DUP4 DUP4 ADD MSTORE POP POP POP JUMP JUMPDEST PUSH0 PUSH2 0x923 PUSH2 0x91E DUP5 PUSH2 0x8D3 JUMP JUMPDEST PUSH2 0x8B9 JUMP JUMPDEST SWAP1 POP DUP3 DUP2 MSTORE PUSH1 0x20 DUP2 ADD DUP5 DUP5 DUP5 ADD GT ISZERO PUSH2 0x93F JUMPI PUSH2 0x93E PUSH2 0x857 JUMP JUMPDEST JUMPDEST PUSH2 0x94A DUP5 DUP3 DUP6 PUSH2 0x903 JUMP JUMPDEST POP SWAP4 SWAP3 POP POP POP JUMP JUMPDEST PUSH0 DUP3 PUSH1 0x1F DUP4 ADD SLT PUSH2 0x966 JUMPI PUSH2 0x965 PUSH2 0x853 JUMP JUMPDEST JUMPDEST DUP2 CALLDATALOAD PUSH2 0x976 DUP5 DUP3 PUSH1 0x20 DUP7 ADD PUSH2 0x911 JUMP JUMPDEST SWAP2 POP POP SWAP3 SWAP2 POP POP JUMP JUMPDEST PUSH0 DUP1 PUSH1 0x40 DUP4 DUP6 SUB SLT ISZERO PUSH2 0x995 JUMPI PUSH2 0x994 PUSH2 0x6C8 JUMP JUMPDEST JUMPDEST PUSH0 PUSH2 0x9A2 DUP6 DUP3 DUP7 ADD PUSH2 0x79C JUMP JUMPDEST SWAP3 POP POP PUSH1 0x20 DUP4 ADD CALLDATALOAD PUSH8 0xFFFFFFFFFFFFFFFF DUP2 GT ISZERO PUSH2 0x9C3 JUMPI PUSH2 0x9C2 PUSH2 0x6CC JUMP JUMPDEST JUMPDEST PUSH2 0x9CF DUP6 DUP3 DUP7 ADD PUSH2 0x952 JUMP JUMPDEST SWAP2 POP POP SWAP3 POP SWAP3 SWAP1 POP JUMP JUMPDEST PUSH32 0x4E487B7100000000000000000000000000000000000000000000000000000000 PUSH0 MSTORE PUSH1 0x22 PUSH1 0x4 MSTORE PUSH1 0x24 PUSH0 REVERT JUMPDEST PUSH0 PUSH1 0x2 DUP3 DIV SWAP1 POP PUSH1 0x1 DUP3 AND DUP1 PUSH2 0xA1D JUMPI PUSH1 0x7F DUP3 AND SWAP2 POP JUMPDEST PUSH1 0x20 DUP3 LT DUP2 SUB PUSH2 0xA30 JUMPI PUSH2 0xA2F PUSH2 0x9D9 JUMP JUMPDEST JUMPDEST POP SWAP2 SWAP1 POP JUMP JUMPDEST PUSH32 0x4552433430343A207472616E73666572206F6620746F6B656E20746861742069 PUSH0 DUP3 ADD MSTORE PUSH32 0x73206E6F74206F776E65642062792073656E6465720000000000000000000000 PUSH1 0x20 DUP3 ADD MSTORE POP JUMP JUMPDEST PUSH0 PUSH2 0xA90 PUSH1 0x35 DUP4 PUSH2 0x61F JUMP JUMPDEST SWAP2 POP PUSH2 0xA9B DUP3 PUSH2 0xA36 JUMP JUMPDEST PUSH1 0x40 DUP3 ADD SWAP1 POP SWAP2 SWAP1 POP JUMP JUMPDEST PUSH0 PUSH1 0x20 DUP3 ADD SWAP1 POP DUP2 DUP2 SUB PUSH0 DUP4 ADD MSTORE PUSH2 0xABD DUP2 PUSH2 0xA84 JUMP JUMPDEST SWAP1 POP SWAP2 SWAP1 POP JUMP JUMPDEST PUSH32 0x4E487B7100000000000000000000000000000000000000000000000000000000 PUSH0 MSTORE PUSH1 0x11 PUSH1 0x4 MSTORE PUSH1 0x24 PUSH0 REVERT JUMPDEST PUSH0 PUSH2 0xAFB DUP3 PUSH2 0x6D0 JUMP JUMPDEST SWAP2 POP PUSH2 0xB06 DUP4 PUSH2 0x6D0 JUMP JUMPDEST SWAP3 POP DUP3 DUP3 SUB SWAP1 POP DUP2 DUP2 GT ISZERO PUSH2 0xB1E JUMPI PUSH2 0xB1D PUSH2 0xAC4 JUMP JUMPDEST JUMPDEST SWAP3 SWAP2 POP POP JUMP JUMPDEST PUSH0 PUSH2 0xB2E DUP3 PUSH2 0x6D0 JUMP JUMPDEST SWAP2 POP PUSH2 0xB39 DUP4 PUSH2 0x6D0 JUMP JUMPDEST SWAP3 POP DUP3 DUP3 ADD SWAP1 POP DUP1 DUP3 GT ISZERO PUSH2 0xB51 JUMPI PUSH2 0xB50 PUSH2 0xAC4 JUMP JUMPDEST JUMPDEST SWAP3 SWAP2 POP POP JUMP JUMPDEST PUSH0 PUSH2 0xB61 DUP3 PUSH2 0x6D0 JUMP JUMPDEST SWAP2 POP PUSH32 0xFFFFFFFFFFFFFFFFFFFFFFFFFFFFFFFFFFFFFFFFFFFFFFFFFFFFFFFFFFFFFFFF DUP3 SUB PUSH2 0xB93 JUMPI PUSH2 0xB92 PUSH2 0xAC4 JUMP JUMPDEST JUMPDEST PUSH1 0x1 DUP3 ADD SWAP1 POP SWAP2 SWAP1 POP JUMP JUMPDEST PUSH0 DUP2 SWAP1 POP DUP2 PUSH0 MSTORE PUSH1 0x20 PUSH0 KECCAK256 SWAP1 POP SWAP2 SWAP1 POP JUMP JUMPDEST PUSH0 PUSH1 0x20 PUSH1 0x1F DUP4 ADD DIV SWAP1 POP SWAP2 SWAP1 POP JUMP JUMPDEST PUSH0 DUP3 DUP3 SHL SWAP1 POP SWAP3 SWAP2 POP POP JUMP JUMPDEST PUSH0 PUSH1 0x8 DUP4 MUL PUSH2 0xBFA PUSH32 0xFFFFFFFFFFFFFFFFFFFFFFFFFFFFFFFFFFFFFFFFFFFFFFFFFFFFFFFFFFFFFFFF DUP3 PUSH2 0xBBF JUMP JUMPDEST PUSH2 0xC04 DUP7 DUP4 PUSH2 0xBBF JUMP JUMPDEST SWAP6 POP DUP1 NOT DUP5 AND SWAP4 POP DUP1 DUP7 AND DUP5 OR SWAP3 POP POP POP SWAP4 SWAP3 POP POP POP JUMP JUMPDEST PUSH0 DUP2 SWAP1 POP SWAP2 SWAP1 POP JUMP JUMPDEST PUSH0 PUSH2 0xC3F PUSH2 0xC3A PUSH2 0xC35 DUP5 PUSH2 0x6D0 JUMP JUMPDEST PUSH2 0xC1C JUMP JUMPDEST PUSH2 0x6D0 JUMP JUMPDEST SWAP1 POP SWAP2 SWAP1 POP JUMP JUMPDEST PUSH0 DUP2 SWAP1 POP SWAP2 SWAP1 POP JUMP JUMPDEST PUSH2 0xC58 DUP4 PUSH2 0xC25 JUMP JUMPDEST PUSH2 0xC6C PUSH2 0xC64 DUP3 PUSH2 0xC46 JUMP JUMPDEST DUP5 DUP5 SLOAD PUSH2 0xBCB JUMP JUMPDEST DUP3 SSTORE POP POP POP POP JUMP JUMPDEST PUSH0 SWAP1 JUMP JUMPDEST PUSH2 0xC80 PUSH2 0xC74 JUMP JUMPDEST PUSH2 0xC8B DUP2 DUP5 DUP5 PUSH2 0xC4F JUMP JUMPDEST POP POP POP JUMP JUMPDEST JUMPDEST DUP2 DUP2 LT ISZERO PUSH2 0xCAE JUMPI PUSH2 0xCA3 PUSH0 DUP3 PUSH2 0xC78 JUMP JUMPDEST PUSH1 0x1 DUP2 ADD SWAP1 POP PUSH2 0xC91 JUMP JUMPDEST POP POP JUMP JUMPDEST PUSH1 0x1F DUP3 GT ISZERO PUSH2 0xCF3 JUMPI PUSH2 0xCC4 DUP2 PUSH2 0xB9E JUMP JUMPDEST PUSH2 0xCCD DUP5 PUSH2 0xBB0 JUMP JUMPDEST DUP2 ADD PUSH1 0x20 DUP6 LT ISZERO PUSH2 0xCDC JUMPI DUP2 SWAP1 POP JUMPDEST PUSH2 0xCF0 PUSH2 0xCE8 DUP6 PUSH2 0xBB0 JUMP JUMPDEST DUP4 ADD DUP3 PUSH2 0xC90 JUMP JUMPDEST POP POP JUMPDEST POP POP POP JUMP JUMPDEST PUSH0 DUP3 DUP3 SHR SWAP1 POP SWAP3 SWAP2 POP POP JUMP JUMPDEST PUSH0 PUSH2 0xD13 PUSH0 NOT DUP5 PUSH1 0x8 MUL PUSH2 0xCF8 JUMP JUMPDEST NOT DUP1 DUP4 AND SWAP2 POP POP SWAP3 SWAP2 POP POP JUMP JUMPDEST PUSH0 PUSH2 0xD2B DUP4 DUP4 PUSH2 0xD04 JUMP JUMPDEST SWAP2 POP DUP3 PUSH1 0x2 MUL DUP3 OR SWAP1 POP SWAP3 SWAP2 POP POP JUMP JUMPDEST PUSH2 0xD44 DUP3 PUSH2 0x615 JUMP JUMPDEST PUSH8 0xFFFFFFFFFFFFFFFF DUP2 GT ISZERO PUSH2 0xD5D JUMPI PUSH2 0xD5C PUSH2 0x85B JUMP JUMPDEST JUMPDEST PUSH2 0xD67 DUP3 SLOAD PUSH2 0xA06 JUMP JUMPDEST PUSH2 0xD72 DUP3 DUP3 DUP6 PUSH2 0xCB2 JUMP JUMPDEST PUSH0 PUSH1 0x20 SWAP1 POP PUSH1 0x1F DUP4 GT PUSH1 0x1 DUP2 EQ PUSH2 0xDA3 JUMPI PUSH0 DUP5 ISZERO PUSH2 0xD91 JUMPI DUP3 DUP8 ADD MLOAD SWAP1 POP JUMPDEST PUSH2 0xD9B DUP6 DUP3 PUSH2 0xD20 JUMP JUMPDEST DUP7 SSTORE POP PUSH2 0xE02 JUMP JUMPDEST PUSH1 0x1F NOT DUP5 AND PUSH2 0xDB1 DUP7 PUSH2 0xB9E JUMP JUMPDEST PUSH0 JUMPDEST DUP3 DUP2 LT ISZERO PUSH2 0xDD8 JUMPI DUP5 DUP10 ADD MLOAD DUP3 SSTORE PUSH1 0x1 DUP3 ADD SWAP2 POP PUSH1 0x20 DUP6 ADD SWAP5 POP PUSH1 0x20 DUP2 ADD SWAP1 POP PUSH2 0xDB3 JUMP JUMPDEST DUP7 DUP4 LT ISZERO PUSH2 0xDF5 JUMPI DUP5 DUP10 ADD MLOAD PUSH2 0xDF1 PUSH1 0x1F DUP10 AND DUP3 PUSH2 0xD04 JUMP JUMPDEST DUP4 SSTORE POP JUMPDEST PUSH1 0x1 PUSH1 0x2 DUP9 MUL ADD DUP9 SSTORE POP POP POP JUMPDEST POP POP POP POP POP POP JUMP INVALID LOG2 PUSH5 0x6970667358 0x22 SLT KECCAK256 0xBB LOG4 0x5D PUSH4 0x12099F52 PUSH27 0x807AA562FACA5C48D4F7225D7B79CE552F3686B57DF01864736F6C PUSH4 0x43000816 STOP CALLER "
				},
				"gasEstimates": {
					"creation": {
						"codeDepositCost": "729600",
						"executionCost": "infinite",
						"totalCost": "infinite"
					},
					"external": {
						"balanceOf(address)": "2847",
						"mint(address,string)": "infinite",
						"name()": "infinite",
						"ownerOf(uint256)": "2875",
						"symbol()": "infinite",
						"tokenURI(uint256)": "infinite",
						"transfer(address,address,uint256)": "infinite"
					},
					"internal": {
						"_setTokenURI(uint256,string memory)": "infinite"
					}
				},
				"methodIdentifiers": {
					"balanceOf(address)": "70a08231",
					"mint(address,string)": "d0def521",
					"name()": "06fdde03",
					"ownerOf(uint256)": "6352211e",
					"symbol()": "95d89b41",
					"tokenURI(uint256)": "c87b56dd",
					"transfer(address,address,uint256)": "beabacc8"
				}
			},
			"storageLayout": {
				"storage": [
					{
						"astId": 3,
						"contract": "contracts/terc404.sol:My404",
						"label": "name",
						"offset": 0,
						"slot": "0",
						"type": "t_string_storage"
					},
					{
						"astId": 5,
						"contract": "contracts/terc404.sol:My404",
						"label": "symbol",
						"offset": 0,
						"slot": "1",
						"type": "t_string_storage"
					},
					{
						"astId": 29,
						"contract": "contracts/terc404.sol:My404",
						"label": "_tokenIdCounter",
						"offset": 0,
						"slot": "2",
						"type": "t_uint256"
					},
					{
						"astId": 33,
						"contract": "contracts/terc404.sol:My404",
						"label": "balanceOf",
						"offset": 0,
						"slot": "3",
						"type": "t_mapping(t_address,t_uint256)"
					},
					{
						"astId": 37,
						"contract": "contracts/terc404.sol:My404",
						"label": "_tokenURIs",
						"offset": 0,
						"slot": "4",
						"type": "t_mapping(t_uint256,t_string_storage)"
					},
					{
						"astId": 41,
						"contract": "contracts/terc404.sol:My404",
						"label": "_owners",
						"offset": 0,
						"slot": "5",
						"type": "t_mapping(t_uint256,t_address)"
					}
				],
				"types": {
					"t_address": {
						"encoding": "inplace",
						"label": "address",
						"numberOfBytes": "20"
					},
					"t_mapping(t_address,t_uint256)": {
						"encoding": "mapping",
						"key": "t_address",
						"label": "mapping(address => uint256)",
						"numberOfBytes": "32",
						"value": "t_uint256"
					},
					"t_mapping(t_uint256,t_address)": {
						"encoding": "mapping",
						"key": "t_uint256",
						"label": "mapping(uint256 => address)",
						"numberOfBytes": "32",
						"value": "t_address"
					},
					"t_mapping(t_uint256,t_string_storage)": {
						"encoding": "mapping",
						"key": "t_uint256",
						"label": "mapping(uint256 => string)",
						"numberOfBytes": "32",
						"value": "t_string_storage"
					},
					"t_string_storage": {
						"encoding": "bytes",
						"label": "string",
						"numberOfBytes": "32"
					},
					"t_uint256": {
						"encoding": "inplace",
						"label": "uint256",
						"numberOfBytes": "32"
					}
				}
			},
			"userdoc": {
				"kind": "user",
				"methods": {},
				"version": 1
			}
		}
	}
}